:020000040800F2
:20100000002000201D4C0008A14A0008A54A00080000000000000000000000000000000035
:20102000000000000000000000000000A94A00080000000000000000AD4A0008B14A0008B3
:201040006D4C00086D4C00086D4C00086D4C00086D4C00086D4C00086D4C00086D4C000888
:201060006D4C0008C94B0008B54A0008F54A00082D4B0008F14B00086D4C00086D4C0008FF
:20108000A54B0008494B000800000000654B0008814B0008794B00086D4C00086D4C0008E2
:2010A0006D4C00086D4C00086D4C00087D4B00086D4C0008000000006D4C0008000000009B
:2010C00010B5064C2378002B07D1054B002B02D0044800E000BF0123237010BDE00100209E
:2010E00000000000C84C0008044B10B5002B03D00349044800E000BF10BDC04600000000B8
:20110000E4010020C84C0008002243088B4274D303098B425FD3030A8B4244D3030B8B4256
:2011200028D3030C8B420DD3FF22090212BA030C8B4202D31212090265D0030B8B4219D324
:2011400000E0090AC30B8B4201D3CB03C01A5241830B8B4201D38B03C01A5241430B8B42AD
:2011600001D34B03C01A5241030B8B4201D30B03C01A5241C30A8B4201D3CB02C01A52410E
:20118000830A8B4201D38B02C01A5241430A8B4201D34B02C01A5241030A8B4201D30B02C4
:2011A000C01A5241CDD2C3098B4201D3CB01C01A524183098B4201D38B01C01A524143090B
:2011C0008B4201D34B01C01A524103098B4201D30B01C01A5241C3088B4201D3CB00C01A7E
:2011E000524183088B4201D38B00C01A524143088B4201D34B00C01A5241411A00D2014620
:20120000524110467047FFE701B5002000F0F0F802BDC0460029F7D076E7704703460B433A
:201220007FD4002243088B4274D303098B425FD3030A8B4244D3030B8B4228D3030C8B422C
:201240000DD3FF22090212BA030C8B4202D31212090265D0030B8B4219D300E0090AC30B19
:201260008B4201D3CB03C01A5241830B8B4201D38B03C01A5241430B8B4201D34B03C01A51
:201280005241030B8B4201D30B03C01A5241C30A8B4201D3CB02C01A5241830A8B4201D3BB
:2012A0008B02C01A5241430A8B4201D34B02C01A5241030A8B4201D30B02C01A5241CDD2C5
:2012C000C3098B4201D3CB01C01A524183098B4201D38B01C01A524143098B4201D34B0109
:2012E000C01A524103098B4201D30B01C01A5241C3088B4201D3CB00C01A524183088B425F
:2013000001D38B00C01A524143088B4201D34B00C01A5241411A00D2014652411046704749
:201320005DE0CA0F00D04942031000D34042534000229C4603098B422DD3030A8B4212D3A5
:20134000FC22890112BA030A8B420CD3890192118B4208D3890192118B4204D389013AD026
:20136000921100E08909C3098B4201D3CB01C01A524183098B4201D38B01C01A5241430940
:201380008B4201D34B01C01A524103098B4201D30B01C01A5241C3088B4201D3CB00C01ABC
:2013A000524183088B4201D38B00C01A5241D9D243088B4201D34B00C01A5241411A00D2FA
:2013C0000146634652415B10104601D34042002B00D54942704763465B1000D3404201B512
:2013E000002000F005F802BD0029F8D016E770477047C0468368020010B50120DB0710D426
:201400008C684B68D0682343CC6809682343054C204003430020D36013699B009B080B432A
:20142000136110BDC73FFFFF8368020010B50120DB070ED44C680B68D06823438C682343B1
:20144000CC68096923430B430249014000200B43D36010BD3CC2FEFF154B30B5C21880237B
:20146000D2001B029340134D2C681C40A34215D00C684B6823438C682343CC6823430C699A
:20148000496923430B439340A84209D00A4829689040814300200B432B6030BD0120FCE7EF
:2014A000064C01689440A1430B4303600020F4E7E4FFFEBF1C0001407C3F00007E3F000098
:2014C000F0B54E464546DE4657464B68E0B59C4601230E685B4283B0634401919846002EAE
:2014E0004AD0002207E0C3681C403C43C46033000132D34040D0012393403340F7D01D00C8
:2015000004685D43A1466C0064194F46E4432740B94667466F43BA464F4651460F43019956
:2015200007600F6941466F43B9460129DBD881688B460199896869438A46594621408B4625
:2015400051465F4639438160C1680C4049460C436146C4600229CAD101994C69FF2B1DD8A0
:201560006D432901491B6543036A01328B431D4333000562D340BED14346012B06D8019A4D
:201580004368D268B34356431E434660002003B03CBC90469946A246AB46F0BD1B0A5B4307
:2015A0005B435C43456A1901C91A8D432C4344629DE7C0460A4A70B50F249446094B586839
:2015C000D96AC003C01710402140604401315D68FFF79AFDAD0C2C400234604370BDC04624
:2015E00000093D00001002400E4B10B55A680C2304001340082B12D1FFF7DCFF094A206033
:20160000536809491B061B0FCB5CD84060605368064A5B055B0FD35CD840A06010BD04483E
:20162000ECE7C04600100240045300081453000800127A00030010B50020002B1DD11D4BBC
:2016400003301A6B1040022818D0032821D05A680C231340012817D0082B26D1FFF7AAFF37
:20166000144B15495A685B681206120F8A5C5B05D040124A5B0FD35CD84010BD1B6A1840E2
:20168000431E9841C003F8E7082B10D1FFF792FFF3E702201B68184043425841084B404209
:2016A0001840084B9C466044E7E70648D8E70548E3E7C046001002400453000814530008E1
:2016C00000EE85FF00127A00234A30B503688D680C8890422FD08022D205904212D01F4A5F
:2016E00090420FD01E4A904231D01E4A904226D01D4A904223D01D4A904220D00360C562EF
:20170000846212E0702293434A681343184A1340CA6813430360144BC5628462984202D0C9
:20172000124B984201D10B7C03630122436913434361002030BD702293434A6813430C4A17
:201740001340CA6813430360C5628462EBE7084A1340CA681343D1E7002C014000040040D6
:2017600000200040004001400044014000480140FFFCFFFF70B5102900D1ADE070D98023D9
:201780005B00994231D080235B01994200D0A1E0016A704E704C31400162036A4568C169EA
:2017A0002140146824020C436C49194013691B030B435168334009030B436949884208D007
:2017C0006849884205D06849884202D06749884204D167490D40916989010D43D26845606D
:2017E000C46102640362002075E07324016A614E31400162036A4168C569A54314682543EF
:201800005D4C1C4013691B0223435468334024022343534CA04208D0524CA04205D0524CBD
:20182000A04202D0514CA04213D1544E544C1E4053699B023343474E234094680E409169E6
:20184000A40223430901454C31432140D46966013143D2684160C561C263036200203AE02F
:20186000012937D17326036A8B430362036A44688569B543166835430226B34316693343F5
:201880008B4351680B433649884208D03549884205D03549884202D03449884213D10821C7
:2018A0008B43190053699B000B4304218B43916889000B432F490C4091690C432E490C4009
:2018C000D16949000C43D2684460856142630362002000E0012070BD036A1F4D8B4303620E
:2018E000036A466884692C4015682D022C432025AB431D0013691B012B438B4351680D016E
:2019000017492B43884208D01649884205D01649884202D01549884214D180218B431D00C5
:20192000536940399B012B438B4391688D0114492B430E409169114D890031432940D569FE
:20194000EE000E43D26846608461826303620020C1E7C046FFEFFFFFFF8CFFFFFFDFFFFF1A
:20196000002C0140004001400044014000480140FFBFFFFFFFFEFFFFFFFDFFFFFFF7FFFFC6
:20198000FFFBFFFF8A680B7B13430D4A13404A6813430C4A13400A6813430B4A1A40CB895B
:2019A00013430A4A13400A691343094A13404A69084913430B401343436400207047C0463C
:2019C000FFFBFFFFFFF7FFFFFFEFFFFFFFDFFFFFFFBFFFFFFF7FFFFF30B5036885B0040092
:2019E0000D00DB071DD44B68C96802680B4329690B43A9690B4320490A4013430360436814
:201A00001E4A1340AA681343436083681C4A13406A69134383601B4B984205D01A4B9842FC
:201A200018D0012005B030BD0020FFF703FE0028F7D029680029F4D08022AD694B08120258
:201A400095420CD0C018FFF75FFB0004000CE0600020E7E701A8FFF7C7FD0398E7E7400061
:201A6000C018FFF751FB094B03400007400F1843E0600020D6E7C046F369FFFFFFCFFFFFBB
:201A8000FFFCFFFF0038014000440040F0FF0000FA2110B58900FFF737FB0022034B013827
:201AA00058609A6005321A6010BDC04610E000E0014B18607047C046DC010020054B064A02
:201AC000998811801988054A11805A88044B1A807047C046F0020020D80400201C030020FE
:201AE000EC040020C220124B80001A5811491140C02212020A431A508022032192001A607B
:201B00000D4B0E4A9A600E4ADA605A68120C12040A435A601A6801390A431A601A68063150
:201B20000A431A601A6807390A431A607047C04600E100E0FF00FFFF0800024040240140EB
:201B4000F00200200023124A82B0019393681149194080231B060B4393609368002BFCDB7E
:201B600001230193019B002B05D0019B013B0193019B002BF9D1064A064993680B4001210D
:201B80000B43936013681942FCD002B07047C04600240140E8FFFF7FF0B593B010220021EE
:201BA00003A803F089F81422002107A803F084F8102200210EA803F07FF88020404B800073
:201BC00099699024014399618021082603259A69890202400292029A5A69E4050A435A6166
:201BE0005B6920000B4001930CA9019B40270D950C96FFF765FC0D9500250CA920000C9790
:201C00001095FFF75DFC2F4B2F491A682F4C0A401A601A682E4920000A4020211A601A687D
:201C20000A431A601A686031BA431A601A680A431A601A6827491140802252000A431A600C
:201C40001A68254911408022D2000A431A60A36A22493343A362A36A3B43A3628023A26AD6
:201C60005B021343A3620B681D4A1A4080231B0413430B60802303A91B06039304950595BC
:201C80000695FFF7B7FB012307A920000A930795089509950B95FFF7C7FB04220721E368A8
:201CA0009343E36063698B4301390B4363616368934363606368B343636013B0F0BDC046C7
:201CC0000010024008000240EFBFFFFF00240140FFCFFFFFFFFCFFFFFFF3FFFF0827014032
:201CE000FFFF3FFEF0B5DE4657464E464546864A86481368D16FE0B5C91A0160844889B0ED
:201D0000844661443A295BD81000824F8030390000E0136854680832E31A5B0908C19042A7
:201D2000F7D178693A6904000790B86901920590F86A7A6884460392BA68396A3B680492D2
:201D4000019A029106935340029ABD6A5340DA00039B796A6340A8464B40FD689B00134306
:201D60002A006046FE697240424013430598049A42404046424052001343786B3A6B80002D
:201D8000D2000243F86BBF6B02437F003A43624FDBB23878D2B28146604882460078834674
:201DA0004846002813D15846002813D10F30801A834263D09A4214D0594A13680133136089
:201DC00009B03CBC90469946A246AB46F0BD58460028EFD00F2082465046821AD2B29A4209
:201DE000EAD100224F4B1A604F4A1368013313606346012B02D162464C4B1A70069B039A88
:201E00009B025202134342461343049AED011002019A03432B439501079A2B435201134362
:201E2000059AF60014011C43029B26439B001E43490031432F2914DC4B1E2E2B17D80022BF
:201E40003B4B3C4C1A6021603B4B1B68002BB7D14B46002BB4D015291CD8384A8B00D35813
:201E60009F460022324B1960324B1A60A8E7002944D12F4B19602F4B1960A1E70120834649
:201E800050465C460470A5E72D4B1A7801239B1A2C4A13602C4B19700023236090E70022FF
:201EA000274B1A7002F078FD2168F3E70122244B1A7002F09FFD2168ECE7214B1A78214BEC
:201EC0001A60E7E702F0C2FD2168E3E700F0F8F9FEE701221D4B1A7002F08CFD00231C4AD7
:201EE0003B7013602168D5E70025184B1D7002F053FD174B3D701D602168CBE70D4C21687F
:201F00000029A1DC5CE7C046500300207002002045FBFFFFFC01002048020020780200206E
:201F20006C020020CC02002074020020C8020020B802002024030020C4020020E04C00086A
:201F40006A02002004010020B502002058020020E8020020294B70B51B68002B0DD0284BDE
:201F60001A680F231100194101290AD0013B082BF8D1002323490B6006E0234A204B1A60D4
:201F8000EFE72049083B0B601A4159020A4393B2180A190941404B400F21080098430300A6
:201FA00012011343194A18131360194A194E145C08001840105CE4030443181208401B11E5
:201FC0000B40105CD35C800204435B011C43124B30001C604023243033620431012500E007
:201FE00004302A008A402240CA409B0953409B0103600139F4D20023F36170BDC40200208D
:20200000200300203C020020FFFF0000F8020020384D00080C010020FC020020F0B5CE4676
:20202000474680B585B016006A46CB0F59184B1098465B0099460833DB08DB00D31A00AF90
:202040009D466D46040042460021280002F034FE4346002B0CDD4B4629002000E4184278C4
:2020600003781202134302300B800231A042F6D1434601212D4A7B60D3681942FCD1136906
:202080001B0605D52A4B1B6853602A4B1B685360B30516D10221254B1A690A431A615E61B3
:2020A0001A693E310A431A613F39DA681142FCD12022D9680A4236D102211C4A13698B43E3
:2020C00013610023BB60FB60FB687A689A421FD901212020154A13690B431361FC68BB6854
:2020E0006400645B9B191C80D3681942FCD1D368184200D0D06013698B431361BB6802335F
:20210000BB60FB680133FB60FC687B689C42E2D38021BD46054A13690B43136105B00CBC2A
:2021200090469946F0BDDA60C6E7C04600200240C0000020C4000020002A06DD5218401A59
:202140000B78435401319142FAD17047F8B5474C302247492000FFF7EFFF637C012B00D1DC
:2021600074E00022434B1A70A37C434F012B00D000233B70E37C012B00D170E03F4D237D7E
:202180003F4E012B00D000233370637D012B63D000223C4B1A70A37D012B5AD000223A4B61
:2021A0001A70E37D032B4DD8384A1370227E183AD3B2182B34D9364B364A1380364AD362CD
:2021C000637E1A00323A642A24D8344A5B0812780A339A182A60324A13802823A57E642128
:2021E0005D43304B14351D80E27E2F4B28001A70FEF78AFF2D4B80B2186032212800FEF742
:2022000083FF2B4B80B2143018603378002B00D13B70F8BD962355222B60214B1A80DCE74D
:202220009005801A8001801840008018C0001821FEF7F4FF164B9C461E4B60441880164B54
:20224000D862BDE70222114B1A70AFE7094A13708AE70D4A1370A4E70A4A13709BE7164A9B
:20226000064D1370154B1B682B6088E780020020007C00086A02002058020020A0010020BE
:20228000E6000020CC000020C8010020CD000020CF070000D4010020002C0140BC01002061
:2022A000A4010020A6010020A80100208C01002084010020CA000020DC020020B4010020BA
:2022C00010B5164B16481B78012B00D000234374144B1B78012B00D000238374124B1B7819
:2022E000012B00D00023C374104B1B78012B00D0002303750E4B1B78012B00D00023437540
:202300000C4B1B78012B00D0002383750A4B0B4A1B783021C375FFF781FE10BD6A02002028
:202320008002002058020020DC020020E6000020CC000020C8010020CD000020007C000837
:2023400000B51B4B1B4883B01B4A9A1802CB11608342F9D101230320184A916919439161F7
:20236000926913400193019B154B196881431960FA211A68890002431A60124B1868FEF70A
:20238000C3FE114B0138984200D9FEE7C0210F4A090650600E48036A1B021B0A0B4303629E
:2023A000002393600733136062B603B000BDC04600100008C010000800F0FF170010024084
:2023C00000000140DC010020FFFFFF0010E000E000ED00E000220121084B5A62084A9A6284
:2023E0005A690A435A615A6A8242FCD32F2201219A625A690A435A617047C046004801403B
:202400007FBB0000104A114913680B4010210B43136080220E4B5202D9680A43DA60DA68BD
:202420000C490A40DA6060220B4B01219A615D3A1A620A4A12789A623D22DA62084A117073
:202440005A690A435A61704758000240EFBFFFFF00100240FFFFFEFF0040014000050020C1
:20246000BF0200200F4A104913680B40136080220E4B5202D9680A43DA60DA680C490A4098
:20248000DA6001210A220B4B99611A620A4A12789A620A4ADA625A690A435A610022084B3E
:2024A0001A70704758000240EFBFFFFF00100240FFFFFEFF00400140DA040020FFFF0000CB
:2024C000BF02002010B5FFF7CDFF0022194B1A485A621A4B1A491A680240102A26D0194AD1
:2024E0009A60D960154B18495A680968120C12040A4302215A601A680A431A601A68063155
:202500000A431A601A6807390A431A608022094B9200D8681043D860D8680243DA601A6AD5
:202520000A431A621A680A431A6010BD054ADA609960D7E700400140104000005800024011
:202540005003002034400140DC00002010B5FFF759FF194B19481A6819490240102A27D028
:20256000184A9960DA601E21134B5A68120C12040A435A601A681C390A431A601A680631D5
:202580000A431A601A6807390A431A6080220E4B9200D8680243DA601A6A0A431A628022B0
:2025A000586C120202435A641A680A431A6010BD044AD9609A60D6E7580002401040000002
:2025C0000C0100203440014000400140F0B5C6463F4B404800B59846186000233E4A3F4C94
:2025E00013703F4A0025137094463E4A3E4E13703E4A3F4F1370220033703B7008CA7C342B
:202600001168CB1A834201D21800012504320B00A242F5D1002D10D101232F223B70354BED
:202620001A70354B0C3A1A60344B1F3A1A600122334B1A7004BC9046F0BD43460400010082
:202640001860031F293C6539222B12D80023294A13702C4A13702C22013333702A4B1A7070
:202660002A4B2B4A1A60244B2A4A1A602022234B1A60262C14D801231E4A33701370214A14
:202680001370254B254A5A622C221F4B1A701F4B1F4A1A60184B1F4A1A602022174B1A6029
:2026A00095235B00994207D91D4B9842B4DC0028BDD1134B1870BDE762462A3BFF3B137070
:2026C000FA220D4B92001A6004220C4B1A60EEE7B8010020204E0000C10200205003002011
:2026E000B7020020BE0200206B020020BD020020C9020020DA040020D4000020DC000020DC
:20270000B402002000050020D9000020F4000020E8FD00001027000000400140FFFF000016
:2027200070170000FC211D4A70B5506813681C4DC31A5C1989008C4218D993681B1A5A1990
:202740008A4213D9174B18681749184A0B681268C41A944207DC1C1AA24201DB086070BD0E
:202760009B1A0B60FBE79B180B60F8E7104A002093420ED9FA22D20093420DDC0D4A0E49CA
:20278000944663445801C01A8000C0180001FEF745FD044B1860D7E71300EFE75003002014
:2027A00017FCFFFF28030020B80200209401002005040000FAFBFFFFCA03000000B5374B2E
:2027C00083B01B78002B03D0354A1278002A07D1344A1278002A0AD0012A0DD003B000BDA6
:2027E000314B1B78002B21D0FFF76CFEF6E7FFF7EDFEFFF767FEF1E7002B08D12B4A2C496F
:2028000013600A68002A2BDB2BD02A4A1360244B1B78002B11D0244B1B78002B1DD0FFF7A3
:2028200099FBFFF75FFAFFF74DFED7E7FFF78EFEFFF790FBFFF756FAD0E71F4B1B78012B8D
:2028400014D01E4B1B78012BC8D1FFF76BFF00231B4A5362154A1360C6E7FFF777FEBDE7A8
:202860000B60144A136801331360D0E7FFF73AFA144B1B78002B02D1FFF724FEE1E7FA22A0
:20288000114B92001988114B1878114B1B880093C82301F0EDFF01F0C7FFEDE7480200206E
:2028A00078020020B4020020BF020020CC020020B0020020E80200206B020020C902002085
:2028C00000400140C80200201C0300202C0300205C0400200D4B1B68002B0DD00C4B1B68C2
:2028E0005B040DD50B4A136801331360022B02DD0022094B1A607047054B1B685B04F1D575
:20290000054A136801331360F5E7C046AC0100201C0001405002002044030020164B1B687D
:20292000012B25D0042B23D0022B1DD0052B1BD0032B0BD0062B09D0104B1B68002B0CD126
:202940000F4AD36080239B039360704751220D4B1A600A4B1B68002BF2D00022084B9A6087
:2029600080229203DA60F0E74121064A1160DFE76121044A1160D7E7C0010020AC01002079
:20298000000401401C00014070B5284D284C2968284A2688481E43009E52568813889B1910
:2029A00096889B19D6889B19168952899B199B18214A5B101360214B1B68012B26D00028D0
:2029C0001CDD0123286019401D4B196001F03EFDFFF7A4FFFA2322881B019A4206D9194B51
:2029E0001B78002B02D00122174B1A700023174A1360174A1360174A136070BD0623012220
:202A00002B60154B01211A700620DDE7481C062807DCC20F81180B4028609B1A084A136009
:202A2000D4E70D4A2B6013700120F7E7C0010020E40000205C0200202003002004010020AC
:202A4000AC01002068020020BC02002044030020E4020020D8020020690200208023DB05CC
:202A60005B6A10B57C2B0AD82B4A2C4B12689A4205DCF4232A4AFF3312689A423ADD802353
:202A8000DB055A6A274B1A80274A136801331360642B29DC254B264A1B681268002B2AD15C
:202AA000002A0CDD23480168490423D58024E40102E0016821421DD001339342F9D11E4B8A
:202AC00080211A68002289031A60596180231B49DB055A6209681A4B5A62D96201211A61E4
:202AE000DA680A43DA6005E0134A1368002313600B4A136010BD002AE1DD0E4803685B041D
:202B0000F8D480240023E40102E001682142F1D101339342F9D1D2E77C020020570200004A
:202B20000C050020DC040020D4020020AC010020000100201C00014000040140E0020020DC
:202B40000020004030B5594B83B018680321FEF765FB574B574A18601378002B0BD0564975
:202B60000B68C31ADC171B1963404408A3423BD8002308601370514B1B78002B41D1C82392
:202B80004F4A5B0012889A421DD9C221FF204D4A890053581B021B0A53500431535883437D
:202BA000BF3803435350484A136801331360474A934206DD464D2C78002C30D1454A934270
:202BC00050DC03B030BDC22080213E4A80001358C9051B021B0A0B43C3211350FF208900E6
:202BE000535883435350DEE73B4B1C68282CBFDD06241C600024394B1C60394B01341C70F3
:202C0000B6E7384B384A1988384B1878384B1B880093C82301F02CFE01F006FEAFE701F023
:202C2000D1FB0022334B34491A60344B2A701A70334B1A60334B1960334B5A639A63DA632A
:202C4000324B9A625A62324B591CFF3104C39942FCD1BFF34F8F2F4B2F4ADA60BFF34F8F61
:202C6000C046FDE701F0AEFB224B234A1C60234B2C701C70224B1C60224B1A600022224B85
:202C80005C639C63DC63214B9C625C62204B591CFF3104C38B42FCD1BFF34F8F1D4B1E4A3E
:202CA000DA60BFF34F8FC046FDE7C046200300204C02002069020020E8040020C802002028
:202CC000E400002000E100E0CC020020C409000048020020983A00000C050020C402002021
:202CE000BC0200201C030020E20400002C0300205C040020B0020020204E0000B4020020EC
:202D0000E8020020B8010020002C0140004001405003002000ED00E00400FA053B4A3C4995
:202D2000126830B50B68002A1BD168200133FF30834237DC6820374A0B601368FF30013396
:202D40001360834237DC6824334A344D9B00E8581368FF3401331360A34238DC9B00EC5896
:202D600013E0013B40D42B4A0B601368013B42D4294813600368013B0360002B2BDB274DD0
:202D80009B00EC5813689B00E8580968244B89001B686958234A1C1918185B185463906362
:202DA000D36330BD68200A601A4AFF301368013313608342C7DD002368241360164AFF342B
:202DC0001368B4200133154D1360A342C6DD0023B4241360D9E76823FF33036013680F4DEE
:202DE0009B00E858B124D0E768230A4AFF330B601368013BBCD568230748FF3313600368BE
:202E0000013B0360002BBADAE5E7C046040100201803002004050020F8040020484D000840
:202E200008010020002C01400121144A10B5D368134C8B43D360134A238812889B185B105C
:202E40002380FFF7A1FD104A23881278D9084A430E495B089B1A0A600D4A13600D4B1B78B0
:202E6000002B05D180230C4A9B0311680B4313600A4A13680133136010BDC04600200040D7
:202E8000E4000020DC040020CD00002044020020E0020020BC020020000401400C05002085
:202EA00010B50C4C2368002B0AD1FFF76DFD0A4B0A4A1A8080230A4ADB055A620123236087
:202EC0008023084A9B0311680B4313600122064B1A6010BDC4020020E40000201027000049
:202EE0008813000000040140B001002070B58025ED056C6A254B1C8000236B62244B2404FC
:202F00001A88240C500080180019801086B21E80204B1968FEF782F91F4B204A1860730855
:202F20001B1A13601E4AB6081660181A6B6A1B1B8342FBD3FFF728FD00221A4B1A491A60FE
:202F40001A4B1A600B6801330B6019490978002910D0632B0DDDC82316495B00096899422B
:202F600007DD154B1A708023144A9B0311680B43136070BD1E2BFCDD0F4B104A197080237B
:202F800011689B030B431360F3E7C046DC040020E4000020D000002044020020E00200201D
:202FA00058040020440300200C0500205002002068020020F4040020BC02002000040140C6
:202FC000044B1A88044BDA62044A12885A639A63DA637047D4010020002C0140100300204A
:202FE0000121334A10B513688B430B4313601368304B1A680A431A6001311A681142FCD051
:20300000F8211A688A4378390A431A605A6B7F390A435A63274A0131536B1942FCD0F821A8
:20302000536B8B4378390B435363536A7F390B435362204B01315A6A1142FCD05A681E492E
:203040001140A02292030A430F215A60DA6A8A43DA628022196852040A4380211A60154B03
:2030600089041A680A42FCD0F0215A68114C8A435A605A6811490A4003215A605A688A439F
:2030800001390A435A600C2263681340082BFBD10B48FEF7FDFC0A48FEF70AFD0422636B21
:2030A00093436363236B013A9343236310BDC0460020024000100240FFFFC2FFFFF8FFFF14
:2030C000006CDC02F0B5DE464E46574645460124E0B5ADB0FFF734F98021FD4D4905AB699A
:2030E00080272343AB61AB69BF0223400693069BEA6924AE0A43EA61EB690B400593059BB1
:20310000FFF76EFF1022002126A801F0D5FD80206B69C0023B436B616B6990223B40119343
:20312000119B6B69D20503436B616B69310003401293129B80231B0293621000746024933C
:20314000FEF7BEF9C2226B69E24923436B616B699200234010938A46109B8B58DE49544623
:2031600019408023DB030B4351468B5080215346C900196080219B58C9051B021B0A0B4347
:20318000A3508022120122601EAC18220021200001F092FD26AB10220021180001F08CFD8A
:2031A0006B6903213B436B616B6990203B400F930F9B02230F007160C00531002493FEF7DB
:2031C0007FF9002020218046306190202491C00531007760FEF774F9C3215046890043588D
:2031E000FF2052468343535080235B011360424650232100B948A3606260E26022616261D3
:203200001E92FEF729F91422002113A818AF01F053FD20220021300001F04EFD18220021A3
:20322000380001F049FD18220021200001F044FD8022AB6912011343AB61AB691340A84AEE
:203240000C9391460C9B13AAA64B110048461593FEF73AFA4A461368802213434A46484612
:2032600013609368A04A0121134083609F4B4A469B46836908200343936160232493434632
:20328000320048467360B360F36033617361B361F361FEF76FFA4B4604204A469B6910218D
:2032A0008343936193698022120113434A4693614346320048467360B360FEF75BFA4B46BF
:2032C00049469B698A4A082013408B615B465B688021034358464360434632004900484602
:2032E0007360B360FEF746FA5B460420594680225B68120183434B604B68484613434B6024
:2033000080214346320049017360B360FEF732FA5B46774A5B68494613405A4653604B4615
:2033200070225B68484693434B608B68103293438B6043467B60BB6018936E4B39001B8874
:203340003B734346FB8180239B019B463B6143467B618027FEF716FB80206B69BF023B4339
:203360006B616B69C0023B400D930D9B6B69802203436B616B69474603400E9390200E9B02
:2033800002232100C0051E926360A760E76027616361FEF795F8414602230137A160E1606D
:2033A000216155482100636063611E97FEF788F841460223A160E16021614F482100636031
:2033C00063611E93FEF77CF8802190204246022349001E91C00521006360A260E2602261A9
:2033E0006361FEF76DF88023902042469B001E93FF3BFF3B2100C0056360A260E2602261A4
:203400006361FEF75DF880239020DB0042461E9302232100C0056360A260E26022616361DE
:20342000FEF74EF8C321534689005B58334A5046134080221202134343505946016004A8E7
:2034400084468223634412220021180001F034FCEB6980203B43EB61EB6931003B4018935F
:20346000189B17233380264BC005B360FEF72CF980218020C9050B681B4A83430B608B683E
:203480008027134070228B604B68BF0293434B608B685C3A83438B603000002101F00CFC3C
:2034A000AB693B43AB61AB693B401393139BC52357469B001900FB58104F3B4080273F023D
:2034C0003B4357467B5080239B033B601AE0C0460010024000E100E0FFFF00FF1C000140BD
:2034E000002C0140CF070000F8BFFFFF182C0140FFFBFFFFC800002000040048FF00FFFF26
:20350000FFFF0000F34FF44B31003800B360FEF7DBF880203B68122283433B6004AB9C467F
:203520008227674438008027002101F0C5FBEB697F003B43EB61EB693B40C427BF00BB466F
:203540000B930B9B57465B465946FB581B021B0A7B5080231B033B6017233380FA23DF4F56
:203560001B0131003800B360FEF7AEF880203B681222034304A884463B60822363440021DD
:20358000180001F099FB1021EB695A460B43EB61EB690B400A930A9B53469B58D04A5946A9
:2035A00013408022120213435246535080239B0213602F2333806423B360CA4B31009B46F8
:2035C0001800FEF781F85B4680205A461B680021834313609368834304A8844693608223D8
:2035E00063441222180001F067FB8020AB69C0020343AB61AB69310003400993099B2F23A3
:203600003380B94BB948B360FEF75EF8B74B802019001B68012283430B604B4648461021B2
:203620001B6A13430362036A0B4380210362036A49000B430362036A0420494603430B624D
:203640000B6A402148460B4380210362036AC9000B43802103620368090213430360436C4A
:203660000B4343644369002113434361C3681343C3601422200001F01FFB0C22002127A86B
:2036800001F01AFB8021AA6949020A43AA618022AB6992020B400793079B6B699020134322
:2036A0006B616B69042513400893089B0223012273600133B360326131002026C0052495C6
:2036C000FDF7FEFE80208A4B8A491A68FC350A401A601A6888490A401A601A688749B243DD
:2036E0001A601A682036B2431A601A6806008243024380201A601A6800010A402A431A60A9
:203700001A687F49C5250A4002431A605346FF20AD005B59210083435046435180235B0341
:2037200003604346238063603F33A3604346754DE36028002374FDF7C7FF01220324110060
:203740002B686A48B3432B60AB69A3431343AB61AB690B329343AB61AB69E4329343AB6108
:203760002B6AE63A13432B622B6A0A000B432B622B680B432B603B680B433B607B690B430D
:203780007B61FB680B43FB60FB688B43FB6003680B43036043690B4380214361C9050B6819
:2037A00013430B604B6913434B615B4659461B6813430B604B6913434B61CB681343CB60A4
:2037C0004346514924930B6813430B604F4B50491868FDF799FC03000001C01A80000A2116
:2037E000FDF792FC2490249B002B05D0249B013B2493249B002BF9D101F06CF801F096F89A
:20380000FEF7CAF9FEF76EF9FEF79CF900F05AFF404B414A1A60414A1A6002225A60FA2232
:2038200012019A600722D9680A42FCD13C4A1A613C4A1A601A60FEF745FEFEF787FC3A4B48
:203840001A783A4BDB78934213D8394B37491B78097999420DD235490B710023CA70354A95
:203860003249D05CC918013348710C2BF8D1FEF727FD314B1B78012B01D100F0EFFC2F4B58
:203880001A000293012313602D4B2E4A1B88002713802D4B98462D4B9B462D4B99462D4B17
:2038A0009A46434642461B6801331360322B67DD294B2A491C882A4B18884843FDF724FC0D
:2038C000031B9800C018274B00011988091BFDF7A5FC49E000440140282300000020004034
:2038E000FF00FFFF00100040FFFF00000048014058000240EFBFFFFFFFCFFFFFFFFCFFFFE9
:20390000FFF3FFFF004001401C000140DC010020400D030000300040CCCC000055550000DA
:20392000FF0F0000AAAA0000D601002080020020D7010020E80000206A02002004010020DB
:20394000CA000020D401002040020020D40000200C05002054020020B8F7FF1FE40C0000CE
:20396000D8040020C2F7FF1FD44BD54A1E3018709368D4490B4004210B43936043461F608F
:20398000D14BD24A1F60D24B1A60D24B1B6801935B46019A1B689A4204DDCF4B1B78002B51
:2039A00000D1ECE2CD4BCE4ACE491B7812780C68012B00D1E2E1002A00D01BE1CA4A12783C
:2039C000002A00D016E1C94BFA221C604B461B689200934200DD36E1002C00D1D5E2642B98
:2039E00000DD32E1C24B1D78002D02D09F2C00DCF1E1C04B1878002800D1E5E0BE4B1A78C9
:203A00009023FF339C4200DCECE15346196864234343013353438B4204DAB84B1B78002BDD
:203A200000D01BE2B64B1C60B64B1B78002B00D011E15A2633006B432E330193A34200DBA5
:203A400021E2A54B1B78002B00D1A9E2AE4B1B680393002B08D1AD4B1B78002B01D100F0CB
:203A6000F2FB0123A84A1360A94B20001F70A94B1E88A94B9C4200DCA6E21800FA21C90061
:203A80008B1B2F385843FDF7C9FBEB065B1B9B005D1B8619A14BED0076191E60019B9C424D
:203AA00000DCF0E14B461B681D2B00DC7FE2964A14689B4A128801929F2E00DC4DE2994B96
:203AC00099481968FDF7AAFBFA210301181A800060438900FDF7A2FB944B1860944B1B7894
:203AE000002B00D0F6E1934B1D68AE4202DD2E008A4B1D60784B1B78002B78D0002C76D007
:203B00007F4B1B6803932F2B71DD8B4B1B78002B00D06CE3894B1888FA217043C900FDF768
:203B20007DFB874B18804B461B68952B56DDE123019A9B009A4251D89023FF339E424DDD6E
:203B40000423804A1360804A013313607F4B1F80E1239B009E420CDD4B461B68642B08DD37
:203B60007B4B019A9A4210D80323774A1360774B1F80019B592B08D8C8239B009E4204DD1E
:203B80000223714A1360714B1F80724B1B78002B03D0714B6C4A1B7813605C4B1B78002B4C
:203BA00000D13EE1584B1B680193002B00D01CE18023DB055B6A434642461B6801331360E0
:203BC000322B00DCDCE673E653461968952C00DD7BE16423484A1370642218E70423594A92
:203BE0001360594A08331360584B1F80B0E7544B1F8098E7002B00D1E5E6584B9C4200DD46
:203C0000B0E12300564A303B934210D8554A0298117801220068521A0190824200D13CE22B
:203C20005B002F33504A12789B1A304A13602F2C00DCC7E02D4BFA221C684B461B68920065
:203C4000934200DCC8E653461F60C72C00DDC9E653461F60C6E6302C00DC0DE11E4B1B7888
:203C6000002B00D108E1313C572C00D9DFE101213E4AD3688B43D3603D4B1A681F6000F077
:203C800019FDFFF74BF81E4B1B68892B00DCC9E18923303BD805C01A8000C018C000C01AEF
:203CA00000015921FDF7BAFA324BF530324AFF3018605762536A9842FCD8F2E52C030020D2
:203CC00000240140E8FFFF7FD4020020AAAA000000300040E8020020480200205802002072
:203CE000C1020020B80200206B020020F4040020DC02002068020020D8000020C8010020F9
:203D0000B0020020D1020020C4020020BC0200205A020020A4010020FF0700007C02002035
:203D2000E40000202003002040420F005C04002090010020F8000020CC000020D401002081
:203D400010030020D000002000010020FC00002083030000B60200208801002017040000E1
:203D6000E70300006A020020A9010020002C014000040140C401002000480140002A00D0E9
:203D80003BE7CC4A1278002A00D036E7CA4A944200DC0BE2C94A02991278096801918A4290
:203DA00002D19B1A029A1360C54BE21853009B18C44A1360C44B9C4654236444FF339C42BB
:203DC00000D937E7BF4B00241F6053461F60BF4B1D78002D01D053461F60BD4B18780028B2
:203DE00000D1F1E653461F601CE6BA4B1A681F60FEF770FDB84B1B680193002B11D1B74A71
:203E0000B74B12681B680192002A00D10FE2B54A126801929A4204DA0123AF4A1360FFF7D8
:203E200065F88023DB055A6AAF4B9A4200D838E5AE4B1C68012C00D033E5534652461B68CD
:203E400001331360FFF752F8A24B1A681F60A84B1C70A64B1F604B461F6022E500F0B2FAEB
:203E60009C4B1A681F60A34B52461F6066231360A14B1B78002B06D0A04B5F639F63DF63E8
:203E800000F0D4FB0DE59E4A984B12781B68002A3AD19C490A60002B54D1012294490A704B
:203EA0004A461360984A1268002A50DDC826954976000A60B24200DC84E0924B1E608B4B3B
:203EC0001C68924B1B880193F9E50A23904A13700A229CE58F4A904B11681B688F4A15682F
:203EE000984200DA18000A00814200DD02008C48D21A0068C91A0390401B5043FDF78EF943
:203F0000884B45191D60F0E5002B0BD1012278490A704A461360844B1B78002B00D163E114
:203F200000F084FB774B814A1F60814B1F6077231360804A78331360644B1B78012B01D186
:203F40006D4A13704B461B681D2B00DC9BE00026664A14686D4A12880192002C39D1694B54
:203F60001E68ACE5554B029A1B7812680192934200D1FBE0704A63009446634452E66F4A3E
:203F80000133137000F036FD0CE552461460642B00DD5DE64D4B1D78002D00D01BE728E562
:203FA000584B1E684B461B681D2B00DD7FE5564A1268B24200DD79E73200C8267600B24266
:203FC00000DD7AE7160072E52F2C00DB56E52F2054E55B4A1288B2425BDC4A4A1668594A1E
:203FE0001278002A00D16AE5322B00DC67E5564B019A9A4200D862E5544B101C9A4200D9B1
:20400000181C534BFA219C4680B2604483001B181B01181AC900FDF701F93A4B013036183C
:204020001E604CE5302B00DB33E6302331E6FEF775FE304B1B680193C82B00DDCCE0454B12
:2040400019683B4B1868444A5762536A8B42FCD3002800D025E40121274B1870234B196035
:204060004B4618603D4B1B680193019A3C4B1A60224BDA680A43DA605A690A435A61FEF706
:2040800035FFFFF70EFC204A1268002A00DD0DE75DE71C4916000A60A1E71C48314A0088F5
:2040A000904278D8144A1278002A74D12E4B1A6088E6C0466B0200204C0400006A020020B7
:2040C000B5FBFFFFF404002008FDFFFFDC0200206802002000040140E4020020AC01002077
:2040E000440300209C010020409C0000C4020020BC020020B0020020D1020020002C0140CA
:20410000E60000207C020020A0010020E4000020D8000020840100208C010020D0010020FB
:20412000CC010020F8000020590200200405002018030020F8040020FFF7FFFF4802002021
:20414000A4010020D0020020581B000028230000A8E4FFFFC401002000480140E0000020F2
:20416000C0010020DC050000B80200203F49404A0988914203D83F4A1278002A96D001228C
:204180000299D31A0B604B461F603B4B1A703B4B1A681F60EEE64A46176001223648027097
:2041A000029A1160354A1168176039E5344A944200DDFFE5334A0299127809689B1A0191F6
:2041C0008B4201D1029B1A60BE239B001B1B5A00D3182D4A1360EDE52C4B2D4A1F60502396
:2041E0000020136050212EE700F0ECF89AE6019A1300C82A16DDC823264A603B1088264AC1
:204200006821944660445843FDF708F8FA239B009C46224B604480B21880214B214ADB7D64
:20422000137079E4019A602AE6DA6023E4E71E4A126801929A4200DBF3E501231B4A13606B
:20424000FEF754FEEDE5FEF72BFE194B1C68194B1D786E432E360196FFF703FC164B1A002A
:20426000029300231360FFF70FFBC046E4000020DC050000D1020020BC0200200004014012
:20428000F70200006A020020F404002018030020C4010020CA00002018FCFFFFD401002070
:2042A00080020020CD00002098010020E4020020B0020020DC02002004010020134B1B78CA
:2042C000002B0DD0124B1B78002B09D19021C9050B68104A1A4080231B0213430B600AE0D0
:2042E0009023DB051A680B4911408022D2010A431A6080229A629021C9050B68064A1A408E
:2043000080239B0213430B607047C046E6000020C0020020FF3FFFFFFFFFFCFF104B114A0C
:204320001B78002B0AD0104B1B78002B06D10C2113688B4304390B43136007E00C211368F2
:204340008B4308390B431360022393629021C9050B68064A1A4080239B0313430B6070471E
:20436000E600002000040048C0020020FFFFCFFF104B114A1B78002B0AD0104B1B78002BD6
:2043800006D1032113688B4301390B43136006E0032113688B4302390B43136091629021EB
:2043A000C9050B68064A1A4080231B0313430B607047C046E600002000040048C00200209F
:2043C000FFFFF3FF03211C4A1C4813688B4302390B43136090239162DB05196808408021CA
:2043E000C902014319608021890099621968144808408021C90101431960802199621968A6
:2044000010480840802149020143196080210C2049009962116881430838014311600221ED
:2044200091621A6808491140802252030A431A608022D2009A62704700040048FFFFF3FF44
:20444000FF3FFFFFFFFFFCFFFFFFCFFF70B506282DD8704B80001B589F46FFF789FF90233F
:20446000DB051A686C490C2011408022D2010A431A6080229A621A68684911408022520254
:204480000A431A608022664952009A620A688243083802430A6002228A611A686149114004
:2044A000802252030A431A608022D2009A6270BDFFF75EFF9023DB051A6857490C2011401C
:2044C0008022D2010A431A6080229A611A6853491140802252020A431A608022504952004A
:2044E0009A620A688243083802430A6002228A62D3E703214A4A13688B4302390B431360D3
:2045000090239162DB051A68474911408022D2020A431A60802292009A621A683E491140EB
:204520008022D2010A431A6080229A611A683B491140802252020A431A60802252009A629E
:20454000FFF7ECFEB3E70321354A13688B4302390B43136090239161DB051A683249114026
:204560008022D2020A431A60802292009A621A68294911408022D2010A431A6080229A62AF
:20458000D4E703229024264DE4052B689343023A13432B60AA612368234A1A408023DB02C8
:2045A0001343236080239B00A362FFF787FE0C222B689343083A13432B600223AB622368ED
:2045C000184A1A4080235B03134323608023DB00A3626CE703229024114DE4052B689343E6
:2045E000023A13432B60AA6223680F4A1A408023DB021343236080239B00A362FFF75EFE66
:204600000C222B689343083A13432B600223AB61D5E7C046E8520008FF3FFFFFFFFFFCFF76
:2046200000040048FFFFCFFFFFFFF3FF03211C4A1C4813688B4302390B431360902391619A
:20464000DB05196808408021C902014319608021890099621968144808408021C90101438F
:20466000196080219961196810480840802149020143196080210C2049009962116881430E
:20468000083801431160022191611A6808491140802252030A431A608022D2009A62704707
:2046A00000040048FFFFF3FFFF3FFFFFFFFFFCFFFFFFCFFF10B5FFF75BFEFFF7FFFDFFF7C1
:2046C0002DFE10BD70B590B01C22002109A800F0F3FA0C22002106A800F0EEFA8020434B8D
:2046E000C001996940250143996180219A69C90202400292029A5A6901260A435A615B69BD
:204700003B4C0B400193019B022303A9049339480133039505930796FCF7D2FE2368364ADF
:20472000C62013401022134323602368334AC0211340202223602368800093432360236845
:204740006032AB432360236809061343236023682B4A2C4D1340236023682B4A13402B4ACC
:20476000236013581B021B0A0B43135080231B051360E1235B0208220993002309A92800FE
:204780000A930B930C930D920E930F93FDF724F9AB681F4A1F481340AB606B681E4A1F4968
:2047A00013402A226B60AB689343AB602B681C4A1E432E6023680340102B13D0A160E26084
:2047C0000B4B18495A680978120C12040A4302215A601A680A431A601A6806310A431A60B8
:2047E00010B070BDE160A260EAE7C046001002401C00024000040048EFBFFFFFFFCFFFFF3E
:20480000FFFCFFFF00380140FFF3FFFF00E100E0FFFBFFFF10400000FFB7FFFF1005002044
:2048200028380140D80100200C2008210D4B10B51A680D4C82430A430C491A604A68247862
:20484000120C1204224380244A609A6822439A600A687F3C22430A6004211A6882430A435B
:204860001A6010BD00380140D80100201C000240F0B505AC164E24880D0AB1703271110AC5
:20488000B3711A0A3700230A7570F3710725002334723070F1707271741C093743400822CD
:2048A00004E0013AD2B2DBB2002A09D059B25B000029F6DA013A6B40D2B2DBB2002AF5D17F
:2048C000BC4202D020780134E8E77372F0BDC0461005002010B572B60A23124C022063633F
:2048E000A363E363FFF7B2FD3723C820A362FDF771FD0420FFF7AAFD2823C820A362FDF731
:2049000069FD0120FFF7A2FD1923C820A362FDF761FDFFF757FD0023034AA362136062B6B6
:2049200010BDC046002C0140CC020020052370B5184C02206363A363E363FFF787FD3C238B
:2049400037253226A362C820FDF744FDA5629620FDF740FDA6629620FDF73CFD2D236420D4
:20496000A362FDF737FDA6626420FDF733FDA5626420FDF72FFD1923C820A362FDF72AFD6B
:20498000A5629620FDF726FDFFF71CFD0023A36270BDC046002C014070B572B63C23114C63
:2049A000114D124E02202E60A362373B6363A363E363FFF74BFD4B20FDF70CFD50234B207C
:2049C000A362FDF707FD5A234B20A3622E60FDF701FDFFF7F7FC0023054AA362136062B682
:2049E00070BDC046002C014000300040AAAA0000CC02002010B572B6104A114B114C1A60EB
:204A00005023A3624B3B63630220A363E363FFF71DFD6420FDF7DEFC46236420A362FDF71C
:204A2000D9FC28236420A362FDF7D4FCFFF7CAFC0023054AA362136062B610BDAAAA00002A
:204A400000300040002C0140CC020020F8B572B6082377240E4D0F4F0F4E6B63AB63EB63B0
:204A6000142120003E60FCF7D9FBFFF7EFFC63100A33AB620A20023CFDF7ACFC631CEFD19B
:204A8000FFF7A0FC0023054AAB62136062B6F8BD002C014000300040AAAA0000CC020020A6
:204AA0007047C046FEE7C0467047C0467047C0467047C0460B4B1A6892060AD41A6812062F
:204AC00006D5102201215A60074A13688B431360704706490A6801320A600021044A1170DB
:204AE000EFE7C046000002401C000240EC020020C80200200B4B10B51A681A68920306D4B4
:204B00001A68120302D5802252025A6010BD8022012152025A60044A13688B431360FDF7DA
:204B20004DFEF3E700000240580002408022054B9203596910B5114202D05A61FDF78EFF05
:204B400010BDC04600040140054B10B51A69D20704D5022252421A61FDF7F4FF10BDC04606
:204B600000100040022210B5024B52421A61FEF75BF910BD002000407047C0467047C046B0
:204B8000074B1A69920702D5032252421A61044B1A69D20702D5022252421A617047C0462A
:204BA00000400140074B1A69920702D5032252421A61044B1A69D20702D5022252421A6146
:204BC0007047C04600040040084B10B51A68920706D40822054B19680A4200D05A6010BD29
:204BE00001225A60FCF76AFFF3E7C04600000240084B10B51A69920702D5032252421A611B
:204C0000044B1A69D20704D5022252421A61FEF7D7F910BD002C01407047C0460D48854601
:204C20000D480E490E4A002302E0D458C4500433C4188C42F9D30B4A0B4C002301E013605B
:204C40000432A242FBD3FFF7E7FF00F011F8FEF739FAFEE700200020C0000020E001002069
:204C600024530008E00100201C050020FEE7000070B500260C4D0D4C641BA410A64209D19C
:204C8000002600F021F80A4D0A4C641BA410A64205D170BDB300EB5898470136EEE7B30086
:204CA000EB5898470136F2E71C5300081C5300081C5300082053000803001218934200D10F
:204CC000704719700133F9E7F8B5C046F8BC08BC9E467047F8B5C046F8BC08BC9E467047F4
:204CE000941E0008B21E0008A41E0008C41E0008941E0008941E0008941E00089E1E00087C
:204D0000AC1E0008E81E0008D21E0008941E0008CC1E0008941E0008941E0008941E0008E1
:204D2000941E0008941E0008941E0008941E0008881E0008BA1E0008191B12131D15161745
:204D40001A090A0B1E0D0E0FB4000000B7000000BA000000BD000000C1000000C40000006C
:204D6000C7000000CA000000CD000000D0000000D3000000D6000000D9000000DC000000A7
:204D8000E0000000E3000000E6000000E9000000EC000000EF000000F2000000F5000000BF
:204DA000F7000000FA000000FD000000000100000301000006010000090100000B010000E3
:204DC0000E010000110100001301000016010000190100001B0100001E0100002001000011
:204DE0002301000025010000280100002A0100002C0100002F010000310100003301000052
:204E000035010000380100003A0100003C0100003E010000400100004201000044010000A3
:204E20004601000047010000490100004B0100004D0100004E01000050010000510100000D
:204E400053010000540100005601000057010000580100005A0100005B0100005C0100008D
:204E60005D0100005E0100005F010000600100006101000062010000630100006301000027
:204E80006401000065010000650100006601000066010000670100006701000067010000DB
:204EA0006801000068010000680100006801000068010000680100006801000068010000AA
:204EC000680100006701000067010000670100006601000066010000650100006501000097
:204EE0006401000063010000630100006201000061010000600100005F0100005E010000A0
:204F00005D0100005C0100005B0100005A01000058010000570100005601000054010000C2
:204F20005301000051010000500100004E0100004D0100004B0100004901000047010000FF
:204F4000460100004401000042010000400100003E0100003C0100003A0100003801000051
:204F60003501000033010000310100002F0100002C0100002A0100002801000025010000BE
:204F800023010000200100001E0100001B010000190100001601000013010000110100003A
:204FA0000E0100000B01000009010000060100000301000000010000FD000000FA000000C9
:204FC000F7000000F5000000F2000000EF000000EC000000E9000000E6000000E300000066
:204FE000E0000000DC000000D9000000D6000000D3000000D0000000CD000000CA0000000C
:20500000C7000000C4000000C1000000BD000000BA000000B7000000B4000000B1000000B1
:20502000AE000000AB000000A7000000A4000000A10000009E0000009B000000980000005A
:2050400095000000920000008F0000008C0000008800000085000000820000007F00000000
:205060007C000000790000007600000073000000710000006E0000006B00000068000000A0
:2050800065000000620000005F0000005D0000005A00000057000000550000005200000035
:2050A0004F0000004D0000004A000000480000004500000043000000400000003E000000BC
:2050C0003C00000039000000370000003500000033000000300000002E0000002C00000032
:2050E0002A00000028000000260000002400000022000000210000001F0000001D00000095
:205100001B0000001A000000180000001700000015000000140000001200000011000000DF
:20512000100000000E0000000D0000000C0000000B0000000A000000090000000800000012
:2051400007000000060000000500000005000000040000000300000003000000020000002C
:2051600002000000010000000100000001000000000000000000000000000000000000002A
:2051800000000000000000000000000000000000000000000100000001000000010000000C
:2051A0000200000002000000030000000300000004000000050000000500000006000000D1
:2051C0000700000008000000090000000A0000000B0000000C0000000D0000000E0000007B
:2051E000100000001100000012000000140000001500000017000000180000001A0000000A
:205200001B0000001D0000001F000000210000002200000024000000260000002800000082
:205220002A0000002C0000002E0000003000000033000000350000003700000039000000E2
:205240003C0000003E000000400000004300000045000000480000004A0000004D0000002D
:205260004F0000005200000055000000570000005A0000005D0000005F0000006200000069
:2052800065000000680000006B0000006E0000007100000073000000760000007900000095
:2052A0007C0000007F0000008200000085000000880000008C0000008F00000092000000B7
:2052C00095000000980000009B0000009E000000A1000000A4000000A7000000AB000000D1
:2052E000AE000000B1000000AE440008B0440008F24400084645000882450008D445000898
:205300005A440008000000000000000001020304060708090000000001020304E9100008B4
:20532000C110000823016745AB89EFCD2D00CF070102000003000000E80300000A2C0000AA
:205340002000000005000000D43001004D70363533315F446576202024F40000CF070000EB
:205360000A00000005000000010000003C00000000000000000000000000000000000000E1
:205380000000000000000000000000000000000000000000000000000000000040000000CD
:2053A0000000000000000000000000000000000040000000000000000000000000000000AD
:2053C00000000000400000000000000000000000000000004000000040000000000000000D
:2053E000400000000000000046000000140000001400000001000000960000000700000061
:2054000007000000B40000004000D0070E010000010000000100000078000000204E0000C3
:2054200019000000010000006400000001000000CF070000F4010000CF07013A0A00000007
:0454400000127A00DC
:00000001FF
