:020000040800F2
:10100000002000204D140008E5220008E922000815
:1010100000000000000000000000000000000000D0
:10102000000000000000000000000000ED220008A9
:101030000000000000000000F1220008F522000876
:101040009D1400089D1400089D1400089D140008BC
:101050009D1400089D1400089D1400089D140008AC
:101060009D1400080D240008F92200083923000807
:1010700071230008352400089D1400089D14000801
:10108000E92300088D23000800000000A9230008C0
:10109000C5230008BD2300089D1400089D14000806
:1010A0009D1400089D1400089D140008C123000829
:1010B0009D140008000000009D14000800000000BE
:1010C00010B5064C2378002B07D1054B002B02D01E
:1010D000044800E000BF0123237010BDD4010020AC
:1010E00000000000384E0008044B10B5002B03D060
:1010F0000349044800E000BF10BDC04600000000E6
:10110000D8010020384E0008002243088B4274D3D7
:1011100003098B425FD3030A8B4244D3030B8B42F8
:1011200028D3030C8B420DD3FF22090212BA030C01
:101130008B4202D31212090265D0030B8B4219D3E2
:1011400000E0090AC30B8B4201D3CB03C01A524102
:10115000830B8B4201D38B03C01A5241430B8B424A
:1011600001D34B03C01A5241030B8B4201D30B0333
:10117000C01A5241C30A8B4201D3CB02C01A52415A
:10118000830A8B4201D38B02C01A5241430A8B421D
:1011900001D34B02C01A5241030A8B4201D30B0206
:1011A000C01A5241CDD2C3098B4201D3CB01C01A20
:1011B000524183098B4201D38B01C01A524143092A
:1011C0008B4201D34B01C01A524103098B4201D318
:1011D0000B01C01A5241C3088B4201D3CB00C01A85
:1011E000524183088B4201D38B00C01A52414308FD
:1011F0008B4201D34B00C01A5241411A00D2014622
:10120000524110467047FFE701B5002000F0F0F8AA
:1012100002BDC0460029F7D076E7704703460B436E
:101220007FD4002243088B4274D303098B425FD3DF
:10123000030A8B4244D3030B8B4228D3030C8B420B
:101240000DD3FF22090212BA030C8B4202D31212F1
:10125000090265D0030B8B4219D300E0090AC30BC6
:101260008B4201D3CB03C01A5241830B8B4201D373
:101270008B03C01A5241430B8B4201D34B03C01A5C
:101280005241030B8B4201D30B03C01A5241C30AD4
:101290008B4201D3CB02C01A5241830A8B4201D345
:1012A0008B02C01A5241430A8B4201D34B02C01A2F
:1012B0005241030A8B4201D30B02C01A5241CDD2D4
:1012C000C3098B4201D3CB01C01A524183098B421F
:1012D00001D38B01C01A524143098B4201D34B0108
:1012E000C01A524103098B4201D30B01C01A52416B
:1012F000C3088B4201D3CB00C01A524183088B42F2
:1013000001D38B00C01A524143088B4201D34B00DA
:10131000C01A5241411A00D201465241104670474C
:101320005DE0CA0F00D04942031000D34042534051
:1013300000229C4603098B422DD3030A8B4212D311
:10134000FC22890112BA030A8B420CD38901921143
:101350008B4208D3890192118B4204D389013AD080
:10136000921100E08909C3098B4201D3CB01C01A55
:10137000524183098B4201D38B01C01A5241430968
:101380008B4201D34B01C01A524103098B4201D356
:101390000B01C01A5241C3088B4201D3CB00C01AC3
:1013A000524183088B4201D38B00C01A5241D9D2DB
:1013B00043088B4201D34B00C01A5241411A00D25C
:1013C0000146634652415B10104601D34042002B58
:1013D00000D54942704763465B1000D3404201B5D7
:1013E000002000F005F802BD0029F8D016E770478C
:1013F0007047C04670B500260C4D0D4C641BA41000
:10140000A64209D1002603F017FD0A4D0A4C641BC1
:10141000A410A64205D170BDB300EB589847013621
:10142000EEE7B300EB5898470136F2E78C5400081A
:101430008C5400088C540008905400080300821853
:10144000934200D1704719700133F9E70D48854682
:101450000D480E490E4A002302E0D458C45004330C
:10146000C4188C42F9D30B4A0B4C002301E01360E3
:101470000432A242FBD303F047F8FFF7BBFF01F0B1
:1014800013FDFEE700200020C0000020D401002052
:1014900094540008D4010020D4040020FEE700008A
:1014A000F0B5DE4657464E464546844A84481368A2
:1014B000D16FE0B5C91A0160824887B084466144A3
:1014C0003A2959D81000804F8030390000E0136865
:1014D00054680832E31A5B0908C19042F7D13B68AF
:1014E00079699B463B6A080000937B6805910193EC
:1014F000BB68796A03935B460291F96A3A698C4644
:1015000053400492009ABD6A5340DA00019B02994D
:101510004340A8464B40FD689B0013432A006146A8
:10152000FE69BC6972404A4041461343039A6240D7
:101530004A405200796B13433A6B8900D2000A4348
:10154000F96BBF6B0A437F003A43604FDBB23978D7
:10155000D2B28946002916D15D498A460978002908
:1015600057D00F218A4651468A1AD2B29A4210D0D9
:10157000584A13680133136007B0F0BCBB46B2464B
:10158000A946A046F0BD524909780029E9D19A42FE
:10159000EED10022504B1A60504A13680133136099
:1015A0006346012B02D162464D4B1A705B46019A8D
:1015B0009B025202134342461343039AED01100269
:1015C000049A03432B439501059A2B43520113437D
:1015D00024011C43009BF6009B0026431E43029BF4
:1015E000590031432F291CDC4B1E2E2B1FD8002203
:1015F0003C4B3D4C1A6021603C4B1B68002BBBD11F
:101600004B46002BB8D015291CD8394A8B00D3582B
:101610009F460F31891A8B42A8D15146012008708C
:101620009FE700222F4B19602F4B1A60A4E7002977
:101630003ED12C4B19602C4B19609DE72D4B1A782D
:101640002D4B1A602D4B19700023236094E7002264
:10165000284B1A7000F02CFF2168F3E70122254B7C
:101660001A7000F053FF2168ECE7224B1A7801232F
:101670009B1A214A1360E5E700F074FF2168E1E757
:1016800001F04EF8FEE701221D4B1A7000F03EFFFC
:1016900000231C4A216813603B70D3E70025184BD8
:1016A0001D7000F005FF174B21683D701D60C9E7F4
:1016B0000D4C216800299FDC5EE7C046F002002047
:1016C0006C02002045FBFFFFF001002044020020D7
:1016D0007402002068020020C40200207002002072
:1016E000C0020020B402002018040020BC02002028
:1016F000504E00086502002004010020B1020020C5
:1017000054020020E0020020294B70B51B68002B1A
:1017100042D0284B1A680F231100194101293FD0EC
:10172000013B082BF8D10021234B196093B2180A12
:101730001909414059400F231800120188431F49DD
:1017400002430A601E4910130C5C18001040085C2C
:10175000E4030443101218401211085C1A408B5C19
:10176000800204435B01174E1C43174B30001C6082
:101770004023132101253362243000E004302A0085
:101780008A402240CA409B0953409B0103600139B3
:10179000F4D20023F36170BD0C4A064B1A60BAE71D
:1017A000083B1A4104490B6059020A43BEE7C04690
:1017B000BC0200201404002030020020E4020020BB
:1017C000A84E00080C010020E8020020FFFF0000E6
:1017D000134B1B78002B03D0124B1B78002B14D01B
:1017E0009023DB051A68104911408022D2010A4378
:1017F0001A6080229A629021C9050B680B4A1A4030
:1018000080239B0213430B6070479021C9050B682E
:10181000054A1A4080231B0213430B60EBE7C046C6
:10182000EE000020BA020020FF3FFFFFFFFFFCFF99
:10183000104B114A1B78002B03D0104B1B78002B48
:1018400011D00C2113688B4308390B43136002231A
:1018500093629021C9050B68094A1A4080239B03B3
:1018600013430B6070470C2113688B4304390B43FF
:101870001360EEE7EE00002000040048BA020020EA
:10188000FFFFCFFF104B114A1B78002B03D0104BEA
:101890001B78002B10D0032113688B4302390B43B4
:1018A000136091629021C9050B680A4A1A4080238F
:1018B0001B0313430B607047032113688B430139EB
:1018C0000B431360EEE7C046EE0000200004004822
:1018D000BA020020FFFFF3FF03211C4A1C481368D3
:1018E0008B4302390B43136090239162DB05196827
:1018F00008408021C9020143196080218900996252
:101900001968144808408021C901014319608021E9
:101910009962196810480840802149020143196002
:1019200080210C20490099621168814308380143E5
:101930001160022191621A68084911408022520305
:101940000A431A608022D2009A627047000400485D
:10195000FFFFF3FFFF3FFFFFFFFFFCFFFFFFCFFF96
:1019600070B506282DD8704B80001B589F46FFF796
:1019700089FF9023DB051A686C490C2011408022F6
:10198000D2010A431A6080229A621A68684911409B
:10199000802252020A431A608022664952009A62EB
:1019A0000A688243083802430A6002228A611A6880
:1019B00061491140802252030A431A608022D200FA
:1019C0009A6270BDFFF75EFF9023DB051A685749E6
:1019D0000C2011408022D2010A431A6080229A61B1
:1019E0001A6853491140802252020A431A60802229
:1019F000504952009A620A688243083802430A60DA
:101A000002228A62D3E703214A4A13688B430239D0
:101A10000B43136090239162DB051A68474911401C
:101A20008022D2020A431A60802292009A621A68C7
:101A30003E4911408022D2010A431A6080229A61F5
:101A40001A683B491140802252020A431A608022E0
:101A500052009A62FFF7ECFEB3E70321354A1368A0
:101A60008B4302390B43136090239161DB051A68A5
:101A7000324911408022D2020A431A608022920029
:101A80009A621A68294911408022D2010A431A60D9
:101A900080229A62D4E703229024264DE4052B6825
:101AA0009343023A13432B60AA612368234A1A40E6
:101AB0008023DB021343236080239B00A362FFF794
:101AC00087FE0C222B689343083A13432B600223B2
:101AD000AB622368184A1A4080235B0313432360D8
:101AE0008023DB00A3626CE703229024114DE40500
:101AF0002B689343023A13432B60AA6223680F4A70
:101B00001A408023DB021343236080239B00A362DF
:101B1000FFF75EFE0C222B689343083A13432B60B9
:101B20000223AB61D5E7C046B84E0008FF3FFFFF78
:101B3000FFFFFCFF00040048FFFFCFFFFFFFF3FFA4
:101B400003211C4A1C4813688B4302390B43136062
:101B500090239161DB05196808408021C902014387
:101B60001960802189009962196814480840802111
:101B7000C901014319608021996119681048084022
:101B8000802149020143196080210C20490099629B
:101B900011688143083801431160022191611A687C
:101BA00008491140802252030A431A608022D20061
:101BB0009A62704700040048FFFFF3FFFF3FFFFFFA
:101BC000FFFFFCFFFFFFCFFF10B5FFF75BFEFFF746
:101BD000FFFDFFF72DFE10BD024B1A6800221A60B0
:101BE0007047C04600040140164B1B78012B25D0DE
:101BF000042B23D0022B1DD0052B1BD0032B0CD084
:101C0000062B0AD0104B1B78002B0DD000220F4B57
:101C10009A6080229203DA60704751220C4B1A605E
:101C2000094B1B78002BF1D1084AD36080239B031A
:101C30009360F1E74121064A1160DFE76121044A20
:101C40001160D7E7B1010020A60100200004014087
:101C50001C000140104A114913680B4010210B432E
:101C6000136080220E4B5202D9680A43DA60DA68A8
:101C70000C490A40DA6060220B4B01219A615D3AFF
:101C80001A620A4A12789A623D22DA62084A117090
:101C90005A690A435A61704758000240EFBFFFFF7C
:101CA00000100240FFFFFEFF00400140F003002053
:101CB000350200200F4A104913680B401360802240
:101CC0000E4B5202D9680A43DA60DA680C490A40BE
:101CD000DA6001210A220B4B99611A620A4A1278D2
:101CE0009A620A4ADA625A690A435A610022084B28
:101CF0001A70704758000240EFBFFFFF001002400B
:101D0000FFFFFEFF0040014034020020FFFF000003
:101D10003502002010B5FFF7CDFF0022194B1A48FD
:101D20005A621A4B1A491A680240102A26D0194AD8
:101D30009A60D960154B18495A680968120C120448
:101D40000A4302215A601A680A431A601A68063167
:101D50000A431A601A6807390A431A608022094B3D
:101D60009200D8681043D860D8680243DA601A6AD3
:101D70000A431A621A680A431A6010BD054ADA60FB
:101D80009960D7E700400140104000005800024031
:101D9000F002002034400140C400002010B5FFF7DD
:101DA00059FF194B19481A6819490240102A27D0BF
:101DB000184A9960DA601E21134B5A68120C1204FB
:101DC0000A435A601A681C390A431A601A680631B5
:101DD0000A431A601A6807390A431A6080220E4BB8
:101DE0009200D8680243DA601A6A0A431A628022B3
:101DF000586C120202435A641A680A431A6010BDF2
:101E0000044AD9609A60D6E75800024010400000AA
:101E10000C0100203440014000400140F0B5002397
:101E2000C646424A00B5424C13709046414A0025CE
:101E3000137094462200404E404F4148337008CA08
:101E400038607C341168CB1A834201D21800012516
:101E500004320B00A242F5D1002D58D0031F386088
:101E6000222B26D80023374A1370374A13702C22AE
:101E700001333370354B1A70354B364A1A60364B86
:101E8000364A1A602022364B1A60364B1B78002BDC
:101E900007D1354B354AC318934227D80123424610
:101EA0001370431E9841C0B2314B187080BCB846C5
:101EB000F0BD0300293B262B2FD80123214A337084
:101EC0001370214A13702B4B2B4A5A622C221F4B42
:101ED0001A701F4B1F4A1A601F4B204A1A6020229B
:101EE0001F4B1A601F4B1B78002BDAD1234B9842F3
:101EF000D7DD0123624613702F22124B01201A7086
:101F0000154B0C3A1A60164B203A1A60CCE7154B69
:101F10001B78002BEDD10A48E8E7124B1B78002B09
:101F2000B7D0174B9842E4DCBBE7C046B9020020AB
:101F3000F0020020C102002066020020D000002034
:101F4000204E000034020020F0030020C0000020DA
:101F5000C8000020E8FD0000E0000020102700007D
:101F6000C4000020EF00002047F4FFFF7E0C0000BB
:101F7000B002002000400140FFFF000038180000C0
:101F8000B80B0000174B30B51A685968164D881AFF
:101F9000FC22441983B09200944219D99868401ADF
:101FA0004319934214D9114B18681149114A0B680F
:101FB0001268C41A944203DD9B180B6003B030BD55
:101FC0001C1AA24202DA9B1A0B60F7E70860F5E7D9
:101FD000FA22D20000230849009202F0C5F9034B0F
:101FE0001860E2E7F002002017FCFFFFEC0200207F
:101FF000B4020020CC0000200604000010B52D4BD8
:102000001B78002B03D02C4A1278002A06D12B4AC9
:102010001278002A3AD0012A07D010BD284B1B782D
:10202000002B1CD0FFF776FEF7E7002B08D1254ADE
:10203000254913600A68002A2DDB2DD0234A13603E
:102040001D4B1B78002B11D01D4B1B78002B28D06B
:10205000FFF75AFBFFF724FAFFF75CFEDDE7FFF717
:102060009DFEFFF751FBFFF71BFAD6E7184B1B78D5
:10207000012B19D0174B1B78012BCED1FFF782FF14
:102080000023154A53620F4A1360CBE7FFF7C6FEE1
:10209000FFF740FEC1E70B600C4A13680133136081
:1020A000CEE7FFF77BFEB8E7FFF7FAF9FFF732FE5E
:1020B000E0E7C0464402002074020020B002002085
:1020C00035020020C4020020AC020020E002002003
:1020D00066020020C102002000400140F0B591B02E
:1020E0001C22002109A8FFF7A9F98020434BC00159
:1020F000996900250143996180219A69C9020240CA
:102100000292029A5A6940270A435A615B69012682
:102110000B400193019B0223394C049303A9013323
:1021200038480593069507960895039702F0C2FD77
:102130002368354AC62013401022134323602368C6
:10214000324AC02113402022236023688000934339
:10215000236023686032BB4323602368090613436E
:10216000236023682A4A134023602368294A1340C6
:10217000294A236013581B021B0A0B431350802368
:102180001B051360E1235B02099308230A950B9555
:102190000C950E950F95214D09A928000D9302F07D
:1021A0005BFBAB681E4A1F481340AB606B681E4A5E
:1021B0001E4913402A226B60AB689343AB602B68C7
:1021C0001B4A1E432E6023680340102B13D0A160CE
:1021D000E2600B4B17495A680978120C12040A4343
:1021E00002215A601A680A431A601A6806310A43C3
:1021F0001A6011B0F0BDE160A260EAE70010024091
:102200001C00024000040048EFBFFFFFFFCFFFFFAC
:10221000FFFCFFFFFFF3FFFF00E100E0003801409B
:10222000FFFBFFFF10400000FFB7FFFFF40300209B
:1022300028380140D40000200C2008210D4B10B597
:102240001A680D4C82430A430C491A604A68247884
:10225000120C1204224380244A609A6822439A6036
:102260000A687F3C22430A6004211A6882430A43B9
:102270001A6010BD00380140D40000201C0002404C
:10228000F0B505AC164E24880D0A3700B1703271D6
:10229000110AB3711A0A230A7570F3710725002316
:1022A00034723070F1707271741C09370822434027
:1022B00004E0013AD2B2DBB2002A09D059B25B0085
:1022C0000029F6DA013A6B40D2B2DBB2002AF5D12E
:1022D000A74202D020780134E8E77372F0BDC0460F
:1022E000F40300207047C046FEE7C0467047C04672
:1022F0007047C0467047C0460B4B1A6892060ED511
:102300000A490A6801320A600021094A1170102244
:1023100001215A60074A13688B43136070471A689B
:102320001206FBD5F3E7C046000002403802002049
:10233000C00200201C0002400B4B10B51A681A683E
:10234000920306D41A68120302D5802252025A6000
:1023500010BD8022012152025A60044A13688B4347
:102360001360FFF74BFEF3E7000002405800024005
:102370008022054B9203596910B5114200D110BD5E
:102380005A6100F0E5FAFAE700040140054B10B588
:102390001A69D20700D410BD022252421A6100F01D
:1023A00047FBF8E700100040022210B5024B5242F2
:1023B0001A6100F0B3FC10BD002000407047C04619
:1023C0007047C046074B1A69920702D50322524252
:1023D0001A61044B1A69D20702D5022252421A61CD
:1023E0007047C04600400140074B1A69920702D56A
:1023F000032252421A61044B1A69D20702D5022203
:1024000052421A617047C04600040040084B10B5A4
:102410001A68920706D40822054B19680A4200D0B0
:102420005A6010BD01225A6002F070F8F3E7C0460E
:1024300000000240074B1A69920702D5032252425C
:102440001A61044B1A69D20702D5022252421A615C
:102450007047C046002C014010B572B60A23124CDA
:1024600002206363A363E363FFF77AFA3723C8208C
:10247000A36201F09BFF0420FFF772FA2823C82013
:10248000A36201F093FF0120FFF76AFA1923C82025
:10249000A36201F08BFFFFF71FFA0023034AA36238
:1024A000136062B610BDC046002C0140C40200207B
:1024B00070B572B63C23114C114D124E02202E60A5
:1024C000A362373B6363A363E363FFF749FA4B20DF
:1024D00001F06CFF50234B20A36201F067FF5A23E9
:1024E0004B20A3622E6001F061FFFFF7F5F9002396
:1024F000054AA362136062B670BDC046002C01405D
:1025000000300040AAAA0000C402002010B572B634
:10251000104A114B114C1A605023A3624B3B63636A
:102520000220A363E363FFF71BFA642001F03EFF80
:1025300046236420A36201F039FF28236420A362AC
:1025400001F034FFFFF7C8F90023054AA3621360C6
:1025500062B610BDAAAA000000300040002C014065
:10256000C4020020F8B572B6082377240E4D0F4F31
:102570000F4E6B63AB63EB63142120003E60FEF7EC
:102580004DFEFFF7EDF963100A330A20AB62023CFF
:1025900001F00CFF631CEFD1FFF79EF90023054A01
:1025A000AB62136062B6F8BD002C01400030004001
:1025B000AAAA0000C4020020F0B5C64600B5424CED
:1025C00030222000414982B001F094FF637C404FEB
:1025D000013B5A4253413F4A1370A37C013B5A428C
:1025E00053413B70E37C012B57D03B4D267D013E90
:1025F00073425E41394BF6B21E709846637D013BD3
:102600005A425341364A1370A37D013B5A4253410B
:10261000344A1370E37D032B00D90223324A13702E
:10262000207E0300183B182B3ED9304B304A1380D4
:10263000304AD362637E1A00323A642A27D82E4A7F
:102640005B0812780A339A182A602C4A13802823D0
:10265000A57E64215D432A4B1435ADB21D80E27E18
:10266000284B28001A70FEF74FFD274B80B21860E8
:1026700032212800FEF748FD244B80B21430186048
:10268000002E00D13E7002B080BCB846F0BD96234B
:1026900055222B60194B1A80D9E71D4A0E4D137035
:1026A0001C4B1B682B60A1E71B4B302200931821A9
:1026B0000E4B01F059FE194B18800E4B0004000C14
:1026C000D86243461E78B5E77C020020007C0008F3
:1026D00054020020650200209C010020EE00002032
:1026E000D8000020B8010020D9000020CF0700004A
:1026F000C4010020002C0140B0010020A0010020F6
:10270000A2010020A40100208C01002084010020EF
:10271000D4020020AC010020E7030000D600002016
:1027200010B5164B16481B783021013B5A425341D5
:102730004374144B1B78013B5A4253418374124B30
:102740001B78013B5A425341C374104B1B78013B29
:102750005A42534103750E4B1B78013B5A42534179
:1027600043750C4B1B78013B5A42534183750A4B0E
:102770000A4A1B78C37501F031FE10BD65020020C6
:102780007C02002054020020D4020020EE00002031
:10279000D8000020B8010020D9000020007C0008EB
:1027A00000B51B4B1B4883B01B4A9A1802CB116023
:1027B0008342F9D101230320184A91691943916199
:1027C000926913400193019B154B1968814319606D
:1027D000FA211A68890002431A60124B1868FEF742
:1027E00093FC802301385B04984200D3FEE7C021AC
:1027F0000D4A090650600D48036A1B021B0A0B4371
:102800000362002393600733136062B603B000BD18
:1028100000100008C010000800F0FF170010024070
:1028200000000140D001002010E000E000ED00E0D9
:102830000D4B1B78002B08D00C4B1B685B0408D495
:102840000B4A1368013313607047084B1B685B0425
:10285000F6D4084A136801331360022BF4DD00221A
:10286000034B1A60F0E7C046A60100201C0001409F
:10287000240400204C02002070B5294D294C2978F1
:10288000294A20884E1E73009852508813881B18BE
:1028900090881B18D0881B18108952891B189B1808
:1028A000224A5B101360224B1868012827D0F0B22F
:1028B00000281CD00123287019401E4B1970FFF707
:1028C0004FF8FFF791F9FA2322881B019A4206D9A3
:1028D000194B1B78002B02D00122184B1A700023D1
:1028E000174A1360174A1360174A136070BD062316
:1028F00001222B70154B062001211A70DDE70131F2
:10290000C9B2062906D80200080029700A40094BFE
:102910001A70D4E70D4B012228701870F7E7C046F3
:10292000B1010020EC000020580200201404002017
:1029300004010020A6010020EF000020B8020020C2
:1029400024040020DC020020D002002064020020C9
:102950008023DB055B6A10B57C2B05D896232A4AB9
:102960009B0012689A422EDB8023DB055A6A274BB4
:102970001A80274A136801331360642B3EDC254B11
:102980001B78002B0FD0244B1968002921DD8020F3
:102990000023224CC00102E001338B4219D022688F
:1029A0000242F9D010BD1C4B19680023002910DD2C
:1029B00080201A4CC00102E001338B4209D022680A
:1029C0000242F9D1EEE7164A643B12689A42CBDA2A
:1029D000E8E7FFF701F98022124B92035A61802346
:1029E00000221149DB055A620968104B5A62D9620C
:1029F00001211A61DA680A43DA60D3E7FFF7ECF8DD
:102A00000022074B1A60CDE778020020AA040020BC
:102A1000CC020020A6010020000100201C00014083
:102A2000C804002000040140D8020020002000401B
:102A300070B55C4B82B01B78002B08D15A4B1A88BA
:102A40005A4BDA625A4A12885A639A63DA63594BCC
:102A500003211868FEF7E2FB574C584D2378286095
:102A6000002B46D1564B1B78002B34D1C823554A36
:102A70005B0012889A421DD9C221FF20524A890068
:102A800053581B021B0A5350043153588343BF3819
:102A9000034353504D4A1368013313604C4A934229
:102AA00006DD4C4D2C78002C3BD14B4A934258DC30
:102AB00002B070BDC2208021434A80001358C9056E
:102AC0001B021B0A0B43C3211350FF2089005358DC
:102AD00083435350DEE7414B414A1988414B1878F4
:102AE000414B1B880093C823FFF7CAFBFFF7A4FBE9
:102AF000BCE73E4E316801F049FC2B685A08904211
:102B00000BD93B4A1168282907DD062111600021F5
:102B1000384A1160384A0131117033600023237044
:102B2000A0E7FEF7D9FE0022344B2A701A60344B1E
:102B30001A70344B1A601D4B5A639A63DA63324B36
:102B40009A625A62314B591CFF3104C39942FCD13D
:102B5000BFF34F8F2E4B2F4ADA60BFF34F8FC04623
:102B6000FDE7FEF7B9FE0022244B2C701C60244BBD
:102B70001C70244B1C600D4B5C639C63DC63224B1C
:102B80009C625C62214B591CFF3104C38B42FCD117
:102B9000BFF34F8F1E4B1F4ADA60BFF34F8FC04603
:102BA000FDE7C046C9020020C4010020002C0140FE
:102BB00008040020140400206402002048020020C1
:102BC000C0020020EC00002000E100E0C402002070
:102BD000C409000044020020A86100001004002085
:102BE000E20400001C0400202C040020B00400209B
:102BF000C8040020BC020020B8020020AC02002063
:102C0000B0020020E002002000400140F00200205D
:102C100000ED00E00400FA05394B10B51B68394A95
:102C2000002B20D0B42113684900013313608B427C
:102C30003DDAB421344A9B009C58344A4900136859
:102C4000013313608B423DDA2F4A9B009958B42020
:102C50002F4B40001A6801321A6082421ADB0022B0
:102C6000B4201A6019E01368013B1360002B2DDBC0
:102C7000254A9B009C58254B1A68013A1A60002A85
:102C80002EDB214B9200D158214B1A68013A1A6071
:102C9000002A2FDB1C4B9200D0581E4B1E4A1B688B
:102CA000181859181B1950639163D36310BD002382
:102CB000B4211360154AB42413684900013313602A
:102CC0008B42C1DB0023B4211360C0E76823FF33CC
:102CD00013600E4BB1241A68013A1A60002AD0DA48
:102CE0006822FF321A600A4BB1211A68013A1A6051
:102CF000002ACFDA6822FF32B1201A60CDE7C04641
:102D0000040100200C040020D44E0008C40400205C
:102D1000BC04002008010020002C01400121144ABD
:102D200010B5D368134C8B43D360134A23881288A1
:102D30009B185B102380FFF79FFD104A23881278B1
:102D4000D9084A430E495B089B1A0A600D4A136072
:102D50000D4B1B78002B05D180230C4A9B03116877
:102D60000B4313600A4A13680133136010BDC04659
:102D700000200040EC000020AA040020D900002020
:102D800040020020D8020020B802002000040140C8
:102D9000C804002010B50D4C2368002B09D08023F7
:102DA0000B4A9B0311680B4313600122094B1A6005
:102DB00010BDFFF761FD084B084A1A808023084ABE
:102DC000DB055A6201232360E9E7C046BC0200200C
:102DD00000040140A8010020EC00002010270000A2
:102DE00088130000F8B58027FF057D6A234B244E29
:102DF0001D8000237B6233882D045800C0182D0CE1
:102E00004019204B801084B219683480FEF706FA0E
:102E10001D4B640818601D4B241A1C60201A7B6A25
:102E20005B1B9842FBD8FFF727FD0022184B19497E
:102E30001A60194B1A600B6801330B601749097847
:102E400000290FD0632B0CDDFA233188DB00994277
:102E500007D2134B1A708023124A9B0311680B434D
:102E60001360F8BD1E2BFCDD0D4B0E4A197080233C
:102E700011689B030B431360F3E7C046AA040020CC
:102E8000EC000020DC00002040020020D8020020DE
:102E900024040020C80400204C020020EF00002081
:102EA000B802002000040140F0B5DE4657464E4609
:102EB00045460124E0B59DB0FFF772FC8021EA4B46
:102EC00049059A6922439A619A6922401B921B9A8A
:102ED000DA690A43DA61DB690B401A931A9B00F046
:102EE00055FE01F08BF901F05FF900F0C7FE00F02C
:102EF0002BFF01F04BF801F0EFF801F0B7F801F00B
:102F00007BF801F025F91021D84B1A6A22431A6286
:102F10001A6A0A431A628022196A52000A4304217B
:102F20001A621A6A0A431A621A6A3C310A431A621E
:102F30008022196AD2000A431A621A6822431A6070
:102F40008022596C12020A435A645A6922435A6118
:102F500001F07EF9C64BC7491A6A22431A621A6801
:102F600022431A60C44B1A6822431A605A692243EA
:102F70005A61DA682243DA60DA68A243DA60BF4B4A
:102F80001A6822431A605A6922435A618023DB057A
:102F90001A6822431A605A6922435A61B84B1A6868
:102FA00022431A605A6922435A61DA682243DA607E
:102FB0000023B44A199313681C43B34B1460186878
:102FC000FEF7A2F80301181A0A218000FEF79CF808
:102FD0001990199B002B05D0199B013B1993199B44
:102FE000002BF9D1FFF738FA01F0FEFA01F0A2FA4E
:102FF00001F0D0FAFFF772F800F088FEA34BA44A64
:103000001A60FEF787FEA34B1B78002B01D100F05E
:103010003BFDFA21A04B8900196011939F4B1A00C8
:103020000593012313709E4A137003929D4A1370F7
:1030300008929D4A10001392002202709B48018062
:103040000E209B4908709B490A7009919A490B70A0
:103050000E919A49080010916E21016078209849DC
:1030600008609849080006910A21017096490800F5
:1030700016910221017095490A70954A0A911370C0
:10308000944B12920F931A0014231380924B93497E
:103090000B931B780791013B5A1E93410B60904B99
:1030A000904A17931B88149213808F4B15938F4B64
:1030B0008F4D9B468F4B904E9A46904B904C984626
:1030C000904B99462B6801332B60322B1DDD8E4BC4
:1030D0008E491A888E4B170018884843FEF714F85B
:1030E000C31B9800C0188B4B00011988C91BFEF741
:1030F00095F8894B894A1E301870936888490B40AF
:1031000004210B43936000232B600023854A136046
:103110005E4B5F4A1A605B4652461B6812689342D8
:1031200004DD814B1B78002B00D126E3059B7F4AF1
:103130001B781278012B00D107E2002A00D0B7E1FA
:103140007B4A1278002A00D0B2E17A4B18687A4B99
:1031500018603368FA229200934200DD74E100287F
:1031600000D16EE2642B02DDC72800DC6CE2039B19
:103170001B78002B02D09F2800DC0BE2454B19780E
:10318000002900D163E1C8235B00984200DA08E21D
:10319000069B1A7864234B430133534322689342BE
:1031A00004DA0A9B1B78002B00D035E243461860F6
:1031B000624B1B78002B00D0A1E1039B1A7893008F
:1031C0009B181B012E33834200DB40E2564B1B78D9
:1031D000002B00D13AE34B461B68002B07D1584B1C
:1031E0001B78002B00D1EEE301234A461360FA223C
:1031F0000F9BD2001B882F210092524A01F0B4F895
:10320000039B1A78D3069B1A9B009B1ADB001818A5
:103210004D4B186093009A18434612011B682E32DA
:103220009A4200DB13E21B4B3268197814230B41DE
:10323000934200DC14E34B461B681F00109B1B6885
:10324000834200DD20E2C821030049008B4200DCFC
:1032500021E23D4B19603D4B3D481968FDF7DEFF0B
:103260003B004343180075E000100240002C014071
:1032700000400140400D0300002000400048014094
:10328000001000401C000140D00100200030004030
:10329000AAAA0000EF000020C00100205402002074
:1032A000D402002090010020D8000020A2010020BC
:1032B000A4010020B2020020EE0000209C010020AA
:1032C000AC010020E4000020D9000020B80100205B
:1032D000C8020020A0010020650200200401002097
:1032E000D6000020C40100207C020020E002002063
:1032F0003C020020E0000020C8040020AC020020B6
:1033000050020020BC020020B8F7FF1FE40C0000B0
:10331000A8040020C2F7FF1F1C0400200024014065
:10332000E8FFFF7FCC02002044020020BB02002007
:1033300066020020B4020020B8040020C902002068
:10334000B8020020FF0700007802002014040020CB
:1033500040420F00FA211B01181A80008900FDF776
:103360005DFFCE4B1860089B1B78002B00D0F1E16D
:10337000CB4B1868CB4B1B68834201DDC94B1860EF
:10338000C94B1B78002B6BD04B461B68002B67D0BA
:1033900043461B682F2B63DD139B1B78002B00D04B
:1033A00017E3149B1888BF4BC0491B68584304930C
:1033B000FDF734FFBE4B013018803368952B58DC85
:1033C0000421BC48BC4A0160BC4808310160E121CD
:1033D000049812888900884200DC97E1642B5FDC46
:1033E000592A02D80223B54A1360099B1B78002B87
:1033F00003D0B34BB14A1B781360B24B1B78002B40
:1034000000D1EEE04B461B68002B00D0CCE08023BF
:10341000DB055B6A2B6801332B60322B00DC74E622
:1034200055E6A549A84A0988914200D9A6E2A74ACB
:103430001278002A00D0A1E2A54B1A600023A54A09
:1034400013603368A34A1068002222608AE6952838
:1034500000DD65E16423069A00211370642299E679
:103460000023934A13808F4B1B6804933368952B7A
:10347000A6DD914B1A88E1239B009A4200D982E194
:10348000C82104984900884200DA39E1894F8D3912
:10349000FF393960894F01313960984200DC35E1EC
:1034A000E1239B009A42A0D2032384490B6097E753
:1034B000002B00D149E6864B1A688323DB009A4231
:1034C00000DB33E11300303BFA2189008B4210D23C
:1034D0000B99079F087801213F68091A0497B942A0
:1034E00000D121E25B002F337B4909785B1A7949CF
:1034F0000B602F2AA2DD774B186833682AE6302844
:1035000000DC96E0684B1B78002B00D191E031384D
:10351000572800D9ABE10121704AD3688B43D360AF
:10352000FEF75AFBFEF750FBFFF776FB3C234046C5
:103530000093B93389223021FF33006800F014FF73
:10354000674B186000F028FFBCE5002AB3D1654A3C
:103550001278002AAFD15E490868FA2189008842B2
:1035600000DCB6E10B9F3F78BC46079F39680491A9
:103570008C4500D0A1E1574932600A606146591A72
:103580003960504922600B70039B00201B78002B90
:1035900000D1F3E500232360534B1B78002B00D1AF
:1035A00055E70023236001E6FEF716FBFFF740F91D
:1035B0004E4B1B680493002B13D14D4B1B78002BF3
:1035C00000D118E24B4B1B6804934B4B1B680C93C8
:1035D0000C9A049B934204DD0123444A1360FFF7D5
:1035E00001FC8023DB055A6A444B9A4200D869E506
:1035F0004B461B681F00012B00D063E52268531C5B
:103600002360FFF7EFFBFEF7E7FA2E4A002317705F
:103610004A463360136055E5FEF75EF9FEF7DCFAC3
:1036200000234246136066332360284B1B78002B2F
:103630000DD00022294B5A639A63DA63FEF780FAB1
:1036400040E52060642B9FDD002323608FE50E9B07
:103650001B78002B00D0A1E0124A13604B461A6879
:10366000171E00D052E10123164932600B701E4B29
:103670001A7814231341002B00DCECE5109B1B6827
:10368000002B00DCE7E5002206490B60C821490059
:103690008B4200DDDDE51800E5E0C0462C0400208B
:1036A000FC0000207802002044020020CF07000028
:1036B00008040020DC000020EC00002000010020B5
:1036C00088010020B8020020DC050000C9020020AB
:1036D000B4020020B8040020A5010020002C014005
:1036E000B401002066020020EF000020DC02002070
:1036F000A60100202404002098010020409C000026
:103700000423BF490B60BF4908330B60592A00D915
:103710006BE6C823049A9B009A4200DC65E661E6EA
:103720000A23069A002113700A2233E50B9B07999E
:103730001B78096804918B4200D172E6B24BB34802
:103740009C461300007851006144091AB048303B90
:103750000160B9E6AF4A119B12681B680492AE4A39
:1037600012680C92AD4A0C9912680D920092049A5C
:1037700000F0FAFDAA4B1860FCE5AA4A0133137069
:10378000FEF7C4FED2E404219D4801609D48083143
:1037900001600499994200DD82E6B7E74B461A685A
:1037A000171E0DD10123A04932600B709F4B1B786F
:1037B000002B00D101E1FEF7C3F94B461B681F0047
:1037C00000239B4A13609B4A13609B4A7733136024
:1037D0009A4A78331360039B1B78012B01D1984AD6
:1037E0001370984B32681978142300200B419342D0
:1037F00004DD109B1B68002B00DD45E7002F00D186
:1038000029E50F9B1B88834201DD89490B60129BD0
:103810001B78002B00D11EE50A2A00DC1BE58A4B31
:1038200018888A4B984200D815E56423884A00938B
:103830008849633B00F098FD7D4B1B689C467C4BA0
:10384000604418604B461B681F0004E5784B3268E3
:1038500018687C4B197814230B41934200DDEAE48D
:103860004B461B681F009F2800DDF4E4C6E7FFF706
:10387000D3F943461B68C82B62DC774B186800F00D
:103880008BFD6C4B1B68002B00D01BE46C4A0121A4
:1038900013704A463360714B11601B680493049A9D
:1038A0006F4B1A706F4BDA680A43DA605A690A4341
:1038B0005A61FFF797FAFFF705FCFA22FA21D200C6
:1038C00000230092890000F04FFD514B1860664BB9
:1038D0001868664B984247DC01220B9B079F1B78B8
:1038E0009446D11A3A680492914231D161464E4AC7
:1038F0003B6011700022534B45491B780020326019
:103900000A602260002B00D04BE6A3E54D4B3268E5
:10391000197814230B41934204DD109B1B68002B84
:1039200000DDB1E600206CE7474A514B12889A420D
:1039300031D8434B1B78002B2DD14B4A13607DE5CA
:1039400000233C4A50201360434A5033136096E7EB
:1039500000230093FA230021DB00464A00F004FD17
:103960002B4B1860404B1868434A336894466044B8
:1039700095281ED9264A1068FFF7ECFB012207990B
:10398000D31A0B6000233360274B1A70FEF724F91B
:10399000354B1A68D2E60023234A33600133137093
:1039A000079B1860FEF718F92F4B1A685300313B3C
:1039B0009AE5002216490A6044E5FDF78DFF4B4663
:1039C0001B681F00FCE6FFF7E5F943461868FFF7A0
:1039D0000BFC1D4BC8221888179B60211B88009385
:1039E000264B00F0C1FC149B80B21880159B169AE0
:1039F000DB7D1370D7E4224B1B680493214BE5E574
:103A0000DC00002000010020FFF7FFFFA5010020DF
:103A1000B8040020840100208C010020BC0100209B
:103A2000FC00002044020020B802002055020020C3
:103A3000780200200C040020C4040020BC040020F4
:103A4000C9020020EF000020EC000020581B0000FD
:103A50002823000070170000B4010020E8000020B7
:103A6000B1010020002C0140B402002051030000ED
:103A7000DC05000052030000AEFCFFFFE70300007E
:103A80002404002094010020FEF796FD294B1A78AB
:103A9000294B1593D978294B91423DD015991B7824
:103AA000CA700B710023264A1599D05CC9180133DE
:103AB00048710C2BF8D1FEF733FE224B22481A78BE
:103AC0000E93224B07900B931B78013B591E8B41A1
:103AD00003601F4B1F4917931B8814910B80002A0A
:103AE00020D11D4B03931A701C4B11931C4B059353
:103AF0001C4B08931C4B13931C4B09931C4B1093AA
:103B00001C4B06931C4B16931C4B0A931C4B129395
:103B10001C4B0F93FFF7CBFA159908791978884257
:103B2000BCD1CAE70D4B11930D4B05930A4B039380
:103B3000DEE7C046C60100207C020020C70100204D
:103B4000F0000020EE0000200401002065020020AB
:103B5000D6000020C4010020D4020020C0010020B3
:103B60005402002090010020D8000020B202002062
:103B70009C010020E4000020D9000020B8010020B2
:103B8000C8020020A00100207047C046012236492B
:103B900010B50B68934313430B600B681A425FD058
:103BA0000121324A13680B43136001311368194233
:103BB000FCD0F82113688B4378390B431360536BA7
:103BC0007F390B435363294A0131536B1942FCD0AF
:103BD000F821536B8B4378390B435363536A7F3916
:103BE0000B435362214A0131536A1942FCD0536896
:103BF0001F491940A0239B030B430F215360D36A35
:103C00008B43D362802311685B040B4380211360D4
:103C1000164A890413680B42FCD0F0215368134CF8
:103C20008B435360536813490B400321536053681F
:103C30008B4301390B4353600C2263681340082BFC
:103C4000FBD10D4800F064FE0B4800F071FE042229
:103C5000636B93436363236B013A9343236310BD08
:103C6000FFF792FF9CE7C046002002400010024090
:103C7000FFFFC2FFFFF8FFFF006CDC0270B58EB0E3
:103C80001822002102A8FDF7D9FB102200210AA862
:103C9000FDF7D4FB80201A4A800251699025014328
:103CA000516153690024034001930326019B0223C1
:103CB000ED0508A92800089309960C9400F0FAFF76
:103CC000202308A92800089309960C9400F0F2FF1D
:103CD000C321FF200B4B89005A5882435A5080223F
:103CE00052011A60502302A90748029403940493D6
:103CF00005940694079401F05FF80EB070BDC046BD
:103D00000010024000E100E01C000140094B0A4A9B
:103D100007211A60094A1A6002225A60FA22120127
:103D20009A60DA681142FCD1054A1A61054A1A60A4
:103D30007047C04600300040CCCC00005555000014
:103D4000FF0F0000AAAA0000F0B5DE4657464E4617
:103D50004546E0B59DB01422002103A8FDF76EFB97
:103D60002022002114A8FDF769FB1822002108A8D1
:103D7000FDF764FB182200210EA8FDF75FFB8022EF
:103D8000794E1201B36900241343B361B3699046BD
:103D900013400293029B6B469C81744B6A460593C9
:103DA0000023734D03A9280013770494069400F0B0
:103DB000C5FD80222B68914613432B60AB686D4A8A
:103DC000012113400822AB60AB6992461343AB61FB
:103DD000602314AA28001493159416941794189429
:103DE00019941A941B9400F0F3FD0422AB699346D6
:103DF00093434246AB61AB6910211343AB6114AAF4
:103E000028001594169400F0E3FD5146AB695A4A18
:103E10005A4F1340AB617B6828000B437B608023C3
:103E20005B009A4614AB1A0051461594169400F0A4
:103E3000CFFD59467B6828008B4341467B607B68F9
:103E400015940B4380217B6014AB1A004901169432
:103E500000F0BEFD7B68484A2C21134070227B6035
:103E60006B68802793434A466B60AB68BF019343FE
:103E70006A46AB602D23521813706B4608A92800C0
:103E8000DC85089409940A940C970D9400F0B6FE12
:103E90008021726989020A437261736902250B40AD
:103EA00080210193019B7269C9020A43726173699F
:103EB00090260B400093009B4B46F6050EA9300060
:103EC0000E930F95109411941294139500F0F2FE36
:103ED00001230E932A4B0EA9984618000F951094B3
:103EE00011941294139500F0E5FE0EA940460E952C
:103EF0000F95109411941294139500F0DBFE534625
:103F00000EA930000E930F951094119412941395EE
:103F100000F0D0FE80230EA99B0030000E930F9579
:103F2000109411941294139500F0C4FE80230EA9EE
:103F3000DB0030000E930F9510941194129413959A
:103F400000F0B8FEC3200F4B80001A580E491140F4
:103F5000802212020A431A501F601DB0F0BCBB46FB
:103F6000B246A946A046F0BD00100240CF070000AF
:103F7000002C0140F8BFFFFFFFFBFFFF182C0140A2
:103F80000004004800E100E0FF00FFFF30B587B00B
:103F900001AD142200212800FDF750FA0123134A35
:103FA0008024D169E4051943D161D2692900134005
:103FB0000093009B17232B8000230D4A20006B6089
:103FC000AA60EB6000F0BAFC8022236809499343A1
:103FD0002360A3680B407021A36063688B43636018
:103FE000A3689343A36007B030BDC04600100240F1
:103FF000FFFF0000F8BFFFFF30B587B001AD14220E
:1040000000212800FDF71AFA1023C420134A80006B
:10401000D169134C1943D161D269124913400093FD
:10402000009B114B1A581140802212020A431A5069
:10403000802292021A602F232B80002329006B60BC
:1040400020006433AB6000F079FC80222368934346
:104050002360A3689343A36007B030BD0010024003
:1040600000100040FF00FFFF00E100E030B587B026
:1040700001AC142200212000FDF7E0F98020134A52
:104080004000D169124D0143D161C421D369114A65
:10409000034000938900009B535828001B021B0A11
:1040A000535080231B0313601723FA22238000231D
:1040B000120121006360A260E36000F03FFC8022F7
:1040C0002B6813432B6007B030BDC0460010024080
:1040D0000020004000E100E010B586B0142200216D
:1040E00001A8FDF7ABF98020144A80029169144CB5
:1040F00001439161936913490340C5200093009BDC
:10410000114B80001A581140802212020A431A50A3
:10411000802292031A6000236A4693800B4A200093
:1041200003926A4601A902930493137500F006FCFA
:10413000802223689343236006B010BD0010024024
:1041400000440140FF00FFFF00E100E028230000E1
:1041500010B586B01422002101A8FDF76FF9802068
:104160000E4AC00291690E4C0143916193696A46FF
:1041700003400093009B2F2393800A4A002303925D
:104180006A46200001A902930493137500F0D6FB40
:10419000802223689343236006B010BD00100240C4
:1041A00000480140FFFF00000123114A82B051691D
:1041B000104819435161C22152698900134001938B
:1041C000019B0D4B5A5810408022D20302435A5093
:1041D00080228020D2001A605A58C0051202120AAA
:1041E00002435A50802212011A6002B07047C04642
:1041F00000100240FFFF00FF00E100E0002210B5C8
:10420000802488B0114B07925869A402204358615A
:1042100080205969C00221400191019959690143E7
:1042200059615B6902A903400093009B90208023A1
:10423000C0051B028362029301230492039305923B
:10424000069200F037FD08B010BDC04600100240D5
:10425000F0B58FB01422002103A8FDF7EFF88020FD
:10426000394B4002996900240143996180219A6980
:10427000890202400292029A5A6990200A435A61C6
:104280005B6903260B400193019B042301250893DE
:1042900008A9023BC00509930B940D940A960C954E
:1042A00000F008FD294B2A491A6880270A401A6045
:1042B0001A682849FF200A4020211A601A688A4398
:1042C0001A601A6820318A431A601A682249BA4370
:1042D0003A431A601A681140802252000A431A6059
:1042E0001A681E491140802212010A43C5211A6032
:1042F0001B4B89005A5882435A50802252031A603D
:104300006B469C813F236A460593002304940694E0
:10431000144C03A92000137700F010FB0C22236833
:10432000BB432360A369B3432B43A361A3699343B6
:10433000A361A369E4329343A361236AE63A13437A
:1043400023620FB0F0BDC04600100240580002408A
:10435000EFBFFFFFFFCFFFFFFFFCFFFFFFF3FFFFFC
:1043600000E100E00040014010B51C00884200DA86
:1043700008001300824200DD030002985B1A001B54
:104380005843511AFCF74AFF001910BD0300401AA8
:1043900000D5C81A7047C0460023034A5362536AC7
:1043A0008342FCD37047C0460048014000220121EF
:1043B000084B5A62084A9A625A690A435A615A6A11
:1043C0008242FCD32F2201219A625A690A435A6120
:1043D0007047C046004801407FBB0000F0B547462B
:1043E000CE4680B585B016006A46CB0F5B185B10D1
:1043F00098465B000733DB08DB00D31A00AF9D460D
:104400006D460C008146424600212800FDF716F853
:10441000012C0BDD484600234178027809025C003C
:104420000A4301332A5302309845F5DC4346012103
:104430002D4A7B60D3681942FCD113691B0605D550
:104440002A4B1B6853602A4B1B685360B30516D177
:104450000221254A13690B431361566113693E31EA
:104460000B4313613F39D3681942FCD12023D16833
:104470000B4236D102211C4A13698B43136100237E
:10448000BB60FB60FB687A689A421FD9012020223A
:1044900015490B6903430B61FC68BB686400645BEE
:1044A0009B191C80CB681842FCD1CB681A4200D003
:1044B000CA600B6983430B61BB680233BB60FB6856
:1044C0000133FB60FC687B689C42E2D38021BD46DF
:1044D000054A13690B43136105B0C0BCB946B04629
:1044E000F0BDD360C6E7C04600200240C8010020EE
:1044F000CC010020002A06DD5218401A0B784354E4
:1045000001319142FAD170477047C046054B064AC7
:10451000998811801988054A11805A88044B1A809D
:104520007047C046CC040020A804002010040020DE
:10453000B4040020C220124B80001A5811491140C7
:10454000C02212020A431A508022032192001A60EC
:104550000D4B0E4A9A600E4ADA605A68120C120429
:104560000A435A601A6801390A431A601A68063108
:104570000A431A601A6807390A431A607047C0462E
:1045800000E100E0FF00FFFF08000240402401407E
:10459000CC0400200023124A82B001939368114991
:1045A000194080231B060B4393609368002BFCDBB0
:1045B00001230193019B002B05D0019B013B01933B
:1045C000019B002BF9D1064A064993680B40012153
:1045D0000B43936013681942FCD002B07047C04689
:1045E00000240140E8FFFF7FF0B5C64600B592B059
:1045F0001022002103A8FCF721FF1422002107A8A4
:10460000FCF71CFF102200210EA8FCF717FF8020EA
:10461000424B8000996990240143996180219A69F5
:10462000890202400292029A5A6900250A435A619D
:104630005B6908260B400193019B03239846E40520
:104640000CA9200040270D930C96109500F032FB2A
:1046500043460CA920000D930C97109500F02AFBFF
:104660002F4B30491A68304C0A401A601A682F499B
:1046700020000A4020211A601A680A431A601A684A
:104680006031BA431A601A680A431A601A682849E6
:104690001140802252000A431A601A6825491140CD
:1046A0008022D2000A431A60A36A23493343A362DB
:1046B000A36A3B43A3628023A26A5B021343A36203
:1046C0000B681E4A1A4080231B0413430B6080238F
:1046D00003A91B06039304950595069500F0B8FA07
:1046E000012307A920000A930795089509950B95C2
:1046F00000F0C8FA04220721E3689343E36063698A
:104700008B4301390B436361636893436360636860
:10471000B343636012B080BCB846F0BD00100240E5
:1047200008000240EFBFFFFF00240140FFCFFFFF62
:10473000FFFCFFFFFFF3FFFF08270140FFFF3FFEE5
:1047400080220C4B5202586870B5104042425041D2
:10475000094A40421040094A0F249446D96A6044ED
:10476000214001315D68FCF7CFFCAD0C2C400234D8
:10477000604370BD0010024000F7C2FF00127A00D3
:104780000E4B10B55A680C2304001340082B11D0AF
:104790000B4B0A4923604A680A481206120F825CD2
:1047A000D34063604A6808495205520F8A5CD3407F
:1047B000A36010BDFFF7C4FF0300EAE7001002404A
:1047C00000127A007454000884540008030010B5E5
:1047D0000020002B1DD11C4A0333116B0B40022B10
:1047E00027D0032B1DD05268012B13D00C2313406C
:1047F000082B26D1FFF7A4FF134B14495A685B68B6
:104800001206120F8A5C5B05D040114A5B0FD35C25
:10481000D84010BD0B331340082B08D1FFF790FF91
:10482000F7E713680222100018401A42F1D0094835
:10483000EFE71800126A10401342EAD0802000020D
:10484000E7E70448D8E7C046001002407454000867
:104850008454000800127A0030B5036804000D008B
:1048600085B0DB071DD44B68C96802680B43296912
:104870000B43A9690B4320490A4013430360436873
:104880001E4A1340AA681343436083681C4A1340BE
:104890006A69134383601B4B984205D01A4B9842B8
:1048A00018D0012005B030BD0020FFF78FFF002891
:1048B000F7D029680029F4D08023AA691B029A4204
:1048C0000DD04B081818FCF71FFC0004000CE0602A
:1048D0000020E7E701A8FFF753FF0398E7E74B083D
:1048E0004000C018FCF710FC084B03400007400FC5
:1048F0001843E0600020D5E7F369FFFFFFCFFFFF1B
:10490000FFFCFFFF0038014000440040F0FF0000C2
:10491000FA2110B58900FCF7F7FB0022034B0138A0
:1049200058609A6005321A6010BDC04610E000E081
:10493000014B18607047C046D00100201D4A036833
:10494000904226D08022D205904219D01A4A904235
:1049500016D01A4A904217D0194A90421DD0194ACF
:1049600090421AD0184A904217D003608B68C362F5
:104970000B8883620122436913434361002070471F
:10498000702293434A681343104A1340CA68134382
:10499000EBE7702293434A6813430C4A1340CA68FA
:1049A000134303608B68C3620B8883620B7C0363D1
:1049B000E0E7C046002C0140000400400020004019
:1049C000004001400044014000480140FFFCFFFF5F
:1049D000802370B55B00994200D175E041D8012970
:1049E00000D1B3E010296DD1036A784D8B43036287
:1049F000036A466884692C4015682D022C432025E3
:104A0000AB431D0013691B012B438B4351680D0100
:104A10006F492B43884208D06E49884205D06E49C1
:104A2000884202D06D49884214D180218B431D00F9
:104A3000536940399B012B438B4391688D01684931
:104A40002B430E409169674D890031432940D56958
:104A5000EE000E43D26846608461826303620020E8
:104A600031E080235B0199422CD1016A5E4E574CA4
:104A700031400162036A4568C1692140146824021B
:104A80000C435A49194013691B030B4351683340C7
:104A900009030B434E49884208D04E49884205D04D
:104AA0004D49884202D04D49884204D150490D40B9
:104AB000916989010D43D2684560C4610264036253
:104AC000002000E0012070BD7324016A494E31408E
:104AD0000162036A4168C569A54314682543464CD1
:104AE0001C4013691B0223435468334024022343B0
:104AF000374CA0420FD0374CA0420CD0364CA042CD
:104B000009D0364CA04206D0D2684160C561C2636C
:104B100003620020D7E7334E314C1E4053699B029D
:104B20003343314E234094680E409169A4022343DD
:104B300009012E4C31432140D469D26866013143CA
:104B40004160C561C26303620020BCE77326036A4B
:104B50008B430362036A44688569B543166835432D
:104B60000226B343166933438B4351680B431849FC
:104B700088420FD0174988420CD01749884209D083
:104B80001649884206D0D268446085614263036258
:104B9000002098E708218B43190053699B000B43C1
:104BA00004218B43916889000B4312490C409169A1
:104BB0000C4311490C40D169D26849000C43446050
:104BC00085614263036200207DE7C046FF8CFFFFE2
:104BD000002C0140004001400044014000480140D9
:104BE000FFFBFFFFFFF7FFFFFFEFFFFFFFDFFFFF11
:104BF000FFBFFFFFFFFEFFFFFFFDFFFF8A680B7B8C
:104C000013430D4A13404A6813430C4A13400A6881
:104C100013430B4A1A40CB8913430A4A13400A69CB
:104C20001343094A13404A69084913430B4013438D
:104C3000436400207047C046FFFBFFFFFFF7FFFF04
:104C4000FFEFFFFFFFDFFFFFFFBFFFFFFF7FFFFF64
:104C50008268030010B50120D20710D48C684A681E
:104C6000D8682243CC6809682243054C204002439F
:104C70000020DA601A69920092080A431A6110BD96
:104C8000C73FFFFF8368020010B50120DB070ED489
:104C90004C680B68D06823438C682343CC6809694F
:104CA00023430B430249014000200B43D36010BD56
:104CB0003CC2FEFFF0B5DE4657464E464546E0B5DF
:104CC0000A684B6883B0002A00D172E09C46012339
:104CD00001245B4263449846A34600230AE00E6920
:104CE000C56874434E4635402C43C46014000133FC
:104CF000DC4041D05C4615009C4025402242F5D066
:104D00002C006C436700BA46A2445746FF43B9469D
:104D100057460668BE43674667433E4306604646BD
:104D2000012EDCD88668B2468E68574666430196E7
:104D30004E4637403E00019F37438760C6684F4666
:104D4000B2460E6966430196564637403E00019FC3
:104D500037436646C760022EC8D1FF2D1DD8644375
:104D6000056A2601361BB5434E69013374432C4353
:104D700004621400DC40BDD14346012B05D84368D2
:104D8000C96893434A431A434260002003B0F0BC11
:104D9000BB46B246A946A046F0BD2D0A6D436D4301
:104DA000446A2E01761BB4434E6975432543456220
:104DB0009CE7013B9846DFE71B4B30B5C2188023C8
:104DC000D2001B029340194C25681D40AB4215D000
:104DD000A04215D04D680B6820682B438D682B438B
:104DE000CD682B430D6949692B430B431049934010
:104DF0009140884303430020236030BD0120FCE73D
:104E00004D680B6804682B438D682B43CD682B439A
:104E10000D6949692B430B430649934091408C43EC
:104E2000234303600020E8E7E4FFFEBF1C000140CD
:104E30007C3F00007E3F0000F8B5C046F8BC08BCCF
:104E40009E467047F8B5C046F8BC08BC9E46704701
:104E50004416000862160008541600087816000868
:104E60004416000844160008441600084E160008B0
:104E70005C1600089C1600088616000844160008F8
:104E8000801600084416000844160008441600085E
:104E9000441600084416000844160008441600088A
:104EA0006A1600083C160008191B12131D15161768
:104EB0001A090A0B1E0D0E0FC2190008C4190008AA
:104EC000061A00085A1A0008961A0008E81A00087C
:104ED0006E190008B4000000B7000000BA0000001E
:104EE000BD000000C1000000C4000000C7000000B9
:104EF000CA000000CD000000D0000000D300000078
:104F0000D6000000D9000000DC000000E000000036
:104F1000E3000000E6000000E9000000EC000000F3
:104F2000EF000000F2000000F5000000F7000000B4
:104F3000FA000000FD000000000100000301000075
:104F400006010000090100000B0100000E01000035
:104F500011010000130100001601000019010000FA
:104F60001B0100001E0100002001000023010000C1
:104F700025010000280100002A0100002C0100008A
:104F80002F01000031010000330100003501000055
:104F9000380100003A0100003C0100003E01000021
:104FA00040010000420100004401000046010000F1
:104FB00047010000490100004B0100004D010000C5
:104FC0004E0100005001000051010000530100009B
:104FD0005401000056010000570100005801000074
:104FE0005A0100005B0100005C0100005D0100004F
:104FF0005E0100005F01000060010000610100002F
:105000006201000063010000630100006401000010
:1050100065010000650100006601000066010000F6
:1050200067010000670100006701000068010000DF
:1050300068010000680100006801000068010000CC
:1050400068010000680100006801000068010000BC
:1050500067010000670100006701000066010000B1
:1050600066010000650100006501000064010000A8
:1050700063010000630100006201000061010000A3
:10508000600100005F0100005E0100005D010000A2
:105090005C0100005B0100005A01000058010000A3
:1050A00057010000560100005401000053010000A8
:1050B00051010000500100004E0100004D010000B0
:1050C0004B010000490100004701000046010000BB
:1050D0004401000042010000400100003E010000C8
:1050E0003C0100003A0100003801000035010000D9
:1050F00033010000310100002F0100002C010000ED
:105100002A01000028010000250100002301000001
:10511000200100001E0100001B0100001901000019
:105120001601000013010000110100000E01000033
:105130000B0100000901000006010000030100004E
:1051400000010000FD000000FA000000F700000070
:10515000F5000000F2000000EF000000EC0000008D
:10516000E9000000E6000000E3000000E0000000AD
:10517000DC000000D9000000D6000000D3000000D1
:10518000D0000000CD000000CA000000C7000000F1
:10519000C4000000C1000000BD000000BA00000013
:1051A000B7000000B4000000B1000000AE00000035
:1051B000AB000000A7000000A4000000A100000058
:1051C0009E0000009B000000980000009500000079
:1051D000920000008F0000008C000000880000009A
:1051E00085000000820000007F0000007C000000BD
:1051F00079000000760000007300000071000000DC
:105200006E0000006B0000006800000065000000F8
:10521000620000005F0000005D0000005A00000016
:105220005700000055000000520000004F00000031
:105230004D0000004A00000048000000450000004A
:1052400043000000400000003E0000003C00000061
:105250003900000037000000350000003300000076
:10526000300000002E0000002C0000002A0000008A
:10527000280000002600000024000000220000009A
:10528000210000001F0000001D0000001B000000A6
:105290001A000000180000001700000015000000B0
:1052A00014000000120000001100000010000000B7
:1052B0000E0000000D0000000C0000000B000000BC
:1052C0000A000000090000000800000007000000BC
:1052D00006000000050000000500000004000000BA
:1052E00003000000030000000200000002000000B4
:1052F00001000000010000000100000000000000AB
:10530000000000000000000000000000000000009D
:10531000000000000000000000000000000000008D
:105320000100000001000000010000000200000078
:105330000200000003000000030000000400000061
:105340000500000005000000060000000700000046
:1053500008000000090000000A0000000B00000027
:105360000C0000000D0000000E0000001000000006
:1053700011000000120000001400000015000000E1
:1053800017000000180000001A0000001B000000B9
:105390001D0000001F00000021000000220000008E
:1053A0002400000026000000280000002A00000061
:1053B0002C0000002E000000300000003300000030
:1053C0003500000037000000390000003C000000FC
:1053D0003E000000400000004300000045000000C7
:1053E000480000004A0000004D0000004F0000008F
:1053F0005200000055000000570000005A00000055
:105400005D0000005F000000620000006500000019
:10541000680000006B0000006E00000071000000DA
:105420007300000076000000790000007C0000009E
:105430007F0000008200000085000000880000005E
:105440008C0000008F00000092000000950000001A
:10545000980000009B0000009E000000A1000000DA
:10546000A4000000A7000000AB000000AE00000098
:10547000B100000000000000000000000102030471
:0C548000060708090000000001020304F8
:04548C00E91000081B
:04549000C11000083F
:105494002C0000002000000024F40000FA000000AA
:1054A400204E00000A00CF070102000003000000A4
:1054B400E80300000A00000005000000D4300101E8
:1054C4004D70363533315F4465762020CF070000B8
:1054D40005000000010000003C0000000000000086
:1054E40000000000000000000000000000000000B8
:1054F40000000000000000000000000000000000A8
:105504000000000000000000400000000000000057
:105514000000000000000000000000004000000047
:105524000000000000000000000000000000000077
:105534004000000000000000000000000000000027
:105544004000000040000000000000004000000097
:1055540000000000460000001400000014000000D9
:10556400010000000700000007000000B400000074
:105574004000D0070E010100010000007800000087
:10558400190100006400000001000000CF070000C2
:10559400F4010000CF07013C23016745AB89EFCD3F
:0455A40000127A0077
:040000050800144D8E
:00000001FF
