:020000040800F2
:2010000000200020594D0008DD4B0008E14B0008000000000000000000000000000000007E
:20102000000000000000000000000000E54B00080000000000000000E94B0008ED4B0008FC
:20104000A94D0008A94D0008A94D0008A94D0008A94D0008A94D0008A94D0008A94D0008A0
:20106000A94D0008054D0008F14B0008314C0008694C00082D4D0008A94D0008A94D000814
:20108000E14C0008854C000800000000A14C0008BD4C0008B54C0008A94D0008A94D000837
:2010A000A94D0008A94D0008A94D0008B94C0008A94D000800000000A94D0008000000002D
:2010C00010B5064C2378002B07D1054B002B02D0044800E000BF0123237010BDE00100209E
:2010E00000000000044E0008044B10B5002B03D00349044800E000BF10BDC046000000007A
:20110000E4010020044E0008002243088B4274D303098B425FD3030A8B4244D3030B8B4218
:2011200028D3030C8B420DD3FF22090212BA030C8B4202D31212090265D0030B8B4219D324
:2011400000E0090AC30B8B4201D3CB03C01A5241830B8B4201D38B03C01A5241430B8B42AD
:2011600001D34B03C01A5241030B8B4201D30B03C01A5241C30A8B4201D3CB02C01A52410E
:20118000830A8B4201D38B02C01A5241430A8B4201D34B02C01A5241030A8B4201D30B02C4
:2011A000C01A5241CDD2C3098B4201D3CB01C01A524183098B4201D38B01C01A524143090B
:2011C0008B4201D34B01C01A524103098B4201D30B01C01A5241C3088B4201D3CB00C01A7E
:2011E000524183088B4201D38B00C01A524143088B4201D34B00C01A5241411A00D2014620
:20120000524110467047FFE701B5002000F0F0F802BDC0460029F7D076E7704703460B433A
:201220007FD4002243088B4274D303098B425FD3030A8B4244D3030B8B4228D3030C8B422C
:201240000DD3FF22090212BA030C8B4202D31212090265D0030B8B4219D300E0090AC30B19
:201260008B4201D3CB03C01A5241830B8B4201D38B03C01A5241430B8B4201D34B03C01A51
:201280005241030B8B4201D30B03C01A5241C30A8B4201D3CB02C01A5241830A8B4201D3BB
:2012A0008B02C01A5241430A8B4201D34B02C01A5241030A8B4201D30B02C01A5241CDD2C5
:2012C000C3098B4201D3CB01C01A524183098B4201D38B01C01A524143098B4201D34B0109
:2012E000C01A524103098B4201D30B01C01A5241C3088B4201D3CB00C01A524183088B425F
:2013000001D38B00C01A524143088B4201D34B00C01A5241411A00D2014652411046704749
:201320005DE0CA0F00D04942031000D34042534000229C4603098B422DD3030A8B4212D3A5
:20134000FC22890112BA030A8B420CD3890192118B4208D3890192118B4204D389013AD026
:20136000921100E08909C3098B4201D3CB01C01A524183098B4201D38B01C01A5241430940
:201380008B4201D34B01C01A524103098B4201D30B01C01A5241C3088B4201D3CB00C01ABC
:2013A000524183088B4201D38B00C01A5241D9D243088B4201D34B00C01A5241411A00D2FA
:2013C0000146634652415B10104601D34042002B00D54942704763465B1000D3404201B512
:2013E000002000F005F802BD0029F8D016E770477047C0468368020010B50120DB0710D426
:201400008C684B68D0682343CC6809682343054C204003430020D36013699B009B080B432A
:20142000136110BDC73FFFFF8368020010B50120DB070ED44C680B68D06823438C682343B1
:20144000CC68096923430B430249014000200B43D36010BD3CC2FEFF154B30B5C21880237B
:20146000D2001B029340134D2C681C40A34215D00C684B6823438C682343CC6823430C699A
:20148000496923430B439340A84209D00A4829689040814300200B432B6030BD0120FCE7EF
:2014A000064C01689440A1430B4303600020F4E7E4FFFEBF1C0001407C3F00007E3F000098
:2014C000F0B54E464546DE4657464B68E0B59C4601230E685B4283B0634401919846002EAE
:2014E0004AD0002207E0C3681C403C43C46033000132D34040D0012393403340F7D01D00C8
:2015000004685D43A1466C0064194F46E4432740B94667466F43BA464F4651460F43019956
:2015200007600F6941466F43B9460129DBD881688B460199896869438A46594621408B4625
:2015400051465F4639438160C1680C4049460C436146C4600229CAD101994C69FF2B1DD8A0
:201560006D432901491B6543036A01328B431D4333000562D340BED14346012B06D8019A4D
:201580004368D268B34356431E434660002003B03CBC90469946A246AB46F0BD1B0A5B4307
:2015A0005B435C43456A1901C91A8D432C4344629DE7C0460A4A70B50F249446094B586839
:2015C000D96AC003C01710402140604401315D68FFF79AFDAD0C2C400234604370BDC04624
:2015E00000093D00001002400E4B10B55A680C2304001340082B12D1FFF7DCFF094A206033
:20160000536809491B061B0FCB5CD84060605368064A5B055B0FD35CD840A06010BD04483E
:20162000ECE7C04600100240405400085054000800127A00030010B50020002B1DD11D4B42
:2016400003301A6B1040022818D0032821D05A680C231340012817D0082B26D1FFF7AAFF37
:20166000144B15495A685B681206120F8A5C5B05D040124A5B0FD35CD84010BD1B6A1840E2
:20168000431E9841C003F8E7082B10D1FFF792FFF3E702201B68184043425841084B404209
:2016A0001840084B9C466044E7E70648D8E70548E3E7C04600100240405400085054000867
:2016C00000EE85FF00127A00234A30B503688D680C8890422FD08022D205904212D01F4A5F
:2016E00090420FD01E4A904231D01E4A904226D01D4A904223D01D4A904220D00360C562EF
:20170000846212E0702293434A681343184A1340CA6813430360144BC5628462984202D0C9
:20172000124B984201D10B7C03630122436913434361002030BD702293434A6813430C4A17
:201740001340CA6813430360C5628462EBE7084A1340CA681343D1E7002C014000040040D6
:2017600000200040004001400044014000480140FFFCFFFF70B5102900D1ADE070D98023D9
:201780005B00994231D080235B01994200D0A1E0016A704E704C31400162036A4568C169EA
:2017A0002140146824020C436C49194013691B030B435168334009030B436949884208D007
:2017C0006849884205D06849884202D06749884204D167490D40916989010D43D26845606D
:2017E000C46102640362002075E07324016A614E31400162036A4168C569A54314682543EF
:201800005D4C1C4013691B0223435468334024022343534CA04208D0524CA04205D0524CBD
:20182000A04202D0514CA04213D1544E544C1E4053699B023343474E234094680E409169E6
:20184000A40223430901454C31432140D46966013143D2684160C561C263036200203AE02F
:20186000012937D17326036A8B430362036A44688569B543166835430226B34316693343F5
:201880008B4351680B433649884208D03549884205D03549884202D03449884213D10821C7
:2018A0008B43190053699B000B4304218B43916889000B432F490C4091690C432E490C4009
:2018C000D16949000C43D2684460856142630362002000E0012070BD036A1F4D8B4303620E
:2018E000036A466884692C4015682D022C432025AB431D0013691B012B438B4351680D016E
:2019000017492B43884208D01649884205D01649884202D01549884214D180218B431D00C5
:20192000536940399B012B438B4391688D0114492B430E409169114D890031432940D569FE
:20194000EE000E43D26846608461826303620020C1E7C046FFEFFFFFFF8CFFFFFFDFFFFF1A
:20196000002C0140004001400044014000480140FFBFFFFFFFFEFFFFFFFDFFFFFFF7FFFFC6
:20198000FFFBFFFF8A680B7B13430D4A13404A6813430C4A13400A6813430B4A1A40CB895B
:2019A00013430A4A13400A691343094A13404A69084913430B401343436400207047C0463C
:2019C000FFFBFFFFFFF7FFFFFFEFFFFFFFDFFFFFFFBFFFFFFF7FFFFF30B5036885B0040092
:2019E0000D00DB071DD44B68C96802680B4329690B43A9690B4320490A4013430360436814
:201A00001E4A1340AA681343436083681C4A13406A69134383601B4B984205D01A4B9842FC
:201A200018D0012005B030BD0020FFF703FE0028F7D029680029F4D08022AD694B08120258
:201A400095420CD0C018FFF75FFB0004000CE0600020E7E701A8FFF7C7FD0398E7E7400061
:201A6000C018FFF751FB094B03400007400F1843E0600020D6E7C046F369FFFFFFCFFFFFBB
:201A8000FFFCFFFF0038014000440040F0FF0000FA2110B58900FFF737FB0022034B013827
:201AA00058609A6005321A6010BDC04610E000E0014B18607047C046DC010020054B064A02
:201AC000998811801988054A11805A88044B1A807047C046F0020020D80400201C030020FE
:201AE000EC040020C220124B80001A5811491140C02212020A431A508022032192001A607B
:201B00000D4B0E4A9A600E4ADA605A68120C12040A435A601A6801390A431A601A68063150
:201B20000A431A601A6807390A431A607047C04600E100E0FF00FFFF0800024040240140EB
:201B4000F00200200023124A82B0019393681149194080231B060B4393609368002BFCDB7E
:201B600001230193019B002B05D0019B013B0193019B002BF9D1064A064993680B4001210D
:201B80000B43936013681942FCD002B07047C04600240140E8FFFF7FF0B593B010220021EE
:201BA00003A803F027F91422002107A803F022F9102200210EA803F01DF98020404B800096
:201BC00099699024014399618021082603259A69890202400292029A5A69E4050A435A6166
:201BE0005B6920000B4001930CA9019B40270D950C96FFF765FC0D9500250CA920000C9790
:201C00001095FFF75DFC2F4B2F491A682F4C0A401A601A682E4920000A4020211A601A687D
:201C20000A431A601A686031BA431A601A680A431A601A6827491140802252000A431A600C
:201C40001A68254911408022D2000A431A60A36A22493343A362A36A3B43A3628023A26AD6
:201C60005B021343A3620B681D4A1A4080231B0413430B60802303A91B06039304950595BC
:201C80000695FFF7B7FB012307A920000A930795089509950B95FFF7C7FB04220721E368A8
:201CA0009343E36063698B4301390B4363616368934363606368B343636013B0F0BDC046C7
:201CC0000010024008000240EFBFFFFF00240140FFCFFFFFFFFCFFFFFFF3FFFF0827014032
:201CE000FFFF3FFEF0B5DE4657464E464546864A86481368D16FE0B5C91A0160844889B0ED
:201D0000844661443A295BD81000824F8030390000E0136854680832E31A5B0908C19042A7
:201D2000F7D178693A6904000790B86901920590F86A7A6884460392BA68396A3B680492D2
:201D4000019A029106935340029ABD6A5340DA00039B796A6340A8464B40FD689B00134306
:201D60002A006046FE697240424013430598049A42404046424052001343786B3A6B80002D
:201D8000D2000243F86BBF6B02437F003A43624FDBB23878D2B28146604882460078834674
:201DA0004846002813D15846002813D10F30801A834263D09A4214D0594A13680133136089
:201DC00009B03CBC90469946A246AB46F0BD58460028EFD00F2082465046821AD2B29A4209
:201DE000EAD100224F4B1A604F4A1368013313606346012B02D162464C4B1A70069B039A88
:201E00009B025202134342461343049AED011002019A03432B439501079A2B435201134362
:201E2000059AF60014011C43029B26439B001E43490031432F2914DC4B1E2E2B17D80022BF
:201E40003B4B3C4C1A6021603B4B1B68002BB7D14B46002BB4D015291CD8384A8B00D35813
:201E60009F460022324B1960324B1A60A8E7002944D12F4B19602F4B1960A1E70120834649
:201E800050465C460470A5E72D4B1A7801239B1A2C4A13602C4B19700023236090E70022FF
:201EA000274B1A7002F016FE2168F3E70122244B1A7002F03DFE2168ECE7214B1A78214BAE
:201EC0001A60E7E702F060FE2168E3E700F0F8F9FEE701221D4B1A7002F02AFE00231C4A99
:201EE0003B7013602168D5E70025184B1D7002F0F1FD174B3D701D602168CBE70D4C2168E1
:201F00000029A1DC5CE7C046500300207002002045FBFFFFFC01002048020020780200206E
:201F20006C020020CC02002074020020C8020020B802002024030020C40200201C4E00082C
:201F40006A02002004010020B502002058020020E8020020294B70B51B68002B0DD0284BDE
:201F60001A680F231100194101290AD0013B082BF8D1002323490B6006E0234A204B1A60D4
:201F8000EFE72049083B0B601A4159020A4393B2180A190941404B400F21080098430300A6
:201FA00012011343194A18131360194A194E145C08001840105CE4030443181208401B11E5
:201FC0000B40105CD35C800204435B011C43124B30001C604023243033620431012500E007
:201FE00004302A008A402240CA409B0953409B0103600139F4D20023F36170BDC40200208D
:20200000200300203C020020FFFF0000F8020020744E00080C010020FC020020F0B5CE4639
:20202000474680B585B016006A46CB0F59184B1098465B0099460833DB08DB00D31A00AF90
:202040009D466D46040042460021280002F0D2FE4346002B0CDD4B4629002000E418427826
:2020600003781202134302300B800231A042F6D1434601212D4A7B60D3681942FCD1136906
:202080001B0605D52A4B1B6853602A4B1B685360B30516D10221254B1A690A431A615E61B3
:2020A0001A693E310A431A613F39DA681142FCD12022D9680A4236D102211C4A13698B43E3
:2020C00013610023BB60FB60FB687A689A421FD901212020154A13690B431361FC68BB6854
:2020E0006400645B9B191C80D3681942FCD1D368184200D0D06013698B431361BB6802335F
:20210000BB60FB680133FB60FC687B689C42E2D38021BD46054A13690B43136105B00CBC2A
:2021200090469946F0BDDA60C6E7C04600200240C0000020C4000020002A06DD5218401A59
:202140000B78435401319142FAD17047F8B5474C302247492000FFF7EFFF637C012B00D1DC
:2021600074E00022434B1A70A37C434F012B00D000233B70E37C012B00D170E03F4D237D7E
:202180003F4E012B00D000233370637D012B63D000223C4B1A70A37D012B5AD000223A4B61
:2021A0001A70E37D032B4DD8384A1370227E183AD3B2182B34D9364B364A1380364AD362CD
:2021C000637E1A00323A642A24D8344A5B0812780A339A182A60324A13802823A57E642128
:2021E0005D43304B14351D80E27E2F4B28001A70FEF78AFF2D4B80B2186032212800FEF742
:2022000083FF2B4B80B2143018603378002B00D13B70F8BD962355222B60214B1A80DCE74D
:202220009005801A8001801840008018C0001821FEF7F4FF164B9C461E4B60441880164B54
:20224000D862BDE70222114B1A70AFE7094A13708AE70D4A1370A4E70A4A13709BE7164A9B
:20226000064D1370154B1B682B6088E780020020007C00086A02002058020020A0010020BE
:20228000E6000020CC000020C8010020CD000020CF070000D4010020002C0140BC01002061
:2022A000A4010020A6010020A80100208C01002084010020CA000020DC020020B4010020BA
:2022C00010B5164B16481B78012B00D000234374144B1B78012B00D000238374124B1B7819
:2022E000012B00D00023C374104B1B78012B00D0002303750E4B1B78012B00D00023437540
:202300000C4B1B78012B00D0002383750A4B0B4A1B783021C375FFF781FE10BD6A02002028
:202320008002002058020020DC020020E6000020CC000020C8010020CD000020007C000837
:2023400000B51B4B1B4883B01B4A9A1802CB11608342F9D101230320184A916919439161F7
:20236000926913400193019B154B196881431960FA211A68890002431A60124B1868FEF70A
:20238000C3FE114B0138984200D9FEE7C0210F4A090650600E48036A1B021B0A0B4303629E
:2023A000002393600733136062B603B000BDC04600100008C010000800F0FF170010024084
:2023C00000000140DC010020FFFFFF0010E000E000ED00E000220121084B5A62084A9A6284
:2023E0005A690A435A615A6A8242FCD32F2201219A625A690A435A617047C046004801403B
:202400007FBB00000F4A104913680B4010210B4313600E4B0E391A690A431A611A698A43DD
:202420001A6160220A4B01399A615D3A1A62094A12789A623D22DA62074A11705A690A43AC
:202440005A61704744000240EFBFFFFF001002400004004000050020BF0200200E4A0F498C
:2024600013680B40022113600D4B1A690A431A611A698A431A610A220A4B013999611A6261
:20248000094A12789A62094ADA625A690A435A610022074B1A70704744000240EFBFFFFF22
:2024A0000010024000040040DA040020FFFF0000BF02002010B5FFF7D1FF0022194B1A4836
:2024C0005A621A4B1A491A680240102A26D0194A9A60D960154B18495A680968120C1204C6
:2024E0000A4302215A601A680A431A601A6806310A431A601A6807390A431A608022094B6A
:202500009200D8681043D860D8680243DA601A6A0A431A621A680A431A6010BD054ADA60B3
:202520009960D7E70004004010400000440002405003002034040040DC00002010B5FFF728
:2025400061FF194B19481A6819490240102A27D0184A9960DA601E21134B5A68120C1204D7
:202560000A435A601A681C390A431A601A6806310A431A601A6807390A431A6080220E4BB2
:202580009200D8680243DA601A6A0A431A628022586C120202435A641A680A431A6010BD0A
:2025A000044AD9609A60D6E744000240104000000C0100203404004000040040F0B5C6466D
:2025C0003F4B404800B59846186000233E4A3F4C13703F4A0025137094463E4A3E4E137083
:2025E0003E4A3F4F1370220033703B7008CA7C341168CB1A834201D21800012504320B00DB
:20260000A242F5D1002D10D101232F223B70354B1A70354B0C3A1A60344B1F3A1A60012223
:20262000334B1A7004BC9046F0BD4346040001001860031F293C6539222B12D80023294A57
:2026400013702C4A13702C22013333702A4B1A702A4B2B4A1A60244B2A4A1A602022234B69
:202660001A60262C14D801231E4A33701370214A1370254B254A5A622C221F4B1A701F4BBB
:202680001F4A1A60184B1F4A1A602022174B1A6095235B00994207D91D4B9842B4DC00282B
:2026A000BDD1134B1870BDE762462A3BFF3B1370FA220D4B92001A6004220C4B1A60EEE7EC
:2026C000B8010020204E0000C102002050030020B7020020BE0200206B020020BD02002038
:2026E000C9020020DA040020D4000020DC000020B402002000050020D9000020F4000020F9
:20270000E8FD00001027000000040040FFFF000070170000FC211D4A70B5506813681C4D8F
:20272000C31A5C1989008C4218D993681B1A5A198A4213D9174B18681749184A0B68126813
:20274000C41A944207DC1C1AA24201DB086070BD9B1A0B60FBE79B180B60F8E7104A0020DE
:2027600093420ED9FA22D20093420DDC0D4A0E49944663445801C01A8000C0180001FEF741
:202780004DFD044B1860D7E71300EFE75003002017FCFFFF28030020B80200209401002023
:2027A00005040000FAFBFFFFCA03000000B5374B83B01B78002B03D0354A1278002A07D14A
:2027C000344A1278002A0AD0012A0DD003B000BD314B1B78002B21D0FFF76CFEF6E7FFF717
:2027E000EDFEFFF767FEF1E7002B08D12B4A2C4913600A68002A2BDB2BD02A4A1360244B67
:202800001B78002B11D0244B1B78002B1DD0FFF7A1FBFFF767FAFFF74DFED7E7FFF78EFE95
:20282000FFF798FBFFF75EFAD0E71F4B1B78012B14D01E4B1B78012BC8D1FFF76BFF0023B9
:202840001B4A5362154A1360C6E7FFF777FEBDE70B60144A136801331360D0E7FFF742FAFC
:20286000144B1B78002B02D1FFF724FEE1E7FA22114B92001988114B1878114B1B8800935F
:20288000C82302F093F802F06DF8EDE74802002078020020B4020020BF020020CC020020FC
:2028A000B0020020E80200206B020020C902002000040040C80200201C0300202C03002008
:2028C0005C0400200D4B1B68002B0DD00C4B1B685B040DD50B4A136801331360022B02DDF7
:2028E0000022094B1A607047054B1B685B04F1D5054A136801331360F5E7C046AC01002019
:202900001C0001405002002044030020164B1B68012B25D0042B23D0022B1DD0052B1BD025
:20292000032B0BD0062B09D0104B1B68002B0CD10F4AD36080239B039360704741220D4B6C
:202940001A600A4B1B68002BF2D00022084B9A6080229203DA60F0E76121064A1160DFE778
:202960005121044A1160D7E7C0010020AC010020000401401C00014070B5284D284C296879
:20298000284A2688481E43009E52568813889B1996889B19D6889B19168952899B199B188C
:2029A000214A5B101360214B1B68012B26D000281CDD0123286019401D4B196001F0E4FDE4
:2029C000FFF7A4FFFA2322881B019A4206D9194B1B78002B02D00122174B1A700023174A39
:2029E0001360174A1360174A136070BD062301222B60154B01211A700620DDE7481C062830
:202A000007DCC20F81180B4028609B1A084A1360D4E70D4A2B6013700120F7E7C00100201C
:202A2000E40000205C0200202003002004010020AC01002068020020BC0200204403002010
:202A4000E4020020D8020020690200208023DB055B6A10B57C2B0AD82B4A2C4B12689A4213
:202A600005DCF4232A4AFF3312689A423ADD8023DB055A6A274B1A80274A13680133136065
:202A8000642B29DC254B264A1B681268002B2AD1002A0CDD23480168490423D58024E401EA
:202AA00002E0016821421DD001339342F9D11E4B80211A68002289031A60596180231B4933
:202AC000DB055A6209681A4B5A62D96201211A61DA680A43DA6005E0134A136800231360D4
:202AE0000B4A136010BD002AE1DD0E4803685B04F8D480240023E40102E001682142F1D151
:202B000001339342F9D1D2E77C020020570200000C050020DC040020D4020020AC0100203E
:202B2000000100201C00014000040140E00200200020004030B5594B83B018680321FEF71B
:202B40006DFB574B574A18601378002B0BD056490B68C31ADC171B1963404408A3423BD8C4
:202B6000002308601370514B1B78002B41D1C8234F4A5B0012889A421DD9C221FF204D4AF7
:202B8000890053581B021B0A5350043153588343BF3803435350484A136801331360474A51
:202BA000934206DD464D2C78002C30D1454A934250DC03B030BDC22080213E4A80001358D3
:202BC000C9051B021B0A0B43C3211350FF208900535883435350DEE73B4B1C68282CBFDDD5
:202BE00006241C600024394B1C60394B01341C70B6E7384B384A1988384B1878384B1B884A
:202C00000093C82301F0D2FE01F0ACFEAFE701F077FC0022334B34491A60344B2A701A70A6
:202C2000334B1A60334B1960334B5A639A63DA63324B9A625A62324B591CFF3104C3994237
:202C4000FCD1BFF34F8F2F4B2F4ADA60BFF34F8FC046FDE701F054FC224B234A1C60234B6B
:202C60002C701C70224B1C60224B1A600022224B5C639C63DC63214B9C625C62204B591CC8
:202C8000FF3104C38B42FCD1BFF34F8F1D4B1E4ADA60BFF34F8FC046FDE7C0462003002046
:202CA0004C02002069020020E8040020C8020020E400002000E100E0CC020020C4090000A5
:202CC00048020020983A00000C050020C4020020BC0200201C030020E20400002C0300204F
:202CE0005C040020B0020020204E0000B4020020E8020020B8010020002C014000040040AA
:202D00005003002000ED00E00400FA05444A4548126830B50368002A21D168210133FF3182
:202D20008B4246DC6821404A03601368FF31013313608B4246DC68213C4D9B00EC583C4A76
:202D4000E30F1C191368FF310133641013608B4244DC9B00E958CA0F5118491019E0013BED
:202D60004CD4314C03602368013B4ED4304A23601368013B1360002B34DB2C4D9B00E958B4
:202D80002368CA0F9B00EC585118E30F1C1949106410284B1A68036814199B00E858C30F59
:202DA0001B185B1024489B18521843638463C26330BD682102601C4AFF31136801331360AA
:202DC0008B42B8DD002368211360194AFF3113685A240133154D13608B42BADD00235A21DB
:202DE0001360D6E76823FF33136023680F4D9B00EC585821E30F1C196410CAE768230A4C07
:202E0000FF3303602368013BB0D56823084AFF3323601368013B1360002BAEDAE2E7C04693
:202E2000040100201803002004050020844E0008F804002008010020002C01400121144AFD
:202E400010B5D368134C8B43D360134A238812889B185B102380FFF78FFD104A238812789E
:202E6000D9084A430E495B089B1A0A600D4A13600D4B1B78002B05D180230C4A9B03116845
:202E80000B4313600A4A13680133136010BDC04600200040E4000020DC040020CD000020D7
:202EA00044020020E0020020BC020020000401400C05002010B50C4C2368002B0AD1FFF7B2
:202EC0005BFD0A4B0A4A1A8080230A4ADB055A62012323608023084A9B0311680B43136050
:202EE0000122064B1A6010BDC4020020E4000020102700008813000000040140B001002045
:202F000070B58025ED056C6A254B1C8000236B62244B24041A88240C500080180019801029
:202F200086B21E80204B1968FEF778F91F4B204A186073081B1A13601E4AB6081660181A2C
:202F40006B6A1B1B8342FBD3FFF716FD00221A4B1A491A601A4B1A600B6801330B60194913
:202F60000978002910D0632B0DDDC82316495B000968994207DD154B1A708023144A9B03F1
:202F800011680B43136070BD1E2BFCDD0F4B104A1970802311689B030B431360F3E7C04610
:202FA000DC040020E4000020D000002044020020E002002058040020440300200C050020A1
:202FC0005002002068020020F4040020BC02002000040140044B1A88044BDA62044A128856
:202FE0005A639A63DA637047D4010020002C0140100300200121334A10B513688B430B4393
:2030000013601368304B1A680A431A6001311A681142FCD0F8211A688A4378390A431A604B
:203020005A6B7F390A435A63274A0131536B1942FCD0F821536B8B4378390B435363536A6A
:203040007F390B435362204B01315A6A1142FCD05A681E491140A02292030A430F215A602D
:20306000DA6A8A43DA628022196852040A4380211A60154B89041A680A42FCD0F0215A68C8
:20308000114C8A435A605A6811490A4003215A605A688A4301390A435A600C2263681340EC
:2030A000082BFBD10B48FEF7F3FC0A48FEF700FD0422636B93436363236B013A93432363E1
:2030C00010BDC0460020024000100240FFFFC2FFFFF8FFFF006CDC02F0B5DE4657464E4671
:2030E0004546E0B50126ADB0FFF72AF98021FE4D4905AB6980273343AB61AB69BF02334054
:203100000593059BEA6924AC0A43EA61EB690B400493049BFFF76EFF1022002126A801F072
:2031200069FE80206B69C0023B436B616B6990223B401193119B6B69D20503436B616B69C6
:20314000210003401293129B80231B029362100066602493FEF7B4F96B69E44933436B6192
:203160006B69C22233401093109B0B0092008A469B581100DE4A56461A408023DB03134370
:203180000A0080207350F8313160B358C0051B021B0A0343B3508022120132601EAE182260
:2031A0000021300001F026FE26AB10220021180001F020FE6B6902213B436B616B69902099
:2031C0003B4003270F932491C005210067600F9BFEF776F920239020249300236760210083
:2031E000C005C32798462361FEF76AF95346FF21BF00DB59BF488B435146CB518027434602
:203200007F010F6073601E935033B36043463100F36033617361FEF71FF913AB1800142217
:20322000002118AF01F0E6FD20220021200001F0E1FD18220021380001F0DCFD18220021C8
:20324000300001F0D7FD8022AB6912011343AB61AB6913400C930C9BA74B1593A74B994636
:2032600013AB19004846FEF72FFA4B46802249461B68484613430B608B68A14922000B40ED
:20328000082183609F4B9B4683690B43836160232493434607396360A360E36023616361E5
:2032A000A361E361FEF766FA4B4604209B698021834348468361836909010B43836143462E
:2032C000220010216360A360FEF754FA4B468E489B6908210340484683615B4658465B6847
:2032E00022000B4343604346F83148466360A360FEF740FA5B4604205A4680215B680901B3
:2033000083435360536848460B43802153604346220049016360A360FEF72CFA5B467A4810
:203320005B6880220340584643604B4670205B683900834348464360836893438360434663
:203340007B60BB601893714B1B883B734346FB8180239B013B6143467B61FEF713FB8022D5
:2033600080206B69920213436B616B69C00213400D930D9B6B69022103436B616B69802273
:2033800003400E9390200E9B434671607161C00531001E92B360F3603361FEF791F8022183
:2033A000434601277160716159483100B360F36033611E97FEF784F8022143467160716178
:2033C0001E9153483100B360F3603361FEF778F8802302215B0090201E9343467160716165
:2033E000C0053100B360F3603361FEF769F8802302219B0090201E93434671607161C005D4
:203400003100B360F3603361FEF75AF880230221DB0090201E93434671607161C005310016
:20342000B360F3603361FEF74BF8C32352469B0018008021D358374A09029346134052460D
:203440000B431350802304A89B01844613608223634412220021180001F0CCFCEB6980202D
:203460003B43EB61EB6921003B401893189B1723294FC0052380A760FEF726F980208027B8
:20348000C00503681E49BB430360836814220B407021836043688B43436083680021BB432E
:2034A0008360200001F0A6FC8022AB6992021343AB61AB6957461340C52213939200139BF9
:2034C000BB585F463B4080273F023B435746BB5080239B033B60114F114B21003800A360B7
:2034E000FEF7F2F81EE0C0460010024000E100E0FFFF00FF1C000140CF070000002C014039
:20350000F8BFFFFF182C0140FFFBFFFFC800002000040048FF00FFFFFFFF000000440140C5
:203520002823000080203B68122283433B6004AB9C468227674438008027002101F05AFC3C
:20354000EB697F003B43EB61EB6950463B400B93C4270B9B5346BF00DB5921001B021B0A4B
:20356000C35180231B03036017232380FA23F74F1B013800A360FEF7A7F880203B68122271
:20358000034304A884463B60822363440021180001F030FC1022EB6951461343EB61EB691F
:2035A00013400A930A9BC4239B001A00CB5859460B40802109020B4351468B5080239B0221
:2035C0000B602F2323806423A360E14B21009B461800FEF779F85B46802059461B681222BE
:2035E00083430B608B68834304A884468B60822363440021180001F0FDFB8020AB69C0029C
:203600000343AB61AB69210003400993099B2F232380D04BD048A360FEF756F8CE4B802079
:203620001A001B688021834313604B46012248461B6A090213430362036A10200343484615
:203640000362036A80204000034348460362036A0420034348460362036A40200343484614
:203660000362036A8020C000034348460362036813430360436C0B434364436900211343F4
:203680004361C3681343C3601332300001F0B2FB26AB0C220021180001F0ACFB022180203C
:2036A000EB69C0020B43EB61EB6901220B400793079B6B6903436B616B6961600340089303
:2036C000089B10232100A54862612493FDF7F8FEA34BA4491A6840200A401A601A68A249B4
:2036E0000A4020211A601A688A431A601A68603182431A601A68C0308A430A431A601A6822
:203700009A490A4002431A601A6899490A40802109010A431A60C42352469B001800D35840
:20372000FF2293435246135080235B021360C22350469B001A00C358802051461B02C005C0
:203740001B0A03438B5080231B010B604346338073603F33B3604346F3603374854B3100E1
:2037600099464E461800FDF7AFFF8021336801228B433360B36903264946B3431600134326
:203780008B618B690B3293438B618B69E43293438B610B6AE63A13430B620B6A0632334303
:2037A0000B620B6833430B6026AB0021180001F021FB80226B69920213436B616B69902081
:2037C000134080220693069B6B69D20213436B616B69624D13401E931E9B90228023D20584
:2037E0001B0293622022AA622A00082521009562C00524936660FDF763FE202324934346E0
:2038000021005648A360E36023616660FDF758FE434621005148A360E36023616660249583
:20382000FDF74EFE80204D4B4B4C9D613B68C00533433B607B69594633437B61FB68334354
:20384000FB60FB68B343FB60236833432360636933436361036833430360436933434361C5
:203860005B461B6833430B604B6933434B61CB683343CB604346404924930B6833430B607C
:203880003E4B3F491868FDF73FFC03000001C01A80000A21FDF738FC2490249B002B05D044
:2038A000249B013B2493249B002BF9D101F0B0F801F0DAF8FEF770F9FEF714F9FEF742F9B6
:2038C00000F09EFF2F4B304A1A60304A1A6002225A60FA2212019A600722D9680A42FCD16F
:2038E0002B4A1A612B4A1A601A60FEF7E3FDFEF72DFC294B1A78294BDB78934213D8284B7C
:2039000026491B78097999420DD224490B710023CA70244A2149D05CC918013348710C2B1A
:20392000F8D1FEF7CDFC204B1B78012B01D100F021FD1E4B1A000293012313601C4B1D4A79
:203940001B88002713801C4B994637E00020004000100040FFFF000000480140000400482A
:2039600044000240EFBFFFFFFFCFFFFFFFFCFFFFFFF3FFFF000400401C000140DC010020C2
:20398000400D030000300040CCCC000055550000FF0F0000AAAA0000D6010020800200202A
:2039A000D7010020E80000206A02002004010020CA000020D401002040020020D14B9B4618
:2039C000D14B9A46D14B98464B464A461B6801331360322B1CDDCE4BCE491C88CE4B1888C3
:2039E0004843FDF791FB031B9800C018CB4B00011988091BFDF712FCC94BCA4A1E30187052
:203A00009368C9490B4004210B4393604B461F60C64BC74A1F60C74B1A60C74B1B68019382
:203A20005B46019A1B689A4204DDC44B1B78002B00D12EE3C24BC34AC3491B7812780C68A4
:203A4000012B00D1F9E1002A00D025E1BF4A1278002A00D020E1BE4BFA221C6053461B6844
:203A60009200934200DD41E1002C00D10DE2642B00DD40E1B74B1D78002D02D09F2C00DC2A
:203A800029E2B54B1878002800D1EFE0B34B1A789023FF339C4200DC15E24346196864230C
:203AA0004343013353438B4204DAAD4B1B78002B00D013E2AB4B1C60AB4B1B78002B00D09A
:203AC00088E15A2633006B432E330193A34200DBAAE29A4B1B78002B00D1EDE2A34B1B6827
:203AE0000393002B12D1A24B1B78002B01D100F030FC01239D4A8021136008229D4B09024D
:203B00009A629022D205916220229A619A4B20001F709A4B1E889A4B9C4200DCC7E2180071
:203B2000FA21C9008B1B2F385843FDF777FBEB065B1B9B005D1B8619924BED0076191E60A3
:203B4000019B9C4200DC6FE253461B681D2B00DCB9E2864A14688C4A128801929F2E00DCEB
:203B600058E28A4B8A481968FDF758FBFA210301181A800060438900FDF750FB854B186018
:203B8000854B1B78002B00D001E2844B1D68AE4202DD2E007B4B1D60684B1B78002B78D097
:203BA000002C76D06F4B1B6803932F2B71DD7C4B1B78002B00D0A0E37A4B1888FA2170430D
:203BC000C900FDF72BFB784B188053461B68952B56DDE123019A9B009A4251D89023FF3374
:203BE0009E424DDD0423714A1360714A01331360704B1F80E1239B009E420CDD53461B6826
:203C0000642B08DD6C4B019A9A4210D80323684A1360684B1F80019B592B08D8C8239B00F7
:203C20009E4204DD0223624A1360624B1F80634B1B78002B03D0624B5D4A1B7813604C4B03
:203C40001B78002B00D185E1484B1B680193002B00D063E18023DB055B6A4B464A461B689A
:203C600001331360322B00DCD2E6B4E643461968952C00DDD3E16423384A137064220EE7AF
:203C800004234A4A13604A4A08331360494B1F80B0E7454B1F8098E7002B00D1DBE6494BEB
:203CA0009C4200DDE1E12300474A303B934200D9ECE1464A0298117801220068521A0190B2
:203CC000824200D1C7E25A0053461B682F3240490978521A1E490A602F2C00DCD3E01C4A38
:203CE0001468FA229200934200DCBDE642461760002C00D138E3C72C00DDBBE643461F60B6
:203D0000B8E6C046D40000200C05002054020020B8F7FF1FE40C0000D8040020C2F7FF1FD4
:203D20002C03002000240140E8FFFF7FD4020020AAAA000000300040E8020020480200203C
:203D400058020020C1020020B80200206B020020F4040020DC02002068020020D800002007
:203D6000C8010020B0020020D1020020C4020020BC020020000400485A020020A401002044
:203D8000FF0700007C020020E40000202003002040420F005C04002090010020F80000205E
:203DA000CC000020D401002010030020D000002000010020FC00002083030000B602002064
:203DC0008801002017040000E70300006A020020A9010020302C00DC99E0D54B1B78002B50
:203DE00000D194E0313C572C00D9FEE10121D14AD3688B43D360D04B1A681F6000F0F8FC5D
:203E0000FEF784FFCD4B1B68892B00DCE8E18923303BD805C01A8000C018C000C01A000175
:203E20005921FDF7FBF9C64BF530C64AFF3018605762536A9842FCD8C6E5002A00D02EE755
:203E4000C14A1278002A00D029E7C04A944200DC32E2BF4A02991278096801918A4202D123
:203E60009B1A029A1360BB4BE21853009B18BA4A1360BA4A5346944654226444FF321B68B8
:203E8000944200D92BE7B44A176042461760A84A1278002A09D090228021D2050902916147
:203EA0002021AF4A916218399162642B0EDD43461F60AC4B1D78002D0CD10024AA4B1878D0
:203EC000002800D1D2E643461F60F3E5A54B1D78002DF2D0002443461F60EFE700F010FBE0
:203EE000954B1A681F60954B42461F606623136090238022DB0512029A622022984B9A6298
:203F0000183A9A61994B1B78002B00D18CE0894B5F639F63DF6300F027FC55E5864B1A68FB
:203F20001F60FEF7CFFC924B1B680193002B11D1904A914B12681B680192002A00D1FCE123
:203F40008E4A126801929A4204DA0123884A1360FEF7D6FF8023DB055A6A894B9A4200D8C0
:203F600032E5884B1C68012C00D02DE5434642461B6801331360FEF7C3FF6F4B1A681F6017
:203F8000814B1C707F4B1F6053461F601CE57F4A7F4B11681B687F4A1568984200DA1800C6
:203FA0000A00814200DD02007B48D21A0068C91A0390401B5043FDF731F9784B45191D601E
:203FC000E5E5002B0BD101226F490A7052461360734B1B78002B00D18CE100F0C5FB714B8A
:203FE000714A1F60714B1F6077231360704A783313605C4B1B78012B01D15C4A137053466D
:204000001B681D2B00DC1CE100265E4A1468694A12880192002C61D1624B1E68A1E50A238E
:20402000654A13700A223AE5644A564B12781B68002AC6D15B490A60002BE0D1012252493E
:204040000A70524613605E4A1268002ADCDDC826544976000A60B2423EDD524B1E60494BAD
:204060001C68544B1B8801937BE5394B029A1B7812680192934200D1FBE0524A630094466C
:20408000514A634412789B1A334A136053461B6822E6274A013313700822314B9A6290230E
:2040A0008022DB0512029A6100F042FDC2E42F2C00DB35E52F2033E53A4B1E6853461B68BC
:2040C0001D2B00DD45E53E4A1268B242BFDC3200C8267600B242C0DC16003AE53B4A128886
:2040E000B24200DDB3E02F4A1668394A1278002A00D136E5322B00DC33E5364B019A9A42F9
:2041000000D82EE5344B101C9A4200D9181C334BFA219C4680B2604483001B181B01181ACB
:20412000C900FDF77BF81F4B013036181E6018E548020020002C014000040140B0020020FD
:20414000C4010020004801406B0200204C0400006A020020B5FBFFFFF404002008FDFFFFBF
:2041600000040048DC02002068020020D1020020E4020020AC010020440300209C01002081
:20418000409C0000C4020020BC020020840100208C010020D0010020CC010020F800002037
:2041A000590200207C0200200405002018030020F8040020E4000020D8000020E600002064
:2041C000A0010020FFF7FFFFA9010020A4010020D0020020581B000028230000A8E4FFFF61
:2041E000302B00DB14E6302312E6FEF78FFD654B1B680193C82B75DC634B1968634B18685B
:20420000634A5762536A8B42FCD3002801D0FFF7DBFB01215F4B18705F4B19605346186092
:204220005E4B1B680193019A5D4B1A605D4BDA680A43DA605A690A435A61FEF761FEFFF77B
:20424000C3FB594A1268002A00DD00E7DCE6574916000A6049E75648564A008890421DD8F6
:204260004C4A1278002A19D1534B1A6053461B6809E64F494F4A0988914203D8454A12785E
:20428000002AF1D001220299D31A0B6053461F604A4B1A704A4B1A681F60EEE6524617606D
:2042A000012246480270029A1160454A116817605A002F3200230AE5424A944200DDD8E586
:2042C000414A0299127809689B1A01918B4201D1029B1A60BE239B001B1B5A00D3183B4A44
:2042E0001360C6E5294B284A1F60502300201360502185E700F004F971E6019A1300C82A74
:2043000016DDC823324A603B1088324A6821944660445843FCF782FFFA239B009C462E4B6B
:20432000604480B218802D4B2D4ADB7D137045E4019A602AE6DA6023E4E72A4A1268019268
:204340009A4200DB06E60123274A1360FEF7D8FD00E6FEF7AFFD0B4B1C68244B1D786E43D2
:204360002E360196FFF7C5FB214A1278002A00D19DE590E51F4B1A00029300231360FFF700
:20438000DDFAC046B0020020C40100201803002000480140D1020020C4020020E0000020EC
:2043A000C0010020002C0140A00100207C020020E4000020DC050000B8020020BC020020B3
:2043C00000040140F70200006A020020F4040020CA00002018FCFFFFD40100208002002068
:2043E000CD00002098010020E4020020DC0200204802002004010020104B114A1B78002B10
:204400000AD0104B1B78002B06D1032113688B4301390B43136006E0032113688B430239DC
:204420000B43136091629021C9050B68064A1A4080231B0313430B607047C046E6000020E7
:2044400000040048C0020020FFFFF3FF134B1B78002B0DD0124B1B78002B09D19021C905D1
:204460000B68104A1A4080231B0213430B600AE09023DB051A680B4911408022D2010A432E
:204480001A6080229A629021C9050B68064A1A4080239B0213430B607047C046E6000020A4
:2044A000C0020020FF3FFFFFFFFFFCFF104B114A1B78002B0AD0104B1B78002B06D10C217A
:2044C00013688B4304390B43136007E00C2113688B4308390B431360022393629021C9059D
:2044E0000B68064A1A4080239B0313430B607047E600002000040048C0020020FFFFCFFFE6
:204500000C211C4A1C4813688B4308390B431360022393629023DB051968084080214903F6
:204520000143196080210320C90099621168814302380143116090621A681049114080224A
:20454000D2020A431A60802292009A621A680C4911408022D2010A431A6080229A621A680C
:2045600008491140802252020A431A60802252009A62704700040048FFFFCFFFFFFFF3FF2D
:20458000FF3FFFFFFFFFFCFF10B506282CD8704B80001B589F46FFF789FF03216D4A136888
:2045A0008B4302390B43136090239162DB051A68694911408022D2020A431A6080229200B5
:2045C0009A621A68654911408022D2010A431A6080229A611A6862491140802252020A43C4
:2045E0001A60802252009A6210BDFFF75FFF0321584A13688B4302390B4313609023916180
:20460000DB051A68544911408022D2020A431A60802292009A621A68504911408022D201FC
:204620000A431A6080229A62D4E70C21494A4D4813688B4308390B431360022393629023ED
:20464000DB0519680840802149030143196080210320C90099621168814302380143116053
:2046600090611A683C4911408022D2020A431A60802292009A62FFF7E9FEB5E70C21354A5F
:20468000384813688B4308390B431360022393619023DB0519680840802149030143196030
:2046A00080210320C9009962116881430238014311609062D5E70C21264A90241368E405E3
:2046C0008B4308390B431360022393612368254A1A4080235B03134323608023DB00A36240
:2046E000FFF78AFE23681D4A1A408023DB01134323608023A3622368194A1A4080235B02A8
:204700001343236080235B00A3626DE70C21114A90241368E4058B4308390B4313600223D4
:20472000936223680F4A1A4080235B03134323608023DB00A362FFF75FFE2368074A1A4060
:204740008023DB01134323608023A361D3E7C0462454000800040048FFFFF3FFFF3FFFFFA2
:20476000FFFFFCFFFFFFCFFF0C211C4A1C4813688B4308390B431360022393619023DB0586
:2047800019680840802149030143196080210320C900996211688143023801431160906101
:2047A0001A68104911408022D2020A431A60802292009A621A680C4911408022D2010A4376
:2047C0001A6080229A611A6808491140802252020A431A60802252009A62704700040048EE
:2047E000FFFFCFFFFFFFF3FFFF3FFFFFFFFFFCFF10B5FFF75BFEFFF7FFFDFFF727FE10BDDA
:2048000070B590B01C22002109A800F0F3FA0C22002106A800F0EEFA8020434BC001996980
:2048200040250143996180219A69C90202400292029A5A6901260A435A615B693B4C0B406C
:204840000193019B022303A9049339480133039505930796FCF734FE2368364AC6201340D5
:204860001022134323602368334AC021134020222360236880009343236023686032AB43BD
:204880002360236809061343236023682B4A2C4D1340236023682B4A13402B4A236013581D
:2048A0001B021B0A0B43135080231B051360E1235B0208220993002309A928000A930B9370
:2048C0000C930D920E930F93FDF786F8AB681F4A1F481340AB606B681E4A1F4913402A2262
:2048E0006B60AB689343AB602B681C4A1E432E6023680340102B13D0A160E2600B4B18492B
:204900005A680978120C12040A4302215A601A680A431A601A6806310A431A6010B070BD40
:20492000E160A260EAE7C046001002401C00024000040048EFBFFFFFFFCFFFFFFFFCFFFFF0
:2049400000380140FFF3FFFF00E100E0FFFBFFFF10400000FFB7FFFF10050020283801405B
:20496000D80100200C2008210D4B10B51A680D4C82430A430C491A604A682478120C12048E
:20498000224380244A609A6822439A600A687F3C22430A6004211A6882430A431A6010BD07
:2049A00000380140D80100201C000240F0B505AC164E24880D0AB1703271110AB3711A0A83
:2049C0003700230A7570F3710725002334723070F1707271741C09374340082204E0013AB5
:2049E000D2B2DBB2002A09D059B25B000029F6DA013A6B40D2B2DBB2002AF5D1BC4202D08D
:204A000020780134E8E77372F0BDC0461005002010B572B60A23124C02206363A363E36381
:204A2000FFF7B2FD3723C820A362FDF7D3FC0420FFF7AAFD2823C820A362FDF7CBFC0120F2
:204A4000FFF7A2FD1923C820A362FDF7C3FCFFF757FD0023034AA362136062B610BDC046C8
:204A6000002C0140CC020020052370B5184C02206363A363E363FFF787FD3C233725322669
:204A8000A362C820FDF7A6FCA5629620FDF7A2FCA6629620FDF79EFC2D236420A362FDF72B
:204AA00099FCA6626420FDF795FCA5626420FDF791FC1923C820A362FDF78CFCA5629620E2
:204AC000FDF788FCFFF71CFD0023A36270BDC046002C014070B572B63C23114C114D124EC0
:204AE00002202E60A362373B6363A363E363FFF74BFD4B20FDF76EFC50234B20A362FDF79F
:204B000069FC5A234B20A3622E60FDF763FCFFF7F7FC0023054AA362136062B670BDC04644
:204B2000002C014000300040AAAA0000CC02002010B572B6104A114B114C1A605023A36264
:204B40004B3B63630220A363E363FFF71DFD6420FDF740FC46236420A362FDF73BFC28236F
:204B60006420A362FDF736FCFFF7CAFC0023054AA362136062B610BDAAAA00000030004037
:204B8000002C0140CC020020F8B572B6082377240E4D0F4F0F4E6B63AB63EB63142120008A
:204BA0003E60FCF73BFBFFF7EFFC63100A33AB620A20023CFDF70EFC631CEFD1FFF7A0FC59
:204BC0000023054AAB62136062B6F8BD002C014000300040AAAA0000CC0200207047C0463A
:204BE000FEE7C0467047C0467047C0467047C0460B4B1A6892060AD41A68120606D510229E
:204C000001215A60074A13688B431360704706490A6801320A600021044A1170EFE7C046CA
:204C2000000002401C000240EC020020C80200200B4B10B51A681A68920406D41A681204B5
:204C400002D5802252015A6010BD8022012152015A60044A13688B431360FDF7A7FDF3E7B4
:204C600000000240440002408022054B9203596910B5114202D05A61FDF7E8FE10BDC046D1
:204C800000040140054B10B51A69D20704D5022252421A61FDF74EFF10BDC04600100040EE
:204CA000022210B5024B52421A61FEF7C7F810BD002000407047C0467047C046074B1A697F
:204CC000920702D5032252421A61044B1A69D20702D5022252421A617047C046004001403D
:204CE000074B1A69920702D5032252421A61044B1A69D20702D5022252421A617047C046C9
:204D000000040040084B10B51A68920706D40822054B19680A4200D05A6010BD01225A60C7
:204D2000FCF7CCFEF3E7C04600000240084B10B51A69920702D5032252421A61044B1A6983
:204D4000D20704D5022252421A61FEF743F910BD002C01407047C0460D4885460D480E497A
:204D60000E4A002302E0D458C4500433C4188C42F9D30B4A0B4C002301E013600432A242AC
:204D8000FBD3FFF7E7FF00F011F8FEF7A5F9FEE700200020C0000020E0010020605400081B
:204DA000E00100201C050020FEE7000070B500260C4D0D4C641BA410A64209D1002600F0C4
:204DC00021F80A4D0A4C641BA410A64205D170BDB300EB5898470136EEE7B300EB58984739
:204DE0000136F2E75854000858540008585400085C54000803001218934200D170471970BC
:204E00000133F9E7F8B5C046F8BC08BC9E467047F8B5C046F8BC08BC9E467047941E000838
:204E2000B21E0008A41E0008C41E0008941E0008941E0008941E00089E1E0008AC1E000822
:204E4000E81E0008D21E0008941E0008CC1E0008941E0008941E0008941E0008941E0008B8
:204E6000941E0008941E0008941E0008881E0008BA1E0008191B12131D1516171A090A0B86
:204E80001E0D0E0FB4000000B7000000BA000000BD000000C1000000C4000000C70000009C
:204EA000CA000000CD000000D0000000D3000000D6000000D9000000DC000000E00000004D
:204EC000E3000000E6000000E9000000EC000000EF000000F2000000F5000000F700000067
:204EE000FA000000FD000000000100000301000006010000090100000B0100000E0100008A
:204F0000110100001301000016010000190100001B0100001E0100002001000023010000BA
:204F200025010000280100002A0100002C0100002F010000310100003301000035010000FE
:204F4000380100003A0100003C0100003E0100004001000042010000440100004601000051
:204F600047010000490100004B0100004D0100004E010000500100005101000053010000BF
:204F8000540100005601000057010000580100005A0100005B0100005C0100005D01000042
:204FA0005E0100005F010000600100006101000062010000630100006301000064010000DF
:204FC000650100006501000066010000660100006701000067010000670100006801000096
:204FE000680100006801000068010000680100006801000068010000680100006801000069
:20500000670100006701000067010000660100006601000065010000650100006401000059
:2050200063010000630100006201000061010000600100005F0100005E0100005D01000065
:205040005C0100005B0100005A01000058010000570100005601000054010000530100008B
:2050600051010000500100004E0100004D0100004B010000490100004701000046010000CB
:205080004401000042010000400100003E0100003C0100003A010000380100003501000021
:2050A00033010000310100002F0100002C0100002A0100002801000025010000230100008F
:2050C000200100001E0100001B010000190100001601000013010000110100000E0100000E
:2050E0000B01000009010000060100000301000000010000FD000000FA000000F7000000A0
:20510000F5000000F2000000EF000000EC000000E9000000E6000000E3000000E00000003B
:20512000DC000000D9000000D6000000D3000000D0000000CD000000CA000000C7000000E3
:20514000C4000000C1000000BD000000BA000000B7000000B4000000B1000000AE00000089
:20516000AB000000A7000000A4000000A10000009E0000009B000000980000009500000032
:20518000920000008F0000008C0000008800000085000000820000007F0000007C000000D8
:2051A000790000007600000073000000710000006E0000006B000000680000006500000076
:2051C000620000005F0000005D0000005A0000005700000055000000520000004F0000000A
:2051E0004D0000004A000000480000004500000043000000400000003E0000003C0000008E
:2052000039000000370000003500000033000000300000002E0000002C0000002A00000002
:2052200028000000260000002400000022000000210000001F0000001D0000001B00000062
:205240001A00000018000000170000001500000014000000120000001100000010000000A9
:205260000E0000000D0000000C0000000B0000000A000000090000000800000007000000DA
:205280000600000005000000050000000400000003000000030000000200000002000000F0
:2052A0000100000001000000010000000000000000000000000000000000000000000000EB
:2052C0000000000000000000000000000000000001000000010000000100000002000000C9
:2052E00002000000030000000300000004000000050000000500000006000000070000008B
:2053000008000000090000000A0000000B0000000C0000000D0000000E0000001000000030
:205320001100000012000000140000001500000017000000180000001A0000001B000000BD
:205340001D0000001F00000021000000220000002400000026000000280000002A00000032
:205360002C0000002E00000030000000330000003500000037000000390000003C0000008F
:205380003E000000400000004300000045000000480000004A0000004D0000004F000000D9
:2053A0005200000055000000570000005A0000005D0000005F000000620000006500000012
:2053C000680000006B0000006E000000710000007300000076000000790000007C0000003D
:2053E0007F0000008200000085000000880000008C0000008F00000092000000950000005D
:20540000980000009B0000009E000000A1000000A4000000A7000000AB000000AE00000076
:20542000B1000000E8450008EA4500082A4600087C460008B64600080C47000896450008CB
:20544000000000000000000001020304060708090000000001020304E9100008C110000840
:2054600023016745AB89EFCD2D00CF070102000003000000E80300000A2C00002000000022
:2054800005000000D4300100542D4D4F544F52203535412024F40000CF0700000A0000000D
:2054A00005000000010000003C0000000000000000000000000000000000000000000000AA
:2054C00000000000000000000000000000000000000000000000000040000000000000008C
:2054E00000000000000000000000000040000000000000000000000000000000000000006C
:2055000040000000000000000000000000000000400000004000000000000000400000008B
:20552000000000004600000014000000140000000100000096000000070000000700000058
:20554000B40000004000D0070E010000010000000100000078000000204E00001900000070
:20556000010000006400000001000000CF070000F4010000CF07013A0A00000000127A0053
:00000001FF
