:020000040800F2
:1010000000200020411500081524000819240008BC
:1010100000000000000000000000000000000000D0
:101020000000000000000000000000001D24000877
:101030000000000000000000212400082524000812
:1010400091150008911500089115000891150008E8
:1010500091150008911500089115000891150008D8
:10106000911500083D25000829240008692400087E
:10107000A1240008652500089115000891150008B5
:1010800019250008BD24000800000000D92400082C
:10109000F5240008ED2400089115000891150008BA
:1010A000911500089115000891150008F124000819
:1010B00091150008000000009115000800000000D4
:0E10C000013E49466C696768745F3530412017
:1010D0000448054B10B5834203D0044B002B00D0CD
:1010E000984710BDD4010020D4010020000000006A
:1010F00006480749091A8B10C90FC91810B54910BD
:1011000003D0044B002B00D0984710BDD401002021
:10111000D40100200000000010B5074C2378002BFC
:1011200009D1FFF7D5FF054B002B02D0044800E0A2
:1011300000BF0123237010BDD40100200000000077
:10114000F0500008054B10B5002B03D004490548AA
:1011500000E000BFFFF7CCFF10BDC046000000005C
:10116000D8010020F050000870B50C4D0C4E761BD5
:10117000B61005D0002408CD01349847A642FAD114
:1011800003F0B6FF074D084E761BB61005D00024BD
:1011900008CD01349847A642FAD170BD44570008E3
:1011A000445700084457000848570008F0B50500A8
:1011B00083074AD0541E002A44D0CEB20300032233
:1011C00002E00135013C3DD301332E701342F8D1CA
:1011D000032C2FD9FF220A40150215432A04154378
:1011E0000F2C35D92700103F3F093E01B4461E00A1
:1011F0001A0010366644156055609560D56010324F
:10120000B242F8D10F260C2201373F012640DB19EC
:101210003700224217D03E1FB608B400A4461A0079
:101220001C1D644420C2A242FCD103240136B60036
:101230009B193C40002C05D0C9B21C191970013310
:101240009C42FBD1F0BD3400F4E714000300BFE77B
:101250002700E0E7002243088B4274D303098B4246
:101260005FD3030A8B4244D3030B8B4228D3030C76
:101270008B420DD3FF22090212BA030C8B4202D318
:101280001212090265D0030B8B4219D300E0090A40
:10129000C30B8B4201D3CB03C01A5241830B8B4249
:1012A00001D38B03C01A5241430B8B4201D34B0332
:1012B000C01A5241030B8B4201D30B03C01A524197
:1012C000C30A8B4201D3CB02C01A5241830A8B421C
:1012D00001D38B02C01A5241430A8B4201D34B0205
:1012E000C01A5241030A8B4201D30B02C01A524169
:1012F000CDD2C3098B4201D3CB01C01A524183091D
:101300008B4201D38B01C01A524143098B4201D356
:101310004B01C01A524103098B4201D30B01C01A81
:101320005241C3088B4201D3CB00C01A52418308FB
:101330008B4201D38B00C01A524143088B4201D328
:101340004B00C01A5241411A00D201465241104688
:101350007047FFE701B5002000F0F0F802BDC0467D
:101360000029F7D076E7704703460B437FD400226D
:1013700043088B4274D303098B425FD3030A8B4229
:1013800044D3030B8B4228D3030C8B420DD3FF2293
:10139000090212BA030C8B4202D31212090265D061
:1013A000030B8B4219D300E0090AC30B8B4201D314
:1013B000CB03C01A5241830B8B4201D38B03C01A5B
:1013C0005241430B8B4201D34B03C01A5241030BD2
:1013D0008B4201D30B03C01A5241C30A8B4201D383
:1013E000CB02C01A5241830A8B4201D38B02C01A2E
:1013F0005241430A8B4201D34B02C01A5241030AA5
:101400008B4201D30B02C01A5241CDD2C3098B4289
:1014100001D3CB01C01A524183098B4201D38B0106
:10142000C01A524143098B4201D34B01C01A5241A9
:1014300003098B4201D30B01C01A5241C3088B42EE
:1014400001D3CB00C01A524183088B4201D38B00D9
:10145000C01A524143088B4201D34B00C01A52417B
:10146000411A00D201465241104670475DE0CA0F52
:1014700000D04942031000D34042534000229C4612
:1014800003098B422DD3030A8B4212D3FC2289011C
:1014900012BA030A8B420CD3890192118B4208D3F2
:1014A000890192118B4204D389013AD0921100E054
:1014B0008909C3098B4201D3CB01C01A5241830968
:1014C0008B4201D38B01C01A524143098B4201D395
:1014D0004B01C01A524103098B4201D30B01C01AC0
:1014E0005241C3088B4201D3CB00C01A524183083A
:1014F0008B4201D38B00C01A5241D9D243088B4290
:1015000001D34B00C01A5241411A00D20146634632
:1015100052415B10104601D34042002B00D5494296
:10152000704763465B1000D3404201B5002000F0D5
:1015300005F802BD0029F8D016E770477047C0468D
:101540000D4885460D480E490E4A002302E0D45846
:10155000C4500433C4188C42F9D30B4A0B4C0023FB
:1015600001E013600432A242FBD303F029F9FFF734
:10157000FBFD01F021FFFEE700200020C00000205D
:10158000D40100204C570008D4010020D8040020CA
:10159000FEE70000F0B5DE4657464E464546844A13
:1015A00084481368D16FE0B5C91A0160824887B0DA
:1015B000844661443A2959D81000804F8030390060
:1015C00000E0136854680832E31A5B0908C19042CE
:1015D000F7D13B6879699B463B6A080000937B68BA
:1015E00005910193BB68796A03935B460291F96A9E
:1015F0003A698C4653400492009ABD6A5340DA001F
:10160000019B02994340A8464B40FD689B00134351
:101610002A006146FE69BC6972404A404146134354
:10162000039A62404A405200796B13433A6B890037
:10163000D2000A43F96BBF6B0A437F003A43604F05
:10164000DBB23978D2B28946002916D15D498A4683
:101650000978002957D00F218A4651468A1AD2B2FA
:101660009A4210D0584A13680133136007B03CBC4B
:1016700090469946A246AB46F0BD524909780029EA
:10168000E9D19A42EED10022504B1A60504A1368B9
:10169000013313606346012B02D162464D4B1A7031
:1016A0005B46019A9B025202134342461343039A3C
:1016B000ED011002049A03432B439501059A2B4335
:1016C0005201134324011C43009BF6009B00264358
:1016D0001E43029B590031432F291CDC4B1E2E2B2D
:1016E0001FD800223C4B3D4C1A6021603C4B1B68CC
:1016F000002BBBD14B46002BB8D015291CD8394A3A
:101700008B00D3589F460F31891A8B42A8D151467E
:10171000012008709FE700222F4B19602F4B1A60A1
:10172000A4E700293ED12C4B19602C4B19609DE792
:101730002D4B1A782D4B1A602D4B19700023236006
:1017400094E70022284B1A7000F04AFF2168F3E763
:101750000122254B1A7000F071FF2168ECE7224B43
:101760001A7801239B1A214A1360E5E700F092FFE3
:101770002168E1E701F066F8FEE701221D4B1A70CF
:1017800000F05CFF00231C4A216813603B70D3E724
:101790000025184B1D7000F023FF174B21683D708A
:1017A0001D60C9E70D4C216800299FDC5EE7C0463B
:1017B000F40200206C02002045FBFFFFF001002036
:1017C000440200207402002068020020C8020020A9
:1017D00070020020C4020020B80200201C04002077
:1017E000C00200200851000866020020FC00002012
:1017F000B102002054020020E4020020294B70B501
:101800001B68002B42D0284B1A680F231100194186
:1018100001293FD0013B082BF8D10021234B19604F
:1018200093B2180A1909414059400F2318001201B8
:1018300088431F4902430A601E4910130C5C1800BC
:101840001040085CE4030443101218401211085CB5
:101850001A408B5C800204435B01174E1C43174BFC
:1018600030001C604023132101253362243000E046
:1018700004302A008A402240CA409B0953409B0101
:1018800003600139F4D20023F36170BD0C4A064BAA
:101890001A60BAE7083B1A4104490B6059020A432F
:1018A000BEE7C046C002002018040020300200201D
:1018B000E80200206051000804010020EC02002032
:1018C000FFFF0000104B114A1B78002B03D0104B78
:1018D0001B78002B10D0032113688B4302390B4374
:1018E000136091629021C9050B680A4A1A4080234F
:1018F0001B0313430B607047032113688B430139AB
:101900000B431360EEE7C046EE00002000040048E1
:10191000BE020020FFFFF3FF134B1B78002B03D008
:10192000124B1B78002B14D09023DB051A6810494A
:1019300011408022D2010A431A6080229A629021CB
:10194000C9050B680B4A1A4080239B0213430B60A6
:1019500070479021C9050B68054A1A4080231B0275
:1019600013430B60EBE7C046EE000020BE020020F0
:10197000FF3FFFFFFFFFFCFF104B114A1B78002BBE
:1019800003D0104B1B78002B11D00C2113688B4314
:1019900008390B431360022393629021C9050B6839
:1019A000094A1A4080239B0313430B6070470C21A4
:1019B00013688B4304390B431360EEE7EE000020FD
:1019C00000040048BE020020FFFFCFFF0C211C4A8C
:1019D0001C4813688B4308390B431360022393623E
:1019E0009023DB05196808408021490301431960F1
:1019F00080210320C90099621168814302380143A4
:101A0000116090621A68104911408022D2020A4384
:101A10001A60802292009A621A680C491140802252
:101A2000D2010A431A6080229A621A68084911405A
:101A3000802252020A431A60802252009A62704742
:101A400000040048FFFFCFFFFFFFF3FFFF3FFFFF52
:101A5000FFFFFCFF10B506282CD8704B80001B58E8
:101A60009F46FFF789FF03216D4A13688B430239B4
:101A70000B43136090239162DB051A68694911409A
:101A80008022D2020A431A60802292009A621A6867
:101A9000654911408022D2010A431A6080229A616E
:101AA0001A6862491140802252020A431A60802259
:101AB00052009A6210BDFFF75FFF0321584A136876
:101AC0008B4302390B43136090239161DB051A6845
:101AD000544911408022D2020A431A6080229200A7
:101AE0009A621A68504911408022D2010A431A6052
:101AF00080229A62D4E70C21494A4D4813688B43EF
:101B000008390B431360022393629023DB051968A5
:101B10000840802149030143196080210320C90046
:101B200099621168814302380143116090611A681B
:101B30003C4911408022D2020A431A60802292005E
:101B40009A62FFF7E9FEB5E70C21354A3848136879
:101B50008B4308390B431360022393619023DB0509
:101B6000196808408021490301431960802103203E
:101B7000C900996211688143023801431160906283
:101B8000D5E70C21264A90241368E4058B430839D5
:101B90000B431360022393612368254A1A40802374
:101BA0005B03134323608023DB00A362FFF78AFEFD
:101BB00023681D4A1A408023DB01134323608023DE
:101BC000A3622368194A1A4080235B0213432360EF
:101BD00080235B00A3626DE70C21114A90241368F7
:101BE000E4058B4308390B43136002239362236897
:101BF0000F4A1A4080235B03134323608023DB00DA
:101C0000A362FFF75FFE2368074A1A408023DB01C7
:101C1000134323608023A361D3E7C04670510008BB
:101C200000040048FFFFF3FFFF3FFFFFFFFFFCFF43
:101C3000FFFFCFFF0C211C4A1C4813688B43083957
:101C40000B431360022393619023DB05196808405E
:101C5000802149030143196080210320C900996252
:101C60001168814302380143116090611A6810497C
:101C700011408022D2020A431A60802292009A62A6
:101C80001A680C4911408022D2010A431A6080224E
:101C90009A611A6808491140802252020A431A6068
:101CA000802252009A62704700040048FFFFCFFF75
:101CB000FFFFF3FFFF3FFFFFFFFFFCFF10B5FFF744
:101CC0005BFEFFF7FFFDFFF727FE10BD024B1A6812
:101CD00000221A607047C04600040140164B1B7872
:101CE000012B25D0042B23D0022B1DD0052B1BD07C
:101CF000032B0CD0062B0AD0104B1B78002B0DD0D9
:101D000000220F4B9A6080229203DA6070474122D2
:101D10000C4B1A60094B1B78002BF1D1084AD36099
:101D200080239B039360F1E76121064A1160DFE79E
:101D30005121044A1160D7E7B10100209E01002023
:101D4000000401401C0001400F4A104913680B4079
:101D500010210B4313600E4B0E391A690A431A61A6
:101D60001A698A431A6160220A4B01399A615D3A05
:101D70001A62094A12789A623D22DA62074A1170A1
:101D80005A690A435A61704744000240EFBFFFFF9F
:101D90000010024000040040F4030020350200203F
:101DA0000E4A0F4913680B40022113600D4B1A694C
:101DB0000A431A611A698A431A610A220A4B0139D5
:101DC00099611A62094A12789A62094ADA625A6972
:101DD0000A435A610022074B1A70704744000240C0
:101DE000EFBFFFFF0010024000040040340200205B
:101DF000FFFF00003502002010B5FFF7D1FF0022E1
:101E0000194B1A485A621A4B1A491A680240102A8A
:101E100026D0194A9A60D960154B18495A68096842
:101E2000120C12040A4302215A601A680A431A600B
:101E30001A6806310A431A601A6807390A431A6099
:101E40008022094B9200D8681043D860D8680243BA
:101E5000DA601A6A0A431A621A680A431A6010BDE5
:101E6000054ADA609960D7E700040040104000009E
:101E700044000240F402002034040040C40000206A
:101E800010B5FFF761FF194B19481A68194902404C
:101E9000102A27D0184A9960DA601E21134B5A681D
:101EA000120C12040A435A601A681C390A431A6059
:101EB0001A6806310A431A601A6807390A431A6019
:101EC00080220E4B9200D8680243DA601A6A0A43F5
:101ED0001A628022586C120202435A641A680A433A
:101EE0001A6010BD044AD9609A60D6E744000240E7
:101EF00010400000040100203404004000040040B1
:101F0000F0B50023C646424A00B5424C13709046D5
:101F1000414A0025137094462200404E404F4148EC
:101F2000337008CA38607C341168CB1A834201D2FE
:101F30001800012504320B00A242F5D1002D58D023
:101F4000031F3860222B26D80023374A1370374AE4
:101F500013702C2201333370354B1A70354B364ACF
:101F60001A60364B364A1A602022364B1A60364BBE
:101F70001B78002B07D1354B354AC318934227D81D
:101F8000012342461370431E9841C0B2314B187072
:101F900004BC9046F0BD0300293B262B2FD801231B
:101FA000214A33701370214A13702B4B2B4A5A620B
:101FB0002C221F4B1A701F4B1F4A1A601F4B204ABE
:101FC0001A6020221F4B1A601F4B1B78002BDAD19E
:101FD000234B9842D7DD0123624613702F22124B08
:101FE00001201A70154B0C3A1A60164B203A1A60F1
:101FF000CCE7154B1B78002BEDD10A48E8E7124BD4
:102000001B78002BB7D0174B9842E4DCBBE7C046E7
:10201000BD020020F4020020C5020020670200205B
:10202000D0000020204E000034020020F4030020E5
:10203000C0000020C8000020E8FD0000E0000020F3
:1020400010270000C40000206402002047F4FFFFB6
:10205000AA0D0000B002002000040040FFFF0000B5
:1020600064190000B80B0000264B30B51A68596897
:10207000254D881AFC22441983B09200944219D944
:102080009868401A4319934214D9204B1868204984
:10209000204A0B681268C41A944203DD9B180B6037
:1020A00003B030BD1C1AA24202DA9B1A0B60F7E79C
:1020B0000860F5E7184B1B78002B1BD0174B1A88CC
:1020C00082420AD3164B1988FA239B0000930023FF
:1020D00002F0A6FA0D4B1860D9E7124B511C1C8870
:1020E000FA23DB00009322000F4B02F099FA074B12
:1020F0001860CCE70B4B1A88094B1988FA23DB00D0
:10210000E4E7C046F402002017FCFFFFF0020020C5
:10211000B8020020CC00002054020020AA010020B8
:10212000A8010020A6010020E903000010B52D4BF6
:102130001B78002B03D02C4A1278002A06D12B4A98
:102140001278002A3AD0012A07D010BD284B1B78FC
:10215000002B1CD0FFF750FEF7E7002B08D1254AD3
:10216000254913600A68002A2DDB2DD0234A13600D
:102170001D4B1B78002B11D01D4B1B78002B28D03A
:10218000FFF73CFBFFF706FAFFF736FEDDE7FFF748
:1021900077FEFFF733FBFFF7FDF9D6E7184B1B7807
:1021A000012B19D0174B1B78012BCED1FFF75CFF09
:1021B0000023154A53620F4A1360CBE7FFF7A0FED6
:1021C000FFF71AFEC1E70B600C4A13680133136076
:1021D000CEE7FFF755FEB8E7FFF7DCF9FFF70CFE97
:1021E000E0E7C0464402002074020020B002002054
:1021F00035020020C8020020AC020020E4020020CA
:1022000067020020C502002000040040F0B591B034
:102210001C22002109A8FEF7C9FF8020434BC00102
:10222000996900250143996180219A69C902024098
:102230000292029A5A6940270A435A615B69012651
:102240000B400193019B0223394C049303A90133F2
:1022500038480593069507960895039702F086FE81
:102260002368354AC6201340102213432360236895
:10227000324AC02113402022236023688000934308
:10228000236023686032BB4323602368090613433D
:10229000236023682A4A134023602368294A134095
:1022A000294A236013581B021B0A0B431350802337
:1022B0001B051360E1235B02099308230A950B9524
:1022C0000C950E950F95214D09A928000D9302F04C
:1022D0001FFCAB681E4A1F481340AB606B681E4A68
:1022E0001E4913402A226B60AB689343AB602B6896
:1022F0001B4A1E432E6023680340102B13D0A1609D
:10230000E2600B4B17495A680978120C12040A4311
:1023100002215A601A680A431A601A6806310A4391
:102320001A6011B0F0BDE160A260EAE7001002405F
:102330001C00024000040048EFBFFFFFFFCFFFFF7B
:10234000FFFCFFFFFFF3FFFF00E100E0003801406A
:10235000FFFBFFFF10400000FFB7FFFFF803002066
:1023600028380140D40000200C2008210D4B10B566
:102370001A680D4C82430A430C491A604A68247853
:10238000120C1204224380244A609A6822439A6005
:102390000A687F3C22430A6004211A6882430A4388
:1023A0001A6010BD00380140D40000201C0002401B
:1023B000F0B505AC164E24880D0A3700B1703271A5
:1023C000110AB3711A0A230A7570F37107250023E5
:1023D00034723070F1707271741C093708224340F6
:1023E00004E0013AD2B2DBB2002A09D059B25B0054
:1023F0000029F6DA013A6B40D2B2DBB2002AF5D1FD
:10240000A74202D020780134E8E77372F0BDC046DD
:10241000F80300207047C046FEE7C0467047C0463C
:102420007047C0467047C0460B4B1A6892060ED5DF
:102430000A490A6801320A600021094A1170102213
:1024400001215A60074A13688B43136070471A686A
:102450001206FBD5F3E7C046000002403802002018
:10246000C40200201C0002400B4B10B51A681A6809
:10247000920406D41A68120402D5802252015A60CE
:1024800010BD8022012152015A60044A13688B4317
:102490001360FFF74BFEF3E70000024044000240E8
:1024A0008022054B9203596910B5114200D110BD2D
:1024B0005A6100F021FBFAE700040140054B10B51A
:1024C0001A69D20700D410BD022252421A6100F0EC
:1024D000C1FBF8E700100040022210B5024B524247
:1024E0001A6100F0C7FA10BD002000407047C046D6
:1024F0007047C046074B1A69920702D50322524221
:102500001A61044B1A69D20702D5022252421A619B
:102510007047C04600400140074B1A69920702D538
:10252000032252421A61044B1A69D20702D50222D1
:1025300052421A617047C04600040040084B10B573
:102540001A68920706D40822054B19680A4200D07F
:102550005A6010BD01225A6002F034F9F3E7C04618
:1025600000000240074B1A69920702D5032252422B
:102570001A61044B1A69D20702D5022252421A612B
:102580007047C046002C014010B572B60A23124CA9
:1025900002206363A363E363FFF75CFA3723C82079
:1025A000A36202F05FF80420FFF754FA2823C82042
:1025B000A36202F057F80120FFF74CFA1923C82054
:1025C000A36202F04FF8FFF701FA0023034AA36267
:1025D000136062B610BDC046002C0140C802002046
:1025E00070B572B63C23114C114D124E02202E6074
:1025F000A362373B6363A363E363FFF72BFA4B20CC
:1026000002F030F850234B20A36202F02BF85A233B
:102610004B20A3622E6002F025F8FFF7D7F90023C4
:10262000054AA362136062B670BDC046002C01402B
:1026300000300040AAAA0000C802002010B572B6FF
:10264000104A114B114C1A605023A3624B3B636339
:102650000220A363E363FFF7FDF9642002F002F8B0
:1026600046236420A36201F0FDFF28236420A362B7
:1026700001F0F8FFFFF7AAF90023054AA3621360EF
:1026800062B610BDAAAA000000300040002C014034
:10269000C8020020F8B572B6082377240E4D0F4FFC
:1026A0000F4E6B63AB63EB63142120003E60FEF7BB
:1026B0005BFEFFF7CFF963100A330A20AB62023CDE
:1026C00001F0D0FF631CEFD1FFF780F90023054A2A
:1026D000AB62136062B6F8BD002C014000300040D0
:1026E000AAAA0000C8020020F0B5C64600B53F4CBB
:1026F000302220003E4982B002F058F8637C3D4E03
:10270000013B5A4253413C4A1370A37C013B5A425D
:1027100053413370E37C012B51D0384F257D013D6F
:102720006B425D41364BEDB21D709846637D013BB7
:102730005A425341334A1370A37D013B5A425341DD
:10274000314A1370E37D032B00D902232F4A137003
:10275000207E0300183B182B38D92D4B2D4A1380AF
:102760002D4AD362637E1A00323A642A21D82B4A5A
:102770005B0812780A339A183A60294A1380282392
:10278000A07E64215843274B143080B21880E27E2B
:10279000254B1A70FEF75EFD244B80B21860244B67
:1027A00019301860002D00D1357002B004BC90467D
:1027B000F0BD962355223B60194B1A80DFE71D4A76
:1027C0000E4F13701C4B1B683B60A7E71B4B30225E
:1027D000009318210E4B01F023FF194B18800E4B6C
:1027E0000004000CD86243461D78BBE77C02002041
:1027F000007C0008540200206602002094010020A2
:10280000EE000020D8000020B8010020D9000020F0
:10281000CF070000C4010020002C0140B0010020BF
:10282000980100209A0100209C01002084010020D2
:102830007C010020D8020020AC010020E70300004A
:10284000D600002010B5164B16481B783021013BEE
:102850005A4253414374144B1B78013B5A42534133
:102860008374124B1B78013B5A425341C374104B83
:102870001B78013B5A42534103750E4B1B78013BB9
:102880005A42534143750C4B1B78013B5A4253410A
:1028900083750A4B0A4A1B78C37501F0FBFE10BD15
:1028A000660200207C02002054020020D802002092
:1028B000EE000020D8000020B8010020D900002040
:1028C000007C000800B51B4B1B4883B01B4A9A18BC
:1028D00002CB11608342F9D101230320184A916988
:1028E00019439161926913400193019B154B19683B
:1028F00081431960FA211A68890002431A60124B59
:102900001868FEF7A7FC802301385B04984200D3C7
:10291000FEE7C0210D4A090650600D48036A1B02FC
:102920001B0A0B430362002393600733136062B6F4
:1029300003B000BD00100008C010000800F0FF1731
:102940000010024000000140D001002010E000E033
:1029500000ED00E00D4B1B78002B08D00C4B1B68E2
:102960005B0408D40B4A1368013313607047084BAB
:102970001B685B04F6D4084A136801331360022B0A
:10298000F4DD0022034B1A60F0E7C0469E010020F0
:102990001C000140280400204C02002070B5294D85
:1029A000294C2978294A20884E1E73009852508855
:1029B00013881B1890881B18D0881B1810895289FF
:1029C0001B189B18224A5B101360224B18680128C1
:1029D00027D0F0B200281CD00123287019401E4BCC
:1029E0001970FFF737F8FFF779F9FA2322881B01EE
:1029F0009A4206D9194B1B78002B02D00122184BA2
:102A00001A700023174A1360174A1360174A13609D
:102A100070BD062301222B70154B062001211A7070
:102A2000DDE70131C9B2062906D802000800297085
:102A30000A40094B1A70D4E70D4B01222870187018
:102A4000F7E7C046B1010020EC000020580200204A
:102A500018040020FC0000209E01002064020020D9
:102A6000BC02002028040020E0020020D402002044
:102A7000650200200121164A10B5D368154C8B431E
:102A8000D360228853009B18134A12889B189B100E
:102A90002380FFF783FF114A23881278D9084A431D
:102AA0000F495B089B1A0A600E4A13600E4B1B7895
:102AB000002B05D180230D4A9B0311680B43136043
:102AC0000B4A0C4913688B4201DC0133136010BDC3
:102AD00000200040EC000020AE040020D9000020BF
:102AE00040020020DC020020BC0200200004014063
:102AF000CC0400200F270000354B10B51B687D2B40
:102B000012D98023DB055B6A7C2B36D98023DB0559
:102B10005A6A304B1B885B089A421DD32E4A1368B1
:102B200001331360642B4DDC8023DB055A6A2B4B89
:102B30001A802B4B1B78002B0FD02A4B19680029C9
:102B400027DD80200023284CC00102E001338B42A6
:102B50001FD022680242F9D010BD224B1968002311
:102B6000002916DD8020204CC00102E001338B4299
:102B70000FD022680242F9D1EEE796231B4A9B0050
:102B800012689A42C2DA1A4A643B12689A42BDDA63
:102B9000E2E7FFF79BF88022164B92035A618023ED
:102BA0000021DB055962144A144B12781868D04092
:102BB0001860134B5962D8621961DA6801310A430F
:102BC000DA60C9E7FFF782F80022094B1A60C3E711
:102BD00048020020EC000020D0020020AE040020BB
:102BE0009E010020F80000201C0001407802002017
:102BF000CC04002000040140F4000020DC0200208E
:102C00000020004010B50D4C2368002B09D0802314
:102C10000B4A9B0311680B4313600122094B1A6096
:102C200010BDFFF7BBFE084B084A1A808023084AF4
:102C3000DB055A6201232360E9E7C046C002002099
:102C400000040140A0010020EC000020102700003B
:102C500088130000F0B5DE4657464E464546E0B5BF
:102C6000CB4C83B02378002B4DD0CA4CCA4B0321E8
:102C70001868FEF779FBC94DC94E2B78010030600A
:102C8000002B00D0E1E0C74B1B78002B00D0CEE03A
:102C9000C82322885B009A4224D9C221FF20C24A5D
:102CA000890053581B021B0A535004315358834365
:102CB000BF3803435350BD4A136801331360BC4A05
:102CC000934208DDBB4D2C78002C00D007E2BA4AB5
:102CD000934200DD23E203B03CBC90469946A246F5
:102CE000AB46F0BDC2208021AF4A80001358C90511
:102CF0001B021B0A0B43C3211350FF2089005358AA
:102D000083435350D7E7AD4EAD4D327828689300DA
:102D10009B181B012E3383422DDBA64BA94F9846EF
:102D2000A94B9946A94B9A46A94B1B78002B00D179
:102D3000F3E04B461B68002B00D19EE1A54B9B4660
:102D4000002352461360A44A13607722A34B1A60F3
:102D5000A34B78321A603378012B00D123705B4685
:102D60001968A04B00201A78142313418B4200DC11
:102D700087E0002011E08F4B98461B78002B00D095
:102D8000A8E0924B8F4F9A461868964B1A78914B51
:102D90001968142313418B420DDD934B1B6883424A
:102DA00002DD504603601800C8239340834202DAD4
:102DB0005246180013609F2861DD764C8B4B1B68D0
:102DC000834200DAE1E053461B68894E3A88317845
:102DD000981A884200DCCEE0534652181A609623B7
:102DE0009B009A4202DA0122824B1A7043461B78FA
:102DF000002B00D1A6E0744B1B68002B00D1A1E092
:102E00002B682F2B00DC9DE07B4B1B78002B00D028
:102E10004FE17A4B9946188853461B6878495843C6
:102E20009846FEF7A1FA774D0130288092E0764B64
:102E3000764A1988764B1878764B1B880093C823FE
:102E4000FFF7B6FAFFF790FA22E7734F386801F000
:102E5000F9FB33685A0890420DD9FA225200934286
:102E600009D20A215B4A11605F4A1168CA0F5218E1
:102E7000544952100A8000223B602A7003E7524BEB
:102E800099464B461B68002B97D0644B1B78002B50
:102E900093D0052991DD5A22534B61491A60614A4A
:102EA000098813883B4C01339BB21380994200D3AD
:102EB00084E75D4B2188994200D855E15B490B8836
:102EC00001339BB2C82B00D849E1C8230B800023F3
:102ED000138073E73C4B99461B68002B00D1C0E080
:102EE000384FFA22514BD2001B882F210092504AB2
:102EF00001F096FB3278D3069B1A9B009B1ADB00ED
:102F00001818324B9A46186093009A1812012B68D1
:102F10002E329A4200DA38E706E7524613604B46F3
:102F20001868002800D0B5E00122424B1A70294BE6
:102F300018602C4B1A7814231341002B00DC3CE75B
:102F400000212AE700232F4D2B8053461B6898460B
:102F50002A4B994643463B80374B1B78002B6FD159
:102F6000642333704B461A88344BDA622A885A63DA
:102F70009A63DA637AE6D31A0A2B6EDD53460A3A6D
:102F80001A6000221B4B1A7030E7524613601CE790
:102F9000CD020020EC000020180400206502002073
:102FA00048020020C402002000E100E0C802002026
:102FB000C409000044020020A8610000D8020020DB
:102FC000AC020020B2020020C002002078020020E3
:102FD000EE000020CC04002010040020C8040020D3
:102FE000C00400206402002094010020F0000020B2
:102FF00089010020F4000020D8000020C401002036
:10300000CF0700000C04002014040020E20400009C
:103010002004002030040020B4040020CC02002052
:10302000C6010020DA0200202823000098010020B9
:10303000FF070000BC0200208A010020002C014094
:103040004C4B1A684C4B19684C4B1868282300935A
:10305000273B01F0E5FA307084E70022484B1A70F4
:10306000C4E6484B1B78002B35D001234A46136039
:10307000454B464F1B683B8033E70121414A1170A5
:10308000434A1360434B93461B78002B0ED0FEF748
:10309000D1FD55E63E4B002019683F4B1A781423AA
:1030A00013418B4200DCF0E6002076E6FEF78EFC52
:1030B00046E63A4BC8221B88208860210093384B93
:1030C00001F0AEFA374B80B218809946364BDA7D64
:1030D000364B1A70A0E6FFF795FD2868C5E7FEF7A6
:1030E00075FC0022324B2A701A60324B1A70324B38
:1030F0001A60324B5A639A63DA63314B9A625A62AE
:10310000304B591CFF3104C39942FCD1BFF34F8FA0
:103110002D4B2E4ADA60BFF34F8FC046FDE7FEF716
:1031200055FC0022224B2C701C60224B1C70224B41
:103130001C60224B5C639C63DC63214B9C625C6281
:10314000204B591CFF3104C39942FCD1BFF34F8F70
:103150001D4B1E4ADA60BFF34F8FC046FDE7132BAD
:1031600000D814230B80B2E619490B88013B9BB2AF
:10317000A8E6C0467C010020840100203004002025
:10318000F4000020BC02002094010020B2020020C4
:10319000CC0400205502002064020020D60000204C
:1031A000E7030000C40100207C020020D9000020B9
:1031B000AC020020B0020020E4020020002C0140FC
:1031C00000040040F402002000ED00E00400FA05D5
:1031D00098010020404B10B51A68002A27D1B4206E
:1031E0003E4940000B6801330B6083424DDAB42145
:1031F0003B4A9B009B583B4ADC0FE4181368641061
:103200000133136049008B4249DA354A9B009B58D1
:10321000D80FC0184010B421334A49001368013355
:1032200013608B4221DB002313605A2223E02B4AD8
:103230001368013B1360002B35DB294A9B009B5828
:10324000284ADC0FE41813686410013B1360002B5C
:1032500033DB234A9B009B58234AD80FC0181368BE
:103260004010013B1360002B31DB1D4A9B009A5834
:10327000D30F9A1852101D4B1D491B681C191818A2
:103280009B184C638863CB6310BD0A60B421154A58
:103290005A2413684900013313608B42B5DB0023C5
:1032A0005A201360B7E76823FF3313600D4A582490
:1032B0001368013B1360002BCBDA6823FF331360E4
:1032C000094A58201368013B1360002BCDDA6823AC
:1032D000FF3313605822CEE7FC00002010040020CA
:1032E0008C510008C8040020C00400200001002008
:1032F000002C0140F8B58027FF057D6A234B244E42
:103300001D8000237B6233882D045800C0182D0CCB
:103310004019204B801084B219683480FEF724F8DD
:103320001D4B640818601D4B241A1C60201A7B6A10
:103330005B1B9842FBD8FFF731FB0022184B194961
:103340001A60194B1A600B6801330B601749097832
:1033500000290FD0632B0CDDFA233188DB00994262
:1033600007D2134B1A708023124A9B0311680B4338
:103370001360F8BD1E2BFCDD0D4B0E4A1970802327
:1033800011689B030B431360F3E7C046AE040020B3
:10339000EC000020DC00002040020020DC020020C5
:1033A00028040020CC0400204C02002064020020ED
:1033B000BC02002000040140F0B5DE4657464E46F0
:1033C00045460124E0B595B0FFF77CFA8021D24B49
:1033D00049059A6922439A619A6922401392139A85
:1033E000DA690A43DA61DB690B401293129B00F041
:1033F00021FD01F057F801F02BF800F093FD00F0EB
:10340000F7FD00F017FF00F0BBFF00F083FF00F0B6
:1034100047FF00F0F1FF1021C04B1A6A22431A62E5
:103420001A6A0A431A628022196A52000A43042166
:103430001A621A6A0A431A621A6A3C310A431A6209
:103440008022196AD2000A431A621A6822431A605B
:103450008022596C12020A435A645A6922435A6103
:1034600001F04AF8AE4BAF491A6A22431A621A6851
:1034700022431A60AC4B1A6822431A605A692243ED
:103480005A61DA682243DA60DA68A243DA60A74B4D
:103490001A6822431A605A6922435A618023DB0565
:1034A0001A6822431A605A6922435A61A04B1A686B
:1034B00022431A605A6922435A61DA682243DA6069
:1034C00000239C4A119313681C439B4B146018689B
:1034D000FDF7C0FE0301181A0A218000FDF7BAFEAD
:1034E0001190119B002B05D0119B013B1193119B57
:1034F000002BF9D1FFF748F801F0D2F901F076F985
:1035000001F0A4F9FEF782FE00F054FD8B4B8C4ACB
:103510001A60FEF771FC8B4B1B78002B01D100F079
:1035200000FC894B00211A000C9396239B0013602A
:10353000864BFA201A00039301231370844A8000FB
:1035400013700492834A5A2413700792824A022508
:103550001170824A10800E20814A10708148824A80
:10356000046082481170040005900A202070804C8D
:10357000089225707F4A804C1370069421707F4911
:103580000B700D9114217E4B19807E4B0A931860AD
:103590007D4B19000B9328230B6032337B490F912D
:1035A0000B607B4B1B78013B591E8B4179490B60AB
:1035B000794B1988794B19801378002B01D1049A23
:1035C0001370774B00249B46764B774D9A46774B8A
:1035D000774E9846774B99462B6801332B60322BF8
:1035E0001CDD754B75491A88754B170018884843C0
:1035F000FDF730FEC31B9800C018724B00011988FC
:10360000C91BFDF7B1FE704B704A1E3018709368ED
:103610006F490B4004210B4393602C606D4B484A6B
:103620001C60464B1A605B4652461B681268934208
:1036300004DD694B1B78002B00D15DE2039B1B78F6
:10364000012B00D18EE1654A1278002A00D033E1C7
:10365000634A1278002A00D02EE14246614B1B6873
:103660001360FA21604A890012688A4200DD4FE146
:10367000002B00D152E1642A00DD4AE1049A12785D
:10368000002A02D09F2B00DC50E12E4A107800283F
:1036900000D150E1C8225200934200DAA4E1059A19
:1036A00011786422424301324A4331688A4204DA83
:1036B000069A1278002A00D09EE04C4A13604C4AC9
:1036C0001278002A00D1A4E0302B00DCD3E1424A7A
:1036D0001278002A00D1CEE1313B572B00D911E2FC
:1036E000FEF7F4FAFEF7EAFAFFF774FD3F4B892282
:1036F0001B68302109933C230093B933FF330998A9
:1037000000F08EFF3B4B186000F0A2FF2B680133E6
:103710002B60322B82DD64E700100240002C014058
:1037200000040040400D030000200040004801401C
:10373000001000401C000140D0010020003000407B
:10374000AAAA000064020020C00100205402002048
:10375000D802002088010020D80000209A01002013
:103760009C010020AC010020B4020020E4000020F5
:10377000D9000020EE000020B8010020CC0200207B
:1037800098010020840100207C0100209401002089
:1037900066020020FC000020D6000020C4010020AA
:1037A000E4020020E00000203C020020BC040020D5
:1037B00050020020C0020020B8F7FF1FE40C0000F8
:1037C000AC040020C2F7FF1F2004002000240140A9
:1037D000E8FFFF7FD002002044020020BF0200204B
:1037E00067020020B8020020CC040020AC020020B8
:1037F000CD020020B4010020FEF7E8F8FEF766FADB
:10380000D34B1C6066233360D24B1B78002B00D057
:1038100031E1D14BD1481968FDF7A6FD4B46FA219D
:103820001B68890058430301181A8000FDF79CFDAE
:10383000CB4B1860079B1B78002B00D04DE1C94B88
:103840001B68952B00DC7FE0E122C74992000988C4
:10385000914279D8C54BC64A1B680993042313606B
:10386000C44A01331360C823099A9B009A420DDDB4
:103870009622BD4B92001B88934207D20322BD497A
:103880000A60592B02D80223BA4A1360089B1B789E
:10389000002B03D0B84BB74A1B781360B74B1B788B
:1038A000002B00D1BFE04B461B68002B00D09DE0F1
:1038B0008023DB055B6A8FE6002B00D1CDE6B04BA1
:1038C0001A688323DB009A4200DBF2E01300303BEE
:1038D000FA2189008B4210D2AA49AB4F0878012106
:1038E0003F68091A0997B94200D177E15B002F338D
:1038F000A64909785B1A41460B602F2A67DD4346CB
:10390000FA21984A1B68126889008A4200DCAFE6F7
:103910003460C72B00DDB1E63460AFE63360642A63
:10392000FADC049A1278002A00D1AEE6984A346094
:103930001278002A58D1952B00DCA3E00A220599C1
:1039400000200A700A21ACE6C821884A49001268A2
:103950008A4200DB9CE00423854A1360854A0833D1
:10396000136093E78B4B1B78002BA8D18A4B1B78F5
:10397000002BA4D1894B1A78FA2352009B00D1184E
:103980007F4B1868814200DB40E17E4B7E4A1B780A
:1039900012680992934200D183E1FA22804BD2004F
:1039A00000932F2300F03CFE4346FA2218607B4B25
:1039B00092001978724B49001868521A824200DD51
:1039C0002AE1FA239B009C466144814297DB4346EF
:1039D0001C60049B34601B78002B00D034606C4B5F
:1039E0001B78002B4ED00023346066E6FEF76EF99C
:1039F000FEF7B0FF6B4B1B680993002B13D16A4B8A
:103A00001B78002B00D147E1684B1B680993684B7A
:103A10001B680E930E9A099B934204DD0123614AB1
:103A20001360FFF767FC8023DB055A6A614B9A42FB
:103A300000D8D1E54B461B681F00012B00D0CBE519
:103A40003268531C3360FFF755FCFEF73FF94B46D5
:103A50001C60444B494A1C604D4B17701B78002B6F
:103A600000D1B9E50D9B1B78002B00D1B4E578237C
:103A70000F9A1360B0E5504B5C639C63DC63FEF708
:103A8000D9F8A9E56422059900200A70642108E6A6
:103A9000042137480160374801310160C82189009D
:103AA0008A4200DCF2E6642B00DDE1E62E4B1B8847
:103AB000E7E6344B34491B78096809918B4200D101
:103AC00098E03E4B31489C46007851006144091A09
:103AD00013004046303B0160FAE6394F0C9B3F68CB
:103AE0000B9A0A991B68126809680097099700F0F9
:103AF00097FD344B1860A2E6334A01331370FEF78A
:103B00009DFD9BE5FFF766FB114B1B680993C82BD6
:103B100000DD9FE02D4B186800F09AFD2C4B1B68D0
:103B2000002B00D058E50B4A012113704A46116062
:103B30000C4A1360274B1B680993099A264B1A708D
:103B40001D4A53690B435361FFF7D4FB44E5C0465C
:103B5000AC020020CD0200201804002040420F00DB
:103B600030040020CC040020EC000020780200206B
:103B7000DC000020F800002080010020BC020020B2
:103B8000B802002066020020FC0000209D010020F9
:103B900064020020BF02002067020020A401002070
:103BA000FF070000E00200209E0100202804002002
:103BB00090010020409C0000002C0140FFF7FFFF17
:103BC000BC010020F000002044020020B4010020CD
:103BD00010040020E8000020B1010020774A784B53
:103BE00012889A424AD8774B1B78002B46D1764AE6
:103BF0001360ECE67149724A0988914231D8714AE2
:103C00001278002A2DD1704B1A60E0E6FA239B004F
:103C10009A1A824200DCDAE66C4B6D4F1978012368
:103C20003F685B1A0997BB4248D02F2300210093BD
:103C3000684B00F0F5FC42461060674A03001178BB
:103C4000614A49001068FA229200521A824200DD4D
:103C500007E5B6E6614B624A1C60502350201360B2
:103C60005AE701225A49D31A0B605E4B1C605E4B27
:103C70001A70FEF72BF8544B1A6822E7594B5A4A30
:103C80001C6001231370524B1860FEF71FF84E4B57
:103C90001A685300313B2BE6544B1B680993544B75
:103CA000B6E64648464A0088904214D8454A1278FB
:103CB000002A10D1444B00201A606EE63F48404B6A
:103CC000008898421BD83F4B1B78002B17D13E49E8
:103CD00000200B60A9E701223D49D31A0B60414B3C
:103CE0001C60414B1A70FDF7F1FF374B18683A4BD7
:103CF0001978FA239B009C46490061444DE6394BF4
:103D0000394A1C6001231370314B1960FDF7DEFF47
:103D10002D4B1868304B1A78FA2352009B009A1AE0
:103D200083E7FEF7E1FC3349334A0B78D0789842B9
:103D300028D0D3704B7813710023CC18A478D018F6
:103D4000013344710C2BF8D1FEF77CFD2B4B04930F
:103D50001B78002B1BD12A4B2A4A0C932A4B039326
:103D60002A4B07932A4B08932A4B05932A4B069319
:103D70002A4B0D932A4B0A932A4B0B932A4B0F93F2
:103D8000FFF70FFC4C7810798442D2D1DEE721494D
:103D90001B4A059120490C9206911B4A1F49039228
:103DA0000D911A4A1E49214B07920A91184A1D4942
:103DB00008921B68134A0B91FFF7F0FBEC00002000
:103DC000DC050000CD020020B802002066020020C1
:103DD000FC000020FF070000A401002010040020C8
:103DE000B4010020CC040020BC02002028040020E4
:103DF0008C010020C01000087C020020D8020020A6
:103E0000C0010020EE0000205402002088010020A4
:103E1000B4020020E4000020B8010020CC02002001
:103E2000840100207C01002094010020AC010020CE
:103E30007047C0460122364910B50B6893431343BF
:103E40000B600B681A425FD00121324A13680B43A2
:103E50001360013113681942FCD0F82113688B43B9
:103E600078390B431360536B7F390B435363294AF3
:103E70000131536B1942FCD0F821536B8B437839D5
:103E80000B435363536A7F390B435362214A013119
:103E9000536A1942FCD053681F491940A0239B0361
:103EA0000B430F215360D36A8B43D3628023116885
:103EB0005B040B4380211360164A890413680B428C
:103EC000FCD0F0215368134C8B4353605368134963
:103ED0000B400321536053688B4301390B435360FC
:103EE0000C2263681340082BFBD10D4800F06CFED8
:103EF0000B4800F079FE0422636B93436363236BEA
:103F0000013A9343236310BDFFF792FF9CE7C0463D
:103F10000020024000100240FFFFC2FFFFF8FFFF39
:103F2000006CDC0270B58EB01822002102A8FDF7EB
:103F30003DF9102200210AA8FDF738F980201A4A1D
:103F40008002516990250143516153690024034067
:103F500001930326019B0223ED0508A9280008937D
:103F600009960C9401F002F8202308A92800089370
:103F700009960C9400F0FAFFC321FF200B4B890037
:103F80005A5882435A50802252011A60502302A983
:103F9000074802940394049305940694079401F04F
:103FA00067F80EB070BDC0460010024000E100E0AE
:103FB0001C000140094B0A4A07211A60094A1A608D
:103FC00002225A60FA2212019A60DA681142FCD188
:103FD000054A1A61054A1A607047C0460030004021
:103FE000CCCC000055550000FF0F0000AAAA00002D
:103FF000F0B5DE4657464E464546E0B59DB0142224
:10400000002103A8FDF7D2F82022002114A8FDF713
:10401000CDF81822002108A8FDF7C8F818220021C1
:104020000EA8FDF7C3F88022794E1201B36900246F
:104030001343B361B369904613400293029B6B46EE
:104040009C81744B6A4605930023734D03A9280095
:1040500013770494069400F0CDFD80222B689146DE
:1040600013432B60AB686D4A012113400822AB60FB
:10407000AB6992461343AB61602314AA28001493E2
:10408000159416941794189419941A941B9400F08C
:10409000FBFD0422AB69934693434246AB61AB6997
:1040A00010211343AB6114AA28001594169400F054
:1040B000EBFD5146AB695A4A5A4F1340AB617B68DE
:1040C00028000B437B6080235B009A4614AB1A00E8
:1040D00051461594169400F0D7FD59467B68280088
:1040E0008B4341467B607B6815940B4380217B604A
:1040F00014AB1A004901169400F0C6FD7B68484ACB
:104100002C21134070227B606B68802793434A46C2
:104110006B60AB68BF0193436A46AB602D235218B6
:1041200013706B4608A92800DC85089409940A944A
:104130000C970D9400F0BEFE8021726989020A433B
:104140007261736902250B4080210193019B7269A2
:10415000C9020A437261736990260B400093009B69
:104160004B46F6050EA930000E930F95109411944E
:104170001294139500F0FAFE01230E932A4B0EA918
:10418000984618000F95109411941294139500F00E
:10419000EDFE0EA940460E950F95109411941294C1
:1041A000139500F0E3FE53460EA930000E930F95D1
:1041B000109411941294139500F0D8FE80230EA948
:1041C0009B0030000E930F95109411941294139548
:1041D00000F0CCFE80230EA9DB0030000E930F957B
:1041E000109411941294139500F0C0FEC3200F4B4D
:1041F00080001A580E491140802212020A431A50B8
:104200001F601DB03CBC90469946A246AB46F0BD2F
:1042100000100240CF070000002C0140F8BFFFFF54
:10422000FFFBFFFF182C01400004004800E100E004
:10423000FF00FFFF30B587B001AD14220021280038
:10424000FCF7B4FF0123134A8024D169E405194324
:10425000D161D269290013400093009B17232B8062
:1042600000230D4A20006B60AA60EB6000F0C2FCE6
:1042700080222368094993432360A3680B4070217F
:10428000A36063688B436360A3689343A36007B034
:1042900030BDC04600100240FFFF0000F8BFFFFF26
:1042A00030B587B001AD142200212800FCF77EFF55
:1042B0001023C420134A8000D169134C1943D161E3
:1042C000D269124913400093009B114B1A581140B8
:1042D000802212020A431A50802292021A602F236F
:1042E0002B80002329006B6020006433AB6000F05A
:1042F00081FC8022236893432360A3689343A360D7
:1043000007B030BD0010024000100040FF00FFFF6A
:1043100000E100E030B587B001AC1422002120009C
:10432000FCF744FF8020134A4000D169124D01433D
:10433000D161C421D369114A034000938900009BD5
:10434000535828001B021B0A535080231B03136081
:104350001723FA2223800023120121006360A26048
:10436000E36000F047FC80222B6813432B6007B00A
:1043700030BDC046001002400020004000E100E0D7
:1043800010B586B01422002101A8FCF70FFF802091
:10439000144A80029169144C014391619369134955
:1043A0000340C5200093009B114B80001A58114018
:1043B000802212020A431A50802292031A600023BC
:1043C0006A4693800B4A200003926A4601A9029331
:1043D0000493137500F00EFC80222368934323603E
:1043E00006B010BD0010024000440140FF00FFFF76
:1043F00000E100E02823000010B586B0142200215F
:1044000001A8FCF7D3FE80200E4AC00291690E4C31
:104410000143916193696A4603400093009B2F23F7
:1044200093800A4A002303926A46200001A902935E
:104430000493137500F0DEFB80222368934323600E
:1044400006B010BD0010024000480140FFFF000010
:104450000123114A82B05169104819435161C221A8
:104460005269890013400193019B0D4B5A5810402B
:104470008022D20302435A5080228020D2001A6048
:104480005A58C0051202120A02435A5080221201E1
:104490001A6002B07047C04600100240FFFF00FFE4
:1044A00000E100E0002210B5802488B0114B079293
:1044B0005869A4022043586180205969C0022140F4
:1044C000019101995969014359615B6902A903404E
:1044D0000093009B90208023C0051B0283620293FF
:1044E0000123049203930592069200F03FFD08B069
:1044F00010BDC04600100240F0B58FB0142200215C
:1045000003A8FCF753FE022280203C4BC002D9696D
:1045100000241143D961D969012511400291029902
:1045200059698026014359615B6908A903400193D9
:10453000019B10233248089309920A940B940C941F
:104540000D9500F013FD2F4B2F491A6880200A406B
:104550001A601A682D49FF270A4020211A601A683C
:1045600000018A431A601A6820318A431A601A6867
:104570002749B24332431A601A6811408022520020
:104580000A431A601A6823490A40C42102431A6088
:10459000214B89005A58BA435A508022C2278021A1
:1045A00052021A60BF00DA59C9051202120A0A4300
:1045B000DA5118606B469C813F236A4605930023BD
:1045C00004940694154C03A92000137700F012FB05
:1045D00003222368B3432360A36993432B43A3615E
:1045E000A36909329343A361A369E4329343A361AE
:1045F000236AE63A134323620FB0F0BD0010024075
:104600000004004844000240EFBFFFFFFFCFFFFF60
:10461000FFFCFFFFFFF3FFFF00E100E000040040AC
:1046200010B51C00884200DA08001300824200DD49
:10463000030002985B1A001B5843511AFCF794FEC2
:10464000001910BD0300401A00D5C81A7047C046B3
:104650000023034A5362536A8342FCD37047C04627
:104660000048014000220121084B5A62084A9A6220
:104670005A690A435A615A6A8242FCD32F220121A5
:104680009A625A690A435A617047C046004801401D
:104690007FBB0000F0B54746CE4680B585B016001A
:1046A0006A46CB0F5B185B1098465B000733DB084C
:1046B000DB00D31A00AF9D466D460C008146424692
:1046C00000212800FCF772FD012C0BDD4846002379
:1046D0004178027809025C000A4301332A53023010
:1046E0009845F5DC434601212D4A7B60D368194289
:1046F000FCD113691B0605D52A4B1B6853602A4B56
:104700001B685360B30516D10221254A13690B4378
:104710001361566113693E310B4313613F39D3680E
:104720001942FCD12023D1680B4236D102211C4A08
:1047300013698B4313610023BB60FB60FB687A68DD
:104740009A421FD90120202215490B6903430B61AE
:10475000FC68BB686400645B9B191C80CB681842D2
:10476000FCD1CB681A4200D0CA600B6983430B614D
:10477000BB680233BB60FB680133FB60FC687B688D
:104780009C42E2D38021BD46054A13690B43136165
:1047900005B00CBC90469946F0BDD360C6E7C04654
:1047A00000200240C8010020CC010020002A06DDC4
:1047B0005218401A0B78435401319142FAD1704794
:1047C0007047C046054B064A998811801988054AEA
:1047D00011805A88044B1A807047C046D0040020CC
:1047E000AC04002014040020B8040020C220124BA6
:1047F00080001A5811491140C02212020A431A506F
:104800008022032192001A600D4B0E4A9A600E4AD4
:10481000DA605A68120C12040A435A601A680139A5
:104820000A431A601A6806310A431A601A6807397F
:104830000A431A607047C04600E100E0FF00FFFF36
:104840000800024040240140D00400200023124A06
:1048500082B0019393681149194080231B060B43D2
:1048600093609368002BFCDB01230193019B002BD9
:1048700005D0019B013B0193019B002BF9D1064A16
:10488000064993680B4001210B439360136819425A
:10489000FCD002B07047C04600240140E8FFFF7F13
:1048A000F0B5C64600B592B01022002103A8FCF76F
:1048B0007DFC1422002107A8FCF778FC10220021BF
:1048C0000EA8FCF773FC8020424B8000996990246D
:1048D0000143996180219A69890202400292029AF9
:1048E0005A6900250A435A615B6908260B40019307
:1048F000019B03239846E4050CA9200040270D9353
:104900000C96109500F032FB43460CA920000D9345
:104910000C97109500F02AFB2F4B30491A68304C49
:104920000A401A601A682F4920000A4020211A60A4
:104930001A680A431A601A686031BA431A601A6822
:104940000A431A601A6828491140802252000A431B
:104950001A601A68254911408022D2000A431A6061
:10496000A36A23493343A362A36A3B43A362802320
:10497000A26A5B021343A3620B681E4A1A4080239B
:104980001B0413430B60802303A91B0603930495A8
:104990000595069500F0B8FA012307A920000A93AF
:1049A0000795089509950B9500F0C8FA0422072190
:1049B000E3689343E36063698B4301390B436361AD
:1049C0006368934363606368B343636012B004BC7D
:1049D0009046F0BD0010024008000240EFBFFFFF0C
:1049E00000240140FFCFFFFFFFFCFFFFFFF3FFFFAD
:1049F00008270140FFFF3FFE80220C4B52025868FF
:104A000070B5104042425041094A40421040094AA4
:104A10000F249446D96A6044214001315D68FCF757
:104A200019FCAD0C2C400234604370BD00100240F4
:104A300000F7C2FF00127A000E4B10B55A680C2323
:104A400004001340082B11D00B4B0A4923604A681D
:104A50000A481206120F825CD34063604A68084914
:104A60005205520F8A5CD340A36010BDFFF7C4FF0C
:104A70000300EAE70010024000127A002C570008F9
:104A80003C570008030010B50020002B1DD11C4A24
:104A90000333116B0B40022B27D0032B1DD0526820
:104AA000012B13D00C231340082B26D1FFF7A4FFB2
:104AB000134B14495A685B681206120F8A5C5B0537
:104AC000D040114A5B0FD35CD84010BD0B3313406C
:104AD000082B08D1FFF790FFF7E7136802221000B8
:104AE00018401A42F1D00948EFE71800126A104046
:104AF0001342EAD080200002E7E70448D8E7C04626
:104B0000001002402C5700083C57000800127A00A1
:104B100030B5036804000D0085B0DB071DD44B6879
:104B2000C96802680B4329690B43A9690B432049F3
:104B30000A401343036043681E4A1340AA681343A4
:104B4000436083681C4A13406A69134383601B4BAC
:104B5000984205D01A4B984218D0012005B030BDBC
:104B60000020FFF78FFF0028F7D029680029F4D034
:104B70008023AA691B029A420DD04B081818FCF733
:104B800069FB0004000CE0600020E7E701A8FFF7E4
:104B900053FF0398E7E74B084000C018FCF75AFBA7
:104BA000084B03400007400F1843E0600020D5E7A2
:104BB000F369FFFFFFCFFFFFFFFCFFFF003801405D
:104BC00000440040F0FF0000FA2110B58900FCF716
:104BD00041FB0022034B013858609A6005321A608D
:104BE00010BDC04610E000E0014B18607047C046A1
:104BF000D00100201D4A0368904226D08022D205B1
:104C0000904219D01A4A904216D01A4A904217D0B0
:104C1000194A90421DD0194A90421AD0184A90421F
:104C200017D003608B68C3620B88836201224369DB
:104C30001343436100207047702293434A68134333
:104C4000104A1340CA681343EBE7702293434A6843
:104C500013430C4A1340CA68134303608B68C36252
:104C60000B8883620B7C0363E0E7C046002C0140A5
:104C7000000400400020004000400140004401408A
:104C800000480140FFFCFFFF802370B55B009942A4
:104C900000D175E041D8012900D1B3E010296DD1D0
:104CA000036A784D8B430362036A466884692C402B
:104CB00015682D022C432025AB431D0013691B01F1
:104CC0002B438B4351680D016F492B43884208D019
:104CD0006E49884205D06E49884202D06D498842AB
:104CE00014D180218B431D00536940399B012B4314
:104CF0008B4391688D0168492B430E409169674D44
:104D0000890031432940D569EE000E43D2684660E0
:104D1000846182630362002031E080235B01994259
:104D20002CD1016A5E4E574C31400162036A4568DE
:104D3000C1692140146824020C435A49194013697F
:104D40001B030B435168334009030B434E49884210
:104D500008D04E49884205D04D49884202D04D497D
:104D6000884204D150490D40916989010D43D268B0
:104D70004560C46102640362002000E0012070BD50
:104D80007324016A494E31400162036A4168C56972
:104D9000A54314682543464C1C4013691B0223435A
:104DA0005468334024022343374CA0420FD0374C81
:104DB000A0420CD0364CA04209D0364CA04206D0BE
:104DC000D2684160C561C26303620020D7E7334EF9
:104DD000314C1E4053699B023343314E234094684B
:104DE0000E409169A402234309012E4C3143214016
:104DF000D469D268660131434160C561C263036210
:104E00000020BCE77326036A8B430362036A44688D
:104E10008569B543166835430226B34316693343A3
:104E20008B4351680B43184988420FD01749884279
:104E30000CD01749884209D01649884206D0D2685A
:104E40004460856142630362002098E708218B4338
:104E5000190053699B000B4304218B43916889001F
:104E60000B4312490C4091690C4311490C40D16924
:104E7000D26849000C4344608561426303620020AC
:104E80007DE7C046FF8CFFFF002C01400040014041
:104E90000044014000480140FFFBFFFFFFF7FFFF18
:104EA000FFEFFFFFFFDFFFFFFFBFFFFFFFFEFFFF83
:104EB000FFFDFFFF8A680B7B13430D4A13404A68CE
:104EC00013430C4A13400A6813430B4A1A40CB8918
:104ED00013430A4A13400A691343094A13404A69B3
:104EE000084913430B401343436400207047C046F6
:104EF000FFFBFFFFFFF7FFFFFFEFFFFFFFDFFFFFFE
:104F0000FFBFFFFFFF7FFFFF8268030010B5012096
:104F1000D20710D48C684A68D8682243CC680968E4
:104F20002243054C204002430020DA601A699200B7
:104F300092080A431A6110BDC73FFFFF8368020051
:104F400010B50120DB070ED44C680B68D0682343F2
:104F50008C682343CC68096923430B430249014011
:104F600000200B43D36010BD3CC2FEFFF0B5DE460F
:104F700057464E464546E0B50A684B6883B0002A5E
:104F800000D172E09C46012301245B4263449846B1
:104F9000A34600230AE00E69C56874434E463540B7
:104FA0002C43C46014000133DC4041D05C46150042
:104FB0009C4025402242F5D02C006C436700BA4645
:104FC000A2445746FF43B94657460668BE43674664
:104FD00067433E4306604646012EDCD88668B246EB
:104FE0008E685746664301964E4637403E00019F05
:104FF00037438760C6684F46B2460E6966430196DE
:10500000564637403E00019F37436646C760022E32
:10501000C8D1FF2D1DD86443056A2601361BB54350
:105020004E69013374432C4304621400DC40BDD14B
:105030004346012B05D84368C96893434A431A4342
:105040004260002003B03CBC90469946A246AB4665
:10505000F0BD2D0A6D436D43446A2E01761BB443A7
:105060004E697543254345629CE7013B9846DFE75F
:105070001B4B30B5C2188023D2001B029340194C41
:1050800025681D40AB4215D0A04215D04D680B6875
:1050900020682B438D682B43CD682B430D694969EC
:1050A0002B430B4310499340914088430343002016
:1050B000236030BD0120FCE74D680B6804682B437A
:1050C0008D682B43CD682B430D6949692B430B43F6
:1050D0000649934091408C43234303600020E8E756
:1050E000E4FFFEBF1C0001407C3F00007E3F00004B
:1050F000F8B5C046F8BC08BC9E467047F8B5C04637
:08510000F8BC08BC9E46704794
:105108003817000856170008481700086C170008D9
:105118003817000838170008381700084217000821
:1051280050170008901700087A1700083817000869
:1051380074170008381700083817000838170008CF
:1051480038170008381700083817000838170008FB
:105158005E17000830170008191B12131D151617C3
:105168001A090A0B1E0D0E0FB41A0008B61A000809
:10517800F61A0008481B0008821B0008D81B000804
:10518800621A0008B4000000B7000000BA0000006E
:10519800BD000000C1000000C4000000C7000000FE
:1051A800CA000000CD000000D0000000D3000000BD
:1051B800D6000000D9000000DC000000E00000007C
:1051C800E3000000E6000000E9000000EC00000039
:1051D800EF000000F2000000F5000000F7000000FA
:1051E800FA000000FD0000000001000003010000BB
:1051F80006010000090100000B0100000E0100007B
:10520800110100001301000016010000190100003F
:105218001B0100001E010000200100002301000006
:1052280025010000280100002A0100002C010000CF
:105238002F0100003101000033010000350100009A
:10524800380100003A0100003C0100003E01000066
:105258004001000042010000440100004601000036
:1052680047010000490100004B0100004D0100000A
:105278004E010000500100005101000053010000E0
:1052880054010000560100005701000058010000B9
:105298005A0100005B0100005C0100005D01000094
:1052A8005E0100005F010000600100006101000074
:1052B8006201000063010000630100006401000056
:1052C800650100006501000066010000660100003C
:1052D8006701000067010000670100006801000025
:1052E8006801000068010000680100006801000012
:1052F8006801000068010000680100006801000002
:1053080067010000670100006701000066010000F6
:1053180066010000650100006501000064010000ED
:1053280063010000630100006201000061010000E8
:10533800600100005F0100005E0100005D010000E7
:105348005C0100005B0100005A01000058010000E8
:1053580057010000560100005401000053010000ED
:1053680051010000500100004E0100004D010000F5
:105378004B01000049010000470100004601000000
:105388004401000042010000400100003E0100000D
:105398003C0100003A01000038010000350100001E
:1053A80033010000310100002F0100002C01000032
:1053B8002A01000028010000250100002301000047
:1053C800200100001E0100001B010000190100005F
:1053D8001601000013010000110100000E01000079
:1053E8000B01000009010000060100000301000094
:1053F80000010000FD000000FA000000F7000000B6
:10540800F5000000F2000000EF000000EC000000D2
:10541800E9000000E6000000E3000000E0000000F2
:10542800DC000000D9000000D6000000D300000016
:10543800D0000000CD000000CA000000C700000036
:10544800C4000000C1000000BD000000BA00000058
:10545800B7000000B4000000B1000000AE0000007A
:10546800AB000000A7000000A4000000A10000009D
:105478009E0000009B0000009800000095000000BE
:10548800920000008F0000008C00000088000000DF
:1054980085000000820000007F0000007C00000002
:1054A8007900000076000000730000007100000021
:1054B8006E0000006B00000068000000650000003E
:1054C800620000005F0000005D0000005A0000005C
:1054D8005700000055000000520000004F00000077
:1054E8004D0000004A000000480000004500000090
:1054F80043000000400000003E0000003C000000A7
:1055080039000000370000003500000033000000BB
:10551800300000002E0000002C0000002A000000CF
:1055280028000000260000002400000022000000DF
:10553800210000001F0000001D0000001B000000EB
:105548001A000000180000001700000015000000F5
:1055580014000000120000001100000010000000FC
:105568000E0000000D0000000C0000000B00000001
:105578000A00000009000000080000000700000001
:1055880006000000050000000500000004000000FF
:1055980003000000030000000200000002000000F9
:1055A80001000000010000000100000000000000F0
:1055B80000000000000000000000000000000000E3
:1055C80000000000000000000000000000000000D3
:1055D80001000000010000000100000002000000BE
:1055E80002000000030000000300000004000000A7
:1055F800050000000500000006000000070000008C
:1056080008000000090000000A0000000B0000006C
:105618000C0000000D0000000E000000100000004B
:105628001100000012000000140000001500000026
:1056380017000000180000001A0000001B000000FE
:105648001D0000001F0000002100000022000000D3
:105658002400000026000000280000002A000000A6
:105668002C0000002E000000300000003300000075
:105678003500000037000000390000003C00000041
:105688003E0000004000000043000000450000000C
:10569800480000004A0000004D0000004F000000D4
:1056A8005200000055000000570000005A0000009A
:1056B8005D0000005F00000062000000650000005F
:1056C800680000006B0000006E0000007100000020
:1056D8007300000076000000790000007C000000E4
:1056E8007F000000820000008500000088000000A4
:1056F8008C0000008F000000920000009500000060
:10570800980000009B0000009E000000A10000001F
:10571800A4000000A7000000AB000000AE000000DD
:10572800B1000000000000000000000001020304B6
:0C5738000607080900000000010203043D
:045744004511000803
:04574800191100082B
:10574C002C0000002000000024F40000FA000000EF
:10575C00204E00000A00CF070102000003000000E9
:10576C00E80300000A00000005000000D43001002E
:10577C00CF07000001000000050000000100000040
:10578C003C000000000000000000000000000000D1
:10579C0000000000000000000000000000000000FD
:1057AC0000000000000000000000000000000000ED
:1057BC00400000000000000000000000000000009D
:1057CC00000000004000000000000000000000008D
:1057DC00000000000000000040000000000000007D
:1057EC00000000000000000040000000400000002D
:1057FC000000000040000000000000004600000017
:10580C001400000014000000010201000700000059
:10581C0007000000B40000002D00D0070E010100AD
:10582C000100000019006C074C04DC057800000036
:10583C00190100006400000001000000CF07000007
:10584C00F4010000CF07320023016745AB89EFCD8F
:04585C0000127A00BC
:040000050800154199
:00000001FF
