:020000040800F2
:1010000000900020512000089D500008A1500008C9
:1010100000000000000000000000000000000000D0
:10102000000000000000000000000000A5500008C3
:101030000000000000000000A9500008AD500008AA
:10104000A1200008A1200008A1200008A12000087C
:10105000A1200008A1200008A1200008A12000086C
:10106000A1200008B15000080D510008F9510008F6
:1010700071510008A1200008A1200008A12000084B
:101080009D510008C1510008A1200008DD51000851
:10109000A1200008A1200008A1200008A12000082C
:1010A000A1200008A1200008A1200008A12000081C
:0C10B000A1200008A1200008A1200008D9
:0E10C0000145473037312050574D5F454E20D7
:1010D00010B5064C2378002B07D1054B002B02D00E
:1010E000044800E000BF0123237010BD2001002050
:1010F0000000000040680008044B10B5002B03D02E
:101100000349044800E000BF10BDC04600000000D5
:101110002401002040680008002243088B4274D359
:1011200003098B425FD3030A8B4244D3030B8B42E8
:1011300028D3030C8B420DD3FF22090212BA030CF1
:101140008B4202D31212090265D0030B8B4219D3D2
:1011500000E0090AC30B8B4201D3CB03C01A5241F2
:10116000830B8B4201D38B03C01A5241430B8B423A
:1011700001D34B03C01A5241030B8B4201D30B0323
:10118000C01A5241C30A8B4201D3CB02C01A52414A
:10119000830A8B4201D38B02C01A5241430A8B420D
:1011A00001D34B02C01A5241030A8B4201D30B02F6
:1011B000C01A5241CDD2C3098B4201D3CB01C01A10
:1011C000524183098B4201D38B01C01A524143091A
:1011D0008B4201D34B01C01A524103098B4201D308
:1011E0000B01C01A5241C3088B4201D3CB00C01A75
:1011F000524183088B4201D38B00C01A52414308ED
:101200008B4201D34B00C01A5241411A00D2014611
:10121000524110467047FFE701B5002000F0F0F89A
:1012200002BDC0460029F7D076E7704703460B435E
:101230007FD4002243088B4274D303098B425FD3CF
:10124000030A8B4244D3030B8B4228D3030C8B42FB
:101250000DD3FF22090212BA030C8B4202D31212E1
:10126000090265D0030B8B4219D300E0090AC30BB6
:101270008B4201D3CB03C01A5241830B8B4201D363
:101280008B03C01A5241430B8B4201D34B03C01A4C
:101290005241030B8B4201D30B03C01A5241C30AC4
:1012A0008B4201D3CB02C01A5241830A8B4201D335
:1012B0008B02C01A5241430A8B4201D34B02C01A1F
:1012C0005241030A8B4201D30B02C01A5241CDD2C4
:1012D000C3098B4201D3CB01C01A524183098B420F
:1012E00001D38B01C01A524143098B4201D34B01F8
:1012F000C01A524103098B4201D30B01C01A52415B
:10130000C3088B4201D3CB00C01A524183088B42E1
:1013100001D38B00C01A524143088B4201D34B00CA
:10132000C01A5241411A00D201465241104670473C
:101330005DE0CA0F00D04942031000D34042534041
:1013400000229C4603098B422DD3030A8B4212D301
:10135000FC22890112BA030A8B420CD38901921133
:101360008B4208D3890192118B4204D389013AD070
:10137000921100E08909C3098B4201D3CB01C01A45
:10138000524183098B4201D38B01C01A5241430958
:101390008B4201D34B01C01A524103098B4201D346
:1013A0000B01C01A5241C3088B4201D3CB00C01AB3
:1013B000524183088B4201D38B00C01A5241D9D2CB
:1013C00043088B4201D34B00C01A5241411A00D24C
:1013D0000146634652415B10104601D34042002B48
:1013E00000D54942704763465B1000D3404201B5C7
:1013F000002000F005F802BD0029F8D016E770477C
:101400007047C0469E2110B5C905041C00F00EFDB2
:10141000002803D1201C00F07DFC10BD9E21201C63
:10142000C90500F0AFFA00F075FC80231B069C464E
:101430006044F2E7F0B54646D6464F464D024202BA
:10144000C0B5520A6E0A4700B0463F0E4E00C40FA8
:10145000D00094463B008246360EC90FAD098C423F
:101460006DD0B81B814600284DDD002E00D188E0EC
:10147000FF2F5AD08023DB041D434B4601221B2B38
:101480000ADC2B004A464946D3402022521A954096
:101490002A00551EAA411A4353469A1A530100D4F2
:1014A000B9E092019609300000F0CAFC0538864088
:1014B000874200DDD4E03300C71B20200137FB400A
:1014C000C71BBE403200561EB24100271A435307C5
:1014D00004D00F231340042B00D00432530100D456
:1014E0009CE07B1CFE2F00D19AE09201520A9446A8
:1014F000DBB2D8056346E40718432043E0BCBA4694
:10150000B146A846F0BD002849D0F31B002F00D0FB
:10151000B6E05246002A60D0013B002B00D1FCE02F
:10152000FF2E00D0B4E00C004246002A78D0802084
:10153000C00310434202530A9C46FF23D9E7B91B5C
:10154000002971DD002E3FD0FF2FEED08023DB0479
:101550001D4301221B2907DC2A002023CA40591AF7
:101560008D406B1E9D412A435244530153D5013790
:10157000FF2F55D001237B49134052080A401A43DC
:10158000A5E7002D2CD001235B429C46E1444B464D
:10159000002B00D1ADE0FF2F00D06EE7C5E7FE20A5
:1015A0007E1C304260D1002F00D093E05246002ACA
:1015B00000D1B6E0002D9CD0521B500100D4C3E0F6
:1015C00053460C00EA1A82E7002D09D001390029A0
:1015D00000D18BE0FF2FBCD1A7E70C0042463700BB
:1015E000FF2FA2D05202530A9C46FBB281E7FE2194
:1015F0000137394265D1002B7ED1002800D1AAE005
:10160000002D00D175E72A0052440027530102D56E
:10161000554B01371A40530700D05AE7D208DFE78D
:101620000022FF23944664E70029E0D0F31B002F3B
:101630003ED0FF2E00D177E780220100D204114373
:101640008A4601221B2B08DC524620215046DA40F4
:10165000CB1A9840431E984102433700521984E741
:10166000414A3F1A324032E753465E1B73012DD484
:10167000002E00D017E7002200240023944638E70C
:10168000FF2E00D14FE780225046D20410438246FD
:1016900001221B2B08DC524620245046DA40E31A74
:1016A0009840431E984102430C003700AA1AF5E601
:1016B000002893D0013B002B4FD0FF2EC1D14246D2
:1016C00033E7FF2FACD055446A08A4E753460C001B
:1016D000EE1AE8E65346002B28D1002D00D022E771
:1016E0008023DB039C460024FF2302E72A005244A8
:1016F0003BE753465A1BD1E6002800D114E7002DE2
:1017000000D112E78023DB031A4200D10DE74146E6
:10171000194200D009E7424607E70C003700AA1A31
:10172000BCE6002D13D00C00C446E2E6002D00D12B
:10173000FBE68023DB031A4200D1F6E6404618425E
:1017400000D0F2E60C00EFE6002A00D063E70022AA
:1017500000249446CDE6C446CBE62A003700524426
:1017600003E7C046FFFFFF7DFFFFFFFBF0B54F46DD
:101770004646D6464502C0B547000C1C6D0A3F0ED2
:10178000C60F002F66D0FF2F6CD00023EA00802503
:1017900099469A46ED0415437F3F60026100430A73
:1017A0009846090EE40F002948D0FF2910D0802266
:1017B000D800D2040243904600207F394A463300C5
:1017C0007F1A02436C4992008A586340DBB2974605
:1017D000002B6DD10220FF3F33E000239846260006
:1017E000454682465346022B00D17FE0032B00D1B1
:1017F00094E0012B17D038007F3000285FDD6B07A5
:1018000004D00F232B40042B00D004352B0103D52B
:1018100038005A4B80301D40FE2867DCAD016D0A50
:10182000C0B202E01E0000200025C0052843F607D4
:101830003043E0BCBA46B146A846F0BD002B2BD1E0
:1018400001204A4633004E49024392008A586340C1
:10185000DBB29746002D13D104239946033B0027A2
:101860009A469AE7002D05D108239946063BFF27A3
:101870009A4692E70C239946093BFF279A468CE744
:10188000280000F0DDFA7627431F9D4000237F42A9
:1018900099469A463F1A80E7180000F0D1FA42466E
:1018A000431F76219A404942091A9046002085E755
:1018B000FF21032082E71E00FF200025B5E701235A
:1018C0001B1A1B2BAFDC9E372900BD40D9406A1E76
:1018D00095410D436B0704D00F232B40042B00D000
:1018E00004356B0144D5012000259EE7FF2000252B
:1018F0009BE780250026FF20ED0396E7002398460E
:101900008020C003054209D04346034206D1454624
:1019100005436D022600FF206D0A86E78020C00384
:1019200005436D02FF206D0A7FE741466A014801C9
:10193000824219D21B210025013F012614006D00AF
:101940005200002C01DB904201D8121A35430139B4
:101950000029F3D1501E824138007F301E0015430C
:10196000002800DD4BE7AAE71A210125121AE4E757
:10197000AD0100206D0A58E758680008FFFFFFF727
:1019800098680008F0B54646D6464F4643025B0AC3
:10199000DA0094464A02C0B54400560A051CB04617
:1019A000240E4E0092091F0020009246ED0F360EC5
:1019B000C90FFF2E00D17FE0012251408D4251D04E
:1019C000A21B9146002A00DC7EE0002E00D199E0A7
:1019D000FF2C00D18CE080235246DB041A43924650
:1019E0004A4601231B2A08DC53462021D340891A8A
:1019F00052468A40511E8A4113436246D31A5A0105
:101A000000D4F3E09B019E09300000F019FA05387C
:101A10008640844200DDF7E03200041B20200134C0
:101A2000E240041BA64033005E1EB3410024134372
:101A30005A0704D00F221A40042A00D004335A0156
:101A400000D4D6E0621CFE2C00D1DAE09B015F0AD4
:101A5000D0B2C0053843ED072843E0BCBA46B146D2
:101A6000A846F0BDA21B9146002A63DD002E00D1DE
:101A700099E0FF2C3CD080235246DB041A43924667
:101A80004A4601231B2A08DC53462021D340891AE9
:101A900052468A40511E8A41134363445A0100D47E
:101AA000A4E00134FF2C00D1ABE0012297491A4099
:101AB0005B080B401343BBE7002A32D08D4235D080
:101AC000FF2252429146A1444A46002A51D0301B7F
:101AD000002C00D09CE06346002B00D1DFE00138F1
:101AE000002800D1F7E0FF2E00D099E00D0043461A
:101AF000002B00D185E08027FF031F437F02FF20DA
:101B00007F0AA6E75246002A74D00122524290462C
:101B1000C1444A46002A00D1C8E0FF2C00D05FE74C
:101B2000E6E701225140A94200D049E7FF22524294
:101B30009146A1444A46002A43D0311B002C00D1D3
:101B40008CE0FF2E00D192E080236246DB041A4332
:101B5000944601231B2909DC202063466246CB40C2
:101B6000411A8A401100481E81410B4334005344FE
:101B700094E7FE22661C324264D1002C00D082E041
:101B80006346002B00D1ABE05346002B00D160E749
:101B9000634652469B1A5A0100D4AAE06346524655
:101BA0000D00D31A44E75246002A23D001225242A4
:101BB0009046C1444A46002A75D0FF2C00D05FE70A
:101BC00096E7FE260134264253D1002872D163469F
:101BD000002B00D193E05346002B00D139E763443A
:101BE00000245A0102D54A4A013413405A0700D052
:101BF00020E7DB08FF2C00D17AE75B025F0AE0B246
:101C000027E7FF20002724E7414B241A33400FE742
:101C1000FF2E00D16AE780236246DB041A43944614
:101C200001231B2809DC202463466246C340201A96
:101C300082401000441EA041034352460D00340070
:101C4000D31ADCE6634652469E1A730117D4002E5F
:101C500000D0D9E6002500200027FAE66346002BD5
:101C600044D0013900294CD0FF2E00D071E7434603
:101C70003EE7FF2CC5D0524662445308B6E76346A0
:101C80000D00D61AC0E66246002A16D15346002B34
:101C900000D02BE780270025FF20FF03D9E60D00A9
:101CA00043463400A6E753466344F7E6634652468C
:101CB0009B1AA4E66246002AD9D05246002A00D1D7
:101CC00016E78022D203134200D111E740461042AA
:101CD00000D00DE70AE752460D003400D31A8EE615
:101CE0005346002B08D00D004746B2E64346340069
:101CF00080E7002B00D079E700250027A9E64746BA
:101D0000A7E6534634006344C8E6C046FFFFFF7DA4
:101D1000FFFFFFFB41024200C30F490A0020120EE1
:101D20007E2A03D99D2A02D9094A98187047802033
:101D300000040143952A07DC9620821AD1404842CC
:101D4000002BF3D10800F1E7963A9140F7E7C0463F
:101D5000FFFFFF7F70B5051E0ED000F071F89E23C7
:101D600004001B1A962B0CDC082801DD083CA5405A
:101D70006D026D0AD8B201E000200025C00528439D
:101D800070BD992B09DD020029001B3291404A1ECB
:101D900091410522121AD5400D43052C01DD621F29
:101DA00095402900084E31406A0709D00F2028408D
:101DB000042805D004314A0102D59F2331401B1B62
:101DC00089014D0AD8B2D9E7FFFFFFFB8446081C02
:101DD0006146FFE71FB500F0C5F8002801D40021D7
:101DE000C8421FBD10B500F049F84042013010BD97
:101DF00010B500F0B7F8002801DB002010BD01206D
:101E000010BDC04610B500F0ADF8002801DD00207F
:101E100010BD012010BDC04610B500F057F80028D5
:101E200001DC002010BD012010BDC04610B500F03F
:101E30004DF8002801DA002010BD012010BDC04679
:101E40001C2101231B04984201D3000C10391B0AEA
:101E5000984201D3000A08391B09984201D30009AE
:101E6000043902A2105C40187047C0460403020205
:101E700001010101000000000000000070B54200F7
:101E80004E024C0045026D0A120EC30F760A240E54
:101E9000C90FFF2A0FD0FF2C11D00120A24200D081
:101EA00070BDB542FCD18B420DD0002AF8D128007C
:101EB000451EA841F4E70120002DF1D1EBE70120F8
:101EC000002EEDD1E9E70020EAE7C046F0B5420078
:101ED00046024D024C00C30F760A120E6D0A240E04
:101EE000C80FFF2A1FD0FF2C10D0002A1FD171422B
:101EF0007141002C01D1002D1ED000290ED183424A
:101F00001ED00221581E08400138F0BD002D26D1F8
:101F1000002AF4D1714271410029F0D00028F4D197
:101F200001204042F1E7002E19D1FF2CEED0002C09
:101F3000E5D1002DE3D1E4E70020002EE5D0E0E775
:101F4000A24205DCEADBAE4202D8E7D30020DCE7A0
:101F5000414241414842022108400138D5E7022070
:101F60004042D2E7F0B5420046024D024C00C30F9A
:101F7000760A120E6D0A240EC80FFF2A0DD0FF2C10
:101F80000FD0002A23D171427141002C0FD1002DB6
:101F90000DD10020002E14D00DE0002E10D1FF2C0A
:101FA00015D1002D0CD1002A03D1714271410029B5
:101FB00008D1834210D00221581E0840013800E0A9
:101FC0000220F0BD0028FCD101204042F9E7002C9E
:101FD000EFD1002DEDD1EEE7A24205DCF2DBAE42FF
:101FE00002D8EFD30020ECE74142414148420221B0
:101FF00008400138E5E7C04670B500260C4D0D4C91
:10200000641BA410A64209D1002604F019FC0A4D55
:102010000A4C641BA410A64205D170BDB300EB5856
:1020200098470136EEE7B300EB5898470136F2E7E0
:102030008C6F00088C6F00088C6F0008906F000890
:1020400003008218934200D1704719700133F9E7F9
:102050000D488546002103E00C4B5B58435004318A
:102060000B480C4B42189A42F6D30B4A02E000236D
:1020700013600432094B9A42F9D303F0E7FDFFF7EE
:10208000BBFF01F077FDFEE700900020946F000891
:102090000000002020010020200100204C0400202E
:1020A000FEE70000F0B5DE4657464E4645469849E5
:1020B00098480B68CA6FE0B5D21A0260964887B09C
:1020C00084466244582A5FD80C00944A8034100039
:1020D00000E00B684D680831EB1A9B0908C08C4280
:1020E000F7D11368116A9B460191516A13690391F4
:1020F000594600935368506902939368956A049314
:10210000009BAC4659400B000199D5684B40D90063
:102110008846029B039943404B4041469B000B433A
:10212000290005906046D669D76A71407940946964
:102130000B4304996140414049000B43116BDBB2F2
:10214000C9008846516B890089464146484601438B
:10215000D06B926B014352000A437149D2B2894657
:1021600009788846002916D16E498A4609780029DF
:102170005FD00F218A4651468A1AD2B29A4210D0B5
:10218000694A13680133136007B0F0BCBB46B2461E
:10219000A946A046F0BD634909780029E9D19A42D1
:1021A000EED10022614B1A60614A1368013313605B
:1021B000012F01D15F4B1F705B46029A9B025202B6
:1021C000134362461343049AED0110021843009B27
:1021D00005439801059B05435B011D432401019BB9
:1021E0002C43F60026439C00039B264359003143B1
:1021F0002F2926DC4B1E2E2B2BD800224E4B4F4C6A
:102200001A6021604E4B1B68002BBDD14346002B4A
:10221000BAD04C4B1A788A4233D0197004293BDC6F
:10222000494A00231370152920D8484B89005B5870
:102230009F460F31891A8B42A0D151460120087068
:1022400097E73D4B3D4A1960002313603E4A1370E7
:102250009AE7002910D1384B1960384B19603A4B76
:10226000197091E73A4B1A783A4B1A603A4B226848
:102270001A700023236087E7304C21680029C1DCF5
:1022800082E7314A0429CCDD13780133DBB21370C5
:10229000052B00D878E7C4E701222B4B1A7073E7AF
:1022A0002B4B1A7801239B1A2A4A1360DEE700F0B1
:1022B0004BFEDBE70122294B1A700023284A1360EA
:1022C0004A461370D2E70023244A13704A4613701B
:1022D000234A1360CAE701221D4B1A7000221D4BCE
:1022E0001A60204B02321A70C0E70022184B1A7095
:1022F0000123184A13601B4A1370B7E700F0B6FBBE
:10230000B4E700F003FBB1E700F030FBAEE7C046F6
:1023100034030020D0010020BFF9FFFF400100205E
:1023200098010020D8010020CC01002030020020BC
:10233000D40100202C020020200200207C0200207A
:1023400028020020800100203C010020D8680008FD
:10235000C70100203000002015020020A801002045
:102360004C02002025020020294BF0B51B68002BF1
:1023700043D0284B1A680F2311001941012940D07E
:10238000013B082BF8D10021234B196093B2180AA6
:102390001909414059400F231800120188431F4971
:1023A00002430A601E4910130C5C18001040085CC0
:1023B000E4030443101218401211085C1A408B5CAD
:1023C000800204435B01174F1C43174B38001C600D
:1023D0005E23132101265E253B62243000E0043099
:1023E00032008A402240CA409B0953406B4303603D
:1023F0000139F4D20023FB61F0BD0C4A054B1A6091
:10240000B9E7083B1A4104490B6059020A43BDE78A
:1024100028020020780200208401002054020020BD
:10242000306900083800002058020020FFFF00003B
:102430000C211C4A1C4813688B4308390B4313605A
:1024400002239362A023DB05196808408021490319
:102450000143196080210320C900996211688143FA
:1024600002380143116090621A68104911408022BD
:10247000D2020A431A60802292009A621A680C49BA
:1024800011408022D2010A431A6080229A621A689F
:1024900008491140802252020A431A6080225200E9
:1024A0009A62704700040050FFFFCFFFFFFFF3FF69
:1024B000FF3FFFFFFFFFFCFF00B506283ED8904B13
:1024C00080001B589F468F4B1B78002B08D00C2197
:1024D0008D4A13688B4308390B43136002239361C1
:1024E000A023DB051A68894903201140802292034A
:1024F0000A4385491A600A688243023802430A6027
:1025000088621A68824911408022D2020A431A6006
:10251000802292009A621A687E4911408022D2017C
:102520000A431A6080229A611A687B49114080220E
:1025300052020A431A60802252009A6200BD714B17
:102540001B78002B08D00C216F4A13688B43083985
:102550000B43136002239361A023DB051A686B49C8
:1025600003201140802292030A4367491A600A68D7
:102570008243023802430A6088611A686449114044
:102580008022D2020A431A60802292009A621A685C
:10259000604911408022D2010A431A6080229A6267
:1025A000C2E70C21584A594813688B4308390B433A
:1025B000136002239362A023DB0519680840802181
:1025C00049030143196080210320C9009962116801
:1025D000814302380143116090611A684C491140EF
:1025E0008022D2020A431A60802292009A62454AEF
:1025F0001278002A08D01A68464911408022D20178
:102600000A431A6080229A61A021C9050B68424AD8
:102610001A4080239B0213430B608FE70C213A4A38
:102620003A4813688B4308390B43136002239361C4
:10263000A023DB0519680840802149030143196084
:1026400080210320C9009962116881430238014347
:1026500011609062C1E70C212B4A2C4813688B4310
:1026600008390B43136002239361A023DB0519682B
:10267000084080214903014319608021C900996203
:10268000204B1B78002B06D0032113688B430239A3
:102690000B4313609161A023DB051A681C491140AC
:1026A000802212030A431A6071E70C21164A174868
:1026B00013688B4308390B43136002239362A023F2
:1026C000DB05196808408021490301431960802116
:1026D000C90099620B4B1B78002B06D003211368AD
:1026E0008B4302390B4313609161A023DB051A6809
:1026F00007491140802212030A431A600BE7C046C3
:10270000406900081E00002000040050FFFFCFFFBA
:10271000FFFFF3FFFF3FFFFFFFFFFCFF0C211C4A01
:102720001C4813688B4308390B43136002239361E1
:10273000A023DB0519680840802149030143196083
:1027400080210320C9009962116881430238014346
:10275000116090611A68104911408022D2020A4328
:102760001A60802292009A621A680C4911408022F5
:10277000D2010A431A6080229A611A6808491140FE
:10278000802252020A431A60802252009A627047E5
:1027900000040050FFFFCFFFFFFFF3FFFF3FFFFFED
:1027A000FFFFFCFF234B1B78002B32D00C21224A69
:1027B000224813688B4308390B431360022393614B
:1027C000A023DB0519680840802189030143032009
:1027D00019601168814302380143116090611A68E1
:1027E00017491140802212030A431A601A681549DA
:1027F00011408022D2010A431A6080229A61A021EE
:10280000C9050B68104A1A4080239B0213430B60D2
:102810007047A023DB051A68084911408022920303
:102820000A431A601A6806491140802212030A43BB
:102830001A60E4E71E00002000040050FFFFCFFFF5
:10284000FFFFF3FFFF3FFFFFFFFFFCFF031C0B2811
:1028500000D90B23014A5B00137070475C02002013
:1028600010B572B6124B134C1B7803206363A3633D
:10287000E363FFF721FE3723C820A36202F008F9C3
:102880000520FFF719FE2823C820A36202F000F9F3
:102890000620FFF711FE1923C820A36202F0F8F802
:1028A000FFF7C6FD0023044AA362136062B610BDA1
:1028B0005C020020002C01403002002070B572B68E
:1028C0000F4B104C1B78032063639625A363E363CF
:1028D000FFF7F2FD19236D00A362280002F0D8F87B
:1028E0000620FFF7E9FD37232800A36202F0D0F8A5
:1028F000FFF79EFD0023044AA362136062B670BD19
:102900005C020020002C01403002002070B572B63D
:102910003C23114C114D124E01202E60A362114B2D
:102920001B786363A363E363FFF7C6FD4B2002F0EC
:10293000AFF850234B20A36202F0AAF85A234B2091
:10294000A3622E6002F0A4F8FFF772FD0023064A8E
:10295000A362136062B670BD002C014000300040DD
:10296000AAAA00005C0200203002002010B572B656
:10297000114A124B124C1A605023A362114B0320D0
:102980001B786363A363E363FFF796FD642002F0A3
:102990007FF846236420A36202F07AF8282364209B
:1029A000A36202F075F8FFF743FD0023064AA36215
:1029B000136062B610BDC046AAAA000000300040F5
:1029C000002C01405C020020300200200E4A0F4B18
:1029D00010B51A6032230E4C0220A3620D4B1B78F7
:1029E0006363A363E363FFF767FD642002F050F8BD
:1029F0001E236420A36202F04BF8FFF719FD0023A9
:102A0000054AA362136010BDAAAA0000003000406E
:102A1000002C01405C020020300200200E4A0F4BC7
:102A200010B51A6028230E4C0220A3620D4B1B78B0
:102A30006363A363E363FFF73FFD642002F028F8BC
:102A400050236420A36202F023F8FFF7F1FC002377
:102A5000054AA362136010BDAAAA0000003000401E
:102A6000002C01405C02002030020020F8B572B654
:102A70007724104B104D1B78104F114E6B63AB63D6
:102A8000EB63142120003E60FEF7D0FBFFF714FD3E
:102A900063100A330A20AB62023C01F0F9FF631CA9
:102AA000EFD1FFF7C5FC0023064AAB62136062B6A4
:102AB000F8BDC0465C020020002C01400030004000
:102AC000AAAA000030020020234B10B505CB234BEF
:102AD000101AC2189C2382B0DB009A4214D9204BF2
:102AE00018682049204A0B681268C41A944203DD12
:102AF0009B180B6002B010BD1C1AA24202DA9B1A8E
:102B00000B60F7E70860F5E7184B1B78002B0ED039
:102B1000174B1A88904211D8164B1988FA239B003C
:102B20000093002301F092FF0D4B1860D9E7124B80
:102B30001A88104B1988FA23DB00F1E70E4B511C61
:102B40001C88FA23DB00009322000C4B01F07EFF6F
:102B5000034B1860C5E7C046340300207BFCFFFF31
:102B6000600200202002002000000020A8010020B8
:102B7000DE000020DC000020DA000020E903000075
:102B800010B5324B1B78002B03D0314A1278002A43
:102B900006D1304A1278002A44D0012A07D010BD4D
:102BA0002D4B1B78002B1CD002F01CF8F7E7002BF4
:102BB00008D12A4A2A4913600A68002A3ADB3AD027
:102BC000284A1360224B1B78002B11D0224B1B7814
:102BD000002B2CD0FFF7C8FBFFF764FA02F002F8D5
:102BE000DDE702F06FF8FFF7BFFBFFF75BFAD6E710
:102BF0001D4B1B78012B23D01C4B1B78012BCED1F6
:102C0000FFF762FF00220A21144B1A60184A136A68
:102C10008B43136201F0E6FF0421164A13680B434D
:102C20001360BCE702F08EF801F0DCFFB7E702F0BA
:102C300049F8B4E70B600B4A136801331360C1E72E
:102C4000FFF730FA01F0CEFFD6E7C046980100202A
:102C5000D801002014020020500200203002002081
:102C6000200300204C020020C80100202D0200207B
:102C70000004004008000240BFF34F8F034B044A9A
:102C8000DA60BFF34F8FC046FDE7C04600ED00E0BD
:102C90000400FA05F8B5154D01F078FFEB68144A09
:102CA000FA201A408023FA2410279B001343EB607C
:102CB000800001F0E3FE0F4EA4002B691F4202D1F9
:102CC0003388013333800A20013C01F0D7FE002C09
:102CD000F3D1064A0649D3680B40D3603388052BED
:102CE00000D9F8BDFFF7A4FBFFF7C6FF00040050B2
:102CF000FFFCFFFF18020020F0B5C64600B5714C7E
:102D000030222000704982B002F096FF637C6F4E43
:102D1000013B5A4253416E4A1370A37C013B5A4215
:102D200053413370E37C012B01D16A4A1370237D38
:102D3000694D013B5A4253412B70637D013B5A421E
:102D40005341664A1370A37D013B5A425341644A82
:102D50001370E37D032B00D90223624A1370207E97
:102D60000300183B182B00D89AE05F4B5F4A138092
:102D70005F4AD362637E1A00323A642A00D984E043
:102D80005B081A005B490A320978143352185A4911
:102D90000A605A4A13805A4B28229846A37E594FFC
:102DA0005343424614331380E37E05203B70237F58
:102DB000013B5A425341544A1370637F013B5A42CC
:102DC0005341524A1370FFF741FD6378002B37D00F
:102DD000A07F0B2860D8FFF739FDE37F013B5A4203
:102DE00053414B4A13702023E35C4A4A7833FF3344
:102DF0005B001380484A21239446E35C474A6344BE
:102E00005B001380464A22239446E35C454A6344B0
:102E100013802323E25C444B1A702423E35C013BC0
:102E20005A425341414A13702523E35C404AFA3326
:102E300013802623E35C012B40D000223D4B1A7007
:102E400043461B88397810209846FEF7EFF9C821D1
:102E500004004046FEF760F9210080B2FEF7E6F973
:102E6000354B642118604046FEF756F980B22100C8
:102E70002830FEF7DBF9314B18602B78002B00D19E
:102E8000337002B080BCB846F0BD96221A4B1A606F
:102E90001A4B413A1A807EE70520FFF7D7FC9CE7E2
:102EA000274B3022009318210F4B01F0CFFD254B0B
:102EB00018800F4B0004000CD8625BE71D4A1370AA
:102EC000BEE7C046E001002000F80108A80100208C
:102ED000C7010020400200201E0000200600002044
:102EE000EC00002008000020B70B0000F8000020D4
:102EF000002C0140E4000020C8000020CC0000208D
:102F0000CE000020D0000020A901002036020020C1
:102F10008C010020DC0000206B030000DA000020A0
:102F20005E050000DE000020D80000208A0100209D
:102F3000B40000208B010020B8000020B000002069
:102F4000DB0500000400002010B5164B16481B7866
:102F50003021013B5A4253414374144B1B78013BCF
:102F60005A4253418374124B1B78013B5A425341DE
:102F7000C374104B1B78013B5A42534103750E4BEF
:102F80001B78013B5A42534143750C4B1B78013B64
:102F90005A42534183750A4B0A4A1B78C37502F0A3
:102FA000A7FD10BDC7010020E0010020A8010020FE
:102FB000400200201E00002006000020EC0000203F
:102FC0000800002000F801080D4B1B78002B08D0EA
:102FD0000C4B1B685B0008D40B4A13680133136069
:102FE0007047084B1B685B00F6D4084A136801332E
:102FF0001360022BF4DD0022034B1A60F0E7C04699
:10300000D20000200402014088020020A00100201C
:1030100070B52D4C2D4D21782D4A2D88481E43002A
:103020009D52558813885B1995885B19D5885B1963
:10303000158952895B199B18264A5B101360264B31
:103040001B68012B2BD0C0B2002821D00123207097
:103050001940224B1970224B1B78002B2BD001F00A
:1030600043FDFA231F4ADB0012689A4208D91E4B1F
:103070001E4A1B781278134302D001221C4B1A708F
:1030800000231C4A13601C4A13601C4A136070BD65
:103090000623012223701A4B01211A70D9E701314E
:1030A000C9B206290BD821700B400C4A13700C4B87
:1030B0001B78002BD3D12078FFF7FEF9CFE7104A19
:1030C000237013700123F0E7E50000201C000020AE
:1030D000AC0100207802002030000020D200002047
:1030E000260200209C010020360200208B010020D7
:1030F0002402002088020020480200203C02002018
:10310000C50100200121154A10B5D368144C8B432A
:10311000D360228853009B18124A12889B189B1078
:103120002380FFF775FF104A23881278D9084A4395
:103130000E495B089B1A0A600D4A13600D4B1B7801
:10314000002B07D00C4A0D4913688B4201DC013378
:10315000136010BD01F0BEFCF4E7C0460020004043
:103160001C0000201403002008000020940100200F
:103170004402002024020020300300200F2700001A
:10318000314B10B51B687D2B12D98023DB055B6AA0
:103190007C2B32D98023DB055A6A2C4B1B885B08B9
:1031A0009A421BD32A4A136801331360642B45DC0F
:1031B0008022D205274B516A1980274B1B78002BA0
:1031C0000DD0264B1868002823DD0023244C02E094
:1031D000013383421DD021681142F9D010BD1F4B2D
:1031E00018680023002814DD1D4C02E001338342DF
:1031F0000FD021681142F9D1F0E79623194A9B00BC
:1032000012689A42C6DA184A643B12689A42C1DAD6
:10321000E4E701F053FC80230021DB055962134AE7
:10322000134B12781868D0401860124B5962D8625C
:103230001961DA6801310A43DA60CFE701F03EFC38
:103240000022094B1A60C9E79C0100201C000020E5
:103250003802002014030020D20000202C0000209F
:1032600004020140DC01002030030020280000207F
:10327000440200200020004010B50B4C2368002BB6
:1032800005D001F027FC0122084B1A6010BDFFF7A2
:10329000BFFE074B074A1A808023074ADB055A62A4
:1032A00001232360EDE7C04628020020D40000205F
:1032B0001C0000201027000088130000F0B5DE4637
:1032C00057464E464546C74CE0B52388C64A0133AB
:1032D0009BB283B0238093420DD9C44BC44D188850
:1032E000FEF738FDC349FEF741FA2968FEF7A2F858
:1032F000002328602380C04B1B78002B4ED1BF4C8D
:10330000BF4DC04A2B781278134359D1BE4B1A785F
:103310009846BE4B186893009B181B012E338342BE
:1033200000DBD1E0BA4B9A461B78002B00D0F1E0CD
:10333000B84AB94E9146B94A1278002A00D110E134
:10334000B749B84D8846002B08D0B74B1B68002BF7
:1033500004D0AE4B1B682F2B00DD13E2B34B1B7860
:10336000002B00D135E1002A00D132E1B04B3668A4
:103370001988B04B30001F884B1C9A467843FDF7E4
:1033800055FF5346181AAC4B80B218804B461E802E
:10339000AA4BDF6258639863D86314E0A84A974C3D
:1033A000138801339BB21380A02252009342A7D905
:1033B0000123934D934A237012782B781343A5D0A1
:1033C000974B984D98469F4B03211868FDF72EFFA9
:1033D0009D4E010033782860002B3ED12378002BCE
:1033E0005BD14246C82312885B009A4224D9C2218D
:1033F000964A8900535896480340FF2053500431A1
:1034000053588343BF3803435350924A13680133E0
:103410001360914A934208DD7D4D2C78002C00D03A
:10342000E5E18E4A934200DDC8E103B0F0BCBB4643
:10343000B246A946A046F0BDC220844B80001A586F
:10344000834911408022D2010A43C3211A50FF2030
:1034500089005A5882435A50D7E7814F386801F0A3
:1034600007FB2B685A08904211D9FA229200934226
:103470000DD20A217B4A11607B490A7801320A7019
:103480007A4A1168CA0F5218624952100A80002203
:103490003B6023783270002BA3D0554B1868FDF7A2
:1034A000B1FF0A2180B2FDF737FE714C83B2248848
:1034B0004E4A70497048128809880078009401F0DB
:1034C000BBFD01F095FD8CE7514B534E9A46564B90
:1034D0009B46504B9946694B1B78002B08D0012B1B
:1034E00000D166E1022B00D160E10023634A137032
:1034F000634B1B78002B00D00DE133605B461B68EB
:10350000002B27D101215F4A1170564A13605346A0
:103510001B7810E7444B9B461B68002B00D11EE133
:103520003C4B9946584B1B88002A00D181E1404A08
:103530007F2112880092554A01F088FA364E306099
:1035400043461A7893009B18304A1B0112682E33A9
:103550009342C0DA5346314A1B781278002A00D0D1
:10356000EEE64B493F4D087814212D680141A942F0
:1035700000DDC1E031682C4D2D68002D00D18FE0B9
:10358000002800D18CE04348434F407E3F8884466A
:10359000654636480560414D2888013080B2288054
:1035A000874200D37CE01E48804647460E483F884D
:1035B000874200D86DE1344882460088013080B2ED
:1035C000C82800D85EE1C8205746388000202880EF
:1035D00068E00022184B00201A80164B36681F88BE
:1035E000D4E6C046BC010020102700008E01002058
:1035F000B8010020000061458C0100202C02002051
:103600003702002088010020400200201002002024
:103610009801002016020020DC0100202602002074
:103620001C0000209C010020280200208B010020AB
:1036300004000020F80000206C020020002C014053
:103640006402002078020020C501002000E100E0B3
:10365000FF00FFFF30020020C4090000A861000045
:103660001803002030030020C6010020C8000020FD
:10367000100300206A0200208002002025020020A2
:103680001E00002024020020CC000020FF070000C4
:1036900036020020E0010020FA0000204202002053
:1036A0008048804680480068884200DA30607F4960
:1036B0007F4D0978002900D145E6FA2128684900A4
:1036C00088425BD8D739FF398C461E20794908706B
:1036D000494630680988471A674500DC9FE0404644
:1036E00061443160FA2100884900884200D89CE09A
:1036F00001207149087026E6704D31682D68A94295
:1037000001DA29003560C82585408D4200DB32E7AB
:10371000290035602FE75B461B68002B0FD1012184
:10372000674A33601170674A1360674A1360674BDA
:103730001B789B46002B00D185E0FEF7EFFF0022AF
:10374000634B1A60634B77321A60634B78321A60AE
:1037500043461B78012B00D0FCE62B70FAE6584B51
:103760001B78002B00D186E0012359460B605B4B90
:1037700099464946514B1B680B80D3E60A210A2023
:103780008C46A3E7564B1B78002B61D1554B1F8805
:10379000554B9A4636685346300019887843FDF7F2
:1037A00045FD524B013080B21880EFE5FFF736F946
:1037B0009BE6FFF70BF94E4B1B7893E6FEF738FEBE
:1037C00000224C4B2C701C604B4B1C704B4B1C60F4
:1037D0004B4B5C639C63DC634A4B9C625C624A4B70
:1037E000591CFF3104C39942FCD1FFF745FAFEF79B
:1037F0001FFE00223F4B2A701A603F4B1A703F4B4E
:103800001A603F4B5A639A63DA633E4B9A625A627C
:103810003D4B591CFF3104C39942FCD1E5E7081A1E
:10382000604502DD6046091A3160002022490870B7
:1038300089E52D4A2F2112880092344A01F006F9B9
:10384000334E30607CE6FEF7F3FD5B46336076E78F
:103850004146254B08881A889A46009253086021F1
:10386000C82201F0F3F81F4B87B21F80294BDA7D85
:10387000294B1A708EE7FFF7FFFC43461A781D4B61
:10388000186871E76746BF08874208D95046078025
:103890009CE6224882460088013880B290E657466E
:1038A000388093E61C00002024000020BE00002089
:1038B0009C010020BD00002028000020C80000203E
:1038C0002402002030030020A0010020A9010020D4
:1038D000700200202C030020240300201602002088
:1038E00006000020F8000020040000206C020020E8
:1038F0002502002010020020140200204C020020AB
:10390000002C01400004004034030020FF070000A9
:10391000DC010020E001002008000020CC00002095
:10392000F0B5C6465E4B00B51A68002A4DD1B420EA
:103930005C4940000B6801330B60834200DB85E08B
:10394000B424594A9B009858584A400013686400B0
:1039500001331360A34200DB82E0534A9B009C5872
:103960006400B425524A6D00136801331360AB4202
:1039700045DB002313604F4B1B78002B47D14E4B88
:1039800003211B684D4E9846FDF750FCFA21404438
:10399000C9007043FDF74AFC494F032178632000BA
:1039A000FDF744FCFA214044C9007043FDF73EFC9A
:1039B0000321B8632800FDF739FCFA214044704325
:1039C000C900FDF733FCF8633DE0364A1368013B5C
:1039D0001360002B47DB344A9B009858334A400061
:1039E0001368013B1360002B48DB2F4A9B009C5857
:1039F0002F4A64001368013B1360002B49DB2A4AFD
:103A00009B009D586D002B4B1B78002BB7D0FA21E3
:103A1000294B2A4E1F68C90038187043FDF706FC71
:103A2000274BFA21984658633819C9007043FDF7AF
:103A3000FDFB4346FA21986378197043C900FDF7EE
:103A4000F5FB4346D86380BCB846F0BDB4240A6099
:103A5000164A6400136801331360A34200DA7CE75E
:103A6000002313607DE76823B120FF3313600F4A02
:103A700040001368013B1360002BB6DA6823B124C1
:103A8000FF3313600A4A64001368013B1360002B84
:103A9000B5DA6823B125FF3313606D00B3E7C04684
:103AA00030000020700200205C6900082C03002018
:103AB000240300208901002034000020B70B0000FF
:103AC000002C0140F8B58027FF057D6A1E4B1F4E74
:103AD0001D8000237B6233882D045800C0182D0CF4
:103AE00040191B4B801084B219683480FDF79EFB8F
:103AF000184B64081860184B241A1C60201A7B6A43
:103B00005B1B9842FBD8FFF783FA0023134A144942
:103B10001360144A09781360134A13680133136061
:103B2000124A12780A4302D11E2B07DCF8BD632B20
:103B3000FCDDFA233288DB009A42F7D800220C4BD6
:103B40001A7000F0C7FFF1E7140300201C000020EA
:103B50000C00002094010020440200208802002074
:103B60008B010020A001002030030020360200203D
:103B700024020020F0B5DE4657464E464546E0B5E5
:103B800001248FB001F076FB01F064FF1021DB4BC4
:103B90001A6A22431A621A6A0A431A628022196A4E
:103BA00052000A4304211A621A6A0A431A621A6A04
:103BB0003C310A431A628022196AD2000A431A620F
:103BC0001A6822431A608022596C12020A435A640E
:103BD0005A6922435A61CA4B1A6A22431A621A6806
:103BE00022431A60C74B1A6822431A605A6922435B
:103BF0005A61DA682243DA60DA68A243DA60C24BBB
:103C00001A6822431A605A6922435A618023DB05ED
:103C10001A6822431A605A6922435A61BB4B1A68D8
:103C200022431A605A6922435A61DA682243DA60F1
:103C300002F0BEF802F026F802F054F80023B44A6D
:103C40000D931368B3491C43B34B14601868FDF718
:103C500063FA830018180A210001FDF75DFA0D9040
:103C60000D9B002B05D00D9B013B0D930D9B002B55
:103C7000F9D1FFF741F8A949A94A0B78D0789842C1
:103C800001D100F099FED3704B7813710023CC184A
:103C9000A478D018013344710C2BF8D1FFF754F9F4
:103CA000A04B1B78002B05D09F4B1B680293029AF8
:103CB0009E4B1A609E4B9F491B78013B5A1E9341B5
:103CC0009D4A13609D4B1A889D4B1A800B78002BE0
:103CD00001D1944A13709B4B1B78002B01D000F04C
:103CE00048FE994B0993994B0293994B0593994B35
:103CF0000A93994B0693994B0B93994B1B78002B86
:103D000001D100F030FE0123029A1370954B1A0086
:103D10000493954B1380FEF7D1FD01F0D3FB934B39
:103D2000934A1A60934B1B78002B04D00123029A0C
:103D300013707C4A1370FEF7ADFF00F053FF8E4BFB
:103D40008E4E98468E4B8F4C9B46884B8E4D9A4696
:103D50005346874A1A60336801333360236801335E
:103D60002360642B5ADC894B1A68002388490B6056
:103D700043461B68934218DA864B1B78002B14D1FC
:103D8000844A01331370844B1B78002B05D1834B7D
:103D90001B78002B01D000F016FCFEF7E7FD804BEE
:103DA0001B78002B01D1674A1370029B7D4A1B7858
:103DB0001278012B00D123E2002A00D026E17A4AB2
:103DC0001278002A00D021E1784B1B682B60644BED
:103DD0001B78002B00D19EE1754B28681B78002BC7
:103DE00000D13BE3734B984201DD18002B60534B2D
:103DF00030211B88704A0093002300F027FE6F4B90
:103E00001860002800DCF5E1624B1B78002B00D124
:103E1000F0E13A4B58639863D86399E7684A694B75
:103E200010881B786849C01A80B2684B10801B88C4
:103E30009946674B58431F00FDF76EF94A46831AAF
:103E400064205843634B1988891AFDF7EFF96249DA
:103E50001E3082B20A8061490878C300181A80189F
:103E60005F4AC010087010885E497843FDF7DEF99C
:103E70005D4A642113785843FDF7D8F95B4A1288EC
:103E8000D3009B1AC018C21091464946574A118068
:103E9000574A54491388574AD800C01A1388544ABD
:103EA000C018C01010807843FDF7C0F9524B534A38
:103EB00040001880524993680B4004210B439360E3
:103EC000364B1B78002B14D0334B1A784D4B1B8884
:103ED00053434A4690B2984200DBD5E24A4B4A4AE5
:103EE0001B8801339BB21380FA229200934200D9BF
:103EF000BBE3264B1A680023236036E7002C014001
:103F00000004004000200040004801400010004034
:103F100004020140400D03001C010020C0100008F5
:103F2000E001002040020020E0000020C800002046
:103F3000C70100201E0000203000002004000020E7
:103F4000F80000208B010020F4000020A8010020D0
:103F5000BC00002036020020EC000020CC00002035
:103F6000880100201C000020881300000030004061
:103F7000AAAA00008901002010000020C001002032
:103F8000A401002090010020200300204C0200200A
:103F90003802002098010020AB0100208A01002097
:103FA0002D02002027020020C8010020200200204E
:103FB000AA0100206C070000FF070000100200208B
:103FC0001203002090020020B80B0000A875FF1F0C
:103FD000E40C0000CA75FF1F680200208002002068
:103FE00074020020FF0F0000070000206A0200207A
:103FF000340200201C0300208E0100200024014018
:10400000E8FFFF7FB40000201A020020002B00D13F
:10401000DAE6C84B1A688323DB009A4200DB75E1BD
:104020001300303BFA2189008B420FD2C249C34FA3
:10403000087801213F68091A0397B94200D1AAE222
:104040005B002F33BE4909785B1A2B602F2A00DDF5
:10405000BDE60023BB4A2B601370BB4B00201B78CE
:10406000002B00D0C3E6FA21B84A890012688A42C0
:1040700000DC9EE25A461360B54B00221B78002BF1
:1040800000D105E2002359460B60B24B1A60B24BD7
:104090001B78002B79D1B14BB1481968FDF7C6F8F0
:1040A00043001B185B0098B2AE4B0A211880AE4B40
:1040B0001B6858430393FDF7B9F8AC4B1860059B98
:1040C0001B78002B00D007E2A04B1B680393632BE7
:1040D00000DDE3E1049B1B880C22A5490A60632BE9
:1040E00002D80223A24A1360A24B1B78002B03D0F4
:1040F000A14B9F4A1B781360A04B1B78002B00D16B
:1041000077E1994B1B680393002B00D054E1802387
:10411000DB055B6A1CE6FA208C492A680968800086
:10412000814200DDE9E0002A00D1CBE0642900DD16
:10413000E5E0934B1B78002B02D09F2A00DCCBE0FC
:10414000834B1878002800D1CEE0C8235B009A4248
:1041500098DB8C4B19786423434301334B43594616
:1041600009688B4291DA069B1B78002B8DD0FEF7F5
:104170005FF900F0A3FC0023764A13605A466633C9
:104180001360754B1B78002B85D07F4B1B789946AD
:10419000002B00D0B3E16F4B1B68302B00DC93E1A8
:1041A0007A4A1278002A00D18EE1313B572B00D990
:1041B000FEE200F083FCFEF7F5FAFFF7B1FB744B6B
:1041C00074481B7819009946FDF730F80390C32016
:1041D000604A494680001768FDF728F8039B009065
:1041E00089223021380000F031FC6B4B186000F060
:1041F00045FCADE50022694B5A639A63DA63A7E593
:10420000002A00D005E7664A1278002A00D000E7AD
:1042100064490978002900D1F8E1634945480978E3
:10422000006849008C46FA218900614481421BDA0A
:10423000414F3F78BC46414F3F680397BC4500D192
:1042400033E35A4B1B78002B00D0C0E5FA22584BC1
:10425000D20000932F2300F0F9FB534B28601B780A
:104260005B009C46334B1868FA2263469200D21AD0
:10427000824200DC24E301212F4B1B78CF1ABC467D
:104280002E4F3F680397BC4500D104E3474B1B7892
:10429000002B00D09BE52F3300930021444B00F00E
:1042A000D5FB244A28601068FA223F4B92001B7805
:1042B0005B00D21A824200DD89E5FA229200944620
:1042C000634400E35B461A6064291BDC2C4B00222C
:1042D0001B78002B00D133E7002359460B601C4BA1
:1042E0001B78002B00D0CDE6952A00DCD0E00A2315
:1042F000244900200B700A212DE759460B60C72A7C
:1043000000DD16E7002359460B6012E70A4B0B4904
:104310001B78096803918B4200D12EE1254B084898
:104320009C461300007851006144091A303B296013
:1043300078E6C04620020020C7010020300000209F
:10434000D1000020AA0100208801002030030020B5
:10435000C401002010020020370200207802002053
:10436000A0860100100300202802002094020020F3
:104370002C0000201C020020B60000202402002097
:104380004002002014000020890100209801002034
:10439000D0000020581B0000E8000020002C014045
:1043A000C80100208B010020D80000202602002038
:1043B000FF070000FFF7FFFF00F080FBFEF704FEA1
:1043C000D74B1B680393002B13D1D64B1B78002BC4
:1043D00000D14DE2D44B1B680393D44B1B68079369
:1043E000079A039B934204DD0123CD4A1360FFF734
:1043F00069FB8023DB055A6ACD4B9A4200D8A7E4BB
:10440000CC4B1B689946012B00D0A1E45B465A4671
:104410001B6801331360FFF755FB00F04FFB4A4662
:10442000C54B1A700023C34A1360C44A1360C44BBF
:104430001B78002B00D18BE40A9B1B78002B00D14A
:1044400086E46E23BF4A13600B9A13880A339BB22B
:10445000502B01D950230B9A138079E4302800DCCB
:10446000C5E4B94B1B680393002B00D17CE0FDF73A
:10447000DFFF0A2000F002FB0620FEF71DF80123F3
:10448000B24A28681370ADE40023B14A138030E5C6
:104490006423B04900200B7064215CE6FA22049B7F
:1044A00052001B88934200D916E6AB4B64211B686F
:1044B0000393082303980093053B00F0C7FAA74B2A
:1044C0001860049B1B880AE60022A54B5A639A6376
:1044D000DA63FEF723F93BE4A24A099B12681B68E2
:1044E0000392A14A12680792A04A0799126808929B
:1044F0000092039A00F0AAFA9D4B1860E4E5962317
:104500009C4A5B00136000F0D9FAFEF74BF9FA21E0
:10451000994B89001868B423884200DCB6E0FA227F
:104520005B000093D200B43B00F090FA934B80B252
:104530001880934B1B88834200D9B5E0834201D396
:10454000FFF706FC0023804A1360FFF7E9F9894B67
:104550001B681800039300F091FA894B884A1B8866
:1045600001331380FFF7F4FBFDF762FF0A2000F030
:1045700085FA0320FDF7A0FF81E70499814A0988A5
:10458000914200D9B8E0804A1278002A00D0B3E006
:10459000794B1A605DE5049A7A4B12889A4200D9E9
:1045A00096E0794B1B78002B00D091E0724A1360A3
:1045B0004FE559460B60642A00DC87E60023594624
:1045C00000220B60B5E5B921704B49001B8818002B
:1045D0001F00FCF7A1FD6E4AB923107000225B009A
:1045E00091469F4201D2FFF7DAFBFEF7BFF9642044
:1045F00000F04EFA5346674A1A6001239C46644B0A
:10460000E1441B784B45F0DCFFF7C9FB624B1A789D
:10461000FA2352009B00D118574B1868814200DBE7
:10462000FBE05E4B484A1B7812680392934200D12C
:1046300023E1FA225A4BD20000932F2300F006FA0E
:104640004D4A28601068FA22534B92001B785B0099
:10465000D21A824200DDE6E0FA22920094466344D8
:10466000834201DAFFF7B3FBF3E4002399464A469D
:104670004C4B1A60FDF7DCFE00F020FA4A462D4B49
:104680001A60494B1A60494B1A7034E40A000093CF
:104690000021002300F0DAF9384B80B21880384B43
:1046A0001B88834200D849E70123274A1360FFF79C
:1046B00037F9304B1B681800039300F0DFF9304BDB
:1046C0002F4A1B88013B9BB213802C4A108835E788
:1046D000002399464A46194B1A600123164A137063
:1046E000194B186000F0EAF94A46184B1A70224B31
:1046F0001A685300313BA5E401221349D31A0B6019
:104700000023994649460D4B19600B4B1A7000F077
:10471000D5F94A460D4B1A70174B1A68FEE5C0468C
:1047200048020020D200002088020020C40000209F
:10473000C8AF00002802002024020020300300201F
:10474000C4010020C800002030000020AA01002081
:104750001A020020140000209C0100202C000020E0
:10476000002C0140B0000020B8000020F000002024
:1047700024000020E8000020200200202200002069
:1047800020000020DC050000370200206A02002023
:10479000AB010020AAAA0000D8000020C701002019
:1047A000FF070000100200204C02002098010020AA
:1047B000FFF7B6F8844B1B680393C82B50DC834B80
:1047C000186800F05BF9824B1B68002B01D0FFF7E3
:1047D000BFFA804AFF2013700122914649467E4A63
:1047E00011607E4A117004997D4A0A807D490A60F1
:1047F0008021C9054A627C4A13607C4B7C4A1B6855
:1048000018401370FDF758FE49467A4A53690B4326
:104810005361FFF757F9FFF79BFAFA239B009A1AA7
:10482000904200DB15E4744B744F197801233F6804
:104830005B1A0397BB4250D02F2300210093704B8B
:1048400000F004F96F4A28601068FA226E4B92005B
:104850001B785B00D21A824201DDFFF7B8FAFBE653
:104860004A465B4B50201A605023584A1360A8E711
:10487000664B1B680393664BB0E50498654A008855
:10488000904238D8534A1278002A34D1FA205D4B2E
:1048900080001860CDE6504F3F68002F5DD05E4B22
:1048A000197000232B60FFF792FA2A604A4A1268B7
:1048B0000392002A0DD162469B1A504A1360C0E44D
:1048C000FA239B006344984201DDFFF780FA00233E
:1048D0002B60514A1370FFF77AFA04984D4B008809
:1048E000984222D83B4B1B78002B1ED1FA20454B17
:1048F00080001860A0E701224049D31A0B60002312
:1049000099464946384B1960344B1A7000F0D6F876
:104910004A46424B1A703B4B18683B4B1978FA23B6
:104920009B009C464900614483E6002399464A4621
:104930002D4B1A600123294A1370304B196000F087
:10494000BDF84A46354B1A702E4B18682E4B1A7814
:10495000FA2352009B009A1A6EE728492F600B60D9
:104960002D4B1B7894E4FDF77BFF2D4B0493FFF751
:10497000D4F92C4B2C481A000993FA239B0013609E
:1049800001222A4B1A7002930023037028480B70EF
:10499000027005902748037027480270274A0A9042
:1049A0001370274B06920B931A0064231380254A39
:1049B00050331360FFF7A1F94C781079844201D08D
:1049C000FFF761F9FFF76CF910020020E800002002
:1049D000700200203702002028020020240200205C
:1049E000282300009C010020300300201800002034
:1049F000E5000020002C0140C7010020300000200D
:104A0000FF07000020020020D800002088020020BC
:104A1000C0000020DC05000026020020AA010020C2
:104A20001C000020F400002040020020A80100200B
:104A3000BC0000200600002036020020EC00002010
:104A4000CC000020C80000207047C04610B51C00F4
:104A5000884200DA08001300824200DD0300029859
:104A60005B1A001B5843511AFCF7E0FB001910BDFC
:104A70000300401A00D5C81A7047C0460023034AF5
:104A80005362536A8342FCD37047C04600480140DA
:104A90000022094B01215A62FA2212029A625A69D3
:104AA0000A435A615A6A8242FCD3402201219A6227
:104AB0005A690A435A617047004801408022044BFA
:104AC0009958002199508022D202DA601A61704709
:104AD00000180240802280230249DB0288580343E9
:104AE0008B50704700180240224B1B78012B38D0A6
:104AF000042B36D0022B2BD0052B29D0032B10D022
:104B0000062B0ED01C4B1B78002B16D01B4B1C49C0
:104B10001A680A401A6080225968D2020A435A6011
:104B200070471849184A0B681A4098239B00134392
:104B30000B60114B1B78002BE8D180220F4BD20267
:104B400019680A431A605A680D490A405A60E7E733
:104B50000C480D49026811409C2292000A430260F1
:104B6000CCE70848084902681140A02292000A4395
:104B70000260BFE7E5000020D200002000180240DC
:104B8000FFFFFBFF040201400FFCFFFF0E4A0F492D
:104B900013680B40022113600D4BDA6A0A43DA6294
:104BA000DA6A8A43DA620A220A4B013999611A6287
:104BB000094A12789A62094ADA625A690A435A61C2
:104BC0000022074B1A70704708000240EFBFFFFF3A
:104BD000001002400004004008010020FFFF000018
:104BE0005002002010B5FFF7D1FF0022194B1A48E0
:104BF0005A621A4B1A491A680240102A26D0194ADA
:104C00009A60D960154B18495A680968120C120449
:104C10000A4302215A601A680A431A601A68063168
:104C20000A431A601A6807390A431A608022094B3E
:104C30009200D8681043D860D8680243DA601A6AD4
:104C40000A431A621A680A431A6010BD054ADA60FC
:104C50009960D7E7000400401040000008000240BF
:104C60003403002034040040000100200F4A1049A2
:104C700013680B4010210B4313600E4B0E39DA6A98
:104C80000A43DA62DA6A8A43DA6260220A4B01393D
:104C90009A615D3A1A62094A12789A625C22DA6273
:104CA000074A11705A690A435A6170470800024066
:104CB000EFBFFFFF0010024000040040340400205A
:104CC0005002002010B5FFF7D1FF194B19481A68A0
:104CD00019490240102A27D0184A9960DA601E212B
:104CE000134B5A68120C12040A435A601A681C3992
:104CF0000A431A601A6806310A431A601A680739AB
:104D00000A431A6080220E4B9200D8680243DA6090
:104D10001A6A0A431A628022586C120202435A64C9
:104D20001A680A431A6010BD044AD9609A60D6E72F
:104D30000800024010400000380000203404004009
:104D4000000400400023F0B5314A324C1370944601
:104D500022000025304E314F3148337008CA386088
:104D60007C341168CB1A834201D218000125043229
:104D70000B00A242F5D1002D25D0031F38601B2B5C
:104D80002FD80023274A1370274A1370013333703A
:104D90004122264B1A70264B264A1A60264B274A78
:104DA0001A602022264B1A60431E9841C0B2254B40
:104DB0001870F0BD03009522653B520093421ED946
:104DC000214B9842F0DD0123624613703F22154BC0
:104DD00001201A70184B25321A60194B623A1A607A
:104DE000E5E70300213B2E2BE4D801230D4A337065
:104DF00013700D4A1370154B154A5A62C8E7FA2210
:104E00000D4B92001A6004220D4B1A60CCE7C0468D
:104E10002D02002034030020C80100200C010020D6
:104E2000204E00000801002034040020FC00002077
:104E300004010020E8FD0000100000201027000001
:104E40000001002014020020DC05000000040040E6
:104E5000FFFF000070B590B02022002108A8FDF7E8
:104E6000EFF88020514BC001196C002401431964F4
:104E70001A6C012502400192019A02224026596BC8
:104E80004B48114359635B6B02A913400093009B8D
:104E900003920494059506950794029601F034FC5C
:104EA000C620C021434A8000135809061B021B0A72
:104EB0000B4313508023FF211B0513603E4A1368E8
:104EC0008B43CC390B4313603C4B3D491A680A4075
:104ED00010210A431A601A683A490A4020211A60D0
:104EE0001A688A431A601A686031B2431A601A68F5
:104EF0000A431A601A6834490A401A601A6833492A
:104F00000A401A60E1235B0209930C2308940A9477
:104F10000B940C940F942E4C08A920000D9301F0D3
:104F20000DF9A3682B4ADB00DB08A360A36880218E
:104F30001340A3602368284AC903134023606368B1
:104F4000264A134022226360A3689343A360A368A8
:104F50001A3A13438022A360236892031D432560FD
:104F6000E3691342FCD0E3690B42F9D0134B1C4CAC
:104F70001A681C481C492240102A13D09860D96036
:104F80000E4B1A495A680978120C12040A4302217E
:104F90005A601A680A431A601A6806310A431A608E
:104FA00010B070BDD8609960EAE7C04600100240BA
:104FB0000004005000E100E0080802403000024018
:104FC000EFBFFFFFFFCFFFFFFFFCFFFFFFF3FFFF80
:104FD00000380140FFFFFFF1FFFFFFDFFFB7FFFFDA
:104FE0001040000038040020283801401001002043
:104FF0000C2008210D4B10B51A680D4C82430A4352
:105000000C491A604A682478120C12042243802446
:105010004A609A6822439A600A687F3C22430A6089
:1050200004211A6882430A431A6010BD0038014007
:105030001001002030000240F0B505AC164E248867
:105040000D0A3700B1703271110AB3711A0A230ABE
:105050007570F3710725002334723070F17072712E
:10506000741C09370822434004E0013AD2B2DBB293
:10507000002A09D059B25B000029F6DA013A6B40E8
:10508000D2B2DBB2002AF5D1A74202D02078013497
:10509000E8E77372F0BDC046380400207047C04690
:1050A000FEE7C0467047C0467047C0467047C046DE
:1050B0000422124B10B519680A4203D0104909782E
:1050C000002912D10D4B1A68920705D41A681207ED
:1050D00001D501225A6010BD01210A4A59601368A6
:1050E0008B431360FDF74CFDF5E70A240648016A7F
:1050F000A143083C214301625A60E3E700000240FB
:105100002D0200200800024000040040154B10B59D
:105110001A68920603D510225A6000F09FFD802283
:10512000104B19680A4200D05A600E4B1A6892055B
:105130000BD41A68120507D58022012152005A604B
:10514000094A13688B43136010BD0021074A117090
:105150008022012152005A60034A13688B43136076
:10516000F2E7C04600000240300002402C0200205E
:105170008022094BD202196910B5114207D1D968B2
:10518000114200D110BDDA60FDF7FAFFFAE71A61AB
:10519000FDF7F6FFF6E7C04600180240074B1A6914
:1051A000920702D5032252421A61044B1A69D207B0
:1051B00002D5022252421A617047C04600040040E4
:1051C000054B10B51A69D20700D410BD0222524215
:1051D0001A61FEF773F8F8E70010004010B5054CAF
:1051E0002369DB0700D410BDFDF78CFF02235B426F
:1051F0002361F8E700200040194B30B51A681968A0
:105200008022080092031040114213D08022012115
:1052100052035A60134A144813688B431360134BAC
:105220005A6C02405A641A688A431A600022104B72
:105230001A7030BD1A681202FBD5012409490A4DC3
:105240000A68A2430A60094A516C294051641168F6
:10525000A1431160064A1070802252035A60E8E7A9
:10526000000002406C000240FF7FFFFF004401404D
:1052700042040020024B034A9A6062B67047C0465F
:1052800000ED00E000100008072202202D4910B5B3
:105290000B68934303430B600B681A40022A01D04A
:1052A000FFF7D2FB8022284B520019680A43802165
:1052B0001A60C9001A680A42FCD001211A6E0A431A
:1052C0001A66214B01311A6E1142FCD0DA681F496F
:1052D00011401F4A0A43DA608022196852040A43C7
:1052E0001A608022D96852050A438021DA60164B81
:1052F00089041A680A42FCD09A681649124C0A407E
:1053000007219A609A688A4305390A439A603822CD
:10531000A3681340102BFBD10F4AA3680F4813401A
:10532000A36000F033FE0D4800F040FE0B4800F093
:105330003DFE636D0A4A13406365636D9B009B08E5
:10534000636510BD00200240001002408C80FF1FEA
:1053500002080020FFF0FFFFFF8FFFFF0090D00347
:10536000FFFFBFFFF0B5C646012600B590B0494C1F
:105370001822002104A8FCF763FE102200210CA8CB
:10538000FCF75EFE636BA02033436363636B002511
:1053900033400393039B0223626B03271A43626328
:1053A000626B0AA913400293029B0423C0050A936F
:1053B0000B970E9501F0A8F90823A02098460AA99A
:1053C000C0050A930B970E9501F09EF943460AA972
:1053D00031480A930B970E9501F096F980230AA99C
:1053E0002D4898460A930B970E9501F08DF9C3212D
:1053F000FF202A4B89005A5882435A50802252017A
:105400001A60236C04A933432364236C244C1E408C
:105410000196019B80239B000593434606938023BE
:1054200020005B0207930895099501F0EFF92368C6
:105430001C4A1D481340236021681C4B0140216019
:105440001A6802401A6021681948014021601A68F0
:10545000184902401A60184B00951868FBF75CFE6B
:10546000C82343430093009B002B05D0009B013BC6
:105470000093009B002BF9D18422104B10489958BF
:105480000140995080215A5802405A5010B080BCB7
:10549000B846F0BD001002400004005000E100E0FA
:1054A00004020140FFFFF3FFFFF7FFFF000201408E
:1054B000FFBFFFFF80841E001C0100200018024077
:1054C000FFFFFBFF084B094A07211A60084A1A60D0
:1054D00000225A60074A9A60DA681142FCD1054AF4
:1054E0001A61054A1A60704700300040CCCC0000B9
:1054F00055550000FF0F0000AAAA0000F0B5DE46D7
:1055000057464E464546E0B5A3B01422002103A8F5
:10551000FCF796FD202200210EA8FCF791FD302219
:10552000002116A8FCF78CFD1822002108A8FCF722
:1055300087FD8022764E1201336C002413433364BE
:10554000336C904613400293029B6B469C81714BD7
:105550006A4605930023704D03A92800137704942D
:10556000069400F079FE80222B68914613432B604D
:10557000AB69783A1343AB616023924601210EAACE
:1055800028000E930F941094119412941394149471
:10559000159400F0ABFE0422AB6993469343424658
:1055A000AB61AB6910211343AB610EAA28000F94C5
:1055B000109400F09BFE5146AB69584A584F134077
:1055C000AB617B6828000B437B6080235B009A46BD
:1055D0000EAB1A0051460F94109400F087FE594606
:1055E0007B6828008B4341467B607B680F940B43AC
:1055F00080217B600EAB1A004901109400F076FE0A
:105600007B68464A6421134070227B606B680127E7
:1056100093436B606B68434A280013404A466B60B3
:10562000AB6893436A46AB603C2352181370662202
:105630006B469B181C8080239B011A9380230225B4
:105640009B0416A91E931694179418941B941C94EB
:105650001D941F942094219400F0C2FF736B08A93D
:105660003B437363736B3B400193019B736B2B4311
:105670007363736BA0262B400093009B4B46F6058B
:105680003000089309950A940B940C940D9501F041
:105690003BF80897244F08A9380009950A940B9401
:1056A0000C940D9501F030F808A93800089509957B
:1056B0000A940B940C940D9501F026F8534608A912
:1056C0003000089309950A940B940C940D9501F001
:1056D0001BF8802308A99B003000089309950A94C1
:1056E0000B940C940D9501F00FF880233000DB0033
:1056F00008A9089309950A940B940C940D9501F050
:1057000003F823B0F0BCBB46B246A946A046F0BDA4
:1057100000100240B80B0000002C0140FFFBFFFF0F
:10572000182C0140FFFF0FFF0004005030B587B078
:1057300001AD142200212800FCF782FC0123134A4A
:105740008024D16BE4051943D163D26B2900134047
:105750000093009B1F232B8000230D4A20006B60C9
:10576000AA60EB6000F078FD80222368094993432A
:105770002360A3680B407021A36063688B43636060
:10578000A3689343A36007B030BDC0460010024039
:10579000FFFF0000F8BFFEFFF0B58FB003AD14228D
:1057A00000212800FCF74CFC02223B4B0024D96B63
:1057B00001261143D963D96B3848114002910299EF
:1057C000596B374F114359635B6B08A91340019321
:1057D000019B1023099208930A940B940C940D9644
:1057E00000F092FFFF2120202E4A13688B430343D1
:1057F00013602D4B1A683A401A601A682B4F3A40D2
:1058000080271A601A6882431A601A68203082431F
:105810001A601A682648BA433A431A601A68104058
:105820008022520002431A601A68224810408022E7
:1058300012010243C4201A601F4B80001A588A4389
:105840001A50802252021A602C806C60EC601B4C53
:105850001B4B29002000AB6000F0FEFC7022236887
:10586000BB432360636893436360A3686D3ABB43A3
:10587000A360A36993433343A361A36909329343AC
:10588000A361A369E4329343A361236AE63A134315
:1058900023620FB0F0BDC04600100240000400506B
:1058A000EFBFFFFF0008024008000240FFCFFFFFEC
:1058B000FFFCFFFFFFF3FFFF00E100E000040040FA
:1058C000FFFF000030B587B001AC1422002120009A
:1058D000FCF7B6FB8020124A0002116C114D014307
:1058E0001164C421136C104A034000938900009B8B
:1058F000535828001B021B0A535080231B031360BC
:105900001F2323800023094A21006360A260E36013
:1059100000F0A2FC80222B6893432B6007B030BDBF
:10592000001002400020004000E100E0FFFF000006
:1059300010B586B01422002101A8FCF781FB80205D
:105940000E4AC002116C0E4C01431164136C6A467E
:1059500003400093009B3F2393800A4A0023039255
:105960006A46200001A902930493137500F074FCA9
:10597000802223681343236006B010BD001002404C
:1059800000480140FFFF00000123104A82B0916BE4
:105990000F4819439163926B1340C2220193019BFC
:1059A0000C4B9200995808408021C901014399503D
:1059B0008021890019609958074808408021C9034F
:1059C00001439950F8321A6002B07047001002404B
:1059D000FF00FFFF00E100E0FFFF00FF30B587B0F0
:1059E00001AD142200212800FCF72AFB1023154AE0
:1059F0001548D16B154C1943D163C421D26B890072
:105A000013400093009B124B5A5802405A50802278
:105A100092021A603F232B80002329006B60200034
:105A20006433AB6000F018FC80227021236893433C
:105A3000236063688B436360A3689343A36007B0EC
:105A400030BDC04600100240FF00FFFF00100040C4
:105A500000E100E030B501258021224C85B0236CA7
:105A600049052B432364236C2B400393039BE26B78
:105A70000A43E263E36B0B4008210293029B1A4B3B
:105A80001A680A431A601A6808310A431A608023A8
:105A9000164A5B0011680B431360FFF7F5FB636B5D
:105AA0002B436363636B1D400095009B0223626B75
:105AB0001A436263626B13400193019BFFF764FF1B
:105AC000FFF750FCFFF71AFDFFF730FEFFF764FE0B
:105AD000FFF7F8FEFFF72CFFFFF780FFFFF7BAF99B
:105AE00005B030BD0010024000000140002002401F
:105AF000F0B5CE4647460326884680B585B01500EA
:105B00006A46CB171E404644B610B3000733DB0885
:105B1000DB00D31A00AF9D466C468146320000215F
:105B20002000FCF78DFA4346032B13DD4846002284
:105B300093009C468178C37809041B060B430178C7
:105B400001320B434178043009020B436146635034
:105B50009642EDDC8021354A7E60490213690B4292
:105B6000FCD15369002B05DA314B1B689360314B34
:105B70001B6893606B051AD102212C4B5A690A43AA
:105B80005A615969EA0AD2000A4380215A615A6966
:105B900049020A435A611A690A42FCD10122196971
:105BA0000A4240D10221214A53698B4353610023A9
:105BB000BB60FB60FB687A689A4228D98022012684
:105BC0001A4952024B6933434B61F868BB68800045
:105BD00000595B191860F868BB68013080000059F3
:105BE00004335B1918600B691342FCD10B691E4228
:105BF00000D00E614B69B3434B61BB680833BB6097
:105C0000FB680233FB60F8687B689842DAD3802334
:105C1000BD46064A1B0651690B43536105B0C0BC23
:105C2000B946B046F0BD1A61BCE7C046002002404C
:105C30001401002018010020002A06DD5218401A25
:105C40000B78435401319142FAD170478022024BC4
:105C500012059A607047C04600ED00E0054B064A09
:105C6000998811805988054A11801A88044B1A8036
:105C70007047C04644040020120300207402002034
:105C80001C030020C220124B80001A5811491140F9
:105C9000C02212040A431A5080220321D2001A6043
:105CA0000D4B0E4A9A600E4ADA605A68120C1204C2
:105CB0000A435A601A6801390A431A601A680631A1
:105CC0000A431A601A6807390A431A607047C046C7
:105CD00000E100E0FFFF00FF1C0002404024014003
:105CE00044040020002300B583B0009301932A4BA5
:105CF0009A68D2074ED49A682849114080225205EA
:105D00000A439A60264B27491868FBF705FA830077
:105D100018180A218000FBF7FFF90090009B002B68
:105D200005D0009B013B0093009B002BF9D1032180
:105D3000194BDA680A400192DA688A43DA609A6895
:105D400019491140802212060A439A609A68002A73
:105D5000FCDB03200199DA6882430A43DA604023BE
:105D60000093009B002B05D0009B013B0093009B00
:105D7000002BF9D1084A0C4993680B4001210B43D1
:105D8000936013681942FCD08023084A1B041168F1
:105D90000B43136003B000BD00240140E8FFFF6F18
:105DA0001C010020400D0300E8FFFF7F0827014091
:105DB000F0B5CE46474680B593B01822002106A81C
:105DC000FCF73EF91022002102A8FCF739F9102255
:105DD00000210EA8FCF734F9802001275B4B40031B
:105DE000196CA026014319641A6C00250240019227
:105DF000019A5A6B03243A435A635B6BF6053B40A6
:105E00000093009B20230CA9300099460C930D941D
:105E1000109500F079FC40230CA9300098460C93B3
:105E20000D94109500F070FCFF210526484A136878
:105E30008B4333431360474B47491A680A401A6043
:105E40001A6846491140802292010A4349461A6065
:105E50001A688A430A4341461A601A688A431A60DC
:105E60001A6840310A431A601A683D49114080227D
:105E700092000A431A601A683A4911408022D200FF
:105E80000A4339491A600B68384A1A40384B1343A1
:105E90000B60F0230A94374C1B0206A920000793DD
:105EA0000695089509950B9500F008FC2369324A80
:105EB000BB432361236920001A4080239B041343C2
:105EC00080222361E368920313438022E360236905
:105ED00012039B009B08134307222361636902A9F5
:105EE00013436361636969321343636163686C3AA6
:105EF000934363606368043293436360039504953E
:105F0000059500F0C1FB0F22A36A93433343A362BC
:105F100063691A4A1340F0226361A36A9343903A7B
:105F20001343A3626369164A13406361A36A154A67
:105F30001A40C0231B011343A3626369124A134032
:105F4000636113B0C0BCB946B046F0BD001002405A
:105F5000040802401C000240EFBFFFFFFFCFFFFF1D
:105F6000FFFCFFFFFFF3FFFF08270140FFFF3FFE9D
:105F7000001000B000240140FFFFFFDFFFDFFFFF44
:105F8000FFBFFFFFFFF0FFFFFFFFEFFFFA2110B59C
:105F90008900FBF7C1F80022034B013858609A6072
:105FA00005321A6010BDC04610E000E0014B1860D9
:105FB0007047C0461C01002003200E4A10B5D3686C
:105FC00018400338431E98410B4B40429C461840F2
:105FD000D368D1685B044906D46860445B0E490FFE
:105FE00058430131FBF798F8610F0131FBF794F842
:105FF00010BDC0460010024000127A003823094A42
:1060000010B591680B40082B04D0102B04D1FFF77A
:10601000D3FF10BD0448FCE7136804489B045B0FE2
:10602000D840F6E70010024000127A000024F40085
:1060300070B50400FFF7E2FF206003001F200A4D47
:106040000A49AA681205120F920051580140CB402C
:106050006360AA6806495204520F920052580240E7
:10606000D340A36070BDC04600100240FC6E000823
:106070003C6F0008030010B5032815D000200C2B3E
:1060800000D010BD234C244A606D0340C0200003A3
:106090000343934234D0214A934228D0204A93426A
:1060A00011D1FFF7ABFFECE71A4C1E4A606D0340BD
:1060B000C02080020343934222D01B4A934216D051
:1060C0001A4A9342EDD0FFF799FF1F21A268A368F7
:1060D0001205174C120F920012595B040A40D0406F
:1060E0005B0F144A9B009B580B40D840C9E7022223
:1060F0001000E36D18401A42C3D080200002C0E7B0
:10610000226880231000DB0018401A42B9D00A48E8
:10611000B7E7C0460010024008000C000C000C005D
:1061200004000C0002000300030003000100030050
:10613000FC6E00083C6F00080024F400F0B5C64671
:1061400000B5036804000D00012784B0DB072BD4E1
:106150008B68096902680B4369690B43E9690B4362
:1061600034490A40134303604368334A1340EA68E2
:10617000134343608368314A1340AA691343836021
:106180002F4B984215D02F4B984223D02E4B98423C
:106190001BD02E4B984218D02E680F22E36A36048B
:1061A0009343360C1E43E662380004B080BCB84608
:1061B000F0BD0320FFF75EFF002803D06B68984610
:1061C000002B0BD101272E68E7E701A8FFF730FF6E
:1061D0000398F1E70C20FFF74DFFEDE72E6800274D
:1061E0000B2EDAD88023EA691B029A420ED0184B94
:1061F000B200D158FAF790FF43465B084146C018F9
:10620000FAF78AFF0004000CE060C6E7104BB2000A
:10621000D158FAF781FF434640005B08C018414659
:10622000FAF77AFF0B4B03400007400F1843E0607A
:10623000B3E7C046F369FFEFFFCFFFFFFFFCFFFFAF
:10624000003801400044004000480040004C00403D
:106250005C6F0008F0FF00001D4A0368904226D0E2
:106260008022D205904219D01A4A904216D01A4A7A
:10627000904217D0194A90421DD0194A90421AD024
:10628000184A904217D003608B68C3620B88836200
:1062900001224369134343610020704770229343F6
:1062A0004A681343104A1340CA681343EBE770224D
:1062B00093434A6813430C4A1340CA68134303606C
:1062C0008B68C3620B8883620B7C0363E0E7C04684
:1062D000002C01400004004000200040004001402C
:1062E0000044014000480140FFFCFFFF802370B5DF
:1062F0005B01994200D1E1E041D8102900D10AE1C7
:1063000080235B00994270D1016AA14EA14C3140BB
:106310000162036A4168C5692540146825439E4CA3
:106320001C4013691B022343546833402402234357
:106330009A4CA04208D09A4CA04205D0994CA04259
:1063400002D0994CA04213D1984E994C1E405369EB
:106350009B023343974E234094680E409169A402F8
:1063600023430901944C31432140D46966013143F0
:10637000D2684160C561C2630362002070E080237F
:106380005B02994200D16CE080235B03994266D1A5
:10639000016A8A4D8A4C29400162036A416D21409D
:1063A000146824020C438749194013691B050B43E9
:1063B00051682B4009050B437849884208D0784939
:1063C000884205D07749884202D07749884206D171
:1063D000456891697C4E8902354029434160D26805
:1063E0004465C265036200203AE0012937D1036A9F
:1063F000684E8B430362036A4468856935401668BA
:1064000035430226B343166933438B4351680B432C
:106410006249884208D06249884205D06149884271
:1064200002D06149884213D108218B431900536976
:106430009B000B4304218B43916889000B43544913
:106440000C4091690C4354490C40D16949000C43FC
:10645000D2684460856142630362002000E001204D
:1064600070BD016A594D5A4C29400162036A416D61
:106470000C4011680C435749194013691B040B4326
:1064800051682B4009040B434449884208D04449D1
:10649000884205D04349884202D04349884206D108
:1064A00045689169494E0902354029434160D268E7
:1064B0004465816D826503620020D1E7016A3D4E2B
:1064C000454C31400162036A4568C1692140146846
:1064D00024020C433849194013691B030B435168CC
:1064E000334009030B432D49884208D02C49884288
:1064F00005D02C49884202D02B49884204D1374923
:106500000D40916989010D43D2684560C461026400
:1065100003620020A4E7036A2F4D8B430362036AE2
:10652000466884692C4015682D022C432025AB4316
:106530001D0013691B012B438B4351680D01174943
:106540002B43884208D01649884205D01549884215
:1065500002D01549884214D180218B431D00536914
:1065600040399B012B438B4391688D0110492B438C
:106570000E4091690D4D890031432940D569EE00E7
:106580000E43D2684660846182630362002067E73D
:10659000FFFEFFFF8CFFFEFFFFFDFFFF002C014011
:1065A000004001400044014000480140FFF7FFFF68
:1065B000FFFBFFFFFFEFFFFFFFDFFFFFFFFFEFFF2F
:1065C000FF8FFFFEFFFFDFFFFFFFFBFFFFFFFEFF71
:1065D0008FFFFEFFFFFFFDFFFF8CFFFEFFBFFFFFF2
:1065E0008A680B7B10B513431A4A1B4C13404A6848
:1065F00013431A4A13400A681343194A1A40CB89B5
:106600001343184A13400A691343174A1340CA6ACE
:10661000134323401343154A904202D043640020A1
:1066200010BD134A13404A691343124A13408A6942
:106630001343114A13404A6A1343104A1340CA696C
:1066400013430F4A13400A6A13430E4A13408A6ADF
:106650001343E3E7FFFBFFFFFF7FFFFFFFF7FFFFB2
:10666000FFEFFFFFFFDFFFFFFFBFFFFF002C014039
:10667000FFFFF0FFFFFFFFEFFFFF0FFFFFFFFFFE3A
:10668000FFFFFFFDFFFFFFDF8268030010B5012061
:10669000D20710D48C684A68D8682243CC6809684D
:1066A0002243054C204002430020DA601A69920020
:1066B00092080A431A6110BDC73FFFFF82680300BA
:1066C00010B50120D20715D4DA684868920212D4B6
:1066D0000C4CDA6822400C6822438C682243CC6858
:1066E00022430C69496922430A43DA609A6A1043DB
:1066F0009862002010BDF028EAD1024CDA682240EE
:106700000C68EBE73CC2FEFFF0B5DE4657464E464E
:106710004546E0B50A684B6883B0002A00D172E0B4
:106720009C46012301245B4263449846A346002310
:106730000AE00E69C56874434E4635402C43C46078
:1067400014000133DC4041D05C4615009C402540DC
:106750002242F5D02C006C436700BA46A24457464B
:10676000FF43B94657460668BE43674667433E4304
:1067700006604646012EDCD88668B2468E685746CB
:10678000664301964E4637403E00019F374387607F
:10679000C6684F46B2460E69664301965646374074
:1067A0003E00019F37436646C760022EC8D1FF2DC9
:1067B0001DD86443056A2601361BB5434E69013373
:1067C00074432C4304621400DC40BDD14346012BCA
:1067D00005D84368C96893434A431A43426000207E
:1067E00003B0F0BCBB46B246A946A046F0BD2D0A98
:1067F0006D436D43446A2E01761BB4434E69754365
:10680000254345629CE7013B9846DFE703680200A9
:1068100010B50120002B10DB4C680B681068234377
:106820008C682343CC6823430C69496923430B4399
:106830000249014000200B43136010BD0F7C00FE95
:10684000F8B5C046F8BC08BC9E467047F8B5C046CF
:08685000F8BC08BC9E4670472D
:106858002A190008B618000824180008DE170008CE
:1068680024180008F218000824180008DE17000889
:10687800B6180008B6180008F2180008DE17000855
:10688800E4170008E4170008E417000800190008D6
:10689800B6180008B618000824180008DA17000807
:1068A80024180008F218000824180008DA1700084D
:1068B800B6180008B6180008F2180008DA17000819
:1068C800E4170008E4170008E4170008FC1800089B
:1068D8006C2200080823000802230008FC22000894
:1068E8006C2200086C2200086C220008EA220008CA
:1068F800D6220008C6220008B42200086C2200082C
:10690800AE2200086C2200086C2200086C220008E5
:106918006C2200086C2200086C2200086C22000817
:10692800A022000864220008191B12131D1516174F
:106938001A090A0B1E0D0E0F3C2500083E250008FB
:10694800A22500081C26000856260008AA260008CA
:10695800C6240008B4000000B7000000BA00000018
:10696800BD000000C1000000C4000000C700000016
:10697800CA000000CD000000D0000000D3000000D5
:10698800D6000000D9000000DC000000E000000094
:10699800E3000000E6000000E9000000EC00000051
:1069A800EF000000F2000000F5000000F700000012
:1069B800FA000000FD0000000001000003010000D3
:1069C80006010000090100000B0100000E01000093
:1069D8001101000013010000160100001901000058
:1069E8001B0100001E01000020010000230100001F
:1069F80025010000280100002A0100002C010000E8
:106A08002F010000310100003301000035010000B2
:106A1800380100003A0100003C0100003E0100007E
:106A2800400100004201000044010000460100004E
:106A380047010000490100004B0100004D01000022
:106A48004E010000500100005101000053010000F8
:106A580054010000560100005701000058010000D1
:106A68005A0100005B0100005C0100005D010000AC
:106A78005E0100005F01000060010000610100008C
:106A8800620100006301000063010000640100006E
:106A98006501000065010000660100006601000054
:106AA800670100006701000067010000680100003D
:106AB800680100006801000068010000680100002A
:106AC800680100006801000068010000680100001A
