:020000040800F2
:10100000009000205D140008A1440008A5440008D9
:1010100000000000000000000000000000000000D0
:10102000000000000000000000000000A9440008CB
:101030000000000000000000AD440008B1440008BA
:10104000AD140008AD140008AD140008AD1400087C
:10105000AD140008AD140008AD140008AD1400086C
:10106000AD140008B544000811450008FD4500080E
:1010700075450008AD140008AD140008AD14000853
:10108000A1450008C5450008AD140008E145000869
:10109000AD140008AD140008AD140008AD1400082C
:1010A000AD140008AD140008AD140008AD1400081C
:0C10B000AD140008AD140008AD140008D9
:0E10C0000143473037312050574D5F454E20D9
:1010D00010B5064C2378002B07D1054B002B02D00E
:1010E000044800E000BF0123237010BD2001002050
:1010F00000000000405C0008044B10B5002B03D03A
:101100000349044800E000BF10BDC04600000000D5
:1011100024010020405C0008002243088B4274D365
:1011200003098B425FD3030A8B4244D3030B8B42E8
:1011300028D3030C8B420DD3FF22090212BA030CF1
:101140008B4202D31212090265D0030B8B4219D3D2
:1011500000E0090AC30B8B4201D3CB03C01A5241F2
:10116000830B8B4201D38B03C01A5241430B8B423A
:1011700001D34B03C01A5241030B8B4201D30B0323
:10118000C01A5241C30A8B4201D3CB02C01A52414A
:10119000830A8B4201D38B02C01A5241430A8B420D
:1011A00001D34B02C01A5241030A8B4201D30B02F6
:1011B000C01A5241CDD2C3098B4201D3CB01C01A10
:1011C000524183098B4201D38B01C01A524143091A
:1011D0008B4201D34B01C01A524103098B4201D308
:1011E0000B01C01A5241C3088B4201D3CB00C01A75
:1011F000524183088B4201D38B00C01A52414308ED
:101200008B4201D34B00C01A5241411A00D2014611
:10121000524110467047FFE701B5002000F0F0F89A
:1012200002BDC0460029F7D076E7704703460B435E
:101230007FD4002243088B4274D303098B425FD3CF
:10124000030A8B4244D3030B8B4228D3030C8B42FB
:101250000DD3FF22090212BA030C8B4202D31212E1
:10126000090265D0030B8B4219D300E0090AC30BB6
:101270008B4201D3CB03C01A5241830B8B4201D363
:101280008B03C01A5241430B8B4201D34B03C01A4C
:101290005241030B8B4201D30B03C01A5241C30AC4
:1012A0008B4201D3CB02C01A5241830A8B4201D335
:1012B0008B02C01A5241430A8B4201D34B02C01A1F
:1012C0005241030A8B4201D30B02C01A5241CDD2C4
:1012D000C3098B4201D3CB01C01A524183098B420F
:1012E00001D38B01C01A524143098B4201D34B01F8
:1012F000C01A524103098B4201D30B01C01A52415B
:10130000C3088B4201D3CB00C01A524183088B42E1
:1013100001D38B00C01A524143088B4201D34B00CA
:10132000C01A5241411A00D201465241104670473C
:101330005DE0CA0F00D04942031000D34042534041
:1013400000229C4603098B422DD3030A8B4212D301
:10135000FC22890112BA030A8B420CD38901921133
:101360008B4208D3890192118B4204D389013AD070
:10137000921100E08909C3098B4201D3CB01C01A45
:10138000524183098B4201D38B01C01A5241430958
:101390008B4201D34B01C01A524103098B4201D346
:1013A0000B01C01A5241C3088B4201D3CB00C01AB3
:1013B000524183088B4201D38B00C01A5241D9D2CB
:1013C00043088B4201D34B00C01A5241411A00D24C
:1013D0000146634652415B10104601D34042002B48
:1013E00000D54942704763465B1000D3404201B5C7
:1013F000002000F005F802BD0029F8D016E770477C
:101400007047C04670B500260C4D0D4C641BA410EF
:10141000A64209D1002604F013FC0A4D0A4C641BB5
:10142000A410A64205D170BDB300EB589847013611
:10143000EEE7B300EB5898470136F2E70C6300087B
:101440000C6300080C630008106300080300821896
:10145000934200D1704719700133F9E70D48854672
:10146000002103E00C4B5B58435004310B480C4BFC
:1014700042189A42F6D30B4A02E00023136004326A
:10148000094B9A42F9D303F0E3FDFFF7BBFF01F0EC
:1014900053FDFEE7009000201463000800000020C8
:1014A000200100202001002044040020FEE700006D
:1014B000F0B5DE4657464E464546984998480B6873
:1014C000CA6FE0B5D21A0260964887B0844662447B
:1014D000582A5FD80C00944A8034100000E00B6852
:1014E0004D680831EB1A9B0908C08C42F7D113688C
:1014F000116A9B460191516A136903915946009301
:101500005368506902939368956A0493009BAC46B4
:1015100059400B000199D5684B40D9008846029B81
:10152000039943404B4041469B000B4329000590E3
:101530006046D669D76A7140794094690B43049933
:101540006140414049000B43116BDBB2C900884642
:10155000516B89008946414648460143D06B926BE6
:10156000014352000A437149D2B28946097888463C
:10157000002916D16E498A46097800295FD00F21CB
:101580008A4651468A1AD2B29A4210D0694A1368E2
:101590000133136007B0F0BCBB46B246A946A04673
:1015A000F0BD634909780029E9D19A42EED10022C1
:1015B000614B1A60614A136801331360012F01D136
:1015C0005F4B1F705B46029A9B02520213436246B6
:1015D0001343049AED0110021843009B0543980140
:1015E000059B05435B011D432401019B2C43F60031
:1015F00026439C00039B2643590031432F2926DCB8
:101600004B1E2E2B2BD800224E4B4F4C1A602160C4
:101610004E4B1B68002BBDD14346002BBAD04C4B20
:101620001A788A4233D0197004293BDC494A0023D6
:101630001370152920D8484B89005B589F460F31FD
:10164000891A8B42A0D151460120087097E73D4B83
:101650003D4A1960002313603E4A13709AE700293F
:1016600010D1384B1960384B19603A4B197091E71B
:101670003A4B1A783A4B1A603A4B22681A70002398
:10168000236087E7304C21680029C1DC82E7314ABA
:101690000429CCDD13780133DBB21370052B00D89D
:1016A00078E7C4E701222B4B1A7073E72B4B1A78AB
:1016B00001239B1A2A4A1360DEE700F04BFEDBE7AA
:1016C0000122294B1A700023284A13604A461370DE
:1016D000D2E70023244A13704A461370234A13604A
:1016E000CAE701221D4B1A7000221D4B1A60204BC5
:1016F00002321A70C0E70022184B1A700123184AF0
:1017000013601B4A1370B7E700F0B6FBB4E700F0B4
:1017100003FBB1E700F030FBAEE7C0462C0300202E
:10172000C8010020BFF9FFFF400100209801002000
:10173000D0010020C40100202C020020CC01002098
:10174000280200201C020020780200202402002031
:10175000800100203C010020585C0008BF010020EF
:10176000300000200D020020A801002048020020C7
:1017700021020020294BF0B51B68002B43D0284BD9
:101780001A680F2311001941012940D0013B082B91
:10179000F8D10021234B196093B2180A190941406E
:1017A00059400F231800120188431F4902430A6061
:1017B0001E4910130C5C18001040085CE40304433D
:1017C000101218401211085C1A408B5C800204430E
:1017D0005B01174F1C43174B38001C605E2313211D
:1017E00001265E253B62243000E0043032008A404E
:1017F0002240CA409B0953406B4303600139F4D235
:101800000023FB61F0BD0C4A054B1A60B9E7083BA9
:101810001A4104490B6059020A43BDE72402002023
:10182000740200208401002050020020B05C0008F7
:101830003800002054020020FFFF00000C211C4A49
:101840001C4813688B4308390B43136002239362CF
:10185000A023DB0519680840802149030143196072
:1018600080210320C9009962116881430238014335
:10187000116090621A68104911408022D2020A4316
:101880001A60802292009A621A680C4911408022E4
:10189000D2010A431A6080229A621A6808491140EC
:1018A000802252020A431A60802252009A627047D4
:1018B00000040050FFFFCFFFFFFFF3FFFF3FFFFFDC
:1018C000FFFFFCFF00B506283ED8904B80001B5858
:1018D0009F468F4B1B78002B08D00C218D4A136834
:1018E0008B4308390B43136002239361A023DB056C
:1018F0001A68894903201140802292030A438549CE
:101900001A600A688243023802430A6088621A68D1
:10191000824911408022D2020A431A60802292003A
:101920009A621A687E4911408022D2010A431A60E5
:1019300080229A611A687B491140802252020A4330
:101940001A60802252009A6200BD714B1B78002BF6
:1019500008D00C216F4A13688B4308390B4313607E
:1019600002239361A023DB051A686B490320114011
:10197000802292030A4367491A600A688243023848
:1019800002430A6088611A68644911408022D202C9
:101990000A431A60802292009A621A6860491140D4
:1019A0008022D2010A431A6080229A62C2E70C2187
:1019B000584A594813688B4308390B431360022374
:1019C0009362A023DB051968084080214903014385
:1019D000196080210320C90099621168814302388F
:1019E0000143116090611A684C4911408022D20273
:1019F0000A431A60802292009A62454A1278002AAD
:101A000008D01A68464911408022D2010A431A6060
:101A100080229A61A021C9050B68424A1A4080239E
:101A20009B0213430B608FE70C213A4A3A48136834
:101A30008B4308390B43136002239361A023DB051A
:101A4000196808408021490301431960802103205F
:101A5000C9009962116881430238014311609062A4
:101A6000C1E70C212B4A2C4813688B4308390B43E0
:101A7000136002239361A023DB05196808408021CD
:101A80004903014319608021C9009962204B1B78EA
:101A9000002B06D0032113688B4302390B431360DC
:101AA0009161A023DB051A681C49114080221203B2
:101AB0000A431A6071E70C21164A174813688B43D2
:101AC00008390B43136002239362A023DB051968D6
:101AD000084080214903014319608021C9009962AF
:101AE0000B4B1B78002B06D0032113688B43023964
:101AF0000B4313609161A023DB051A68074911406D
:101B0000802212030A431A600BE7C046C05C00083B
:101B10001E00002000040050FFFFCFFFFFFFF3FF77
:101B2000FF3FFFFFFFFFFCFF0C211C4A1C4813680E
:101B30008B4308390B43136002239361A023DB0519
:101B4000196808408021490301431960802103205E
:101B5000C9009962116881430238014311609061A4
:101B60001A68104911408022D2020A431A6080226A
:101B700092009A621A680C4911408022D2010A43ED
:101B80001A6080229A611A68084911408022520224
:101B90000A431A60802252009A6270470004005083
:101BA000FFFFCFFFFFFFF3FFFF3FFFFFFFFFFCFF44
:101BB000234B1B78002B32D00C21224A2248136879
:101BC0008B4308390B43136002239361A023DB0589
:101BD00019680840802189030143032019601168B6
:101BE000814302380143116090611A68174911401E
:101BF000802212030A431A601A6815491140802294
:101C0000D2010A431A6080229A61A021C9050B689B
:101C1000104A1A4080239B0213430B607047A02395
:101C2000DB051A6808491140802292030A431A60B2
:101C30001A6806491140802212030A431A60E4E739
:101C40001E00002000040050FFFFCFFFFFFFF3FF46
:101C5000FF3FFFFFFFFFFCFF031C0B2800D90B23F6
:101C6000014A5B00137070475802002010B572B62D
:101C7000124B134C1B7803206363A363E363FFF7EA
:101C800021FE3723C820A36202F004F90520FFF7E4
:101C900019FE2823C820A36202F0FCF80620FFF7F3
:101CA00011FE1923C820A36202F0F4F8FFF7C6FD65
:101CB0000023044AA362136062B610BD58020020DC
:101CC000002C01402C02002070B572B60F4B104C56
:101CD0001B78032063639625A363E363FFF7F2FD9C
:101CE00019236D00A362280002F0D4F80620FFF744
:101CF000E9FD37232800A36202F0CCF8FFF79EFD30
:101D00000023044AA362136062B670BD580200202B
:101D1000002C01402C02002070B572B63C23114CFF
:101D2000114D124E01202E60A362114B1B7863638C
:101D3000A363E363FFF7C6FD4B2002F0ABF850232B
:101D40004B20A36202F0A6F85A234B20A3622E6018
:101D500002F0A0F8FFF772FD0023064AA3621360A9
:101D600062B670BD002C014000300040AAAA0000FD
:101D7000580200202C02002010B572B6114A124BF6
:101D8000124C1A605023A362114B03201B7863632B
:101D9000A363E363FFF796FD642002F07BF846231C
:101DA0006420A36202F076F828236420A36202F084
:101DB00071F8FFF743FD0023064AA362136062B681
:101DC00010BDC046AAAA000000300040002C01400F
:101DD000580200202C0200200E4A0F4B10B51A604A
:101DE00032230E4C0220A3620D4B1B786363A36366
:101DF000E363FFF767FD642002F04CF81E236420C4
:101E0000A36202F047F8FFF719FD0023054AA36219
:101E1000136010BDAAAA000000300040002C014051
:101E2000580200202C0200200E4A0F4B10B51A60F9
:101E300028230E4C0220A3620D4B1B786363A3631F
:101E4000E363FFF73FFD642002F024F85023642091
:101E5000A36202F01FF8FFF7F1FC0023054AA3621A
:101E6000136010BDAAAA000000300040002C014001
:101E7000580200202C020020F8B572B67724104BCF
:101E8000104D1B78104F114E6B63AB63EB63142145
:101E900020003E60FFF7CAF9FFF714FD63100A3314
:101EA0000A20AB62023C01F0F5FF631CEFD1FFF7A3
:101EB000C5FC0023064AAB62136062B6F8BDC0469B
:101EC00058020020002C014000300040AAAA000067
:101ED0002C020020234B10B505CB234B101AC2183F
:101EE0009C2382B0DB009A4214D9204B1868204909
:101EF000204A0B681268C41A944203DD9B180B60D9
:101F000002B010BD1C1AA24202DA9B1A0B60F7E75E
:101F10000860F5E7184B1B78002B0ED0174B1A887A
:101F2000904211D8164B1988FA239B000093002386
:101F300001F08EFF0D4B1860D9E7124B1A88104B39
:101F40001988FA23DB00F1E70E4B511C1C88FA2399
:101F5000DB00009322000C4B01F07AFF034B18606A
:101F6000C5E7C0462C0300207BFCFFFF5C0200207D
:101F70001C02002000000020A8010020DE0000203C
:101F8000DC000020DA000020E903000010B5324B2D
:101F90001B78002B03D0314A1278002A06D1304A30
:101FA0001278002A44D0012A07D010BD2D4B1B788F
:101FB000002B1CD002F018F8F7E7002B08D12A4AB2
:101FC0002A4913600A68002A3ADB3AD0284A13608B
:101FD000224B1B78002B11D0224B1B78002B2CD0CE
:101FE000FFF7C8FBFFF764FA01F0FEFFDDE702F040
:101FF0006BF8FFF7BFFBFFF75BFAD6E71D4B1B78CB
:10200000012B23D01C4B1B78012BCED1FFF762FF95
:1020100000220A21144B1A60184A136A8B43136278
:1020200001F0E2FF0421164A13680B431360BCE77A
:1020300002F08AF801F0D8FFB7E702F045F8B4E7FC
:102040000B600B4A136801331360C1E7FFF730FAE6
:1020500001F0CAFFD6E7C04698010020D001002059
:102060000C0200204C0200202C020020180300204B
:1020700048020020C0010020290200200004004086
:1020800008000240BFF34F8F034B044ADA60BFF3EE
:102090004F8FC046FDE7C04600ED00E00400FA05A2
:1020A000F8B5154D01F074FFEB68144AFA201A4098
:1020B0008023FA2410279B001343EB60800001F07B
:1020C000DFFE0F4EA4002B691F4202D1338801337B
:1020D00033800A20013C01F0D3FE002CF3D1064AE4
:1020E0000649D3680B40D3603388052B00D9F8BD6F
:1020F000FFF7A4FBFFF7C6FF00040050FFFCFFFF43
:1021000014020020F0B5C64600B5714C3022200004
:10211000704982B002F092FF637C6F4E013B5A42DD
:1021200053416E4A1370A37C013B5A4253413370B2
:10213000E37C012B01D16A4A1370237D694D013B79
:102140005A4253412B70637D013B5A425341664AC8
:102150001370A37D013B5A425341644A1370E37DDF
:10216000032B00D90223624A1370207E0300183B20
:10217000182B00D89AE05F4B5F4A13805F4AD36206
:10218000637E1A00323A642A00D984E05B081A00A0
:102190005B490A320978143352185A490A605A4A7C
:1021A00013805A4B28229846A37E594F53434246E8
:1021B00014331380E37E05203B70237F013B5A429A
:1021C0005341544A1370637F013B5A425341524A70
:1021D0001370FFF741FD6378002B37D0A07F0B28E9
:1021E00060D8FFF739FDE37F013B5A4253414B4A28
:1021F00013702023E35C4A4A7833FF335B0013807B
:10220000484A21239446E35C474A63445B001380B9
:10221000464A22239446E35C454A634413802323C1
:10222000E25C444B1A702423E35C013B5A42534165
:10223000414A13702523E35C404AFA331380262376
:10224000E35C012B40D000223D4B1A7043461B88B3
:10225000397810209846FEF7E9FFC821040040466F
:10226000FEF75AFF210080B2FEF7E0FF354B6421F4
:1022700018604046FEF750FF80B221002830FEF77C
:10228000D5FF314B18602B78002B00D1337002B092
:1022900080BCB846F0BD96221A4B1A601A4B413AE0
:1022A0001A807EE70520FFF7D7FC9CE7274B3022FA
:1022B000009318210F4B01F0CBFD254B18800F4BDD
:1022C0000004000CD8625BE71D4A1370BEE7C046ED
:1022D000D801002000F80108A8010020BF0100205B
:1022E0003C0200201E00002006000020EC00002020
:1022F00008000020B70B0000F8000020002C01406F
:10230000E4000020C8000020CC000020CE00002007
:10231000D0000020A9010020320200208C01002002
:10232000DC0000206B030000DA0000205E050000E6
:10233000DE000020D80000208A010020B400002028
:102340008B010020B8000020B0000020DB05000059
:102350000400002010B5164B16481B783021013BB5
:102360005A4253414374144B1B78013B5A42534128
:102370008374124B1B78013B5A425341C374104B78
:102380001B78013B5A42534103750E4B1B78013BAE
:102390005A42534143750C4B1B78013B5A425341FF
:1023A00083750A4B0A4A1B78C37502F0A3FD10BD62
:1023B000BF010020D8010020A80100203C0200201D
:1023C0001E00002006000020EC0000200800002075
:1023D00000F801080D4B1B78002B08D00C4B1B6834
:1023E0005B0008D40B4A1368013313607047084B35
:1023F0001B685B00F6D4084A136801331360022B94
:10240000F4DD0022034B1A60F0E7C046D200002042
:102410000402014084020020A001002070B52D4C70
:102420002D4D21782D4A2D88481E43009D525588F8
:1024300013885B1995885B19D5885B1915895289B2
:102440005B199B18264A5B101360264B1B68012BF7
:102450002BD0C0B2002821D0012320701940224B7C
:102460001970224B1B78002B2BD001F03FFDFA2373
:102470001F4ADB0012689A4208D91E4B1E4A1B787D
:102480001278134302D001221C4B1A7000231C4AFD
:1024900013601C4A13601C4A136070BD062301229E
:1024A00023701A4B01211A70D9E70131C9B20629EC
:1024B0000BD821700B400C4A13700C4B1B78002B6F
:1024C000D3D12078FFF7FEF9CFE7104A23701370BD
:1024D0000123F0E7E50000201C000020AC010020F3
:1024E0007402002030000020D200002022020020D0
:1024F0009C010020320200208B01002020020020DD
:10250000840200204402002038020020BD01002087
:102510000121154A10B5D368144C8B43D36022882F
:1025200053009B18124A12889B189B102380FFF7B8
:1025300075FF104A23881278D9084A430E495B0870
:102540009B1A0A600D4A13600D4B1B78002B07D0B5
:102550000C4A0D4913688B4201DC0133136010BD36
:1025600001F0BAFCF4E7C046002000401C00002047
:102570000E030020080000209401002040020020EB
:1025800020020020280300200F270000324B10B546
:102590001B687D2B12D98023DB055B6A7C2B32D92B
:1025A0008023DB055A6A2D4B1B885B089A421BD39C
:1025B0002B4A136801331360642B47DC8022D20559
:1025C000284B516A1980284B1B78002B0DD0274BC4
:1025D0001868002823DD0023254C02E001338342E4
:1025E0001DD021681142F9D010BD204B186800237E
:1025F000002814DD1E4C02E0013383420FD0216815
:102600001142F9D1F0E796231A4A9B0012689A42C8
:10261000C6DA194A643B12689A42C1DAE4E701F06B
:102620004FFC01F059FC80230021DB055962134A5D
:10263000134B12781868D0401860124B5962D86258
:102640001961DA6801310A43DA60CDE701F038FC3C
:102650000022094B1A60C7E79C0100201C000020E3
:10266000340200200E030020D20000202C000020A5
:1026700004020140D401002028030020280000208B
:10268000400200200020004010B50B4C2368002BB6
:1026900005D001F021FC0122084B1A6010BDFFF7A4
:1026A000BDFE074B074A1A808023074ADB055A62A2
:1026B00001232360EDE7C04624020020D40000205F
:1026C0001C0000201027000088130000F0B5DE4633
:1026D00057464E464546E0B5B64B83B01B78002BB7
:1026E0004ED1B54CB54DB64A2B781278134359D11B
:1026F000B44B1A789846B44B186893009B181B018A
:102700002E33834200DBC8E0B04B9A461B78002B87
:1027100000D0E8E0AE4AAF4E9146AF4A1278002AA8
:1027200000D107E1AD49AE4D8846002B08D0AD4B36
:102730001B68002B04D0A44B1B682F2B00DD03E289
:10274000A94B1B78002B00D12BE1002A00D128E1F6
:10275000A64B36681988A64B30001F884B1C9A463A
:102760007843FEF763FD5346181AA24B80B21880D7
:102770004B461E80A04BDF6258639863D86314E019
:102780009E4A8D4C138801339BB21380A0225200C5
:102790009342A7D90123894D894A237012782B7857
:1027A0001343A5D08D4B8E4D9846954B0321186849
:1027B000FEF73CFD934E010033782860002B3ED19C
:1027C0002378002B5BD14246C82312885B009A42D3
:1027D00024D9C2218C4A890053588C480340FF20D9
:1027E0005350043153588343BF3803435350884AEE
:1027F000136801331360874A934208DD734D2C78C8
:10280000002C00D0D5E1844A934200DDB8E103B04A
:10281000F0BCBB46B246A946A046F0BDC2207A4BEA
:1028200080001A58794911408022D2010A43C321FD
:102830001A50FF2089005A5882435A50D7E7774FE1
:10284000386801F017FB2B685A08904211D9FA2218
:10285000920093420DD20A21714A116071490A789F
:1028600001320A70704A1168CA0F52185849521042
:102870000A8000223B6023783270002BA3D06B4B80
:102880006B4A19886B4B18786B4B1B880093C823D5
:1028900001F0D4FD01F0AEFD95E74C4B4D4E9A464C
:1028A000504B9B464A4B9946644B1B78002B08D0F3
:1028B000012B00D15FE1022B00D159E100235F4AD7
:1028C00013705F4B1B78002B00D006E133605B4632
:1028D0001B68002B27D101215A4A1170504A1360FE
:1028E00053461B7819E73F4B9B461B68002B00D1D2
:1028F00017E1374B9946544B1B88002A00D17AE1E7
:102900003A4A7F2112880092504A01F0A1FA314ED2
:10291000306043461A7893009B182B4A1B011268BB
:102920002E339342C0DA53462B4A1B781278002A82
:1029300000D0F7E646493A4D087814212D68014148
:10294000A94200DDBAE03168264D2D68002D00D186
:1029500088E0002800D185E03E483F4F407E3F8818
:1029600084466546304805603C4D2888013080B279
:102970002880874276D219488046474638483F88A3
:10298000874200D867E1304882460088013080B233
:10299000C82800D858E1C820574638800020288031
:1029A00062E00022134B00201A80114B36681F880A
:1029B000DEE6C0468C010020280200203302002001
:1029C000880100203C02002008020020980100201D
:1029D0000E020020D4010020220200201C00002052
:1029E0009C010020240200208B0100200400002014
:1029F000F800002068020020002C01406002002046
:102A000074020020BD01002000E100E0FF00FFFF94
:102A10002C020020C4090000A8610000100300205F
:102A200028030020BE010020C8000020660200200C
:102A3000E20400007C02002090020020210200201D
:102A40001E00002020020020CC000020FF07000014
:102A500032020020D8010020FA0000203E020020AF
:102A6000102700008048804680480068884200DACD
:102A700030607F497F4D0978002900D155E6FA2161
:102A80002868490088425BD8D739FF398C461E2018
:102A900079490870494630680988471A674500DC5B
:102AA0009FE0404661443160FA2100884900884235
:102AB00000D89CE001207149087036E6704D3168FD
:102AC0002D68A94201DA29003560C82585408D426C
:102AD00000DB39E72900356036E75B461B68002BD1
:102AE0000FD10121674A33601170674A1360674A4A
:102AF0001360674B1B789B46002B00D185E0FFF7E6
:102B000013F80022634B1A60634B77321A60634BF1
:102B100078321A6043461B78012B00D003E72B70F4
:102B200001E7584B1B78002B00D186E00123594662
:102B30000B605B4B99464946514B1B680B80DAE6AC
:102B40000A210A208C46A3E7564B1B78002B61D143
:102B5000554B1F88554B9A463668534630001988A6
:102B60007843FEF763FB524B013080B21880FFE5DB
:102B7000FFF75AF9A2E6FFF72FF94E4B1B789AE6BA
:102B8000FEF75CFE00224C4B2C701C604B4B1C7003
:102B90004B4B1C604B4B5C639C63DC634A4B9C62FD
:102BA0005C624A4B591CFF3104C39942FCD1FFF7C8
:102BB00069FAFEF743FE00223F4B2A701A603F4B32
:102BC0001A703F4B1A603F4B5A639A63DA633E4B6D
:102BD0009A625A623D4B591CFF3104C39942FCD1A1
:102BE000E5E7081A604502DD6046091A31600020F9
:102BF0002249087099E52D4A2F2112880092344A03
:102C000001F026F9334E306083E6FEF717FE5B468F
:102C1000336076E74146254B08881A889A46009229
:102C200053086021C82201F013F91F4B87B21F809F
:102C3000294BDA7D294B1A708EE7FFF725FD4346B5
:102C40001A781D4B186871E76746BF08874208D994
:102C500050460780A2E6224882460088013880B2AA
:102C600096E65746388099E61C0000202400002094
:102C7000BE0000209C010020BD0000202800002094
:102C8000C80000202002002028030020A00100200E
:102C9000A90100206C020020240300201C03002056
:102CA0000E02002006000020F80000200400002092
:102CB0006802002021020020080200200C020020EF
:102CC00048020020002C0140000400402C0300209A
:102CD000FF070000D4010020D801002008000020D8
:102CE000CC000020F0B5C6465E4B00B51A68002A3D
:102CF0004DD1B4205C4940000B6801330B60834226
:102D000000DB85E0B424594A9B009858584A40009B
:102D10001368640001331360A34200DB82E0534A6E
:102D20009B009C586400B425524A6D00136801331F
:102D30001360AB4245DB002313604F4B1B78002B25
:102D400047D14E4B03211B684D4E9846FEF76EFA55
:102D5000FA214044C9007043FEF768FA494F032145
:102D600078632000FEF762FAFA214044C9007043FC
:102D7000FEF75CFA0321B8632800FEF757FAFA2140
:102D800040447043C900FEF751FAF8633DE0364A0B
:102D90001368013B1360002B47DB344A9B009858B3
:102DA000334A40001368013B1360002B48DB2F4A75
:102DB0009B009C582F4A64001368013B1360002B52
:102DC00049DB2A4A9B009D586D002B4B1B78002B3A
:102DD000B7D0FA21294B2A4E1F68C9003818704312
:102DE000FEF724FA274BFA21984658633819C90090
:102DF0007043FEF71BFA4346FA2198637819704333
:102E0000C900FEF713FA4346D86380BCB846F0BD4C
:102E1000B4240A60164A6400136801331360A342A5
:102E200000DA7CE7002313607DE76823B120FF33DD
:102E300013600F4A40001368013B1360002BB6DAA1
:102E40006823B124FF3313600A4A64001368013B0E
:102E50001360002BB5DA6823B125FF3313606D00D2
:102E6000B3E7C046300000206C020020DC5C0008A4
:102E7000240300201C0300208901002034000020CE
:102E8000B70B0000002C0140F8B58027FF057D6AD4
:102E90001E4B1F4E1D8000237B6233882D0458007B
:102EA000C0182D0C40191B4B801084B21968348057
:102EB000FEF7BCF9184B64081860184B241A1C6004
:102EC000201A7B6A5B1B9842FBD8FFF7A7FA002306
:102ED000134A14491360144A09781360134A13689B
:102EE00001331360124A12780A4302D11E2B07DC09
:102EF000F8BD632BFCDDFA233288DB009A42F7D859
:102F000000220C4B1A7000F0E7FFF1E70E030020DF
:102F10001C0000200C000020940100204002002032
:102F2000840200208B010020A00100202803002043
:102F30003202002020020020F0B5DE4657464E4601
:102F40004546E0B501248FB001F096FB01F084FF07
:102F50001021E34B1A6A22431A621A6A0A431A6260
:102F60008022196A52000A4304211A621A6A0A432B
:102F70001A621A6A3C310A431A628022196AD20024
:102F80000A431A621A6822431A608022596C12029C
:102F90000A435A645A6922435A61D24B1A6A22433D
:102FA0001A621A6822431A60CF4B1A6822431A60C9
:102FB0005A6922435A61DA682243DA60DA68A24326
:102FC000DA60CA4B1A6822431A605A6922435A616E
:102FD0008023DB051A6822431A605A6922435A612A
:102FE000C34B1A6822431A605A6922435A61DA684D
:102FF0002243DA6002F0DEF802F046F802F074F8DC
:103000000023BC4A0D931368BB491C43BB4B14609F
:103010001868FEF781F8830018180A210001FEF7EE
:103020007BF80D900D9B002B05D00D9B013B0D9364
:103030000D9B002BF9D1FFF765F8B149B14A0B7828
:10304000D078984201D100F0B9FED3704B7813715B
:103050000023CC18A478D018013344710C2BF8D17C
:10306000FFF778F9A84B1B78002B05D0A74B1B68FE
:103070000293029AA64B1A60A64BA7491B78013B04
:103080005A1E9341A54A1360A54B1A88A54B1A8076
:103090000B78002B01D19C4A1370A34B1B78002B9B
:1030A00001D000F068FEA14B0993A14B0293A14B04
:1030B0000593A14B0A93A14B0693A14B0B93A14BF4
:1030C0001B78002B01D100F050FE0123029A1370EF
:1030D0009D4B1A0004939D4B1380FEF7F5FD01F004
:1030E000F3FB9B4B9B4A1A609B4B1B78002B04D035
:1030F0000123029A1370844A1370FEF7D1FF00F087
:1031000073FF964B964D9846964B974C9B46904B2B
:10311000964E9A4653468F4A1A602B6801332B60AD
:103120000A2B17DD924B934A1B88128893420BD3CC
:103130006E499800496AC0188A1A40000B2180180D
:10314000FDF7EAFF8A4B1880684B8A4A5B6A138056
:1031500000232B60236801332360642B67DC864BDC
:103160001A68002385490B6043461B68934218DAAE
:10317000834B1B78002B14D1814A01331370814B90
:103180001B78002B05D1804B1B78002B01D000F061
:103190001CFCFEF7F1FD7D4B1B78002B01D1624A30
:1031A0001370029B7A4A1B781278012B00D128E217
:1031B000002A00D02DE1774A1278002A00D028E1B9
:1031C000754B1B6833605F4B1B78002B00D1A3E16C
:1031D000724B30681B78002B00D141E3704B984252
:1031E00001DD180033604E4B30211B886D4A00937F
:1031F000002300F02DFE6C4B1860002800DCFAE183
:103200005F4B1B78002B00D1F5E1354B514A5863D9
:103210009863D86353461A602B6801332B600A2BDE
:1032200000DD7FE7236801332360642B97DD5F4A6D
:103230005F4B10881B785F49C01A80B25E4B1080CC
:103240001B8899465D4B58431F00FDF765FF4A46B2
:10325000831A642058435A4B1988891AFDF7E6FFF0
:1032600058491E3082B20A8057490878C300181A9C
:103270008018564AC0100870108855497843FDF7E9
:10328000D5FF544B64211B785843FDF7CFFF524BB9
:1032900052491A88D3009B1AC0184F4BC01018808F
:1032A0004F4B1A8813019B1A4E4A12889B184C4A9E
:1032B0001B1113804C4A93680B4004210B4393600D
:1032C000314B1B78002B00D19EE02E4B80B21A7838
:1032D000464B1B885343984200DBD7E2444B89E0BE
:1032E000002C014000040040002000400048014044
:1032F0000010004004020140400D03001C010020AA
:10330000C0100008D80100203C020020E00000208E
:10331000C8000020BF0100201E0000203000002057
:1033200004000020F80000208B010020F4000020A1
:10333000A8010020BC00002032020020EC00002088
:10334000CC000020880100201C0000208813000011
:1033500000300040AAAA00008901002010000020CF
:10336000B8010020A40100209001002018030020D3
:103370001202002010020020480200203402002027
:1033800098010020AB0100208A01002029020020C2
:1033900023020020C00100201C020020AA010020FE
:1033A0006C070000FF070000080200200C0300204B
:1033B0008C020020B80B0000A875FF1FE40C000071
:1033C000CA75FF1F640200207C02002070020020EA
:1033D000FF0F00000700002066020020E8FFFF7FCB
:1033E000300200201403002000240140B40000201B
:1033F00016020020CF4A1B8801339BB21380FA22A9
:103400009200934200D932E3CB4B1A680023236029
:10341000A7E6002B00D1D3E6C84B1A688323DB0054
:103420009A4200DB73E11300303BFA2189008B42A2
:103430000FD2C349C34F087801213F68091A039787
:10344000B94200D1A9E25B002F33BF4909785B1A6A
:1034500033602F2A00DDB6E60023BC4A33601370C8
:10346000BB4B00201B78002B00D0BCE6FA21B94AE8
:10347000890012688A4200DC9DE25A461360B64B0E
:1034800000221B78002B00D104E2002359460B6078
:10349000B24B1A60B24B1B78002B77D1B14BB248BC
:1034A0001968FDF7C3FEFA21B04B89001B68584329
:1034B00003930301181A8000FDF7B8FEAC4B1860A7
:1034C000059B1B78002B00D008E2A24B1B680393DE
:1034D000632B00DDE4E1049B1B880C22A5490A60F4
:1034E000632B02D80223A34A1360A34B1B78002B43
:1034F00003D0A24B9F4A1B781360A14B1B78002B73
:1035000000D178E1994B1B680393002B00D055E163
:103510008023DB055B6AFDE5FA208E493268096885
:103520008000814200DDE9E0002A00D1CBE064297F
:1035300000DDE5E0934B1B78002B02D09F2A00DCD6
:10354000CBE0854B1878002800D1CEE0C8235B0083
:103550009A429ADB8C4B19786423434301334B43E3
:10356000594609688B4293DA069B1B78002B8FD053
:10357000FEF764F900F0A4FC0023784A13605A4671
:1035800066331360764B1B78002B87D07F4B1B78FC
:103590009946002B00D0B4E1704B1B68302B00DC47
:1035A00094E17B4A1278002A00D18FE1313B572BFE
:1035B00000D9FFE200F084FCFEF7FAFAFFF792FB75
:1035C000744B75481B7819009946FDF72FFE039040
:1035D000C320624A494680001768FDF727FE039B17
:1035E000009089223021380000F032FC6B4B1860CB
:1035F00000F046FC8EE50022694B5A639A63DA6359
:1036000088E5002A00D007E7664A1278002A00D031
:1036100002E765490978002900D1F9E16349474883
:103620000978006849008C46FA218900614481428A
:103630001BDA434F3F78BC46424F3F680397BC4577
:1036400000D134E35A4B1B78002B00D0BBE5FA22A3
:10365000584BD20000932F2300F0FAFB534B3060FD
:103660001B785B009C46354B1868FA226346920033
:10367000D21A824200DC25E30121314B1B78CF1A9C
:10368000BC46304F3F680397BC4500D105E3484B2B
:103690001B78002B00D096E52F3300930021454B7B
:1036A00000F0D6FB254A30601068FA223F4B9200AA
:1036B0001B785B00D21A824200DD84E5FA22920078
:1036C0009446634401E35B461A6064291BDC2D4B7E
:1036D00000221B78002B00D133E7002359460B60F2
:1036E0001D4B1B78002B00D0CFE6952A00DCD1E0E3
:1036F0000A23254900200B700A212DE759460B604B
:10370000C72A00DD16E7002359460B6012E70C4B71
:103710000C491B78096803918B4200D12FE1264B9D
:1037200009489C461300007851006144091A303B57
:1037300031607AE616020020480200201C020020B8
:10374000BF01002030000020D1000020AA0100208D
:103750008801002028030020BC010020080200206E
:10376000330200207402002040420F002402002097
:10377000900200202C00002018020020B60000203B
:10378000200200203C0200201400002089010020BB
:1037900098010020D0000020581B0000E800002005
:1037A000002C0140C00100208B010020D800002027
:1037B00022020020FF070000FFF7FFFF00F080FB60
:1037C000FEF708FED74B1B680393002B13D1D64B93
:1037D0001B78002B00D14DE2D44B1B680393D44BD4
:1037E0001B680793079A039B934204DD0123CD4A8C
:1037F0001360FFF749FB8023DB055A6ACD4B9A42E1
:1038000000D887E4CC4B1B689946012B00D081E49B
:103810005B465A461B6801331360FFF735FB00F027
:103820004FFB4A46C54B1A700023C34A1360C44A73
:103830001360C44B1B78002B00D16BE40A9B1B78F0
:10384000002B00D166E46E23BF4A13600B9A1388E5
:103850000A339BB2502B01D950230B9A138059E4A1
:10386000302800DCBFE4B94B1B680393002B00D168
:103870007CE0FDF7E3FF0A2000F002FB0620FEF7E4
:1038800021F80123B24A30681370A7E40023B14A3B
:103890001380B9E56423B04900200B7064215BE616
:1038A000FA22049B52001B88934200D915E6AB4BC9
:1038B00064211B680393082303980093053B00F0E1
:1038C000C7FAA74B1860049B1B8809E60022A54B8A
:1038D0005A639A63DA63FEF727F91BE4A24A099B4D
:1038E00012681B680392A14A12680792A04A0799BE
:1038F000126808920092039A00F0AAFA9D4B186091
:10390000E3E596239C4A5B00136000F0D9FAFEF7CA
:103910004FF9FA21994B89001868B423884200DCDA
:10392000B6E0FA225B000093D200B43B00F090FABC
:10393000934B80B21880934B1B88834200D9B5E02B
:10394000834201D3FFF7E6FB0023804A1360FFF7B1
:10395000C9F9894B1B681800039300F091FA894B51
:10396000884A1B8801331380FFF7D4FBFDF766FFFD
:103970000A2000F085FA0320FDF7A4FF81E70499EF
:10398000814A0988914200D9B8E0804A1278002A19
:1039900000D0B3E0794B1A605EE5049A7A4B128846
:1039A0009A4200D996E0794B1B78002B00D091E029
:1039B000724A136050E559460B60642A00DC86E6C3
:1039C0000023594600220B60B4E5B921704B490031
:1039D0001B8818001F00FDF79FFB6E4AB92310706B
:1039E00000225B0091469F4201D2FFF7D4FBFEF715
:1039F000C3F9642000F04EFA5346674A1A60012367
:103A00009C46644BE1441B784B45F0DCFFF7C3FB5D
:103A1000624B1A78FA2352009B00D118574B186852
:103A2000814200DBFBE05E4B484A1B781268039240
:103A3000934200D123E1FA225A4BD20000932F2364
:103A400000F006FA4D4A30601068FA22534B92009B
:103A50001B785B00D21A824200DDE6E0FA22920077
:103A600094466344834201DAFFF7ADFBF4E400239C
:103A700099464A464C4B1A60FDF7E0FE00F020FAEA
:103A80004A462D4B1A60494B1A60494B1A70BDE4E7
:103A90000A0000930021002300F0DAF9384B80B2CD
:103AA0001880384B1B88834200D849E70123274AF6
:103AB0001360FFF717F9304B1B681800039300F0F1
:103AC000DFF9304B2F4A1B88013B9BB213802C4AF5
:103AD000108835E7002399464A46194B1A6001239E
:103AE000164A1370194B186000F0EAF94A46184B51
:103AF0001A70224B1A685300313BA6E40122134985
:103B0000D31A0B600023994649460D4B19600B4BA5
:103B10001A7000F0D5F94A460D4B1A70174B1A6807
:103B2000FDE5C04644020020D200002084020020AF
:103B3000C4000020C8AF00002402002020020020A2
:103B400028030020BC010020C80000203000002015
:103B5000AA01002016020020140000209C01002071
:103B60002C000020002C0140B0000020B8000020F4
:103B7000F000002024000020E80000201C020020AB
:103B80002200002020000020DC050000330200207D
:103B900066020020AB010020AAAA0000D800002085
:103BA000BF010020FF07000008020020480200209B
:103BB00098010020FFF796F8844B1B680393C82BED
:103BC00050DC834B186800F05BF9824B1B68002BBC
:103BD00001D0FFF79FFA804AFF201370012291461F
:103BE00049467E4A11607E4A117004997D4A0A80D6
:103BF0007D490A608021C9054A627C4A13607C4B7A
:103C00007C4A1B6818401370FDF75CFE49467A4AEF
:103C100053690B435361FFF737F9FFF77BFAFA2338
:103C20009B009A1A904200DB16E4744B744F19788B
:103C300001233F685B1A0397BB4250D02F2300211A
:103C40000093704B00F004F96F4A30601068FA225C
:103C50006E4B92001B785B00D21A824201DDFFF7A7
:103C6000B2FAFBE64A465B4B50201A605023584A92
:103C70001360A8E7664B1B680393664BB0E5049896
:103C8000654A0088904238D8534A1278002A34D1C5
:103C9000FA205D4B80001860CDE6504F3F68002F42
:103CA0005DD05E4B197000233360FFF78CFA3260F1
:103CB0004A4A12680392002A0DD162469B1A504A62
:103CC0001360BFE4FA239B006344984201DDFFF7D1
:103CD0007AFA00233360514A1370FFF774FA04989C
:103CE0004D4B0088984222D83B4B1B78002B1ED1AD
:103CF000FA20454B80001860A0E701224049D31A02
:103D00000B60002399464946384B1960344B1A70B2
:103D100000F0D6F84A46424B1A703B4B18683B4BB2
:103D20001978FA239B009C464900614483E60023EE
:103D300099464A462D4B1A600123294A1370304B8D
:103D4000196000F0BDF84A46354B1A702E4B1868C2
:103D50002E4B1A78FA2352009B009A1A6EE72849D4
:103D600037600B602D4B1B7893E4FDF77FFF2D4BE5
:103D70000493FFF7B4F92C4B2C481A000993FA234B
:103D80009B00136001222A4B1A70029300230370D8
:103D900028480B700270059027480370274802706E
:103DA000274A0A901370274B06920B931A0064233C
:103DB0001380254A50331360FFF781F94C7810794E
:103DC000844201D0FFF741F9FFF74CF908020020C7
:103DD000E80000206C0200203302002024020020B2
:103DE00020020020282300009C010020280300203E
:103DF00018000020E5000020002C0140BF01002039
:103E000030000020FF0700001C020020D800002026
:103E100084020020C0000020DC05000022020020F7
:103E2000AA0100201C000020F40000203C02002019
:103E3000A8010020BC000020060000203202002063
:103E4000EC000020CC000020C80000207047C046D5
:103E500010B51C00884200DA08001300824200DD21
:103E6000030002985B1A001B5843511AFDF7DEF954
:103E7000001910BD0300401A00D5C81A7047C0468B
:103E80000023034A5362536A8342FCD37047C046FF
:103E9000004801400022094B01215A62FA22120215
:103EA0009A625A690A435A615A6A8242FCD3402292
:103EB00001219A625A690A435A61704700480140D9
:103EC0008022044B9958002199508022D202DA6056
:103ED0001A61704700180240802280230249DB02E9
:103EE000885803438B50704700180240224B1B78C0
:103EF000012B38D0042B36D0022B2BD0052B29D008
:103F0000032B10D0062B0ED01C4B1B78002B16D089
:103F10001B4B1C491A680A401A6080225968D20259
:103F20000A435A6070471849184A0B681A40982388
:103F30009B0013430B60114B1B78002BE8D18022B0
:103F40000F4BD20219680A431A605A680D490A4099
:103F50005A60E7E70C480D49026811409C22920024
:103F60000A430260CCE70848084902681140A022D1
:103F700092000A430260BFE7E5000020D200002063
:103F800000180240FFFFFBFF040201400FFCFFFF8F
:103F90000E4A0F4913680B40022113600D4BDA6A79
:103FA0000A43DA62DA6A8A43DA620A220A4B013980
:103FB00099611A62094A12789A62094ADA625A6960
:103FC0000A435A610022074B1A70704708000240EA
:103FD000EFBFFFFF00100240000400400801002076
:103FE000FFFF00004C02002010B5FFF7D1FF0022B8
:103FF000194B1A485A621A4B1A491A680240102A79
:1040000026D0194A9A60D960154B18495A68096830
:10401000120C12040A4302215A601A680A431A60F9
:104020001A6806310A431A601A6807390A431A6087
:104030008022094B9200D8681043D860D8680243A8
:10404000DA601A6A0A431A621A680A431A6010BDD3
:10405000054ADA609960D7E700040040104000008C
:10406000080002402C03002034040040000100201E
:104070000F4A104913680B4010210B4313600E4B7D
:104080000E39DA6A0A43DA62DA6A8A43DA6260224D
:104090000A4B01399A615D3A1A62094A12789A62AA
:1040A0005C22DA62074A11705A690A435A61704702
:1040B00008000240EFBFFFFF001002400004004074
:1040C0002C0400204C02002010B5FFF7D1FF194B43
:1040D00019481A6819490240102A27D0184A9960CD
:1040E000DA601E21134B5A68120C12040A435A60FC
:1040F0001A681C390A431A601A6806310A431A60A2
:104100001A6807390A431A6080220E4B9200D86859
:104110000243DA601A6A0A431A628022586C120259
:1041200002435A641A680A431A6010BD044AD960EF
:104130009A60D6E7080002401040000038000020D6
:1041400034040040000400400023F0B5314A324CF2
:104150001370944622000025304E314F31483370A1
:1041600008CA38607C341168CB1A834201D2180027
:10417000012504320B00A242F5D1002D25D0031FEA
:1041800038601B2B2FD80023274A1370274A13703F
:10419000013333704122264B1A70264B264A1A608F
:1041A000264B274A1A602022264B1A60431E98414C
:1041B000C0B2254B1870F0BD03009522653B52003C
:1041C00093421ED9214B9842F0DD012362461370C1
:1041D0003F22154B01201A70184B25321A60194BDB
:1041E000623A1A60E5E70300213B2E2BE4D8012355
:1041F0000D4A337013700D4A1370154B154A5A62ED
:10420000C8E7FA220D4B92001A6004220D4B1A6087
:10421000CCE7C046290200202C030020C00100206A
:104220000C010020204E0000080100202C0400207A
:10423000FC00002004010020E8FD00001000002028
:1042400010270000000100200C020020DC05000007
:1042500000040040FFFF000070B590B02022002154
:1042600008A8FDF7F3F88020514BC001196C002419
:10427000014319641A6C012502400192019A02223D
:104280004026596B4B48114359635B6B02A913409D
:104290000093009B0392049405950695079402965B
:1042A00001F032FCC620C021434A800013580906A1
:1042B0001B021B0A0B4313508023FF211B051360B5
:1042C0003E4A13688B43CC390B4313603C4B3D494A
:1042D0001A680A4010210A431A601A683A490A40CB
:1042E00020211A601A688A431A601A686031B24342
:1042F0001A601A680A431A601A6834490A401A6038
:104300001A6833490A401A60E1235B0209930C23BF
:1043100008940A940B940C940F942E4C08A9200036
:104320000D9301F00BF9A3682B4ADB00DB08A360B7
:10433000A36880211340A3602368284AC90313405F
:1043400023606368264A134022226360A368934374
:10435000A360A3681A3A13438022A36023689203E0
:104360001D432560E3691342FCD0E3690B42F9D099
:10437000134B1C4C1A681C481C492240102A13D0AD
:104380009860D9600E4B1A495A680978120C1204C9
:104390000A4302215A601A680A431A601A680631F1
:1043A0000A431A6010B070BDD8609960EAE7C04651
:1043B000001002400004005000E100E00808024044
:1043C00030000240EFBFFFFFFFCFFFFFFFFCFFFF0A
:1043D000FFF3FFFF00380140FFFFFFF1FFFFFFDFAA
:1043E000FFB7FFFF104000003004002028380140D4
:1043F000100100200C2008210D4B10B51A680D4C3F
:1044000082430A430C491A604A682478120C120449
:10441000224380244A609A6822439A600A687F3C5B
:1044200022430A6004211A6882430A431A6010BDBD
:10443000003801401001002030000240F0B505AC0A
:10444000164E24880D0A3700B1703271110AB3710B
:104450001A0A230A7570F37107250023347230702D
:10446000F1707271741C09370822434004E0013A6C
:10447000D2B2DBB2002A09D059B25B000029F6DAC9
:10448000013A6B40D2B2DBB2002AF5D1A74202D08A
:1044900020780134E8E77372F0BDC0463004002094
:1044A0007047C046FEE7C0467047C0467047C046EA
:1044B0007047C0460422124B10B519680A4203D057
:1044C00010490978002912D10D4B1A68920705D4BA
:1044D0001A68120701D501225A6010BD01210A4A4B
:1044E000596013688B431360FDF750FDF5E70A240C
:1044F0000648016AA143083C214301625A60E3E790
:104500000000024029020020080002400004004090
:10451000154B10B51A68920603D510225A6000F0A8
:104520009FFD8022104B19680A4200D05A600E4B42
:104530001A6892050BD41A68120507D5802201214A
:1045400052005A60094A13688B43136010BD002162
:10455000074A11708022012152005A60034A1368F1
:104560008B431360F2E7C046000002403000024077
:10457000280200208022094BD202196910B511428D
:1045800007D1D968114200D110BDDA60FDF7FEFFF6
:10459000FAE71A61FDF7FAFFF6E7C0460018024095
:1045A000074B1A69920702D5032252421A61044B43
:1045B0001A69D20702D5022252421A617047C046D8
:1045C00000040040054B10B51A69D20700D410BD95
:1045D000022252421A61FEF779F8F8E70010004013
:1045E00010B5054C2369DB0700D410BDFDF790FF23
:1045F00002235B422361F8E700200040194B30B5ED
:104600001A6819688022080092031040114213D0E2
:104610008022012152035A60134A144813688B43C5
:104620001360134B5A6C02405A641A688A431A602A
:104630000022104B1A7030BD1A681202FBD50124FB
:1046400009490A4D0A68A2430A60094A516C294087
:1046500051641168A1431160064A10708022520310
:104660005A60E8E7000002406C000240FF7FFFFF55
:10467000004401403A040020024B034A9A6062B6AB
:104680007047C04600ED00E000100008072202203D
:104690002D4910B50B68934303430B600B681A4018
:1046A000022A01D0FFF7D2FB8022284B5200196862
:1046B0000A4380211A60C9001A680A42FCD001210D
:1046C0001A6E0A431A66214B01311A6E1142FCD050
:1046D000DA681F4911401F4A0A43DA6080221968CC
:1046E00052040A431A608022D96852050A43802185
:1046F000DA60164B89041A680A42FCD09A68164997
:10470000124C0A4007219A609A688A4305390A4385
:104710009A603822A3681340102BFBD10F4AA3687C
:104720000F481340A36000F031FE0D4800F03EFE3C
:104730000B4800F03BFE636D0A4A13406365636DEE
:104740009B009B08636510BD0020024000100240E2
:104750008C80FF1F02080020FFF0FFFFFF8FFFFF8C
:104760000090D003FFFFBFFFF0B5C646012600B59D
:1047700090B0494C1822002104A8FCF767FE1022D3
:1047800000210CA8FCF762FE636BA0203343636337
:10479000636B002533400393039B0223626B032763
:1047A0001A436263626B0AA913400293029B0423BB
:1047B000C0050A930B970E9501F0A6F90823A020D7
:1047C00098460AA9C0050A930B970E9501F09CF92B
:1047D00043460AA931480A930B970E9501F094F9C4
:1047E00080230AA92D4898460A930B970E9501F04D
:1047F0008BF9C321FF202A4B89005A5882435A5013
:10480000802252011A60236C04A933432364236C71
:10481000244C1E400196019B80239B000593434638
:104820000693802320005B0207930895099501F009
:10483000EDF923681C4A1D481340236021681C4B76
:10484000014021601A6802401A602168194801403D
:1048500021601A68184902401A60184B00951868C0
:10486000FCF75AFCC82343430093009B002B05D060
:10487000009B013B0093009B002BF9D18422104B3D
:10488000104899580140995080215A5802405A5076
:1048900010B080BCB846F0BD0010024000040050CB
:1048A00000E100E004020140FFFFF3FFFFF7FFFF1C
:1048B00000020140FFBFFFFF80841E001C0100209A
:1048C00000180240FFFFFBFF084B094A07211A604E
:1048D000084A1A6000225A60074A9A60DA68114250
:1048E000FCD1054A1A61054A1A6070470030004041
:1048F000CCCC000055550000FF0F0000AAAA000014
:10490000F0B5DE4657464E464546E0B5A3B0142204
:10491000002103A8FCF79AFD202200210EA8FCF735
:1049200095FD3022002116A8FCF790FD18220021E9
:1049300008A8FCF78BFD8022764E1201336C002410
:1049400013433364336C904613400293029B6B46CF
:104950009C81714B6A4605930023704D03A9280082
:1049600013770494069400F077FE80222B6891461A
:1049700013432B60AB69783A1343AB6160239246D3
:1049800001210EAA28000E930F94109411941294F2
:1049900013941494159400F0A9FE0422AB69934675
:1049A00093434246AB61AB6910211343AB610EAA3E
:1049B00028000F94109400F099FE5146AB69584AB4
:1049C000584F1340AB617B6828000B437B6080230A
:1049D0005B009A460EAB1A0051460F94109400F0FB
:1049E00085FE59467B6828008B4341467B607B6887
:1049F0000F940B4380217B600EAB1A004901109489
:104A000000F074FE7B68464A6421134070227B608C
:104A10006B68012793436B606B68434A280013401F
:104A20004A466B60AB6893436A46AB603C235218BE
:104A3000137066226B469B181C8080239B011A937F
:104A4000802302259B0416A91E931694179418948C
:104A50001B941C941D941F942094219400F0C0FF7B
:104A6000736B08A93B437363736B3B400193019BDA
:104A7000736B2B437363736BA0262B400093009BD7
:104A80004B46F6053000089309950A940B940C9454
:104A90000D9501F039F80897244F08A938000995B9
:104AA0000A940B940C940D9501F02EF808A9380087
:104AB000089509950A940B940C940D9501F024F82F
:104AC000534608A93000089309950A940B940C9456
:104AD0000D9501F019F8802308A99B003000089378
:104AE00009950A940B940C940D9501F00DF8802310
:104AF0003000DB0008A9089309950A940B940C94E4
:104B00000D9501F001F823B0F0BCBB46B246A946B2
:104B1000A046F0BD00100240B80B0000002C014080
:104B2000FFFBFFFF182C0140FFFF0FFF00040050A8
:104B300030B587B001AD142200212800FCF786FCB7
:104B40000123134A8024D16BE4051943D163D26B4E
:104B5000290013400093009B1F232B8000230D4A44
:104B600020006B60AA60EB6000F076FD8022236875
:104B7000094993432360A3680B407021A3606368D5
:104B80008B436360A3689343A36007B030BDC04606
:104B900000100240FFFF0000F8BFFEFFF0B58FB02D
:104BA00003AD142200212800FCF750FC02223B4BED
:104BB0000024D96B01261143D963D96B38481140C1
:104BC00002910299596B374F114359635B6B08A9E6
:104BD00013400193019B1023099208930A940B94AC
:104BE0000C940D9600F090FFFF2120202E4A1368B0
:104BF0008B43034313602D4B1A683A401A601A68BE
:104C00002B4F3A4080271A601A6882431A601A684C
:104C1000203082431A601A682648BA433A431A6021
:104C20001A6810408022520002431A601A68224813
:104C30001040802212010243C4201A601F4B8000E2
:104C40001A588A431A50802252021A602C806C60D3
:104C5000EC601B4C1B4B29002000AB6000F0FCFCFF
:104C600070222368BB432360636893436360A36837
:104C70006D3ABB43A360A36993433343A361A36924
:104C800009329343A361A369E4329343A361236A86
:104C9000E63A134323620FB0F0BDC0460010024055
:104CA00000040050EFBFFFFF000802400800024070
:104CB000FFCFFFFFFFFCFFFFFFF3FFFF00E100E07E
:104CC00000040040FFFF000030B587B001AC1422A3
:104CD00000212000FCF7BAFB8020124A0002116C70
:104CE000114D01431164C421136C104A0340009319
:104CF0008900009B535828001B021B0A5350802335
:104D00001B0313601F2323800023094A21006360D3
:104D1000A260E36000F0A0FC80222B6893432B602C
:104D200007B030BD001002400020004000E100E06C
:104D3000FFFF000010B586B01422002101A8FCF787
:104D400085FB80200E4AC002116C0E4C0143116499
:104D5000136C6A4603400093009B3F2393800A4AEA
:104D6000002303926A46200001A90293049313755D
:104D700000F072FC802223681343236006B010BD4C
:104D80000010024000480140FFFF00000123104ACC
:104D900082B0916B0F4819439163926B1340C2220A
:104DA0000193019B0C4B9200995808408021C90146
:104DB000014399508021890019609958074808409B
:104DC0008021C90301439950F8321A6002B070473C
:104DD00000100240FF00FFFF00E100E0FFFF00FFC6
:104DE00030B587B001AD142200212800FCF72EFB5E
:104DF0001023154A1548D16B154C1943D163C421B2
:104E0000D26B890013400093009B124B5A5802400A
:104E10005A50802292021A603F232B8000232900DF
:104E20006B6020006433AB6000F016FC80227021C0
:104E300023689343236063688B436360A368934351
:104E4000A36007B030BDC04600100240FF00FFFF66
:104E50000010004000E100E030B501258021224C27
:104E600085B0236C49052B432364236C2B400393AB
:104E7000039BE26B0A43E263E36B0B40082102935E
:104E8000029B1A4B1A680A431A601A6808310A43CF
:104E90001A608023164A5B0011680B431360FFF70A
:104EA000F5FB636B2B436363636B1D400095009BB5
:104EB0000223626B1A436263626B13400193019B8E
:104EC000FFF764FFFFF750FCFFF71AFDFFF730FE16
:104ED000FFF764FEFFF7F8FEFFF72CFFFFF780FFF8
:104EE000FFF7BAF905B030BD0010024000000140E4
:104EF00000200240F0B5CE4647460326884680B5DE
:104F000085B015006A46CB171E404644B610B30064
:104F10000733DB08DB00D31A00AF9D466C468146A1
:104F2000320000212000FCF791FA4346032B13DDE9
:104F30004846002293009C468178C37809041B06EA
:104F40000B43017801320B434178043009020B43D3
:104F5000614663509642EDDC8021354A7E6049020D
:104F600013690B42FCD15369002B05DA314B1B68E6
:104F70009360314B1B6893606B051AD102212C4B57
:104F80005A690A435A615969EA0AD2000A438021E0
:104F90005A615A6949020A435A611A690A42FCD1A4
:104FA000012219690A4240D10221214A53698B43E7
:104FB00053610023BB60FB60FB687A689A4228D982
:104FC000802201261A4952024B6933434B61F8682B
:104FD000BB68800000595B191860F868BB68013035
:104FE0008000005904335B1918600B691342FCD12F
:104FF0000B691E4200D00E614B69B3434B61BB6825
:105000000833BB60FB680233FB60F8687B6898423A
:10501000DAD38023BD46064A1B0651690B43536110
:1050200005B0C0BCB946B046F0BD1A61BCE7C04689
:10503000002002401401002018010020002A06DD93
:105040005218401A0B78435401319142FAD17047FB
:105050008022024B12059A607047C04600ED00E0C6
:10506000054B064A998811805988054A11801A888B
:10507000044B1A807047C0463C0400200C030020FB
:105080007002002014030020C220124B80001A5826
:1050900011491140C02212040A431A5080220321F0
:1050A000D2001A600D4B0E4A9A600E4ADA605A68B6
:1050B000120C12040A435A601A6801390A431A6032
:1050C0001A6806310A431A601A6807390A431A60D7
:1050D0007047C04600E100E0FFFF00FF1C000240F7
:1050E000402401403C040020002300B583B000931D
:1050F00001932A4B9A68D2074ED49A6828491140E6
:10510000802252050A439A60264B27491868FCF70B
:1051100003F8830018180A218000FBF7FDFF0090B8
:10512000009B002B05D0009B013B0093009B002BB4
:10513000F9D10321194BDA680A400192DA688A43EF
:10514000DA609A6819491140802212060A439A606F
:105150009A68002AFCDB03200199DA6882430A433B
:10516000DA6040230093009B002B05D0009B013B9D
:105170000093009B002BF9D1084A0C4993680B401F
:1051800001210B43936013681942FCD08023084A25
:105190001B0411680B43136003B000BD00240140E1
:1051A000E8FFFF6F1C010020400D0300E8FFFF7FB8
:1051B00008270140F0B5CE46474680B593B0182287
:1051C000002106A8FCF742F91022002102A8FCF7F2
:1051D0003DF9102200210EA8FCF738F980200127A4
:1051E0005A4B4003196CA026014319641A6C002520
:1051F00002400192019A5A6B03243A435A635B6B53
:10520000F6053B400093009B20230CA930009946F3
:105210000C930D94109500F077FC40230CA93000FE
:1052200098460C930D94109500F06EFCFF21052616
:10523000474A13688B4333431360464B46491A6809
:105240000A401A601A6845491140802292010A43B7
:1052500049461A601A688A430A4341461A601A6826
:105260008A431A601A6840310A431A601A683C4936
:105270001140802292000A431A601A68394911408D
:105280008022D2000A4338491A600B68374A1A4014
:10529000374B13430B60F0230A94364C1B0206A9CC
:1052A000200007930695089509950B9500F006FCDC
:1052B0002369314ABB432361236920001A408023BC
:1052C0009B04134380222361E36892031343072264
:1052D000E360236902A99B009B0823616369134370
:1052E0006361636969321343636163686C3A934332
:1052F0006360636804329343636003950495059586
:1053000000F0C2FB0F22A36A93433343A362636995
:105310001A4A1340F0226361A36A9343903A1343FD
:10532000A3626369164A13406361A36A154A1A406F
:10533000C0231B011343A3626369134A13406361D3
:1053400013B0C0BCB946B046F0BDC0460010024024
:10535000040802401C000240EFBFFFFFFFCFFFFF29
:10536000FFFCFFFFFFF3FFFF08270140FFFF3FFEA9
:10537000001000B000240140FFFFFFDFFFDFFFFF50
:10538000FFBFFFFFFFF0FFFFFFFFEFFFFA2110B5A8
:105390008900FBF7C1FE0022034B013858609A6078
:1053A00005321A6010BDC04610E000E0014B1860E5
:1053B0007047C0461C01002003200E4A10B5D36878
:1053C00018400338431E98410B4B40429C461840FE
:1053D000D368D1685B044906D46860445B0E490F0A
:1053E00058430131FBF798FE610F0131FBF794FE42
:1053F00010BDC0460010024000127A003823094A4E
:1054000010B591680B40082B04D0102B04D1FFF786
:10541000D3FF10BD0448FCE7136804489B045B0FEE
:10542000D840F6E70010024000127A000024F40091
:1054300070B50400FFF7E2FF206003001F200A4D53
:105440000A49AA681205120F920051580140CB4038
:105450006360AA6806495204520F920052580240F3
:10546000D340A36070BDC046001002407C620008BB
:10547000BC620008030010B5032815D000200C2BD7
:1054800000D010BD234C244A606D0340C0200003AF
:105490000343934234D0214A934228D0204A934276
:1054A00011D1FFF7ABFFECE71A4C1E4A606D0340C9
:1054B000C02080020343934222D01B4A934216D05D
:1054C0001A4A9342EDD0FFF799FF1F21A268A36803
:1054D0001205174C120F920012595B040A40D0407B
:1054E0005B0F144A9B009B580B40D840C9E702222F
:1054F0001000E36D18401A42C3D080200002C0E7BC
:10550000226880231000DB0018401A42B9D00A48F4
:10551000B7E7C0460010024008000C000C000C0069
:1055200004000C000200030003000300010003005C
:105530007C620008BC6200080024F400F0B5C64696
:1055400000B5036804000D00012784B0DB072BD4ED
:105550008B68096902680B4369690B43E9690B436E
:1055600034490A40134303604368334A1340EA68EE
:10557000134343608368314A1340AA69134383602D
:105580002F4B984215D02F4B984223D02E4B984248
:105590001BD02E4B984218D02E680F22E36A360497
:1055A0009343360C1E43E662380004B080BCB84614
:1055B000F0BD0320FFF75EFF002803D06B6898461C
:1055C000002B0BD101272E68E7E701A8FFF730FF7A
:1055D0000398F1E70C20FFF74DFFEDE72E68002759
:1055E0000B2EDAD88023EA691B029A420ED0184BA0
:1055F000B200D158FBF790FD43465B084146C01806
:10560000FBF78AFD0004000CE060C6E7104BB20017
:10561000D158FBF781FD434640005B08C018414666
:10562000FBF77AFD0B4B03400007400F1843E06087
:10563000B3E7C046F369FFEFFFCFFFFFFFFCFFFFBB
:10564000003801400044004000480040004C004049
:10565000DC620008F0FF00001D4A0368904226D07B
:105660008022D205904219D01A4A904216D01A4A86
:10567000904217D0194A90421DD0194A90421AD030
:10568000184A904217D003608B68C3620B8883620C
:105690000122436913434361002070477022934302
:1056A0004A681343104A1340CA681343EBE7702259
:1056B00093434A6813430C4A1340CA681343036078
:1056C0008B68C3620B8883620B7C0363E0E7C04690
:1056D000002C014000040040002000400040014038
:1056E0000044014000480140FFFCFFFF802370B5EB
:1056F0005B01994200D1E1E041D8102900D10AE1D3
:1057000080235B00994270D1016AA14EA14C3140C7
:105710000162036A4168C5692540146825439E4CAF
:105720001C4013691B022343546833402402234363
:105730009A4CA04208D09A4CA04205D0994CA04265
:1057400002D0994CA04213D1984E994C1E405369F7
:105750009B023343974E234094680E409169A40204
:1057600023430901944C31432140D46966013143FC
:10577000D2684160C561C2630362002070E080238B
:105780005B02994200D16CE080235B03994266D1B1
:10579000016A8A4D8A4C29400162036A416D2140A9
:1057A000146824020C438749194013691B050B43F5
:1057B00051682B4009050B437849884208D0784945
:1057C000884205D07749884202D07749884206D17D
:1057D000456891697C4E8902354029434160D26811
:1057E0004465C265036200203AE0012937D1036AAB
:1057F000684E8B430362036A4468856935401668C6
:1058000035430226B343166933438B4351680B4338
:105810006249884208D06249884205D0614988427D
:1058200002D06149884213D108218B431900536982
:105830009B000B4304218B43916889000B4354491F
:105840000C4091690C4354490C40D16949000C4308
:10585000D2684460856142630362002000E0012059
:1058600070BD016A594D5A4C29400162036A416D6D
:105870000C4011680C435749194013691B040B4332
:1058800051682B4009040B434449884208D04449DD
:10589000884205D04349884202D04349884206D114
:1058A00045689169494E0902354029434160D268F3
:1058B0004465816D826503620020D1E7016A3D4E37
:1058C000454C31400162036A4568C1692140146852
:1058D00024020C433849194013691B030B435168D8
:1058E000334009030B432D49884208D02C49884294
:1058F00005D02C49884202D02B49884204D137492F
:105900000D40916989010D43D2684560C46102640C
:1059100003620020A4E7036A2F4D8B430362036AEE
:10592000466884692C4015682D022C432025AB4322
:105930001D0013691B012B438B4351680D0117494F
:105940002B43884208D01649884205D01549884221
:1059500002D01549884214D180218B431D00536920
:1059600040399B012B438B4391688D0110492B4398
:105970000E4091690D4D890031432940D569EE00F3
:105980000E43D2684660846182630362002067E749
:10599000FFFEFFFF8CFFFEFFFFFDFFFF002C01401D
:1059A000004001400044014000480140FFF7FFFF74
:1059B000FFFBFFFFFFEFFFFFFFDFFFFFFFFFEFFF3B
:1059C000FF8FFFFEFFFFDFFFFFFFFBFFFFFFFEFF7D
:1059D0008FFFFEFFFFFFFDFFFF8CFFFEFFBFFFFFFE
:1059E0008A680B7B10B513431A4A1B4C13404A6854
:1059F00013431A4A13400A681343194A1A40CB89C1
:105A00001343184A13400A691343174A1340CA6ADA
:105A1000134323401343154A904202D043640020AD
:105A200010BD134A13404A691343124A13408A694E
:105A30001343114A13404A6A1343104A1340CA6978
:105A400013430F4A13400A6A13430E4A13408A6AEB
:105A50001343E3E7FFFBFFFFFF7FFFFFFFF7FFFFBE
:105A6000FFEFFFFFFFDFFFFFFFBFFFFF002C014045
:105A7000FFFFF0FFFFFFFFEFFFFF0FFFFFFFFFFE46
:105A8000FFFFFFFDFFFFFFDF8268030010B501206D
:105A9000D20710D48C684A68D8682243CC68096859
:105AA0002243054C204002430020DA601A6992002C
:105AB00092080A431A6110BDC73FFFFF82680300C6
:105AC00010B50120D20715D4DA684868920212D4C2
:105AD0000C4CDA6822400C6822438C682243CC6864
:105AE00022430C69496922430A43DA609A6A1043E7
:105AF0009862002010BDF028EAD1024CDA682240FA
:105B00000C68EBE73CC2FEFFF0B5DE4657464E465A
:105B10004546E0B50A684B6883B0002A00D172E0C0
:105B20009C46012301245B4263449846A34600231C
:105B30000AE00E69C56874434E4635402C43C46084
:105B400014000133DC4041D05C4615009C402540E8
:105B50002242F5D02C006C436700BA46A244574657
:105B6000FF43B94657460668BE43674667433E4310
:105B700006604646012EDCD88668B2468E685746D7
:105B8000664301964E4637403E00019F374387608B
:105B9000C6684F46B2460E69664301965646374080
:105BA0003E00019F37436646C760022EC8D1FF2DD5
:105BB0001DD86443056A2601361BB5434E6901337F
:105BC00074432C4304621400DC40BDD14346012BD6
:105BD00005D84368C96893434A431A43426000208A
:105BE00003B0F0BCBB46B246A946A046F0BD2D0AA4
:105BF0006D436D43446A2E01761BB4434E69754371
:105C0000254345629CE7013B9846DFE703680200B5
:105C100010B50120002B10DB4C680B681068234383
:105C20008C682343CC6823430C69496923430B43A5
:105C30000249014000200B43136010BD0F7C00FEA1
:105C4000F8B5C046F8BC08BC9E467047F8B5C046DB
:085C5000F8BC08BC9E46704739
:105C580078160008141700080E170008081700081F
:105C6800781600087816000878160008F616000856
:105C7800E2160008D2160008C016000878160008B8
:105C8800BA16000878160008781600087816000872
:105C980078160008781600087816000878160008A4
:105CA800AC16000870160008191B12131D151617DC
:105CB8001A090A0B1E0D0E0F481900084A19000888
:105CC800AE190008281A0008621A0008B61A000857
:105CD800D2180008B4000000B7000000BA000000A5
:105CE800BD000000C1000000C4000000C7000000A3
:105CF800CA000000CD000000D0000000D300000062
:105D0800D6000000D9000000DC000000E000000020
:105D1800E3000000E6000000E9000000EC000000DD
:105D2800EF000000F2000000F5000000F70000009E
:105D3800FA000000FD00000000010000030100005F
:105D480006010000090100000B0100000E0100001F
:105D580011010000130100001601000019010000E4
:105D68001B0100001E0100002001000023010000AB
:105D780025010000280100002A0100002C01000074
:105D88002F0100003101000033010000350100003F
:105D9800380100003A0100003C0100003E0100000B
:105DA80040010000420100004401000046010000DB
:105DB80047010000490100004B0100004D010000AF
:105DC8004E01000050010000510100005301000085
:105DD800540100005601000057010000580100005E
:105DE8005A0100005B0100005C0100005D01000039
:105DF8005E0100005F010000600100006101000019
:105E080062010000630100006301000064010000FA
:105E180065010000650100006601000066010000E0
:105E280067010000670100006701000068010000C9
:105E380068010000680100006801000068010000B6
:105E480068010000680100006801000068010000A6
:105E5800670100006701000067010000660100009B
:105E68006601000065010000650100006401000092
:105E7800630100006301000062010000610100008D
:105E8800600100005F0100005E0100005D0100008C
:105E98005C0100005B0100005A010000580100008D
:105EA8005701000056010000540100005301000092
:105EB80051010000500100004E0100004D0100009A
:105EC8004B010000490100004701000046010000A5
:105ED8004401000042010000400100003E010000B2
:105EE8003C0100003A0100003801000035010000C3
:105EF80033010000310100002F0100002C010000D7
:105F08002A010000280100002501000023010000EB
:105F1800200100001E0100001B0100001901000003
:105F28001601000013010000110100000E0100001D
:105F38000B01000009010000060100000301000038
:105F480000010000FD000000FA000000F70000005A
:105F5800F5000000F2000000EF000000EC00000077
:105F6800E9000000E6000000E3000000E000000097
:105F7800DC000000D9000000D6000000D3000000BB
:105F8800D0000000CD000000CA000000C7000000DB
:105F9800C4000000C1000000BD000000BA000000FD
:105FA800B7000000B4000000B1000000AE0000001F
:105FB800AB000000A7000000A4000000A100000042
:105FC8009E0000009B000000980000009500000063
:105FD800920000008F0000008C0000008800000084
:105FE80085000000820000007F0000007C000000A7
:105FF80079000000760000007300000071000000C6
:106008006E0000006B0000006800000065000000E2
:10601800620000005F0000005D0000005A00000000
:106028005700000055000000520000004F0000001B
:106038004D0000004A000000480000004500000034
:1060480043000000400000003E0000003C0000004B
:106058003900000037000000350000003300000060
:10606800300000002E0000002C0000002A00000074
:106078002800000026000000240000002200000084
:10608800210000001F0000001D0000001B00000090
:106098001A0000001800000017000000150000009A
:1060A80014000000120000001100000010000000A1
:1060B8000E0000000D0000000C0000000B000000A6
:1060C8000A000000090000000800000007000000A6
:1060D80006000000050000000500000004000000A4
:1060E800030000000300000002000000020000009E
:1060F8000100000001000000010000000000000095
:106108000000000000000000000000000000000087
:106118000000000000000000000000000000000077
:106128000100000001000000010000000200000062
:10613800020000000300000003000000040000004B
:106148000500000005000000060000000700000030
:1061580008000000090000000A0000000B00000011
:106168000C0000000D0000000E00000010000000F0
:1061780011000000120000001400000015000000CB
:1061880017000000180000001A0000001B000000A3
:106198001D0000001F000000210000002200000078
:1061A8002400000026000000280000002A0000004B
:1061B8002C0000002E00000030000000330000001A
:1061C8003500000037000000390000003C000000E6
:1061D8003E000000400000004300000045000000B1
:1061E800480000004A0000004D0000004F00000079
:1061F8005200000055000000570000005A0000003F
:106208005D0000005F000000620000006500000003
:10621800680000006B0000006E00000071000000C4
:106228007300000076000000790000007C00000088
:106238007F00000082000000850000008800000048
:106248008C0000008F000000920000009500000004
:10625800980000009B0000009E000000A1000000C4
:10626800A4000000A7000000AB000000AE00000082
:10627800B100000000000000000000000000000065
:106288000000000000000000000000000000000006
:1062980000000000010000000200000003000000F0
:1062A80004000000060000000700000008000000CD
:1062B80009000000000000000000000000000000CD
:1062C80000000000010000000200000003000000C0
:1062D80004000000010000000200000004000000AB
:1062E80006000000080000000A0000000C00000082
:1062F80010000000200000004000000080000000A6
:046308000001000090
:04630C00F91000087C
:04631000D1100008A0
:10631400FA000000B70B016E020000000600000046
:10632400E80300000A00000005000000D43001006A
:106334005A005A00B70B00000100000005000000DD
:10634400010000003C00000000000000000000000C
:106354000000000000000000000000000000000039
:106364000000000000000000000000000000000029
:1063740000000000400000000000000000000000D9
:1063840000000000000000004000000000000000C9
:1063940000000000000000000000000040000000B9
:1063A40000000000000000000000000040000000A9
:1063B4004000000000000000400000000000000059
:1063C400460000004A01140014000000010201000C
:1063D4000700000007000000780000003C00D00720
:1063E4000E0101000100000064006C074C04DC0590
:1063F4007800000023010000640000000100000098
:10640400B70B000090010000B70B32002C00000015
:106414002000000024F4000001000000204E0000D1
:106424000A00000023016745AB89EFCD0024F40086
:040000050800145D7E
:00000001FF
