:020000040800F2
:10100000002000205D14000875450008794500089F
:1010100000000000000000000000000000000000D0
:101020000000000000000000000000007D450008F6
:101030000000000000000000814500088545000810
:10104000AD140008AD140008AD140008AD1400087C
:10105000AD140008AD140008AD140008AD1400086C
:10106000AD140008C546000889450008BD450008C4
:1010700029460008ED460008AD140008AD1400082C
:10108000A14600084546000800000000614600082F
:101090007D46000875460008AD140008AD14000830
:1010A000AD140008AD140008AD140008794600081E
:1010B000AD14000800000000AD140008000000009E
:0E10C00001435349534B494E5F5041322020AB
:1010D00010B5064C2378002B07D1054B002B02D00E
:1010E000044800E000BF0123237010BDD801002098
:1010F00000000000CC590008044B10B5002B03D0B1
:101100000349044800E000BF10BDC04600000000D5
:10111000DC010020CC590008002243088B4274D324
:1011200003098B425FD3030A8B4244D3030B8B42E8
:1011300028D3030C8B420DD3FF22090212BA030CF1
:101140008B4202D31212090265D0030B8B4219D3D2
:1011500000E0090AC30B8B4201D3CB03C01A5241F2
:10116000830B8B4201D38B03C01A5241430B8B423A
:1011700001D34B03C01A5241030B8B4201D30B0323
:10118000C01A5241C30A8B4201D3CB02C01A52414A
:10119000830A8B4201D38B02C01A5241430A8B420D
:1011A00001D34B02C01A5241030A8B4201D30B02F6
:1011B000C01A5241CDD2C3098B4201D3CB01C01A10
:1011C000524183098B4201D38B01C01A524143091A
:1011D0008B4201D34B01C01A524103098B4201D308
:1011E0000B01C01A5241C3088B4201D3CB00C01A75
:1011F000524183088B4201D38B00C01A52414308ED
:101200008B4201D34B00C01A5241411A00D2014611
:10121000524110467047FFE701B5002000F0F0F89A
:1012200002BDC0460029F7D076E7704703460B435E
:101230007FD4002243088B4274D303098B425FD3CF
:10124000030A8B4244D3030B8B4228D3030C8B42FB
:101250000DD3FF22090212BA030C8B4202D31212E1
:10126000090265D0030B8B4219D300E0090AC30BB6
:101270008B4201D3CB03C01A5241830B8B4201D363
:101280008B03C01A5241430B8B4201D34B03C01A4C
:101290005241030B8B4201D30B03C01A5241C30AC4
:1012A0008B4201D3CB02C01A5241830A8B4201D335
:1012B0008B02C01A5241430A8B4201D34B02C01A1F
:1012C0005241030A8B4201D30B02C01A5241CDD2C4
:1012D000C3098B4201D3CB01C01A524183098B420F
:1012E00001D38B01C01A524143098B4201D34B01F8
:1012F000C01A524103098B4201D30B01C01A52415B
:10130000C3088B4201D3CB00C01A524183088B42E1
:1013100001D38B00C01A524143088B4201D34B00CA
:10132000C01A5241411A00D201465241104670473C
:101330005DE0CA0F00D04942031000D34042534041
:1013400000229C4603098B422DD3030A8B4212D301
:10135000FC22890112BA030A8B420CD38901921133
:101360008B4208D3890192118B4204D389013AD070
:10137000921100E08909C3098B4201D3CB01C01A45
:10138000524183098B4201D38B01C01A5241430958
:101390008B4201D34B01C01A524103098B4201D346
:1013A0000B01C01A5241C3088B4201D3CB00C01AB3
:1013B000524183088B4201D38B00C01A5241D9D2CB
:1013C00043088B4201D34B00C01A5241411A00D24C
:1013D0000146634652415B10104601D34042002B48
:1013E00000D54942704763465B1000D3404201B5C7
:1013F000002000F005F802BD0029F8D016E770477C
:101400007047C04670B500260C4D0D4C641BA410EF
:10141000A64209D1002604F0D9FA0A4D0A4C641BF1
:10142000A410A64205D170BDB300EB589847013611
:10143000EEE7B300EB5898470136F2E7206000086A
:101440002060000820600008246000080300821863
:10145000934200D1704719700133F9E70D48854672
:101460000D480E490E4A002302E0D458C4500433FC
:10147000C4188C42F9D30B4A0B4C002301E01360D3
:101480000432A242FBD303F009FEFFF7BBFF01F0D9
:10149000B7FDFEE700200020C0000020D80100209A
:1014A00028600008D801002014050020FEE7000095
:1014B000F0B5DE4657464E464546984998480B6873
:1014C000CA6FE0B5D21A0260964887B0844662447B
:1014D0003A2A5FD80C00944A8034100000E00B6870
:1014E0004D680831EB1A5B0908C08C42F7D11368CC
:1014F000116A9B460191516A136903915946009301
:101500005368506902939368956A0493009BAC46B4
:1015100059400B000199D5684B40D9008846029B81
:10152000039943404B4041469B000B4329000590E3
:101530006046D669D76A7140794094690B43049933
:101540006140414049000B43116BDBB2C900884642
:10155000516B89008946414648460143D06B926BE6
:10156000014352000A437149D2B28946097888463C
:10157000002916D16E498A46097800295FD00F21CB
:101580008A4651468A1AD2B29A4210D0694A1368E2
:101590000133136007B0F0BCBB46B246A946A04673
:1015A000F0BD634909780029E9D19A42EED10022C1
:1015B000614B1A60614A136801331360012F01D136
:1015C0005F4B1F705B46029A9B02520213436246B6
:1015D0001343049AED0110021843009B0543980140
:1015E000059B05435B011D432401019B2C43F60031
:1015F00026439C00039B2643590031432F2926DCB8
:101600004B1E2E2B2BD800224E4B4F4C1A602160C4
:101610004E4B1B68002BBDD14346002BBAD04C4B20
:101620001A788A4233D0197004293BDC494A0023D6
:101630001370152920D8484B89005B589F460F31FD
:10164000891A8B42A0D151460120087097E73D4B83
:101650003D4A1960002313603E4A13709AE700293F
:1016600010D1384B1960384B19603A4B197091E71B
:101670003A4B1A783A4B1A603A4B22681A70002398
:10168000236087E7304C21680029C1DC82E7314ABA
:101690000429CCDD13780133DBB21370052B00D89D
:1016A00078E7C4E701222B4B1A7073E72B4B1A78AB
:1016B00001239B1A2A4A1360DEE700F06DFEDBE788
:1016C0000122294B1A700023284A13604A461370DE
:1016D000D2E70023244A13704A461370234A13604A
:1016E000CAE701221D4B1A7000221D4B1A60204BC5
:1016F00002321A70C0E70022184B1A700123184AF0
:1017000013601B4A1370B7E700F0DAFBB4E700F090
:1017100027FBB1E700F054FBAEE7C046F80300201A
:101720008C02002045FBFFFFF80100205C02002036
:101730009402002088020020F40200209002002081
:10174000F0020020E002002044030020EC02002010
:1017500038020020F4010020E45900088302002030
:10176000F0000020D10200206C02002010030020B5
:10177000E6020020294B70B51B68002B42D0284B95
:101780001A680F231100194101293FD0013B082B92
:10179000F8D10021234B196093B2180A190941406E
:1017A00059400F231800120188431F4902430A6061
:1017B0001E4910130C5C18001040085CE40304433D
:1017C000101218401211085C1A408B5C800204430E
:1017D0005B01174E1C43174B30001C604023132144
:1017E00001253362243000E004302A008A40224080
:1017F000CA409B0953409B0103600139F4D2002386
:10180000F36170BD0C4A064B1A60BAE7083B1A41F7
:1018100004490B6059020A43BEE7C046EC020020AF
:10182000400300203C0200201C0300203C5A00081A
:10183000F800002020030020FFFF00009023DB05BC
:101840001A6819490C201140802252030A431A6079
:101850008022D2009A621A68144911408022D20272
:101860000A431A60802292009A621A681049114055
:10187000802252020A431A6080220E4952009A6264
:101880000A688243043802430A600A6805388243C2
:10189000013802430A601A68074911408022120287
:1018A0000A431A607047C046FFFFCFFFFFFFF3FFF8
:1018B000FFFFFCFF00040048FF3FFFFF0E4B0F4AF5
:1018C0001B78002B10D1032113688B4302390B4383
:1018D000136091629021C9050B68094A1A40802360
:1018E0001B0313430B607047032113688B430139BB
:1018F0000B431360EEE7C046DE0000200004004802
:10190000FFFFF3FF114B1B78002B14D19023DB0555
:101910001A680F4911408022D2010A431A608022BE
:101920009A629021C9050B680A4A1A4080239B02DB
:1019300013430B6070479021C9050B68044A1A4095
:1019400080231B0213430B60EBE7C046DE00002040
:10195000FF3FFFFFFFFFFCFF0E4B0F4A1B78002BE2
:1019600011D10C2113688B4308390B4313600223F8
:1019700093629021C9050B68084A1A4080239B0393
:1019800013430B6070470C2113688B4304390B43DE
:101990001360EEE7DE00002000040048FFFFCFFFE9
:1019A0000C211C4A1C4813688B4308390B431360F5
:1019B000022393629023DB051968084080214903C4
:1019C0000143196080210320C90099621168814395
:1019D00002380143116090621A6810491140802258
:1019E000D2020A431A60802292009A621A680C4955
:1019F00011408022D2010A431A6080229A621A683A
:101A000008491140802252020A431A608022520083
:101A10009A62704700040048FFFFCFFFFFFFF3FF0B
:101A2000FF3FFFFFFFFFFCFF10B506282CD8704BCF
:101A300080001B589F46FFF78FFF03216D4A1368F4
:101A40008B4302390B43136090239162DB051A68C4
:101A5000694911408022D2020A431A608022920012
:101A60009A621A68654911408022D2010A431A60BD
:101A700080229A611A6862491140802252020A4308
:101A80001A60802252009A6210BDFFF765FF0321A1
:101A9000584A13688B4302390B43136090239161BA
:101AA000DB051A68544911408022D2020A431A60A9
:101AB000802292009A621A68504911408022D20115
:101AC0000A431A6080229A62D4E70C21494A4D48A1
:101AD00013688B4308390B431360022393629023EE
:101AE000DB05196808408021490301431960802102
:101AF0000320C900996211688143023801431160D3
:101B000090611A683C4911408022D2020A431A604F
:101B1000802292009A62FFF7F5FEB5E70C21354A64
:101B2000384813688B4308390B43136002239361D1
:101B30009023DB051968084080214903014319609F
:101B400080210320C9009962116881430238014352
:101B500011609062D5E70C21264A90241368E405B1
:101B60008B4308390B431360022393612368254A92
:101B70001A4080235B03134323608023DB00A362AE
:101B8000FFF79CFE23681D4A1A408023DB011343A4
:101B900023608023A3622368194A1A4080235B02D2
:101BA0001343236080235B00A3626DE70C21114A7D
:101BB00090241368E4058B4308390B431360022318
:101BC000936223680F4A1A4080235B031343236008
:101BD0008023DB00A362FFF771FE2368074A1A40E7
:101BE0008023DB01134323608023A361D3E7C04636
:101BF0004C5A000800040048FFFFF3FFFF3FFFFFBF
:101C0000FFFFFCFFFFFFCFFF0C211C4A1C4813689D
:101C10008B4308390B431360022393619023DB0548
:101C2000196808408021490301431960802103207D
:101C3000C9009962116881430238014311609061C3
:101C40001A68104911408022D2020A431A60802289
:101C500092009A621A680C4911408022D2010A430C
:101C60001A6080229A611A68084911408022520243
:101C70000A431A60802252009A62704700040048AA
:101C8000FFFFCFFFFFFFF3FFFF3FFFFFFFFFFCFF63
:101C900010B5FFF761FEFFF711FEFFF733FE10BD31
:101CA000031C0B2800D90B23014A5B0013707047FB
:101CB0002403002010B572B6124B134C1B7803207E
:101CC0006363A363E363FFF7AFFE3723C820A36218
:101CD00002F04CF90520FFF7A7FE2823C820A362D5
:101CE00002F044F90620FFF79FFE1923C820A362E3
:101CF00002F03CF9FFF754FE0023044AA36213608C
:101D000062B610BD24030020002C0140F402002024
:101D100070B572B60F4B104C1B7803206363962589
:101D2000A363E363FFF780FE19236D00A36228001D
:101D300002F01CF90620FFF777FE37232800A36284
:101D400002F014F9FFF72CFE0023044AA36213608B
:101D500062B670BD24030020002C0140F402002074
:101D600070B572B63C23114C114D124E01202E60FD
:101D7000A362114B1B786363A363E363FFF754FE15
:101D80004B2002F0F3F850234B20A36202F0EEF850
:101D90005A234B20A3622E6002F0E8F8FFF700FE02
:101DA0000023064AA362136062B670BD002C014096
:101DB00000300040AAAA000024030020F402002002
:101DC00010B572B6114A124B124C1A605023A3621E
:101DD000114B03201B786363A363E363FFF724FEC7
:101DE000642002F0C3F846236420A36202F0BEF828
:101DF00028236420A36202F0B9F8FFF7D1FD002385
:101E0000064AA362136062B610BDC046AAAA0000CB
:101E100000300040002C014024030020F402002088
:101E20000E4A0F4B10B51A6032230E4C0220A362EB
:101E30000D4B1B786363A363E363FFF7F5FD642039
:101E400002F094F81E236420A36202F08FF8FFF7DB
:101E5000A7FD0023054AA362136010BDAAAA0000D3
:101E600000300040002C014024030020F402002038
:101E70000E4A0F4B10B51A6028230E4C0220A362A5
:101E80000D4B1B786363A363E363FFF7CDFD642011
:101E900002F06CF850236420A36202F067F8FFF7A9
:101EA0007FFD0023054AA362136010BDAAAA0000AB
:101EB00000300040002C014024030020F4020020E8
:101EC000F8B572B67724104B104D1B78104F114E99
:101ED0006B63AB63EB63142120003E60FFF7A6F950
:101EE000FFF7A2FD63100A330A20AB62023C02F046
:101EF0003DF8631CEFD1FFF753FD0023064AAB62A8
:101F0000136062B6F8BDC04624030020002C0140D7
:101F100000300040AAAA0000F4020020234B10B5B4
:101F200005CB234B101AC2189C2382B0DB009A42C7
:101F300014D9204B18682049204A0B681268C41A2B
:101F4000944203DD9B180B6002B010BD1C1AA24224
:101F500002DA9B1A0B60F7E70860F5E7184B1B786D
:101F6000002B0ED0174B1A88904211D8164B1988A7
:101F7000FA239B000093002301F0D6FF0D4B18605D
:101F8000D9E7124B1A88104B1988FA23DB00F1E7C6
:101F90000E4B511C1C88FA23DB00009322000C4BD3
:101FA00001F0C2FF034B1860C5E7C046F8030020EC
:101FB0007BFCFFFF28030020E0020020C00000207F
:101FC0006C0200209E0100209C0100209A0100204C
:101FD000E903000010B5324B1B78002B03D0314AC7
:101FE0001278002A06D1304A1278002A44D0012AF9
:101FF00007D010BD2D4B1B78002B1CD002F078F8B9
:10200000F7E7002B08D12A4A2A4913600A68002AF8
:102010003ADB3AD0284A1360224B1B78002B11D0B0
:10202000224B1B78002B2CD0FFF7A4FBFFF740FAC4
:1020300002F05EF8DDE702F09FF8FFF79BFBFFF789
:1020400037FAD6E71D4B1B78012B23D01C4B1B788E
:10205000012BCED1FFF762FF00220A21144B1A6038
:10206000184A136A8B43136202F042F80421164A9D
:1020700013680B431360BCE702F0BEF802F038F8B7
:10208000B7E702F079F8B4E70B600B4A1368013345
:102090001360C1E7FFF70CFA02F02AF8D6E7C04652
:1020A0005C02002094020020D002002014030020D3
:1020B000F4020020E403002010030020840200202A
:1020C000F10200200040014058000240BFF34F8F52
:1020D000034B044ADA60BFF34F8FC046FDE7C046AA
:1020E00000ED00E00400FA05F8B5902501F0D0FFFE
:1020F0003022FA20FA240427ED05EB688000934390
:10210000103A1343EB6001F027FF0E4EA4002B6939
:102110001F4202D13388013333800A20013C01F091
:102120001BFF002CF3D190223021D205D3688B43C2
:10213000D3603388052B00D9F8BDFFF731FCFFF7DA
:10214000C5FFC046D8020020F0B5C64600B5714CA8
:1021500030222000704982B002F096FF637C6F4EFF
:10216000013B5A4253416E4A1370A37C013B5A42D1
:1021700053413370E37C012B01D16A4A1370237DF4
:10218000694D013B5A4253412B70637D013B5A42DA
:102190005341664A1370A37D013B5A425341644A3E
:1021A0001370E37D032B00D90223624A1370207E53
:1021B0000300183B182B00D89AE05F4B5F4A13804E
:1021C0005F4AD362637E1A00323A642A00D984E0FF
:1021D0005B081A005B490A3209780F3352185A49D2
:1021E0000A605A4A13805A4B28229846A37E594FB8
:1021F0005343424614331380E37E05203B70237F14
:10220000013B5A425341544A1370637F013B5A4287
:102210005341524A1370FFF743FD6378002B37D0C8
:10222000A07F0B2860D8FFF73BFDE37F013B5A42BC
:1022300053414B4A13702023E35C4A4A7833FF33FF
:102240005B001380484A21239446E35C474A634479
:102250005B001380464A22239446E35C454A63446C
:1022600013802323E25C444B1A702423E35C013B7C
:102270005A425341414A13702523E35C404AFA33E2
:1022800013802623E35C012B40D000223D4B1A70C3
:1022900043461B88397810209846FEF7C7FFC821AF
:1022A00004004046FEF738FF210080B2FEF7BEFF73
:1022B000354B642118604046FEF72EFF80B22100A6
:1022C0002830FEF7B3FF314B18602B78002B00D17C
:1022D000337002B080BCB846F0BD96221A4B1A602B
:1022E0001A4B413A1A807EE70520FFF7D9FC9CE79C
:1022F000274B3022009318210F4B01F015FE254B80
:1023000018800F4B0004000CD8625BE71D4A137065
:10231000BEE7C0469C020020007C00086C02002042
:102320008302002004030020DE000020C6000020FD
:10233000AC010020C8000020CF070000B801002039
:10234000002C0140A4010020880100208C01002005
:102350008E010020900100206D020020FA02002072
:10236000500200209C0100206B0300009A01002015
:102370005E0500009E01002098010020420200201E
:102380007401002048020020780100207001002024
:10239000E7030000C400002010B5164B16481B7858
:1023A0003021013B5A4253414374144B1B78013B8B
:1023B0005A4253418374124B1B78013B5A4253419A
:1023C000C374104B1B78013B5A42534103750E4BAB
:1023D0001B78013B5A42534143750C4B1B78013B20
:1023E0005A42534183750A4B0A4A1B78C37502F05F
:1023F000BFFD10BD830200209C0200206C02002063
:1024000004030020DE000020C6000020AC010020F4
:10241000C8000020007C00080D4B1B78002B08D062
:102420000C4B1B685B0408D40B4A13680133136020
:102430007047084B1B685B04F6D4084A13680133E5
:102440001360022BF4DD0022034B1A60F0E7C04654
:10245000920100201C000140500300206402002073
:1024600070B52D4C2D4D21782D4A2D88481E4300E6
:102470009D52558813885B1995885B19D5885B191F
:10248000158952895B199B18264A5B101360264BED
:102490001B68012B2BD0C0B2002821D00123207053
:1024A0001940224B1970224B1B78002B2BD001F0C6
:1024B00089FDFA231F4ADB0012689A4208D91E4B95
:1024C0001E4A1B781278134302D001221C4B1A704B
:1024D00000231C4A13601C4A13601C4A136070BD21
:1024E0000623012223701A4B01211A70D9E701310A
:1024F000C9B206290BD821700B400C4A13700C4B43
:102500001B78002BD3D12078FFF78EFACFE7104A43
:10251000237013700123F0E7A5010020DC000020E8
:102520007002002040030020F000002092010020F3
:10253000E702002060020020FA020020480200208A
:10254000E4020020500300200C03002000030020C0
:10255000810200200121154A10B5D368144C8B4329
:10256000D360228853009B18124A12889B189B1034
:102570002380FFF775FF104A23881278D9084A4351
:102580000E495B089B1A0A600D4A13600D4B1B78BD
:10259000002B07D00C4A0D4913688B4201DC013334
:1025A000136010BD01F004FDF4E7C04600200040B8
:1025B000DC000020DA030020C800002058020020C0
:1025C00008030020E4020020F40300200F2700008D
:1025D000344B10B51B687D2B12D98023DB055B6A59
:1025E0007C2B36D98023DB055A6A2F4B1B885B086E
:1025F0009A421DD32D4A136801331360642B4BDCC0
:102600008023DB055A6A2A4B1A802A4B1B78002B41
:102610000FD0294B1968002927DD80200023274C83
:10262000C00102E001338B421FD022680242F9D080
:1026300010BD214B19680023002916DD80201F4C96
:10264000C00102E001338B420FD022680242F9D16F
:10265000EEE796231A4A9B0012689A42C2DA194A98
:10266000643B12689A42BDDAE2E701F097FC01F0A0
:102670009FFC80230021DB055962134A134B12781B
:102680001868D0401860124B5962D8621961DA6834
:1026900001310A43DA60CBE701F080FC0022094BEC
:1026A0001A60C5E760020020DC000020FC02002068
:1026B000DA03002092010020EC0000201C00014001
:1026C00098020020F4030020E80000200803002006
:1026D0000020004010B50B4C2368002B05D001F002
:1026E00067FC0122084B1A6010BDFFF7B9FE074BCB
:1026F000074A1A808023074ADB055A6201232360B8
:10270000EDE7C046EC02002094010020DC00002030
:102710001027000088130000F0B5DE4657464E46ED
:102720004546E0B5AA4B85B01B78002B67D1A94C74
:10273000A94DAA4A2B781278134372D1A84B1A7864
:102740009946A84B9846186893009B181B012E3396
:10275000834200DAE0E0A44BA44F0393A44BA54EC0
:102760009A46A54B9B461B78002B08D0012B00D125
:1027700036E2022B00D130E200235A4613709F4B01
:102780001B78002B00D0C2E138683360002804D1E8
:1027900001229B4B1A709B4B18609B4B1B78002BA4
:1027A00000D0FCE1039B994D1B789B462B78002BB6
:1027B00000D15FE15A46002A00D1F2E0944A954DDB
:1027C00091463A68002A00D1CCE0424612682F2A8E
:1027D00000DCC7E0904B1B78002B00D053E28F4BFE
:1027E0001F888F4B9B4636685B46300019887843BC
:1027F000FEF71CFD8B4B013080B21880E0E08A4A66
:10280000744C138801339BB21380A0225200934270
:102810008ED90123704D714A237012782B7813439F
:102820008CD07B4B7B4D9946804B03211868FEF77B
:10283000FDFC7F4E010033782860002B3ED12378C9
:10284000002B5BD14A46C82312885B009A4224D9E8
:10285000C221FF20774A890053581B021B0A53509C
:10286000043153588343BF3803435350724A1368AB
:1028700001331360714A934208DD5B4D2C78002CC4
:1028800000D0CBE16E4A934200DDAEE105B0F0BC72
:10289000BB46B246A946A046F0BDC2208021654A8B
:1028A00080001358C9051B021B0A0B43C321135098
:1028B000FF208900535883435350D7E7614F38684E
:1028C00001F044FB2B685A08904211D9FA22920079
:1028D00093420DD20A214B4A11605B490A780132BA
:1028E0000A705A4A1168CA0F5218414952100A8098
:1028F00000223B6023783270002BA3D0544B554A02
:102900001988554B1878554B1B880093C82301F044
:10291000FFFD01F0D9FD95E7334B03931B78002BA6
:1029200037D0324F3B68002B00D145E1304B9A46FF
:102930004B4B1B88002A00D196E1394A7F2112882F
:102940000092484A01F0F0FA2A4E30604B461A785D
:1029500093009B1842461B0112682E33934200DA03
:1029600020E7FEE6284A1278002A22D0002B20D049
:102970002B4B36681988294B30001F884B1C984612
:102980007843FEF753FC4346181A264B80B2188052
:1029900016E01E4B1B789B46002B67D0144B154E40
:1029A0009A46194B1B78002B00D0F4E0184B194DB8
:1029B0009946002200201B4B36681A80174B1F884F
:1029C00053461E80284BDF6258639863D8632BE719
:1029D00050020020F0020020FB02002040020020F4
:1029E00004030020CC0200205C020020EC02002046
:1029F000D202002098020020E6020020DE00002023
:102A0000E4020020F403002048020020E702002036
:102A1000DC00002060020020C6000020B801002079
:102A2000C4000020340300202C03002040030020B9
:102A30008102002000E100E0F4020020C40900004F
:102A4000A8610000DC030020820200208801002031
:102A500032030020E2040000480300205C03002051
:102A60008C010020FF070000002C0140A34BA44F65
:102A70009A46A44E31683868A34BA44A1D781423A3
:102A800012682B4193420ADDA14B1B688B4201DD8A
:102A900019003360C823AB408B4200DA89E000287C
:102AA00024D0002D22D09B4B9B485D7E984B9B4AA7
:102AB0001D600388128801339BB203809A4215D2AD
:102AC000974B99464A46974B12889A4200D80BE199
:102AD000954B9C461B8801339BB2C82B00D8FDE068
:102AE000C823624613800023038001E08C4B994683
:102AF0008E4B1B688B4200DA33608D4B1B78002BAA
:102B000028D15A468B4D002A00D05AE651E73B683F
:102B1000002B0FD10121884A336011707B4A13606A
:102B2000864A1360864B1B789B46002B00D1A5E09C
:102B3000FFF76AF80022834B1A60834B77321A60E2
:102B4000824B78321A604B461B78012B00D029E665
:102B50002B7027E6FA23774D5B002A689A4239D911
:102B60000A200A217A4B1970534631681B88CA1A09
:102B700082426BDD4A461B183360FA2311885B00E2
:102B8000994268D901215A46724B19700023002AD4
:102B900000D016E60DE7624B664D9946E8E66E4DAD
:102BA0002B78002B00D081E0039B00211B789B46F3
:102BB00062E71900336072E75F4B1B78002B00D18E
:102BC00085E001233B604D4B9A465146504B1B68B4
:102BD0000B80ADE61E201E21C4E7FFF749F9CBE5C7
:102BE000FFF71EF95B461B78C3E5FEF7D9FE00220E
:102BF0005A4B2C701C605A4B1C705A4B1C605A4B21
:102C00005C639C63DC63594B9C625C62584B591C4F
:102C1000FF3104C39942FCD1FFF758FAFEF7C0FE1A
:102C200000224E4B2A701A604D4B1A704D4B1A60A1
:102C30004D4B5A639A63DA634C4B9A625A624C4B1F
:102C4000591CFF3104C39942FCD1E5E7591A81426E
:102C500001DD1B1A336000215A463E4B19700023D8
:102C6000002A00D0ADE5A4E6424A2F211288009246
:102C7000414A01F059F9234E306067E6FEF790FEB5
:102C80005B46336056E749463A4B08881A889B46AC
:102C9000009253086021C82201F046F9374B87B2F1
:102CA0001F801C4BDA7D364B1A709CE5FA20354BA1
:102CB0008000196801F04AF9FA239B009C466044A1
:102CC0003060FEF7BBFD039B1B789B466EE5FFF76C
:102CD00001FD4B461A784346186872E7AD089D42DD
:102CE00008D963461D80FEE60F4B9C461B88013BBE
:102CF0009BB2F2E662461380F5E6C046D20200209F
:102D0000EC02002098020020FA020020F4030020C8
:102D1000880100209C02002006030020BA01002048
:102D2000DC000020102700008C010020E4000020BF
:102D30007E01002060020020E402002064020020E6
:102D40006D02002038030020F0030020E80300207B
:102D50007D010020E8000020E7020020CC020020D6
:102D6000D002002010030020002C01400040014050
:102D7000F8030020C4000020FF070000B801002075
:102D8000C8000020E0020020F8B5694B1A68002A4C
:102D90005AD1B420674940000B6801330B6083426D
:102DA00000DB9BE0B424644A9B009858634A4000CF
:102DB0001368640001331360A34200DB98E05E4AAD
:102DC0009B009C586400B4265D4A7600136801336A
:102DD0001360B34252DB002313605A4B1B78002B65
:102DE00054D1594B03211F68FEF720FAFA21C2196A
:102DF0005001801A800080180001801AC900FEF777
:102E000015FA524D032168632000FEF70FFAFA21EC
:102E1000C2195001801A800080180001801AC90070
:102E2000FEF704FA0321A8633000FEF7FFF9FA2148
:102E3000C7197801C01B8000C0190001C01BC90060
:102E4000FEF7F4F9E86348E03A4A1368013B13607F
:102E5000002B50DB384A9B009858384A40001368D2
:102E6000013B1360002B51DB334A9B009C58344AD2
:102E700064001368013B1360002B52DB2E4A9B0059
:102E80009E5876002F4B1B78002BAAD0FA212E4B90
:102E9000C9001F682D4D381843011B1A9B001B18D1
:102EA0001B01181AFEF7C2F9FA213C196863600188
:102EB000001B800000190001C900001BFEF7B6F9D5
:102EC000FA21BE19A8637001801B800080190001DF
:102ED000801BC900FEF7AAF9E863F8BDB4240A60B4
:102EE000164A6400136801331360A34200DA66E7F0
:102EF0000023136067E76823B120FF3313600F4A94
:102F000040001368013B1360002BADDA6823B12445
:102F1000FF3313600A4A64001368013B1360002BFF
:102F2000ACDA6823B126FF3313607600AAE7C04607
:102F3000F000002038030020685A0008F003002049
:102F4000E803002041020020F4000020002C014092
:102F5000F8B58027FF057D6A1E4B1F4E1D8000239C
:102F60007B6233882D045800C0182D0C40191B4B70
:102F7000801084B219683480FEF758F9184B640841
:102F80001860184B241A1C60201A7B6A5B1B98423D
:102F9000FBD8FFF765FA0023134A14491360144A5B
:102FA00009781360134A136801331360124A1278C8
:102FB0000A4302D11E2B07DCF8BD632BFCDDFA238C
:102FC0003288DB009A42F7D800220C4B1A7000F0CE
:102FD000EFFFF1E7DA030020DC000020CC00002046
:102FE000580200200803002050030020480200205F
:102FF00064020020F4030020FA020020E402002012
:10300000F0B5DE4657464E464546E0B501248FB042
:1030100001F07EFB01F076FF1021E54B1A6A224396
:103020001A621A6A0A431A628022196A52000A4313
:1030300004211A621A6A0A431A621A6A3C310A4364
:103040001A628022196AD2000A431A621A6822435D
:103050001A608022596C12020A435A645A69224348
:103060005A61D44B1A6A22431A621A6822431A60C0
:10307000D14B1A6822431A605A6922435A61DA68AE
:103080002243DA60DA68A243DA60CC4B1A68224342
:103090001A605A6922435A618023DB051A68224369
:1030A0001A605A6922435A61C54B1A6822431A6052
:1030B0005A6922435A61DA682243DA6002F05EF804
:1030C00002F002F802F030F80023BE4A0D931368B4
:1030D000BD491C43BD4B14601868FEF71DF8030181
:1030E000181A0A218000FEF717F80D900D9B002B8F
:1030F00005D00D9B013B0D930D9B002BF9D1FFF7E4
:1031000023F8B349B34A0B78D078984201D100F044
:10311000C2FED3704B7813710023CC18A478D0185A
:10312000013344710C2BF8D1FFF736F9AA4B1B7809
:10313000002B05D0A94B1B680293029AA84B1A607A
:10314000A84BA9491B78013B5A1E9341A74A13601B
:10315000A74B1A88A74B1A800B78002B01D19E4AE7
:103160001370A54B1B78002B01D000F071FEA34B10
:103170000993A34B0293A34B0593A34B0A93A34B31
:103180000693A34B0B93A34B1B78002B01D100F0AC
:1031900059FE0123029A13709F4B1A0004939F4B10
:1031A0001380FEF7B5FD01F0BBFB9D4B9D4A1A60F5
:1031B0009D4B1B78002B04D00123029A1370864A82
:1031C0001370FEF791FF00F093FF984A9849136837
:1031D00000241B051B0D13600B601268954B120C2D
:1031E00080211A60002349018A425B41E5225B424B
:1031F0009343914AE6331370904B914E9846914B0E
:10320000914D9A46914B924F9B46854B854A1A6049
:103210003368013333600A2B16DD8E4B8E4A1B88D0
:10322000128893420BD365499800496AC0188A1ADC
:1032300040000B218018FDF76FFF864B18805F4B15
:10324000854A5B6A346013802B6801332B60642BE2
:1032500066DC824B1B68824A1460424612689A42BE
:1032600018DA804B1B78002B14D17E4A013313707F
:103270007D4B1B78002B05D17C4B1B78002B01D09C
:1032800000F01DFCFEF79CFD794B1B78002B01D153
:10329000594A1370029B774A1B781278012B00D190
:1032A00026E2002A00D02DE1734A1278002A00D0CD
:1032B00028E153461B683B60564B1B78002B00D11E
:1032C000A2E16E4B38681B78002B00D147E36C4BB2
:1032D000984201DD18003B60454B30211B88694A4C
:1032E0000093002300F020FE674B1860002800DCEC
:1032F000F9E15C4B1B78002B00D1F4E12C4B494ADF
:1033000058639863D863464B1A603368013333605F
:103310000A2B00DD81E72B6801332B60642B98DDDD
:103320005A4A454B10881B78C01A80B2584B1080FF
:103330001A88584B0392190058439946FDF7ECFE42
:10334000039A831A9800C018534B00011988891AF0
:10335000FDF76CFF514B1E3082B21A80504B514921
:103360001878C300181A80184D4BC01018704E4BB7
:1033700018884B465843FDF759FF4C4B64211B7886
:103380005843FDF753FF4A4B4A491A88D3009B1A0A
:10339000C018474BC0101880474B1A8813019B1A5E
:1033A000464A12889B18444A1B11138088E0C04685
:1033B000002C014000400140002000400048014036
:1033C000001000401C000140400D0300D40100200B
:1033D000C01000089C02002004030020A00100206F
:1033E0008801002083020020DE000020F000002081
:1033F000C4000020B801002048020020B4010020D1
:103400006C0200207C010020FA020020AC010020A8
:103410008C01002040020020DC0000208813000006
:1034200000300040AAAA00004102002000580140DC
:10343000440200204C02002058030020D00000204D
:103440007C020020E00200205402002068020020DC
:10345000E4030020D6020020D40200201003002044
:10346000FC0200205C0200206F02002042020020CB
:10347000F1020020E8020020840200206E020020F9
:103480006C070000FF070000CC020020D8030020DA
:10349000B8F7FF1FE40C0000C2F7FF1F3003002045
:1034A00048030020FF0F00003C030020C70000205D
:1034B00032030020E8FFFF7FF8020020E003002035
:1034C000D94A93680B4004210B439360D74B1B7878
:1034D000002B13D0D64B80B21A78D64B1B8853439F
:1034E000984200DB50E2D44BD34A1B8801339BB295
:1034F0001380FA229200934200D933E3CF4B2C6021
:103500001B68A8E6002B00D1D3E653461A68832334
:10351000DB009A4200DB74E11300303BFA218900A2
:103520008B4210D2C64908780121091A8C46C54938
:10353000096803918C4500D1AAE25B002F33C24990
:1035400009785B1A3B602F2A00DDB5E6BF4B0020EF
:103550001C70BF4B3C601B78002B00D0BCE6FA21EE
:10356000BC4A890012688A4200DC9FE25A46136016
:10357000B94B00221B78002B00D108E25B461C608F
:10358000B64B1A60B64B1B78002B76D1B54BB648BC
:103590001968FDF74BFEFA21B44B89001B685843AC
:1035A00003930301181A8000FDF740FEB04B18602A
:1035B000059B1B78002B00D00CE2A64B1B680393E5
:1035C000632B00DDE9E1049B1B880C22A9490A60FA
:1035D000632B02D80223A74A1360A74B1B78002B4A
:1035E00003D0A64BA34A1B781360A54B1B78002B76
:1035F00000D180E19D4B1B680393002B00D05DE15F
:103600008023DB055B6A00E6FA2092493A68096884
:103610008000814200DDECE0002A00D1CFE0642987
:1036200000DDE8E0974B1B78002B02D09F2A00DCDE
:10363000CFE0894B1878002800D1D1E0C8235B0087
:103640009A429BDB904B19786423434301334B43ED
:10365000594609688B4293DA069B1B78002B8FD062
:10366000FEF79EF900F09AFC7C4B5A461C606623DC
:1036700013607B4B1B78002B88D0844B1B789946BA
:10368000002B00D0B9E1754B1B68302B00DC9AE1B0
:103690007F4A1278002A00D195E1313B572B00D99F
:1036A000FAE200F07BFCFEF7F3FAFFF76DFB794BD3
:1036B00079481B7819009946FDF7B8FD0390C3209F
:1036C000664A4946126880000792FDF7AFFD039BEA
:1036D000009089223021079800F026FC6F4B18607B
:1036E00000F03AFC91E56E4B5C639C63DC638CE517
:1036F000002A00D009E76B4A1278002A00D004E7BC
:1037000069490978002900D1FDE1684950460978E6
:10371000006849008C46FA21890061448146814253
:103720001DDA47480078844646480068039084457F
:1037300000D12EE35E4B1B78002B00D0BCE5FA22B3
:103740005C4B48460093D2002F2300F0EDFB574B13
:1037500038601B785B009C4653461B689946FA22EA
:1037600063469200D21A4A4500DC2AE30121344B19
:103770001B78C81A8446334800680390844500D1FA
:10378000FEE24B4B1B78002B00D095E52F334846CB
:1037900000930021474B00F0C7FB52461268434B91
:1037A0009146FA221B7892005B003860D21A4A4593
:1037B00000DD81E5FA2292009446634404E35B460F
:1037C0001A6064291ADC2F4B00221B78002B00D1D1
:1037D0002FE75B461C60204B1B78002B00D0CDE60A
:1037E000952A00DCD3E00A23274900200B700A2128
:1037F0002AE759460B60C72A00DD13E75B461C60C9
:1038000010E70F4B0F491B78096803918B4200D1D9
:1038100030E1294B0C489C4613000078510061446C
:10382000091A303B396079E6002401404202002049
:103830006F02002074010020DA0200201003002033
:1038400083020020F0000020910100206E02002081
:1038500040020020F403002080020020CC0200205F
:10386000FB0200204003002040420F00EC02002039
:103870005C030020EC000020DC0200207601002028
:10388000E402002004030020D400002041020020B4
:103890005C02002090010020581B0000A8010020BD
:1038A000002C0140840200204802002098010020E2
:1038B000E7020020FF070000FFF7FFFF00F06EFBAC
:1038C000FEF7AAFDD04B1B680393002B13D1CF4BFF
:1038D0001B78002B00D140E2CD4B1B680393CD4BEE
:1038E0001B680793079A039B934204DD0123C64A92
:1038F0001360FFF72DFB8023DB055A6AC64B9A4203
:1039000000D882E4C54B1B689946012B00D07CE4AB
:103910005B465A461B6801331360FFF719FB00F042
:103920003DFB4A46BE4B1A70BC4B1C60BD4B1C6035
:10393000BD4B1B78002B00D167E40A9B1B78002B42
:1039400000D162E46E23B94A13600B9A13880A33DC
:103950009BB2502B01D950230B9A138055E4302889
:1039600000DCB9E4B24B1B680393002B79D0FEF75F
:1039700017F80A2000F0F0FA0620FEF755F80123A8
:10398000AC4A38681370A2E4AB4B1C80B6E56423E4
:10399000AA4900200B70642156E6FA22049B5200CB
:1039A0001B88934200D910E6A54B64211B68039342
:1039B000082303980093053B00F0B6FAA14B18606A
:1039C000049B1B8804E6A04B5C639C63DC63FEF7EE
:1039D0001BF91AE49D4A099B12681B6803929C4AD2
:1039E000126807929B4A0799126808920092039AFC
:1039F00000F09AFA984B1860DFE59623974A5B002F
:103A0000136000F0CBFAFEF743F95346FA21186829
:103A10008900B423884200DCB4E0FA225B00009302
:103A2000D200B43B00F080FA8D4B80B218808D4BF1
:103A30001B88834200D9B3E0834201D3FFF7E5FB43
:103A40007B4B1C60FFF7A0F9844B1B6818000393A5
:103A500000F082FA834B834A1B8801331380FFF7FF
:103A6000D4FBFDF79DFF0A2000F076FA0320FDF756
:103A7000DBFF84E704997C4A0988914200D9B3E0CE
:103A80007A4A1278002A00D0AEE053461A605DE50B
:103A9000049A754B12889A4200D995E0734B1B78B3
:103AA000002B00D090E0524613604FE559460B6062
:103AB000642A00DC87E65B4600221C60B2E5B9217F
:103AC0006B4B49001B8818000393FDF725FB694ADF
:103AD000B923107000229146039A5B009A4201D2EA
:103AE000FFF7D2FBFEF76CF9642000F03FFA624B5F
:103AF000624A1A6001239C465E4BE1441B784B45A9
:103B0000F0DCFFF7C1FB5E4B1A78FA2352009B00F2
:103B1000D11853461868814200DBF2E0594B444A01
:103B20001B7812680392934200D11BE1FA22564B94
:103B3000D20000932F2300F0F7F952463860106846
:103B4000FA224F4B92001B785B00D21A824200DDB2
:103B5000DDE0FA22920094466344834201DAFFF7E3
:103B6000ABFBF3E4494B1C60FDF71AFF00F016FABB
:103B70002A4B2C601C60464B1C60464B1C7000237B
:103B8000FFF769FB0A0000930021002300F0CCF945
:103B9000334B80B21880334B1B88834200D84BE7ED
:103BA0000123234A1360FFF7EFF82C4B1B68180022
:103BB000039300F0D1F92B4B2A4A1B88013B9BB29F
:103BC0001380274A108837E7164B154A1C600123DB
:103BD0001370174B186000F0E1F9164B1C70534638
:103BE0001A685300313BAAE401221149D31A0B6031
:103BF0000C4B1C600A4B1A7000F0D0F90D4B1C7076
:103C000053461A6805E6C0460C03002092010020C6
:103C10005003002084010020C8AF0000EC02002007
:103C2000E4020020F403002080020020880100202C
:103C3000F00000206E020020DA020020D4000020F4
:103C400060020020EC000020002C014070010020E8
:103C500078010020B0010020E4000020A80100202D
:103C6000E2000020E0000020DC050000FB02002054
:103C7000320300206F02002000300040AAAA00009A
:103C80009801002083020020FF070000CC020020E2
:103C9000100300205C020020FFF776F8824B1B68BF
:103CA0000393C82B51DC814B186800F055F9804B09
:103CB0001B68002B01D0FFF7A8FA7E4AFF20137083
:103CC0000122914649467C4A11607C4A1170049950
:103CD0007B4A0A807B490A608021C9054A627A4A88
:103CE00013607A4B7A4A1B6818401370FDF79CFEEC
:103CF0004946784A53690B435361FFF729F9FFF7A7
:103D000084FAFA239B009A1A904200DB1EE4724B5D
:103D1000197801235B1A9C46704B1B6803939C45E2
:103D200041D02F23002100936D4B00F0FDF8524647
:103D300038601068FA226B4B92001B785B00D21A35
:103D4000824201DDFFF7B8FA03E74A46584B50209C
:103D50001A605023554A1360A7E7634B1B6803930F
:103D6000624BBDE50498624A0088904235D8514ABA
:103D70001278002A31D1FA20534680001860D5E627
:103D80004D480068002852D05A4B3C601970FFF72C
:103D900093FA3A60484A12680392002A4DD0554A75
:103DA0001370FFF789FA0498514B008898422AD87B
:103DB000404B1B78002B26D1FA2053468000186018
:103DC000AFE7FA239B006344994501DDFFF774FADE
:103DD000484B3C601C70FFF76FFA01223F49D31A31
:103DE0000B60394B1C60354B1A7000F0D7F8424B12
:103DF0001C70534618683B4B1978FA239B009C466D
:103E00004900614492E6304B2C4A1C600123137038
:103E1000324B196000F0C2F8374B1C7053461868DB
:103E2000304B1A78FA2352009B009A1A79E72B49F3
:103E300038600B602F4B1B78A5E462469B1A274A1B
:103E4000136077E4FDF736FF2C4B0493FFF7ABF9D3
:103E50002B4B2C481A000993FA239B001360012274
:103E6000294B1A7002930023037028480B700270CC
:103E700005902748037027480270274A0A9013705C
:103E8000264B06920B931A0064231380244A503366
:103E90001360FFF778F94C781079844201D0FFF76E
:103EA00038F9FFF743F9C046CC020020A8010020F2
:103EB00038030020FB020020EC020020E402002076
:103EC0002823000060020020F4030020D800002016
:103ED000A5010020002C014083020020F0000020FA
:103EE000FF070000980100205003002080010020FF
:103EF000DC050000E70200206E020020DC0000204C
:103F0000B4010020040300206C0200207C0100208A
:103F1000C6000020FA020020AC0100208C01002025
:103F2000880100207047C04610B51C00884200DAA6
:103F300008001300824200DD030002985B1A001B98
:103F40005843511AFDF772F9001910BD0300401AC9
:103F500000D5C81A7047C0460023034A5362536A0B
:103F60008342FCD37047C046004801400022012133
:103F7000084B5A62084A9A625A690A435A615A6A55
:103F80008242FCD3302201219A625A690A435A6163
:103F90007047C0460048014080BB0000034B1A68D0
:103FA00000221A60802292035A6170470004014087
:103FB0008023034A9B0311680B4313607047C0467C
:103FC00000040140164B1B78012B25D0042B23D075
:103FD000022B1DD0052B1BD0032B0CD0062B0AD097
:103FE000104B1B78002B0DD000220F4B9A608022C3
:103FF0009203DA60704741220C4B1A60094B1B7820
:10400000002BF1D1084AD36080239B039360F1E732
:104010005121064A1160DFE76121044A1160D7E7A8
:10402000A501002092010020000401401C00014075
:10403000104A114913680B4010210B431360802272
:104040000E4B5202D9680A43DA60DA680C490A401A
:10405000DA6060220B4B01219A615D3A1A620A4ACA
:1040600012789A623D22DA62084A11705A690A434C
:104070005A61704758000240EFBFFFFF0010024036
:10408000FFFFFEFF00400140FC040020140300205D
:104090000F4A104913680B40136080220E4B5202E6
:1040A000D9680A43DA60DA680C490A40DA6001210B
:1040B0000A220B4B99611A620A4A12789A620A4ADA
:1040C000DA625A690A435A610022084B1A70704733
:1040D00058000240EFBFFFFF00100240FFFFFEFF4D
:1040E00000400140C8010020FFFF00001403002031
:1040F00010B5FFF7CDFF0022194B1A485A621A4B30
:104100001A491A680240102A26D0194A9A60D960C2
:10411000154B18495A680968120C12040A43022107
:104120005A601A680A431A601A6806310A431A600C
:104130001A6807390A431A608022094B9200D8682E
:104140001043D860D8680243DA601A6A0A431A62D8
:104150001A680A431A6010BD054ADA609960D7E709
:10416000004001401040000058000240F8030020C9
:1041700034400140C001002010B5FFF759FF194B32
:1041800019481A6819490240102A27D0184A99601C
:10419000DA601E21134B5A68120C12040A435A604B
:1041A0001A681C390A431A601A6806310A431A60F1
:1041B0001A6807390A431A6080220E4B9200D868A9
:1041C0000243DA601A6A0A431A628022586C1202A9
:1041D00002435A641A680A431A6010BD044AD9603F
:1041E0009A60D6E75800024010400000F800002016
:1041F0003440014000400140F0B54F464646D646A7
:10420000484B494CC0B59A461C60484B484D9C46AB
:10421000002362461360474A290013709146464ABC
:1042200000261370454A002090460027137008C9E5
:104230007C350A689A4206D0D31AA34201D21C00E8
:1042400001270126C018043113008D42F1D1002F3F
:104250003FD053461C60A31E002E41D06246400949
:104260001060012B19D813283ED9FA239B009C42D9
:104270000BDD0123424613702F22314B1A70314B54
:104280000C3A1A60304B213A1A6001222F4B1A70F7
:10429000E0BCBA46B146A846F0BD231F032BE4D8C4
:1042A0001328F2D801234A461370254A1370284A6E
:1042B0001370284B284A5A622C22284B1A70284B1C
:1042C000284A1A601F4B284A1A6020221E4B1A6087
:1042D000DBE7002E21D063464009134C1860C4E789
:1042E00062461660012B14D80023154A1370184A31
:1042F00013704A46013313702C22184B1A70184B56
:10430000184A1A600F4B184A1A6020220E4B1A6086
:10431000ABE7231F032BC5D9A7E76346024C1E60FA
:10432000A3E7C04618030020204E0000F804002038
:10433000F803002084020020E5020020F1020020A2
:10434000C8010020D0000020C0010020D0020020C1
:10435000FC04002000400140FFFF0000BC010020E1
:10436000C4010020E8FD000010270000F0B591B066
:104370001C22002109A8FDF769F88020434BC001E9
:10438000996900250143996180219A69C902024017
:104390000292029A5A6901260A435A615B694027D0
:1043A0000B400193019B0223394C049303A9013371
:1043B00038480593069607960895039701F044FA46
:1043C0002368354AC6201340102213432360236814
:1043D000324AC02113402022236023688000934387
:1043E000236023686032BB432360236809061343BC
:1043F000236023682A4A134023602368294A134014
:10440000294A236013581B021B0A0B4313508023B5
:104410001B051360E1235B02099308230A950B95A2
:104420000C950E950F95214D09A928000D9300F0CC
:10443000DDFFAB681E4A1F481340AB606B681E4A25
:104440001E4913402A226B60AB689343AB602B6814
:104450001B4A1E432E6023680340102B13D0A1601B
:10446000E2600B4B17495A680978120C12040A4390
:1044700002215A601A680A431A601A6806310A4310
:104480001A6011B0F0BDE160A260EAE700100240DE
:104490001C00024000040048EFBFFFFFFFCFFFFFFA
:1044A000FFFCFFFFFFF3FFFF00E100E000380140E9
:1044B000FFFBFFFF10400000FFB7FFFF00050020DB
:1044C00028380140C90100200C2008210D4B10B5EF
:1044D0001A680D4C82430A430C491A604A682478D2
:1044E000120C1204224380244A609A6822439A6084
:1044F0000A687F3C22430A6004211A6882430A4307
:104500001A6010BD00380140C90100201C000240A3
:10451000F0B505AC164E24880D0A3700B170327123
:10452000110AB3711A0A230A7570F3710725002363
:1045300034723070F1707271741C09370822434074
:1045400004E0013AD2B2DBB2002A09D059B25B00D2
:104550000029F6DA013A6B40D2B2DBB2002AF5D17B
:10456000A74202D020780134E8E77372F0BDC0465C
:10457000000500207047C046FEE7C0467047C046B1
:104580007047C0467047C046094B1A6892060AD564
:104590000021084A1170102201215A60064A13684E
:1045A0008B43136070471A681206FBD5F3E7C046C9
:1045B00000000240F00200201C0002408022164B46
:1045C000D202196810B5114203D0144909780029A4
:1045D0000AD1114B1A68920312D41A68120302D539
:1045E000802252025A6010BD0A240D48016AA1437C
:1045F000083C214301625A60074B1A689203ECD5CC
:104600008022012152025A60064A13688B431360CC
:10461000FDF7E0FCE7E7C04600000240F1020020A1
:1046200000400140580002408022054B9203596926
:1046300010B5114200D110BD5A61FDF7C9FFFAE76C
:1046400000040140054B10B51A69D20700D410BD13
:10465000022252421A61FEF75FF8F8E700100040AC
:10466000022210B5024B52421A61FDF773FF10BDD2
:10467000002000407047C0467047C046074B1A698B
:10468000920702D5032252421A61044B1A69D207DB
:1046900002D5022252421A617047C04600400140D2
:1046A000074B1A69920702D5032252421A61044B42
:1046B0001A69D20702D5022252421A617047C046D7
:1046C00000040040084B10B51A68920706D408226F
:1046D000054B19680A4200D05A6010BD01225A6089
:1046E00000F0DEFCF3E7C04600000240074B1A6909
:1046F000920702D5032252421A61044B1A69D2076B
:1047000002D5022252421A617047C046002C014075
:1047100000B51B4B1B4883B01B4A9A1802CB116093
:104720008342F9D101230320184A91691943916109
:10473000926913400193019B154B196881431960DD
:10474000FA211A68890002431A60124B1868FCF7B4
:10475000E3FC802301385B04984200D3FEE7C021CC
:104760000D4A090650600D48036A1B021B0A0B43E1
:104770000362002393600733136062B603B000BD89
:1047800000100008C010000800F0FF1700100240E1
:1047900000000140D401002010E000E000ED00E046
:1047A0000122364910B50B68934313430B600B6825
:1047B0001A425FD00121324A13680B431360013162
:1047C00013681942FCD0F82113688B4378390B43E6
:1047D0001360536B7F390B435363294A0131536B89
:1047E0001942FCD0F821536B8B4378390B43536348
:1047F000536A7F390B435362214A0131536A19428C
:10480000FCD053681F491940A0239B030B430F2181
:104810005360D36A8B43D362802311685B040B43DC
:1048200080211360164A890413680B42FCD0F021E2
:104830005368134C8B435360536813490B40032157
:10484000536053688B4301390B4353600C226368F8
:104850001340082BFBD10D4800F024FE0B4800F05C
:1048600031FE0422636B93436363236B013A9343EA
:10487000236310BDFFF756FB9CE7C04600200240B3
:1048800000100240FFFFC2FFFFF8FFFF006CDC02D8
:1048900070B58EB01822002102A8FCF7D7FD1022B7
:1048A00000210AA8FCF7D2FD80201A4A8002516933
:1048B000902501435161536900240340019303266D
:1048C000019B0223ED0508A92800089309960C9482
:1048D00000F0BAFF202308A92800089309960C9439
:1048E00000F0B2FFC321FF200B4B89005A588243CE
:1048F0005A50802252011A60502302A9074802949C
:104900000394049305940694079401F01FF80EB0E5
:1049100070BDC0460010024000E100E01C000140F4
:10492000094B0A4A07211A60094A1A6002225A6092
:10493000FA2212019A60DA681142FCD1054A1A6122
:10494000054A1A607047C04600300040CCCC0000D9
:1049500055550000FF0F0000AAAA0000F0B5DE4682
:1049600057464E464546E0B59DB01422002103A8A7
:10497000FCF76CFD2022002114A8FCF767FD18222B
:10498000002108A8FCF762FD182200210EA8FCF700
:104990005DFD8022794E1201B36900241343B36197
:1049A000B369904613400293029B6B469C81744B03
:1049B0006A4605930023734D03A9280013770494D6
:1049C000069400F085FD80222B68914613432B60EE
:1049D000AB686D4A012113400822AB60AB69924677
:1049E0001343AB61602314AA280014931594169402
:1049F0001794189419941A941B9400F0B3FD042290
:104A0000AB69934693434246AB61AB6910211343B4
:104A1000AB6114AA28001594169400F0A3FD51462A
:104A2000AB695A4A5A4F1340AB617B6828000B436D
:104A30007B6080235B009A4614AB1A0051461594A4
:104A4000169400F08FFD59467B6828008B43414641
:104A50007B607B6815940B4380217B6014AB1A004C
:104A60004901169400F07EFD7B68484A2C211340D2
:104A700070227B606B68802793434A466B60AB680B
:104A8000BF0193436A46AB602D23521813706B46E7
:104A900008A92800DC85089409940A940C970D94C1
:104AA00000F076FE8021726989020A43726173699F
:104AB00002250B4080210193019B7269C9020A43C0
:104AC0007261736990260B400093009B4B46F6057C
:104AD0000EA930000E930F95109411941294139513
:104AE00000F0B2FE01230E932A4B0EA9984618003F
:104AF0000F95109411941294139500F0A5FE0EA931
:104B000040460E950F95109411941294139500F051
:104B10009BFE53460EA930000E930F9510941194EE
:104B20001294139500F090FE80230EA99B00300094
:104B30000E930F95109411941294139500F084FE27
:104B400080230EA9DB0030000E930F951094119472
:104B50001294139500F078FEC3200F4B80001A5872
:104B60000E491140802212020A431A501F601DB0E4
:104B7000F0BCBB46B246A946A046F0BD00100240BC
:104B8000CF070000002C0140F8BFFFFFFFFBFFFF35
:104B9000182C01400004004800E100E0FF00FFFF86
:104BA00030B587B001AD142200212800FCF74EFC7F
:104BB0000123134A8024D169E4051943D161D269E4
:104BC000290013400093009B17232B8000230D4ADC
:104BD00020006B60AA60EB6000F07AFC8022236802
:104BE000094993432360A3680B407021A360636865
:104BF0008B436360A3689343A36007B030BDC04696
:104C000000100240FFFF0000F8BFFFFF30B587B083
:104C100001AD142200212800FCF718FC1023C42049
:104C2000134A8000D169134C1943D161D2691249EA
:104C300013400093009B114B1A581140802212021E
:104C40000A431A50802292021A602F232B800023DD
:104C500029006B6020006433AB6000F039FC8022D7
:104C6000236893432360A3689343A36007B030BDD8
:104C70000010024000100040FF00FFFF00E100E0D4
:104C800030B587B001AC142200212000FCF7DEFB18
:104C90008020134A4000D169124D0143D161C421E3
:104CA000D369114A034000938900009B53582800A0
:104CB0001B021B0A535080231B0313601723FA2285
:104CC00023800023120121006360A260E36000F0F2
:104CD000FFFB80222B6813432B6007B030BDC0461A
:104CE000001002400020004000E100E010B586B056
:104CF0001422002101A8FCF7A9FB80200E4AC00263
:104D000091690E4C0143916193696A460340009397
:104D1000009B2F2393800A4A002303926A462000B7
:104D200001A902930493137500F0D2FB802223683B
:104D30009343236006B010BD0010024000480140BC
:104D4000FFFF00000123114A82B051691048194346
:104D50005161C2215269890013400193019B0D4B9F
:104D60005A5810408022D20302435A508022802099
:104D7000D2001A605A58C0051202120A02435A5051
:104D8000802212011A6002B07047C0460010024033
:104D9000FFFF00FF00E100E0002210B5802488B092
:104DA000114B07925869A402204358618020596929
:104DB000C0022140019101995969014359615B6920
:104DC00002A903400093009B90208023C0051B0292
:104DD000836202930123049203930592069200F0EA
:104DE00033FD08B010BDC04600100240F0B58FB0D2
:104DF0001422002103A8FCF729FB8020394B400234
:104E0000996900240143996180219A6989020240CD
:104E10000292029A5A6990200A435A615B690326FA
:104E20000B400193019B04230125089308A9023B31
:104E3000C00509930B940D940A960C9500F004FD9F
:104E4000294B2A491A6880270A401A601A6828499B
:104E5000FF200A4020211A601A688A431A601A68E3
:104E600020318A431A601A682249BA433A431A60C9
:104E70001A681140802252000A431A601A681E49BB
:104E80001140802212010A43C5211A601B4B890080
:104E90005A5882435A50802252031A606B469C81B2
:104EA0003F236A460593002304940694144C03A9F7
:104EB0002000137700F00CFB0C222368BB43236017
:104EC000A369B3432B43A361A3699343A361A3697C
:104ED000E4329343A361236AE63A134323620FB09B
:104EE000F0BDC0460010024058000240EFBFFFFF77
:104EF000FFCFFFFFFFFCFFFFFFF3FFFF00E100E03C
:104F00000040014000B583B0FFF74AFC0122164B78
:104F100099691143996199690A4080210192019A26
:104F2000DA6949050A43DA61DB69104A0B4010214E
:104F30000093009B13680B431360FFF72DFFFFF7EF
:104F400001FFFFF70BFDFFF72BFEFFF7A1FCFFF7BB
:104F500097FEFFF75BFEFFF7C9FEFFF747FFFFF77E
:104F600005FA03B000BDC046001002400020024018
:104F7000F0B54746CE4680B585B016006A46CB0FE1
:104F80005B185B1098465B000733DB08DB00D31A25
:104F900000AF9D466D460C00814642460021280028
:104FA000FCF754FA012C0BDD4846002341780278C7
:104FB00009025C000A4301332A5302309845F5DCAC
:104FC000434601212D4A7B60D3681942FCD1136905
:104FD0001B0605D52A4B1B6853602A4B1B68536080
:104FE000B30516D10221254A13690B43136156619B
:104FF00013693E310B4313613F39D3681942FCD129
:105000002023D1680B4236D102211C4A13698B43FD
:1050100013610023BB60FB60FB687A689A421FD96A
:105020000120202215490B6903430B61FC68BB6812
:105030006400645B9B191C80CB681842FCD1CB6870
:105040001A4200D0CA600B6983430B61BB6802330C
:10505000BB60FB680133FB60FC687B689C42E2D369
:105060008021BD46054A13690B43136105B0C0BCDE
:10507000B946B046F0BDD360C6E7C0460020024046
:10508000CC010020D0010020002A06DD5218401A71
:105090000B78435401319142FAD170477047C046B2
:1050A000054B064A998811801988054A11805A884B
:1050B000044B1A807047C0460C050020D80300201E
:1050C0003C030020E0030020C220124B80001A584D
:1050D00011491140C02212020A431A5080220321B2
:1050E00092001A600D4B0E4A9A600E4ADA605A68B6
:1050F000120C12040A435A601A6801390A431A60F2
:105100001A6806310A431A601A6807390A431A6096
:105110007047C04600E100E0FF00FFFF08000240CA
:10512000402401400C0500200023124A82B0019364
:1051300093681149194080231B060B4393609368C1
:10514000002BFCDB01230193019B002B05D0019B6D
:10515000013B0193019B002BF9D1064A0649936854
:105160000B4001210B43936013681942FCD002B03D
:105170007047C04600240140E8FFFF7FF0B5C646F7
:1051800000B592B01022002103A8FCF75FF91422A9
:10519000002107A8FCF75AF9102200210EA8FCF7FD
:1051A00055F98020424B8000996990240143996110
:1051B00080219A69890202400292029A5A69002566
:1051C0000A435A615B6908260B400193019B032344
:1051D0009846E4050CA9200040270D930C961095E5
:1051E00000F032FB43460CA920000D930C9710955C
:1051F00000F02AFB2F4B30491A68304C0A401A60E5
:105200001A682F4920000A4020211A601A680A43B0
:105210001A601A686031BA431A601A680A431A6041
:105220001A6828491140802252000A431A601A68FD
:10523000254911408022D2000A431A60A36A2349FB
:105240003343A362A36A3B43A3628023A26A5B0247
:105250001343A3620B681E4A1A4080231B041343A6
:105260000B60802303A91B060393049505950695FF
:1052700000F0B8FA012307A920000A9307950895C2
:1052800009950B9500F0C8FA04220721E3689343BF
:10529000E36063698B4301390B4363616368934344
:1052A00063606368B343636012B080BCB846F0BD0E
:1052B0000010024008000240EFBFFFFF0024014041
:1052C000FFCFFFFFFFFCFFFFFFF3FFFF08270140B9
:1052D000FFFF3FFE80220C4B5202586870B5104011
:1052E00042425041094A40421040094A0F24944624
:1052F000D96A6044214001315D68FBF70DFFAD0CB8
:105300002C400234604370BD0010024000F7C2FF21
:1053100000127A000E4B10B55A680C23040013409B
:10532000082B11D00B4B0A4923604A680A48120621
:10533000120F825CD34063604A6808495205520FDD
:105340008A5CD340A36010BDFFF7C4FF0300EAE707
:105350000010024000127A0008600008186000087F
:10536000030010B50020002B1DD11C4A0333116B24
:105370000B40022B27D0032B1DD05268012B13D0DA
:105380000C231340082B26D1FFF7A4FF134B14491D
:105390005A685B681206120F8A5C5B05D040114A9E
:1053A0005B0FD35CD84010BD0B331340082B08D1E2
:1053B000FFF790FFF7E713680222100018401A4227
:1053C000F1D00948EFE71800126A10401342EAD002
:1053D00080200002E7E70448D8E7C04600100240FA
:1053E000086000081860000800127A0030B50368F1
:1053F00004000D0085B0DB071DD44B68C968026846
:105400000B4329690B43A9690B4320490A40134305
:10541000036043681E4A1340AA68134343608368CD
:105420001C4A13406A69134383601B4B984205D0A2
:105430001A4B984218D0012005B030BD0020FFF76C
:105440008FFF0028F7D029680029F4D08023AA69AB
:105450001B029A420DD04B081818FBF75DFE0004A2
:10546000000CE0600020E7E701A8FFF753FF039876
:10547000E7E74B084000C018FBF74EFE084B03401F
:105480000007400F1843E0600020D5E7F369FFFFF5
:10549000FFCFFFFFFFFCFFFF00380140004400404A
:1054A000F0FF0000FA2110B58900FBF735FE00225D
:1054B000034B013858609A6005321A6010BDC0462F
:1054C00010E000E0014B18607047C046D401002096
:1054D0001D4A0368904226D08022D205904219D0FE
:1054E0001A4A904216D01A4A904217D0194A90424E
:1054F0001DD0194A90421AD0184A904217D0036022
:105500008B68C3620B888362012243691343436142
:1055100000207047702293434A681343104A134097
:10552000CA681343EBE7702293434A6813430C4A5B
:105530001340CA68134303608B68C3620B8883629D
:105540000B7C0363E0E7C046002C014000040040F0
:10555000002000400040014000440140004801405C
:10556000FFFCFFFF802370B55B00994200D175E01E
:1055700041D8012900D1B3E010296DD1036A784DDB
:105580008B430362036A466884692C4015682D02C8
:105590002C432025AB431D0013691B012B438B4378
:1055A00051680D016F492B43884208D06E498842EB
:1055B00005D06E49884202D06D49884214D18021BD
:1055C0008B431D00536940399B012B438B439168EA
:1055D0008D0168492B430E409169674D8900314325
:1055E0002940D569EE000E43D2684660846182632B
:1055F0000362002031E080235B0199422CD1016AD3
:105600005E4E574C31400162036A4568C1692140D2
:10561000146824020C435A49194013691B030B43B5
:105620005168334009030B434E49884208D04E4924
:10563000884205D04D49884202D04D49884204D164
:1056400050490D40916989010D43D2684560C4619C
:1056500002640362002000E0012070BD7324016A2F
:10566000494E31400162036A4168C569A543146827
:105670002543464C1C4013691B02234354683340A6
:1056800024022343374CA0420FD0374CA0420CD009
:10569000364CA04209D0364CA04206D0D2684160B8
:1056A000C561C26303620020D7E7334E314C1E4010
:1056B00053699B023343314E234094680E409169F5
:1056C000A402234309012E4C31432140D469D268FE
:1056D000660131434160C561C26303620020BCE7DB
:1056E0007326036A8B430362036A44688569B54382
:1056F000166835430226B343166933438B4351681A
:105700000B43184988420FD0174988420CD01749DB
:10571000884209D01649884206D0D2684460856123
:1057200042630362002098E708218B431900536904
:105730009B000B4304218B43916889000B43124962
:105740000C4091690C4311490C40D169D268490061
:105750000C43446085614263036200207DE7C046DC
:10576000FF8CFFFF002C014000400140004401403D
:1057700000480140FFFBFFFFFFF7FFFFFFEFFFFFC8
:10578000FFDFFFFFFFBFFFFFFFFEFFFFFFFDFFFF8C
:105790008A680B7B13430D4A13404A6813430C4A33
:1057A00013400A6813430B4A1A40CB8913430A4A31
:1057B00013400A691343094A13404A6908491343CD
:1057C0000B401343436400207047C046FFFBFFFFBC
:1057D000FFF7FFFFFFEFFFFFFFDFFFFFFFBFFFFF51
:1057E000FF7FFFFF8268030010B50120D20710D4AD
:1057F0008C684A68D8682243CC6809682243054C03
:10580000204002430020DA601A69920092080A439D
:105810001A6110BDC73FFFFF8368020010B5012069
:10582000DB070ED44C680B68D06823438C68234395
:10583000CC68096923430B430249014000200B4314
:10584000D36010BD3CC2FEFFF0B5DE4657464E4663
:105850004546E0B50A684B6883B0002A00D172E083
:105860009C46012301245B4263449846A3460023DF
:105870000AE00E69C56874434E4635402C43C46047
:1058800014000133DC4041D05C4615009C402540AB
:105890002242F5D02C006C436700BA46A24457461A
:1058A000FF43B94657460668BE43674667433E43D3
:1058B00006604646012EDCD88668B2468E6857469A
:1058C000664301964E4637403E00019F374387604E
:1058D000C6684F46B2460E69664301965646374043
:1058E0003E00019F37436646C760022EC8D1FF2D98
:1058F0001DD86443056A2601361BB5434E69013342
:1059000074432C4304621400DC40BDD14346012B98
:1059100005D84368C96893434A431A43426000204C
:1059200003B0F0BCBB46B246A946A046F0BD2D0A66
:105930006D436D43446A2E01761BB4434E69754333
:10594000254345629CE7013B9846DFE71B4B30B59A
:10595000C2188023D2001B029340194C25681D40B9
:10596000AB4215D0A04215D04D680B6820682B4380
:105970008D682B43CD682B430D6949692B430B433D
:10598000104993409140884303430020236030BD79
:105990000120FCE74D680B6804682B438D682B439E
:1059A000CD682B430D6949692B430B43064993404E
:1059B00091408C43234303600020E8E7E4FFFEBFEF
:1059C0001C0001407C3F00007E3F0000F8B5C0464F
:1059D000F8BC08BC9E467047F8B5C046F8BC08BC89
:0459E0009E46704728
:1059E40078160008141700080E1700080817000896
:1059F400781600087816000878160008F6160008CD
:105A0400E2160008D2160008C0160008781600082E
:105A1400BA160008781600087816000878160008E8
:105A2400781600087816000878160008781600081A
:105A3400AC16000870160008191B12131D15161752
:105A44001A090A0B1E0D0E0F881A00088A1A00087C
:105A5400CA1A00081C1B0008561B0008AC1B0008CF
:105A6400361A0008B4000000B7000000BA000000B5
:105A7400BD000000C1000000C4000000C700000019
:105A8400CA000000CD000000D0000000D3000000D8
:105A9400D6000000D9000000DC000000E000000097
:105AA400E3000000E6000000E9000000EC00000054
:105AB400EF000000F2000000F5000000F700000015
:105AC400FA000000FD0000000001000003010000D6
:105AD40006010000090100000B0100000E01000096
:105AE400110100001301000016010000190100005B
:105AF4001B0100001E010000200100002301000022
:105B040025010000280100002A0100002C010000EA
:105B14002F010000310100003301000035010000B5
:105B2400380100003A0100003C0100003E01000081
:105B34004001000042010000440100004601000051
:105B440047010000490100004B0100004D01000025
:105B54004E010000500100005101000053010000FB
:105B640054010000560100005701000058010000D4
:105B74005A0100005B0100005C0100005D010000AF
:105B84005E0100005F01000060010000610100008F
:105B94006201000063010000630100006401000071
:105BA4006501000065010000660100006601000057
:105BB4006701000067010000670100006801000040
:105BC400680100006801000068010000680100002D
:105BD400680100006801000068010000680100001D
:105BE4006701000067010000670100006601000012
:105BF4006601000065010000650100006401000009
:105C04006301000063010000620100006101000003
:105C1400600100005F0100005E0100005D01000002
:105C24005C0100005B0100005A0100005801000003
:105C34005701000056010000540100005301000008
:105C440051010000500100004E0100004D01000010
:105C54004B0100004901000047010000460100001B
:105C64004401000042010000400100003E01000028
:105C74003C0100003A010000380100003501000039
:105C840033010000310100002F0100002C0100004D
:105C94002A01000028010000250100002301000062
:105CA400200100001E0100001B010000190100007A
:105CB4001601000013010000110100000E01000094
:105CC4000B010000090100000601000003010000AF
:105CD40000010000FD000000FA000000F7000000D1
:105CE400F5000000F2000000EF000000EC000000EE
:105CF400E9000000E6000000E3000000E00000000E
:105D0400DC000000D9000000D6000000D300000031
:105D1400D0000000CD000000CA000000C700000051
:105D2400C4000000C1000000BD000000BA00000073
:105D3400B7000000B4000000B1000000AE00000095
:105D4400AB000000A7000000A4000000A1000000B8
:105D54009E0000009B0000009800000095000000D9
:105D6400920000008F0000008C00000088000000FA
:105D740085000000820000007F0000007C0000001D
:105D8400790000007600000073000000710000003C
:105D94006E0000006B000000680000006500000059
:105DA400620000005F0000005D0000005A00000077
:105DB4005700000055000000520000004F00000092
:105DC4004D0000004A0000004800000045000000AB
:105DD40043000000400000003E0000003C000000C2
:105DE40039000000370000003500000033000000D7
:105DF400300000002E0000002C0000002A000000EB
:105E040028000000260000002400000022000000FA
:105E1400210000001F0000001D0000001B00000006
:105E24001A00000018000000170000001500000010
:105E34001400000012000000110000001000000017
:105E44000E0000000D0000000C0000000B0000001C
:105E54000A0000000900000008000000070000001C
:105E6400060000000500000005000000040000001A
:105E74000300000003000000020000000200000014
:105E8400010000000100000001000000000000000B
:105E940000000000000000000000000000000000FE
:105EA40000000000000000000000000000000000EE
:105EB40001000000010000000100000002000000D9
:105EC40002000000030000000300000004000000C2
:105ED40005000000050000000600000007000000A7
:105EE40008000000090000000A0000000B00000088
:105EF4000C0000000D0000000E0000001000000067
:105F04001100000012000000140000001500000041
:105F140017000000180000001A0000001B00000019
:105F24001D0000001F0000002100000022000000EE
:105F34002400000026000000280000002A000000C1
:105F44002C0000002E000000300000003300000090
:105F54003500000037000000390000003C0000005C
:105F64003E00000040000000430000004500000027
:105F7400480000004A0000004D0000004F000000EF
:105F84005200000055000000570000005A000000B5
:105F94005D0000005F00000062000000650000007A
:105FA400680000006B0000006E000000710000003B
:105FB4007300000076000000790000007C000000FF
:105FC4007F000000820000008500000088000000BF
:105FD4008C0000008F00000092000000950000007B
:105FE400980000009B0000009E000000A10000003B
:105FF400A4000000A7000000AB000000AE000000F9
:10600400B1000000000000000000000001020304D1
:0C60140006070809000000000102030458
:04602000F91000086B
:04602400D11000088F
:10602800FA000000CF07016E020000000600000021
:10603800E80300000A00000005000000D430010059
:106048005A005A00CF0700000100000005000000B8
:10605800010000003C0000000000000000000000FB
:106068000000000000000000000000000000000028
:106078000000000000000000000000000000000018
:1060880000000000400000000000000000000000C8
:1060980000000000000000004000000000000000B8
:1060A80000000000000000000000000040000000A8
:1060B8000000000000000000000000004000000098
:1060C8004000000000000000400000000000000048
:1060D800460000004A0114001400000001020100FB
:1060E8000700000007000000780000002D00D0071E
:1060F8000E0101000100000064006C074C04DC057F
:106108007800000023010000640000000100000086
:10611800CF07000090010000CF0732002C000000DC
:106128002000000024F400000A0A0000230167454B
:08613800AB89EFCD00127A00E3
:040000050800145D7E
:00000001FF
