:020000040800F2
:101000000020002051200008755100087951000887
:1010100000000000000000000000000000000000D0
:101020000000000000000000000000007D510008EA
:1010300000000000000000008151000885510008F8
:10104000A1200008A1200008A1200008A12000087C
:10105000A1200008A1200008A1200008A12000086C
:10106000A1200008C552000889510008BD510008A0
:1010700029520008ED520008A1200008A120000814
:10108000A15200084552000800000000615200080B
:101090007D52000875520008A1200008A120000818
:1010A000A1200008A1200008A12000087952000812
:1010B000A120000800000000A1200008000000009E
:0E10C0000145542D4D4F544F522034354120E0
:1010D00010B5064C2378002B07D1054B002B02D00E
:1010E000044800E000BF0123237010BDD801002098
:1010F00000000000CC650008044B10B5002B03D0A5
:101100000349044800E000BF10BDC04600000000D5
:10111000DC010020CC650008002243088B4274D318
:1011200003098B425FD3030A8B4244D3030B8B42E8
:1011300028D3030C8B420DD3FF22090212BA030CF1
:101140008B4202D31212090265D0030B8B4219D3D2
:1011500000E0090AC30B8B4201D3CB03C01A5241F2
:10116000830B8B4201D38B03C01A5241430B8B423A
:1011700001D34B03C01A5241030B8B4201D30B0323
:10118000C01A5241C30A8B4201D3CB02C01A52414A
:10119000830A8B4201D38B02C01A5241430A8B420D
:1011A00001D34B02C01A5241030A8B4201D30B02F6
:1011B000C01A5241CDD2C3098B4201D3CB01C01A10
:1011C000524183098B4201D38B01C01A524143091A
:1011D0008B4201D34B01C01A524103098B4201D308
:1011E0000B01C01A5241C3088B4201D3CB00C01A75
:1011F000524183088B4201D38B00C01A52414308ED
:101200008B4201D34B00C01A5241411A00D2014611
:10121000524110467047FFE701B5002000F0F0F89A
:1012200002BDC0460029F7D076E7704703460B435E
:101230007FD4002243088B4274D303098B425FD3CF
:10124000030A8B4244D3030B8B4228D3030C8B42FB
:101250000DD3FF22090212BA030C8B4202D31212E1
:10126000090265D0030B8B4219D300E0090AC30BB6
:101270008B4201D3CB03C01A5241830B8B4201D363
:101280008B03C01A5241430B8B4201D34B03C01A4C
:101290005241030B8B4201D30B03C01A5241C30AC4
:1012A0008B4201D3CB02C01A5241830A8B4201D335
:1012B0008B02C01A5241430A8B4201D34B02C01A1F
:1012C0005241030A8B4201D30B02C01A5241CDD2C4
:1012D000C3098B4201D3CB01C01A524183098B420F
:1012E00001D38B01C01A524143098B4201D34B01F8
:1012F000C01A524103098B4201D30B01C01A52415B
:10130000C3088B4201D3CB00C01A524183088B42E1
:1013100001D38B00C01A524143088B4201D34B00CA
:10132000C01A5241411A00D201465241104670473C
:101330005DE0CA0F00D04942031000D34042534041
:1013400000229C4603098B422DD3030A8B4212D301
:10135000FC22890112BA030A8B420CD38901921133
:101360008B4208D3890192118B4204D389013AD070
:10137000921100E08909C3098B4201D3CB01C01A45
:10138000524183098B4201D38B01C01A5241430958
:101390008B4201D34B01C01A524103098B4201D346
:1013A0000B01C01A5241C3088B4201D3CB00C01AB3
:1013B000524183088B4201D38B00C01A5241D9D2CB
:1013C00043088B4201D34B00C01A5241411A00D24C
:1013D0000146634652415B10104601D34042002B48
:1013E00000D54942704763465B1000D3404201B5C7
:1013F000002000F005F802BD0029F8D016E770477C
:101400007047C0469E2110B5C905041C00F00EFDB2
:10141000002803D1201C00F07DFC10BD9E21201C63
:10142000C90500F0AFFA00F075FC80231B069C464E
:101430006044F2E7F0B54646D6464F464D024202BA
:10144000C0B5520A6E0A4700B0463F0E4E00C40FA8
:10145000D00094463B008246360EC90FAD098C423F
:101460006DD0B81B814600284DDD002E00D188E0EC
:10147000FF2F5AD08023DB041D434B4601221B2B38
:101480000ADC2B004A464946D3402022521A954096
:101490002A00551EAA411A4353469A1A530100D4F2
:1014A000B9E092019609300000F0CAFC0538864088
:1014B000874200DDD4E03300C71B20200137FB400A
:1014C000C71BBE403200561EB24100271A435307C5
:1014D00004D00F231340042B00D00432530100D456
:1014E0009CE07B1CFE2F00D19AE09201520A9446A8
:1014F000DBB2D8056346E40718432043E0BCBA4694
:10150000B146A846F0BD002849D0F31B002F00D0FB
:10151000B6E05246002A60D0013B002B00D1FCE02F
:10152000FF2E00D0B4E00C004246002A78D0802084
:10153000C00310434202530A9C46FF23D9E7B91B5C
:10154000002971DD002E3FD0FF2FEED08023DB0479
:101550001D4301221B2907DC2A002023CA40591AF7
:101560008D406B1E9D412A435244530153D5013790
:10157000FF2F55D001237B49134052080A401A43DC
:10158000A5E7002D2CD001235B429C46E1444B464D
:10159000002B00D1ADE0FF2F00D06EE7C5E7FE20A5
:1015A0007E1C304260D1002F00D093E05246002ACA
:1015B00000D1B6E0002D9CD0521B500100D4C3E0F6
:1015C00053460C00EA1A82E7002D09D001390029A0
:1015D00000D18BE0FF2FBCD1A7E70C0042463700BB
:1015E000FF2FA2D05202530A9C46FBB281E7FE2194
:1015F0000137394265D1002B7ED1002800D1AAE005
:10160000002D00D175E72A0052440027530102D56E
:10161000554B01371A40530700D05AE7D208DFE78D
:101620000022FF23944664E70029E0D0F31B002F3B
:101630003ED0FF2E00D177E780220100D204114373
:101640008A4601221B2B08DC524620215046DA40F4
:10165000CB1A9840431E984102433700521984E741
:10166000414A3F1A324032E753465E1B73012DD484
:10167000002E00D017E7002200240023944638E70C
:10168000FF2E00D14FE780225046D20410438246FD
:1016900001221B2B08DC524620245046DA40E31A74
:1016A0009840431E984102430C003700AA1AF5E601
:1016B000002893D0013B002B4FD0FF2EC1D14246D2
:1016C00033E7FF2FACD055446A08A4E753460C001B
:1016D000EE1AE8E65346002B28D1002D00D022E771
:1016E0008023DB039C460024FF2302E72A005244A8
:1016F0003BE753465A1BD1E6002800D114E7002DE2
:1017000000D112E78023DB031A4200D10DE74146E6
:10171000194200D009E7424607E70C003700AA1A31
:10172000BCE6002D13D00C00C446E2E6002D00D12B
:10173000FBE68023DB031A4200D1F6E6404618425E
:1017400000D0F2E60C00EFE6002A00D063E70022AA
:1017500000249446CDE6C446CBE62A003700524426
:1017600003E7C046FFFFFF7DFFFFFFFBF0B54F46DD
:101770004646D6464502C0B547000C1C6D0A3F0ED2
:10178000C60F002F66D0FF2F6CD00023EA00802503
:1017900099469A46ED0415437F3F60026100430A73
:1017A0009846090EE40F002948D0FF2910D0802266
:1017B000D800D2040243904600207F394A463300C5
:1017C0007F1A02436C4992008A586340DBB2974605
:1017D000002B6DD10220FF3F33E000239846260006
:1017E000454682465346022B00D17FE0032B00D1B1
:1017F00094E0012B17D038007F3000285FDD6B07A5
:1018000004D00F232B40042B00D004352B0103D52B
:1018100038005A4B80301D40FE2867DCAD016D0A50
:10182000C0B202E01E0000200025C0052843F607D4
:101830003043E0BCBA46B146A846F0BD002B2BD1E0
:1018400001204A4633004E49024392008A586340C1
:10185000DBB29746002D13D104239946033B0027A2
:101860009A469AE7002D05D108239946063BFF27A3
:101870009A4692E70C239946093BFF279A468CE744
:10188000280000F0DDFA7627431F9D4000237F42A9
:1018900099469A463F1A80E7180000F0D1FA42466E
:1018A000431F76219A404942091A9046002085E755
:1018B000FF21032082E71E00FF200025B5E701235A
:1018C0001B1A1B2BAFDC9E372900BD40D9406A1E76
:1018D00095410D436B0704D00F232B40042B00D000
:1018E00004356B0144D5012000259EE7FF2000252B
:1018F0009BE780250026FF20ED0396E7002398460E
:101900008020C003054209D04346034206D1454624
:1019100005436D022600FF206D0A86E78020C00384
:1019200005436D02FF206D0A7FE741466A014801C9
:10193000824219D21B210025013F012614006D00AF
:101940005200002C01DB904201D8121A35430139B4
:101950000029F3D1501E824138007F301E0015430C
:10196000002800DD4BE7AAE71A210125121AE4E757
:10197000AD0100206D0A58E7E4650008FFFFFFF79E
:1019800024660008F0B54646D6464F4643025B0A39
:10199000DA0094464A02C0B54400560A051CB04617
:1019A000240E4E0092091F0020009246ED0F360EC5
:1019B000C90FFF2E00D17FE0012251408D4251D04E
:1019C000A21B9146002A00DC7EE0002E00D199E0A7
:1019D000FF2C00D18CE080235246DB041A43924650
:1019E0004A4601231B2A08DC53462021D340891A8A
:1019F00052468A40511E8A4113436246D31A5A0105
:101A000000D4F3E09B019E09300000F019FA05387C
:101A10008640844200DDF7E03200041B20200134C0
:101A2000E240041BA64033005E1EB3410024134372
:101A30005A0704D00F221A40042A00D004335A0156
:101A400000D4D6E0621CFE2C00D1DAE09B015F0AD4
:101A5000D0B2C0053843ED072843E0BCBA46B146D2
:101A6000A846F0BDA21B9146002A63DD002E00D1DE
:101A700099E0FF2C3CD080235246DB041A43924667
:101A80004A4601231B2A08DC53462021D340891AE9
:101A900052468A40511E8A41134363445A0100D47E
:101AA000A4E00134FF2C00D1ABE0012297491A4099
:101AB0005B080B401343BBE7002A32D08D4235D080
:101AC000FF2252429146A1444A46002A51D0301B7F
:101AD000002C00D09CE06346002B00D1DFE00138F1
:101AE000002800D1F7E0FF2E00D099E00D0043461A
:101AF000002B00D185E08027FF031F437F02FF20DA
:101B00007F0AA6E75246002A74D00122524290462C
:101B1000C1444A46002A00D1C8E0FF2C00D05FE74C
:101B2000E6E701225140A94200D049E7FF22524294
:101B30009146A1444A46002A43D0311B002C00D1D3
:101B40008CE0FF2E00D192E080236246DB041A4332
:101B5000944601231B2909DC202063466246CB40C2
:101B6000411A8A401100481E81410B4334005344FE
:101B700094E7FE22661C324264D1002C00D082E041
:101B80006346002B00D1ABE05346002B00D160E749
:101B9000634652469B1A5A0100D4AAE06346524655
:101BA0000D00D31A44E75246002A23D001225242A4
:101BB0009046C1444A46002A75D0FF2C00D05FE70A
:101BC00096E7FE260134264253D1002872D163469F
:101BD000002B00D193E05346002B00D139E763443A
:101BE00000245A0102D54A4A013413405A0700D052
:101BF00020E7DB08FF2C00D17AE75B025F0AE0B246
:101C000027E7FF20002724E7414B241A33400FE742
:101C1000FF2E00D16AE780236246DB041A43944614
:101C200001231B2809DC202463466246C340201A96
:101C300082401000441EA041034352460D00340070
:101C4000D31ADCE6634652469E1A730117D4002E5F
:101C500000D0D9E6002500200027FAE66346002BD5
:101C600044D0013900294CD0FF2E00D071E7434603
:101C70003EE7FF2CC5D0524662445308B6E76346A0
:101C80000D00D61AC0E66246002A16D15346002B34
:101C900000D02BE780270025FF20FF03D9E60D00A9
:101CA00043463400A6E753466344F7E6634652468C
:101CB0009B1AA4E66246002AD9D05246002A00D1D7
:101CC00016E78022D203134200D111E740461042AA
:101CD00000D00DE70AE752460D003400D31A8EE615
:101CE0005346002B08D00D004746B2E64346340069
:101CF00080E7002B00D079E700250027A9E64746BA
:101D0000A7E6534634006344C8E6C046FFFFFF7DA4
:101D1000FFFFFFFB41024200C30F490A0020120EE1
:101D20007E2A03D99D2A02D9094A98187047802033
:101D300000040143952A07DC9620821AD1404842CC
:101D4000002BF3D10800F1E7963A9140F7E7C0463F
:101D5000FFFFFF7F70B5051E0ED000F071F89E23C7
:101D600004001B1A962B0CDC082801DD083CA5405A
:101D70006D026D0AD8B201E000200025C00528439D
:101D800070BD992B09DD020029001B3291404A1ECB
:101D900091410522121AD5400D43052C01DD621F29
:101DA00095402900084E31406A0709D00F2028408D
:101DB000042805D004314A0102D59F2331401B1B62
:101DC00089014D0AD8B2D9E7FFFFFFFB8446081C02
:101DD0006146FFE71FB500F0C5F8002801D40021D7
:101DE000C8421FBD10B500F049F84042013010BD97
:101DF00010B500F0B7F8002801DB002010BD01206D
:101E000010BDC04610B500F0ADF8002801DD00207F
:101E100010BD012010BDC04610B500F057F80028D5
:101E200001DC002010BD012010BDC04610B500F03F
:101E30004DF8002801DA002010BD012010BDC04679
:101E40001C2101231B04984201D3000C10391B0AEA
:101E5000984201D3000A08391B09984201D30009AE
:101E6000043902A2105C40187047C0460403020205
:101E700001010101000000000000000070B54200F7
:101E80004E024C0045026D0A120EC30F760A240E54
:101E9000C90FFF2A0FD0FF2C11D00120A24200D081
:101EA00070BDB542FCD18B420DD0002AF8D128007C
:101EB000451EA841F4E70120002DF1D1EBE70120F8
:101EC000002EEDD1E9E70020EAE7C046F0B5420078
:101ED00046024D024C00C30F760A120E6D0A240E04
:101EE000C80FFF2A1FD0FF2C10D0002A1FD171422B
:101EF0007141002C01D1002D1ED000290ED183424A
:101F00001ED00221581E08400138F0BD002D26D1F8
:101F1000002AF4D1714271410029F0D00028F4D197
:101F200001204042F1E7002E19D1FF2CEED0002C09
:101F3000E5D1002DE3D1E4E70020002EE5D0E0E775
:101F4000A24205DCEADBAE4202D8E7D30020DCE7A0
:101F5000414241414842022108400138D5E7022070
:101F60004042D2E7F0B5420046024D024C00C30F9A
:101F7000760A120E6D0A240EC80FFF2A0DD0FF2C10
:101F80000FD0002A23D171427141002C0FD1002DB6
:101F90000DD10020002E14D00DE0002E10D1FF2C0A
:101FA00015D1002D0CD1002A03D1714271410029B5
:101FB00008D1834210D00221581E0840013800E0A9
:101FC0000220F0BD0028FCD101204042F9E7002C9E
:101FD000EFD1002DEDD1EEE7A24205DCF2DBAE42FF
:101FE00002D8EFD30020ECE74142414148420221B0
:101FF00008400138E5E7C04670B500260C4D0D4C91
:10200000641BA410A64209D1002604F0DFFA0A4D91
:102010000A4C641BA410A64205D170BDB300EB5856
:1020200098470136EEE7B300EB5898470136F2E7E0
:10203000A06C0008A06C0008A06C0008A46C00084C
:1020400003008218934200D1704719700133F9E7F9
:102050000D4885460D480E490E4A002302E0D4582B
:10206000C4500433C4188C42F9D30B4A0B4C0023E0
:1020700001E013600432A242FBD303F00FFEFFF72E
:10208000BBFF01F0DDFDFEE700200020C0000020C6
:10209000D8010020A86C0008D80100201C050020F1
:1020A000FEE70000F0B5DE4657464E4645469849E5
:1020B00098480B68CA6FE0B5D21A0260964887B09C
:1020C000844662443A2A5FD80C00944A8034100057
:1020D00000E00B684D680831EB1A5B0908C08C42C0
:1020E000F7D11368116A9B460191516A13690391F4
:1020F000594600935368506902939368956A049314
:10210000009BAC4659400B000199D5684B40D90063
:102110008846029B039943404B4041469B000B433A
:10212000290005906046D669D76A71407940946964
:102130000B4304996140414049000B43116BDBB2F2
:10214000C9008846516B890089464146484601438B
:10215000D06B926B014352000A437149D2B2894657
:1021600009788846002916D16E498A4609780029DF
:102170005FD00F218A4651468A1AD2B29A4210D0B5
:10218000694A13680133136007B0F0BCBB46B2461E
:10219000A946A046F0BD634909780029E9D19A42D1
:1021A000EED10022614B1A60614A1368013313605B
:1021B000012F01D15F4B1F705B46029A9B025202B6
:1021C000134362461343049AED0110021843009B27
:1021D00005439801059B05435B011D432401019BB9
:1021E0002C43F60026439C00039B264359003143B1
:1021F0002F2926DC4B1E2E2B2BD800224E4B4F4C6A
:102200001A6021604E4B1B68002BBDD14346002B4A
:10221000BAD04C4B1A788A4233D0197004293BDC6F
:10222000494A00231370152920D8484B89005B5870
:102230009F460F31891A8B42A0D151460120087068
:1022400097E73D4B3D4A1960002313603E4A1370E7
:102250009AE7002910D1384B1960384B19603A4B76
:10226000197091E73A4B1A783A4B1A603A4B226848
:102270001A700023236087E7304C21680029C1DCF5
:1022800082E7314A0429CCDD13780133DBB21370C5
:10229000052B00D878E7C4E701222B4B1A7073E7AF
:1022A0002B4B1A7801239B1A2A4A1360DEE700F0B1
:1022B0006DFEDBE70122294B1A700023284A1360C8
:1022C0004A461370D2E70023244A13704A4613701B
:1022D000234A1360CAE701221D4B1A7000221D4BCE
:1022E0001A60204B02321A70C0E70022184B1A7095
:1022F0000123184A13601B4A1370B7E700F0DAFB9A
:10230000B4E700F027FBB1E700F054FBAEE7C046AE
:10231000000400209402002045FBFFFFF80100208C
:102320005C0200209C02002090020020F8020020A5
:1023300098020020F4020020E4020020480300205C
:10234000F002002038020020F4010020646600083A
:102350008B020020F0000020D90200206C02002037
:1023600014030020EA020020294B70B51B68002BE3
:1023700042D0284B1A680F231100194101293FD080
:10238000013B082BF8D10021234B196093B2180AA6
:102390001909414059400F231800120188431F4971
:1023A00002430A601E4910130C5C18001040085CC0
:1023B000E4030443101218401211085C1A408B5CAD
:1023C000800204435B01174E1C43174B30001C6016
:1023D0004023132101253362243000E004302A0019
:1023E0008A402240CA409B0953409B010360013947
:1023F000F4D20023F36170BD0C4A064B1A60BAE7B1
:10240000083B1A4104490B6059020A43BEE7C04623
:10241000F0020020440300203C02002020030020A2
:10242000BC660008F800002024030020FFFF000025
:102430009023DB051A6819490C20114080225203B1
:102440000A431A608022D2009A621A681449114025
:102450008022D2020A431A60802292009A621A688D
:1024600010491140802252020A431A6080220E490C
:1024700052009A620A688243043802430A600A687A
:1024800005388243013802430A601A68074911403F
:10249000802212020A431A607047C046FFFFCFFF36
:1024A000FFFFF3FFFFFFFCFF00040048FF3FFFFFBB
:1024B0000E4B0F4A1B78002B10D1032113688B435E
:1024C00002390B43136091629021C9050B68094AD8
:1024D0001A4080231B0313430B60704703211368CA
:1024E0008B4301390B431360EEE7C046DE0000204A
:1024F00000040048FFFFF3FF114B1B78002B14D1A1
:102500009023DB051A680F4911408022D2010A434B
:102510001A6080229A629021C9050B680A4A1A4003
:1025200080239B0213430B6070479021C9050B6801
:10253000044A1A4080231B0213430B60EBE7C0469A
:10254000DE000020FF3FFFFFFFFFFCFF0E4B0F4AA6
:102550001B78002B11D10C2113688B4308390B43D6
:102560001360022393629021C9050B68084A1A4040
:1025700080239B0313430B6070470C2113688B432C
:1025800004390B431360EEE7DE000020000400482E
:10259000FFFFCFFF0C211C4A1C4813688B430839EE
:1025A0000B431360022393629023DB0519680840F4
:1025B000802149030143196080210320C9009962E9
:1025C0001168814302380143116090621A68104912
:1025D00011408022D2020A431A60802292009A623D
:1025E0001A680C4911408022D2010A431A608022E5
:1025F0009A621A6808491140802252020A431A60FE
:10260000802252009A62704700040048FFFFCFFF0B
:10261000FFFFF3FFFF3FFFFFFFFFFCFF10B50628A2
:102620002CD8704B80001B589F46FFF78FFF03216B
:102630006D4A13688B4302390B43136090239162F8
:10264000DB051A68694911408022D2020A431A60E8
:10265000802292009A621A68654911408022D20154
:102660000A431A6080229A611A68624911408022E6
:1026700052020A431A60802252009A6210BDFFF78C
:1026800065FF0321584A13688B4302390B431360DB
:1026900090239161DB051A68544911408022D202CF
:1026A0000A431A60802292009A621A6850491140C7
:1026B0008022D2010A431A6080229A62D4E70C2158
:1026C000494A4D4813688B4308390B431360022372
:1026D00093629023DB051968084080214903014378
:1026E000196080210320C900996211688143023872
:1026F0000143116090611A683C4911408022D20266
:102700000A431A60802292009A62FFF7F5FEB5E74D
:102710000C21354A384813688B4308390B43136042
:10272000022393619023DB05196808408021490347
:102730000143196080210320C90099621168814317
:102740000238014311609062D5E70C21264A90249B
:102750001368E4058B4308390B431360022393612C
:102760002368254A1A4080235B0313432360802398
:10277000DB00A362FFF79CFE23681D4A1A408023FA
:10278000DB01134323608023A3622368194A1A40A4
:1027900080235B021343236080235B00A3626DE709
:1027A0000C21114A90241368E4058B4308390B432C
:1027B00013600223936223680F4A1A4080235B034D
:1027C000134323608023DB00A362FFF771FE2368BD
:1027D000074A1A408023DB01134323608023A3614F
:1027E000D3E7C046CC66000800040048FFFFF3FFB3
:1027F000FF3FFFFFFFFFFCFFFFFFCFFF0C211C4A45
:102800001C4813688B4308390B4313600223936100
:102810009023DB05196808408021490301431960B2
:1028200080210320C9009962116881430238014365
:10283000116090611A68104911408022D2020A4347
:102840001A60802292009A621A680C491140802214
:10285000D2010A431A6080229A611A68084911401D
:10286000802252020A431A60802252009A62704704
:1028700000040048FFFFCFFFFFFFF3FFFF3FFFFF14
:10288000FFFFFCFF10B5FFF761FEFFF711FEFFF73A
:1028900033FE10BD031C0B2800D90B23014A5B003B
:1028A000137070472803002010B572B6124B134CFA
:1028B0001B7803206363A363E363FFF7AFFE372353
:1028C000C820A36202F052F90520FFF7A7FE2823D3
:1028D000C820A36202F04AF90620FFF79FFE1923E1
:1028E000C820A36202F042F9FFF754FE0023044A15
:1028F000A362136062B610BD28030020002C0140C3
:10290000F802002070B572B60F4B104C1B780320F4
:1029100063639625A363E363FFF780FE19236D00CD
:10292000A362280002F022F90620FFF777FE372382
:102930002800A36202F01AF9FFF72CFE0023044AD4
:10294000A362136062B670BD28030020002C014012
:10295000F802002070B572B63C23114C114D124E96
:1029600001202E60A362114B1B786363A363E363B2
:10297000FFF754FE4B2002F0F9F850234B20A362DE
:1029800002F0F4F85A234B20A3622E6002F0EEF816
:10299000FFF700FE0023064AA362136062B670BD13
:1029A000002C014000300040AAAA000028030020AB
:1029B000F802002010B572B6114A124B124C1A6080
:1029C0005023A362114B03201B786363A363E3636B
:1029D000FFF724FE642002F0C9F846236420A362B6
:1029E00002F0C4F828236420A36202F0BFF8FFF7C6
:1029F000D1FD0023064AA362136062B610BDC04633
:102A0000AAAA000000300040002C0140280300204A
:102A1000F80200200E4A0F4B10B51A6032230E4CFC
:102A20000220A3620D4B1B786363A363E363FFF78C
:102A3000F5FD642002F09AF81E236420A36202F0E0
:102A400095F8FFF7A7FD0023054AA362136010BDA8
:102A5000AAAA000000300040002C014028030020FA
:102A6000F80200200E4A0F4B10B51A6028230E4CB6
:102A70000220A3620D4B1B786363A363E363FFF73C
:102A8000CDFD642002F072F850236420A36202F0AE
:102A90006DF8FFF77FFD0023054AA362136010BDA8
:102AA000AAAA000000300040002C014028030020AA
:102AB000F8020020F8B572B67724104B104D1B7841
:102AC000104F114E6B63AB63EB63142120003E602B
:102AD000FEF7ACFBFFF7A2FD63100A330A20AB62DE
:102AE000023C02F043F8631CEFD1FFF753FD0023D3
:102AF000064AAB62136062B6F8BDC04628030020E8
:102B0000002C014000300040AAAA0000F80200207A
:102B1000234B10B505CB234B101AC2189C2382B04F
:102B2000DB009A4214D9204B18682049204A0B68D0
:102B30001268C41A944203DD9B180B6002B010BDEA
:102B40001C1AA24202DA9B1A0B60F7E70860F5E74D
:102B5000184B1B78002B0ED0174B1A88904211D8B7
:102B6000164B1988FA239B000093002301F0DCFF29
:102B70000D4B1860D9E7124B1A88104B1988FA23AD
:102B8000DB00F1E70E4B511C1C88FA23DB0000939D
:102B900022000C4B01F0C8FF034B1860C5E7C0468C
:102BA000000400207BFCFFFF2C030020E402002037
:102BB000C00000206C0200209E0100209C0100202B
:102BC0009A010020E903000010B5324B1B78002B5E
:102BD00003D0314A1278002A06D1304A1278002AEE
:102BE00044D0012A07D010BD2D4B1B78002B1CD0E0
:102BF00002F07EF8F7E7002B08D12A4A2A49136031
:102C00000A68002A3ADB3AD0284A1360224B1B7824
:102C1000002B11D0224B1B78002B2CD0FFF7A4FBEC
:102C2000FFF740FA02F064F8DDE702F0A5F8FFF7DD
:102C30009BFBFFF737FAD6E71D4B1B78012B23D000
:102C40001C4B1B78012BCED1FFF762FF00220A211B
:102C5000144B1A60184A136A8B43136202F048F847
:102C60000421164A13680B431360BCE702F0C4F852
:102C700002F03EF8B7E702F07FF8B4E70B600B4ACA
:102C8000136801331360C1E7FFF70CFA02F030F864
:102C9000D6E7C0465C0200209C020020D80200203B
:102CA00018030020F8020020EC0300201403002089
:102CB0008C020020F5020020004001405800024034
:102CC000BFF34F8F034B044ADA60BFF34F8FC04608
:102CD000FDE7C04600ED00E00400FA05F8B59025D8
:102CE00001F0D6FF3022FA20FA240427ED05EB6824
:102CF00080009343103A1343EB6001F02DFF0E4E1A
:102D0000A4002B691F4202D13388013333800A208B
:102D1000013C01F021FF002CF3D190223021D2059B
:102D2000D3688B43D3603388052B00D9F8BDFFF7F8
:102D300031FCFFF7C5FFC046DC020020F0B5C646F7
:102D400000B5714C30222000704982B002F09CFF27
:102D5000637C6F4E013B5A4253416E4A1370A37C11
:102D6000013B5A4253413370E37C012B01D16A4A43
:102D70001370237D694D013B5A4253412B70637D93
:102D8000013B5A425341664A1370A37D013B5A42AC
:102D90005341644A1370E37D032B00D90223624A36
:102DA0001370207E0300183B182B00D89AE05F4B6D
:102DB0005F4A13805F4AD362637E1A00323A642A04
:102DC00000D984E05B081A005B490A3209780F33A6
:102DD00052185A490A605A4A13805A4B2822984678
:102DE000A37E594F5343424614331380E37E05209C
:102DF0003B70237F013B5A425341544A1370637F17
:102E0000013B5A425341524A1370FFF743FD637826
:102E1000002B37D0A07F0B2860D8FFF73BFDE37F66
:102E2000013B5A4253414B4A13702023E35C4A4A08
:102E30007833FF335B001380484A21239446E35CD8
:102E4000474A63445B001380464A22239446E35C6E
:102E5000454A634413802323E25C444B1A702423C5
:102E6000E35C013B5A425341414A13702523E35C22
:102E7000404AFA3313802623E35C012B40D0002222
:102E80003D4B1A7043461B88397810209846FEF750
:102E9000CDF9C82104004046FEF73EF9210080B27A
:102EA000FEF7C4F9354B642118604046FEF734F94B
:102EB00080B221002830FEF7B9F9314B18602B7829
:102EC000002B00D1337002B080BCB846F0BD962212
:102ED0001A4B1A601A4B413A1A807EE70520FFF719
:102EE000D9FC9CE7274B3022009318210F4B01F0AF
:102EF0001BFE254B18800F4B0004000CD8625BE7CB
:102F00001D4A1370BEE7C046A4020020007C0008E2
:102F10006C0200208B02002008030020DE0000204D
:102F2000C6000020AC010020C8000020CF07000030
:102F3000B8010020002C0140A401002088010020DD
:102F40008C0100208E010020900100206D020020E5
:102F5000FE020020500200209C0100206B030000B4
:102F60009A0100205E0500009E01002098010020CB
:102F70004202002074010020480200207801002055
:102F800070010020E7030000C400002010B5164BBC
:102F900016481B783021013B5A4253414374144B6D
:102FA0001B78013B5A4253418374124B1B78013BFF
:102FB0005A425341C374104B1B78013B5A42534150
:102FC00003750E4B1B78013B5A42534143750C4B22
:102FD0001B78013B5A42534183750A4B0A4A1B78BE
:102FE000C37502F0C5FD10BD8B020020A4020020B5
:102FF0006C02002008030020DE000020C600002034
:10300000AC010020C8000020007C00080D4B1B789C
:10301000002B08D00C4B1B685B0408D40B4A1368C8
:10302000013313607047084B1B685B04F6D4084AF1
:10303000136801331360022BF4DD0022034B1A6086
:10304000F0E7C046920100201C000140540300201C
:103050006402002070B52D4C2D4D21782D4A2D880D
:10306000481E43009D52558813885B1995885B194B
:10307000D5885B19158952895B199B18264A5B1004
:103080001360264B1B68012B2BD0C0B2002821D027
:10309000012320701940224B1970224B1B78002B02
:1030A0002BD001F08FFDFA231F4ADB0012689A42F1
:1030B00008D91E4B1E4A1B781278134302D00122F6
:1030C0001C4B1A7000231C4A13601C4A13601C4AD4
:1030D000136070BD0623012223701A4B01211A7060
:1030E000D9E70131C9B206290BD821700B400C4A2F
:1030F00013700C4B1B78002BD3D12078FFF78EFA7E
:10310000CFE7104A237013700123F0E7A5010020D8
:10311000DC0000207002002044030020F0000020AA
:1031200092010020EB02002060020020FE0200203D
:1031300048020020E8020020540300201003002071
:1031400004030020890200200121154A10B5D3682C
:10315000144C8B43D360228853009B18124A128868
:103160009B189B102380FFF775FF104A2388127865
:10317000D9084A430E495B089B1A0A600D4A13603E
:103180000D4B1B78002B07D00C4A0D4913688B425E
:1031900001DC0133136010BD01F00AFDF4E7C04605
:1031A00000200040DC000020E0030020C8000020D8
:1031B000580200200C030020E8020020FC0300203D
:1031C0000F270000334B10B51B687D2B12D98023CD
:1031D000DB055B6A7C2B36D98023DB055A6A2E4BD4
:1031E0001B885B089A421DD32C4A13680133136075
:1031F000642B49DC8023DB055A6A294B1A80294B52
:103200001B78002B0FD0284B1968002927DD802060
:103210000023264CC00102E001338B421FD02268FC
:103220000242F9D010BD204B19680023002916DD99
:1032300080201E4CC00102E001338B420FD0226877
:103240000242F9D1EEE79623194A9B0012689A428E
:10325000C2DA184A643B12689A42BDDAE2E701F02A
:103260009DFC80230021DB055962134A134B127821
:103270001868D0401860124B5962D8621961DA6838
:1032800001310A43DA60CDE701F088FC0022094BE6
:103290001A60C7E760020020DC0000200003002065
:1032A000E003002092010020EC0000201C000140FF
:1032B000A0020020FC030020E80000200C030020F6
:1032C0000020004010B50B4C2368002B05D001F006
:1032D0006FFC0122084B1A6010BDFFF7BBFE074BC5
:1032E000074A1A808023074ADB055A6201232360BC
:1032F000EDE7C046F002002094010020DC00002031
:103300001027000088130000F0B5DE4657464E46F1
:103310004546BB4CE0B52388BA4A01339BB285B021
:10332000238093420DD9B84BB84D1888FEF712FD93
:10333000B749FEF71BFA2968FEF77CF800232860DE
:103340002380B44B1B78002B67D1B34CB34DB44AE8
:103350002B781278134372D1B24B1A789946B24B3C
:103360009846186893009B181B012E33834200DA9D
:10337000E9E0AE4BAE4F0393AE4BAF4E9A46AF4B28
:103380009B461B78002B08D0012B00D148E2022B72
:1033900000D142E200235A461370A94B1B78002B40
:1033A00000D0D4E138683360002804D10122A54B55
:1033B0001A70A54B1860A54B1B78002B00D00EE2AD
:1033C000039BA34D1B789B462B78002B00D171E10A
:1033D0005A46002A00D1FBE09E4A9F4D91463A682A
:1033E000002A00D1D5E0424612682F2A00DCD0E046
:1033F0009A4B1B78002B00D065E2994B1F88994BA4
:103400009B4636685B46300019887843FDF70EFF0F
:10341000954B013080B21880E9E0944A7E4C1388C5
:1034200001339BB21380A022520093428ED9012314
:103430007A4D7B4A237012782B7813438CD0854BBE
:10344000854D99468A4B03211868FDF7EFFE894E9A
:10345000010033782860002B3ED12378002B5BD10C
:103460004A46C82312885B009A4224D9C221FF2011
:10347000814A890053581B021B0A53500431535888
:103480008343BF38034353507C4A136801331360AE
:103490007B4A934208DD654D2C78002C00D0DDE19D
:1034A000784A934200DDC0E105B0F0BCBB46B246AD
:1034B000A946A046F0BDC22080216F4A8000135863
:1034C000C9051B021B0A0B43C3211350FF208900AF
:1034D000535883435350D7E76B4F386801F036FB9E
:1034E0002B685A08904211D9FA22920093420DD2C9
:1034F0000A21554A116065490A7801320A70644A06
:103500001168CA0F52184B4952100A8000223B60C2
:1035100023783270002BA3D03C4B1868FDF772FF64
:103520000A2180B2FDF7F8FD5A4C83B22488364A4E
:1035300059495A48128809880078009401F0E8FD3A
:1035400001F0C2FD8CE7394B03931B78002B37D079
:10355000374F3B68002B00D14EE1364B9A46504B1B
:103560001B88002A00D19FE13E4A7F2112880092E9
:103570004C4A01F0D9FA304E30604B461A7893002D
:103580009B1842461B0112682E33934200DA17E75C
:10359000F5E62E4A1278002A22D0002B20D0314B9B
:1035A000366819882E4B30001F884B1C984678438C
:1035B000FDF73CFE4346181A2B4B80B2188016E0EC
:1035C000234B1B789B46002B70D01A4B1A4E9A4601
:1035D0001E4B1B78002B00D0FDE01E4B1E4D994664
:1035E00000220020204B36681A801D4B1F8853464E
:1035F0001E802D4BDF6258639863D86322E7C04674
:103600008002002010270000520200207C020020CF
:103610000000614550020020F4020020FF0200205B
:103620004002002008030020D40200205C02002099
:10363000F0020020DA020020A0020020EA020020AE
:10364000DE000020E8020020FC03002048020020E9
:10365000EB020020DC00002060020020C6000020F9
:10366000B8010020C40000203803002030030020EF
:10367000440300208902002000E100E0F80200205D
:10368000C4090000A8610000E40300208A020020B1
:1036900088010020DC030020360300204C030020BA
:1036A0008C010020FF070000002C0140A34BA44F19
:1036B0009A46A44E31683868A34BA44A1D78142357
:1036C00012682B4193420ADDA14B1B688B4201DD3E
:1036D00019003360C823AB408B4200DA89E0002830
:1036E00024D0002D22D09B4B9B485D7E984B9B4A5B
:1036F0001D600388128801339BB203809A4215D261
:10370000974B99464A46974B12889A4200D80BE14C
:10371000954B9C461B8801339BB2C82B00D8FDE01B
:10372000C823624613800023038001E08C4B994636
:103730008E4B1B688B4200DA33608D4B1B78002B5D
:1037400028D15A468B4D002A00D048E648E73B680E
:10375000002B0FD10121884A336011707B4A13601E
:10376000864A1360864B1B789B46002B00D1A5E050
:10377000FFF744F80022834B1A60834B77321A60BC
:10378000824B78321A604B461B78012B00D017E62B
:103790002B7015E6FA23774D5B002A689A4239D9D7
:1037A0000A200A217A4B1970534631681B88CA1ABD
:1037B00082426BDD4A461B183360FA2311885B0096
:1037C000994268D901215A46724B19700023002A88
:1037D00000D004E604E7624B664D9946DFE66E4D85
:1037E0002B78002B00D081E0039B00211B789B46A7
:1037F00062E71900336072E75F4B1B78002B00D142
:1038000085E001233B604D4B9A465146504B1B6867
:103810000B80A4E61E201E21C4E7FFF723F9B9E5BB
:10382000FFF7F8F85B461B78B1E5FEF7B3FE002220
:103830005A4B2C701C605A4B1C705A4B1C605A4BD4
:103840005C639C63DC63594B9C625C62584B591C03
:10385000FF3104C39942FCD1FFF732FAFEF79AFE1A
:1038600000224E4B2A701A604D4B1A704D4B1A6055
:103870004D4B5A639A63DA634C4B9A625A624C4BD3
:10388000591CFF3104C39942FCD1E5E7591A814222
:1038900001DD1B1A336000215A463E4B197000238C
:1038A000002A00D09BE59BE6424A2F211288009215
:1038B000414A01F039F9234E30605EE6FEF76AFEB8
:1038C0005B46336056E749463A4B08881A889B4660
:1038D000009253086021C82201F026F9374B87B2C5
:1038E0001F801C4BDA7D364B1A708AE5FA20354B67
:1038F0008000196801F02AF9FA239B009C46604475
:103900003060FEF795FD039B1B789B465CE5FFF757
:10391000D9FC4B461A784346186872E7AD089D42B9
:1039200008D963461D80FEE60F4B9C461B88013B71
:103930009BB2F2E662461380F5E6C046DA0200204A
:10394000F0020020A0020020FE020020FC03002064
:1039500088010020A40200200A030020BA010020F0
:10396000DC000020102700008C010020E400002073
:103970007E01002060020020E80200206402002096
:103980006D0200203C030020F8030020F00300201B
:103990007D010020E8000020EB020020D40200207E
:1039A000D802002014030020002C014000400140F8
:1039B00000040020C4000020FF070000B801002020
:1039C000C8000020E4020020F8B5694B1A68002AFC
:1039D0005AD1B420674940000B6801330B60834221
:1039E00000DB9BE0B424644A9B009858634A400083
:1039F0001368640001331360A34200DB98E05E4A61
:103A00009B009C586400B4265D4A7600136801331D
:103A10001360B34252DB002313605A4B1B78002B18
:103A200054D1594B03211F68FDF700FCFA21C2193C
:103A30005001801A800080180001801AC900FDF72B
:103A4000F5FB524D032168632000FDF7EFFBFA21DF
:103A5000C2195001801A800080180001801AC90024
:103A6000FDF7E4FB0321A8633000FDF7DFFBFA213B
:103A7000C7197801C01B8000C0190001C01BC90014
:103A8000FDF7D4FBE86348E03A4A1368013B136052
:103A9000002B50DB384A9B009858384A4000136886
:103AA000013B1360002B51DB334A9B009C58344A86
:103AB00064001368013B1360002B52DB2E4A9B000D
:103AC0009E5876002F4B1B78002BAAD0FA212E4B44
:103AD000C9001F682D4D381843011B1A9B001B1885
:103AE0001B01181AFDF7A2FBFA213C19686360015B
:103AF000001B800000190001C900001BFDF796FBA8
:103B0000FA21BE19A8637001801B80008019000192
:103B1000801BC900FDF78AFBE863F8BDB4240A6086
:103B2000164A6400136801331360A34200DA66E7A3
:103B30000023136067E76823B120FF3313600F4A47
:103B400040001368013B1360002BADDA6823B124F9
:103B5000FF3313600A4A64001368013B1360002BB3
:103B6000ACDA6823B126FF3313607600AAE7C046BB
:103B7000F00000203C030020E8660008F803002065
:103B8000F003002041020020F4000020002C01403E
:103B9000F8B58027FF057D6A1E4B1F4E1D80002350
:103BA0007B6233882D045800C0182D0C40191B4B24
:103BB000801084B219683480FDF738FB184B640814
:103BC0001860184B241A1C60201A7B6A5B1B9842F1
:103BD000FBD8FFF73FFA0023134A14491360144A35
:103BE00009781360134A136801331360124A12787C
:103BF0000A4302D11E2B07DCF8BD632BFCDDFA2340
:103C00003288DB009A42F7D800220C4B1A7000F081
:103C1000CFFFF1E7E0030020DC000020CC00002013
:103C2000580200200C03002054030020480200200A
:103C300064020020FC030020FE020020E8020020B5
:103C4000F0B5DE4657464E464546E0B501248FB0F6
:103C500001F05EFB01F056FF1021AF4B1A6A2243C0
:103C60001A621A6A0A431A628022196A52000A43C7
:103C700004211A621A6A0A431A621A6A3C310A4318
:103C80001A628022196AD2000A431A621A68224311
:103C90001A608022596C12020A435A645A692243FC
:103CA0005A619E4B1A6A22431A621A6822431A60AA
:103CB0009B4B1A6822431A605A6922435A61DA6898
:103CC0002243DA60DA68A243DA60964B1A6822432C
:103CD0001A605A6922435A618023DB051A6822431D
:103CE0001A605A6922435A618F4B1A6822431A603C
:103CF0005A6922435A61DA682243DA6002F03EF8D8
:103D000001F0E2FF02F010F80023884A0D931368D7
:103D100087491C43874B14601868FDF7FDF90301C0
:103D2000181A0A218000FDF7F7F90D900D9B002B62
:103D300005D00D9B013B0D930D9B002BF9D1FEF798
:103D4000FDFF7D497D4A0B78D078984201D100F083
:103D50009AFED3704B7813710023CC18A478D01836
:103D6000013344710C2BF8D1FFF710F9744B1B7819
:103D7000002B05D0734B1B680293029A724B1A609A
:103D8000724B73491B78013B5A1E9341714A136071
:103D9000714B1A88714B1A800B78002B01D1684A3D
:103DA00013706F4B1B78002B01D000F049FE6D4B58
:103DB00009936D4B02936D4B05936D4B0A936D4BBD
:103DC00006936D4B0B936D4B1B78002B01D100F0CC
:103DD00031FE0123029A1370694B1A000493694B58
:103DE0001380FEF78FFD01F09BFB674B674A1A605B
:103DF000674B1B78002B04D00123029A1370504AA2
:103E00001370FEF76BFF00F073FF624A624913689C
:103E100000241B051B0D13600B6012685F4B120C16
:103E200080211A60002349018A425B41E5225B42FE
:103E300093435B4AE63313705A4B5B4D98465B4B9A
:103E40005B4E9A465B4B9B464F4B504A1A605A4B0F
:103E5000594A1B68013313602B6801332B60642BB4
:103E600000DDC3E0554B1B68554A1460424612689A
:103E70009A4218DA534B1B78002B14D1514A013364
:103E80001370514B1B78002B05D1504B1B78002B26
:103E900001D000F007FCFEF78DFD4D4B1B78002B89
:103EA00001D12F4A1370029B4A4A1B781278012BCA
:103EB00000D15FE2002A00D008E1474A1278002AC8
:103EC00000D003E153461B6833602C4B1B78002B5A
:103ED00000D17EE1414B30681B78002B00D131E3EB
:103EE0003F4B984201DD180033601B4B30211B888B
:103EF0003C4A0093002300F017FE3B4B186000285B
:103F000000DCD4E12F4B1B78002B00D1CFE1024B1A
:103F100058639863D86397E7002C01400040014044
:103F20000020004000480140001000401C000140FB
:103F3000400D0300D4010020C0100008A40200209E
:103F400008030020A0010020880100208B0200202F
:103F5000DE000020F0000020C4000020B801002096
:103F600048020020B40100206C0200207C010020E7
:103F7000FE020020AC0100208C0100204002002045
:103F8000DC0000208813000000300040AAAA0000D6
:103F90004102002000580140440200204C02002051
:103FA0005C030020D000002054020020E402002026
:103FB000EC0300206802002084020020140300208B
:103FC000000300205C0200206F020020420200205B
:103FD000F5020020EC0200208C0200206E0200207E
:103FE0006C070000FF070000D4020020B24AB34B68
:103FF00010881B78C01A80B2B14B10801A88B14B60
:104000001700190058439946FDF786F8C31B98001E
:10401000C018AD4B00011988C91BFDF707F9AB4B60
:104020001E3082B21A80AA4BAA491878C300181A07
:104030008018A74BC0101870A74B18884B465843E0
:10404000FDF7F4F8A54B64211B785843FDF7EEF813
:10405000A34BA0491A88D3009B1AC018A04AC310CA
:1040600013801F009F4B1B88D800C01A9E4B1B88D3
:10407000C0189C4BC01018804B465843FDF7D6F82B
:104080009A4B9B4A400018809A4993680B40042140
:104090000B439360984B1B78002B13D0974BB8B20F
:1040A0001A78974B1B885343984200DB5FE2954B8D
:1040B000944A1B8801339BB21380FA2292009342E8
:1040C00000D990E3904B2C601B68CDE6002B00D10B
:1040D000F8E653461A688323DB009A4200DBCDE101
:1040E0001300303BFA2189008B420FD28749884F59
:1040F000087801213F68091A0397B94200D1BAE252
:104100005B002F33834909785B1A33602F2A00DD67
:10411000DBE6814B00201C70804B34601B78002B49
:1041200000D0E2E6FA217E4A890012688A4200DC69
:10413000AFE25A4613607B4B00221B78002B00D164
:1041400018E25B461C60784B1A60784B1B78002B9A
:1041500078D1774B77481968FDF768F843001B184A
:104160005B0098B2744B0A211880744B1B6858434B
:104170000393FDF75BF8724B1860059B1B78002BCF
:1041800000D01AE2664B1B680393632B00DDF7E156
:10419000049B1B880C226B490A60632B02D8022304
:1041A000684A1360684B1B78002B03D0674B654A45
:1041B0001B781360664B1B78002B00D18EE15F4BA0
:1041C0001B680393002B00D06BE18023DB055B6A47
:1041D0003AE6FA205249326809688000814200DDDF
:1041E00044E1002A00D127E1642900DD40E1594B78
:1041F0001B78002B02D09F2A00DC27E1494B18785E
:10420000002800D129E1C8235B009A4299DB524B78
:1042100019786423434301334B43594609688B4261
:1042200091DA069B1B78002B8DD0FEF7B3F900F0D6
:10423000B5FC3D4B5A461C60662313603B4B1B7814
:10424000002B86D0454B1B789946002B00D0C7E148
:10425000354B1B68302B00DCA8E1414A1278002A5C
:1042600000D1A3E1313B572B00D90DE300F096FCC0
:10427000FEF708FBFFF7A8FB3A4B3B481B781900F9
:104280009946FCF7D3FF0390C320274A4946800094
:104290001768FCF7CBFF039B009089223021380080
:1042A00000F042FC314B186000F056FCCCE5304B7E
:1042B0005C639C63DC63C7E5DE0300205C030020D5
:1042C000B8F7FF1FE40C0000C2F7FF1F3403002003
:1042D0004C030020FF0F000040030020C700002017
:1042E00036030020FC020020E803002052020020D8
:1042F00000240140E8FFFF7F420200206F020020FF
:1043000074010020DE020020140300208B02002034
:10431000F0000020910100206E02002040020020E9
:10432000FC03002088020020D4020020FF020020AD
:1043300044030020A0860100DC030020F0020020DE
:1043400060030020EC000020E00200207601002045
:10435000E802002008030020D400002041020020D1
:104360005C02002090010020581B0000A8010020E2
:10437000002C0140002A00D0ABE6DC4A1278002A6B
:1043800000D0A6E6DA490978002900D1FCE1D94934
:1043900050460978006849008C46FA21890061443A
:1043A00081421BDAD44F3F78BC46D44F3F68039715
:1043B000BC4500D1E5E2D24B1B78002B00D084E550
:1043C000FA22D04BD20000932F2300F0ADFBC94B53
:1043D00030601B785B009C4653461868FA2263469F
:1043E0009200D21A824200DCE3E20121C24B1B7828
:1043F000CF1ABC46C14F3F680397BC4500D1B7E216
:10440000BF4B1B78002B00D05FE52F3300930021BA
:10441000BC4B00F089FB524630601068FA22B54B65
:1044200092001B785B00D21A824200DD4DE5FA2231
:10443000920094466344BFE25B461A6064291ADC2A
:10444000B14B00221B78002B00D1D7E65B461C60E5
:10445000AE4B1B78002B00D073E6952A00DC89E078
:104460000A23AB4900200B700A21D2E659460B60A3
:10447000C72A00DDBBE65B461C60B8E69E4B9F4941
:104480001B78096803918B4200D1E6E0A14BA2485A
:104490009C461300007851006144091A303B31609A
:1044A00020E600F07BFBFEF7B1FD9C4B1B680393FD
:1044B000002B13D19A4B1B78002B00D145E2994B6E
:1044C0001B680393984B1B680793079A039B9342BF
:1044D00004DD0123914A1360FFF75AFB8023DB05BB
:1044E0005A6A924B9A4200D8AEE4914B1B689946A7
:1044F000012B00D0A8E45B465A461B6801331360C9
:10450000FFF746FB00F04AFB4A468A4B1A70884B7D
:104510001C60894B1C607D4B1B78002B00D193E401
:104520000A9B1B78002B00D18EE46E23834A136014
:104530000B9A13880A339BB2502B01D950230B9A44
:10454000138081E4302800DCCFE46C4B1B680393BC
:10455000002B79D0FEF71EF80A2000F0FDFA0620A5
:10456000FEF75CF80123764A30681370B8E4754BA7
:104570001C80A7E56423664900200B70642148E68F
:10458000FA22049B52001B88934200D902E66E4B2C
:1045900064211B680393082303980093053B00F0F4
:1045A000C3FA6A4B1860049B1B88F6E5684B5C6392
:1045B0009C63DC63FEF722F946E4664A099B1268B5
:1045C0001B680392644A12680792644A079912684A
:1045D00008920092039A00F0A7FA614B1860D1E5A7
:1045E0009623604A5B00136000F0D8FAFEF74AF9A0
:1045F0005346FA2118688900B423884200DC02E19E
:10460000FA225B000093D200B43B00F08DFA564BC7
:1046100080B21880554B1B88834200D901E1834248
:1046200001D3FFF711FC354B1C60FFF7CDF94D4B63
:104630001B681800039300F08FFA4C4B4B4A1B8801
:1046400001331380FFF700FCFDF7A4FF0A2000F000
:1046500083FA0320FDF7E2FF84E70499444A0988BE
:10466000914200D901E1434A1278002A00D0FCE0CF
:1046700053461A604DE5049A3D4B12889A4200D980
:10468000E3E03C4B1B78002B00D0DEE05246136089
:104690003FE559460B60642A00DCD1E65B46002208
:1046A0001C60A4E5B921344B49001B8818001F0089
:1046B000FCF732FD314AB923107000225B009146AD
:1046C0009F4201D2FFF7E9FBFEF774F9642000F086
:1046D0004DFA2B4B2B4A1A6001239C46274BE14491
:1046E0001B784B45F0DCFFF7D8FBC0468C0200205E
:1046F00048020020980100208B020020F0000020DA
:10470000EB020020FF0700000803002088020020C1
:10471000D4000020FFF7FFFF9101002010030020CC
:10472000920100205403002084010020C8AF000043
:10473000F0020020E8020020FC0300208801002095
:104740006E020020DE02002060020020EC0000204B
:10475000002C01407001002078010020B0010020F1
:10476000E4000020A8010020E2000020E00000207A
:10477000DC050000FF020020360300206F0200204D
:1047800000300040AAAA0000C34B1A78FA23520056
:104790009B00D11853461868814200DBA9E0BF4B4B
:1047A000BF4A1B7812680392934200D1D2E0FA22EA
:1047B000BC4BD20000932F2300F0B6F95246306074
:1047C0001068FA22B44B92001B785B00D21A824226
:1047D00000DD95E0FA22920094466344834201DAB8
:1047E000FFF773FB95E4B04B1C60FDF7D3FE00F0C0
:1047F000D5F9AE4B2C601C60AD4B1C60AD4B1C70F2
:104800000023FFF731FB0A0000930021002300F092
:104810008BF9A94B80B21880A84B1B88834200D823
:10482000FDE601239E4A1360FFF7CEF8A44B1B68F8
:104830001800039300F090F9A04BA04A1B88013B9D
:104840009BB213809C4A1088E9E69E4B9E4A1C60EE
:1048500001231370924B186000F0A0F99B4B1C7061
:1048600053461A685300313B4CE401228C49D31A59
:104870000B60944B1C60944B1A7000F08FF9934BB3
:104880001C7053461A6801E6FFF79EF8864B1B68BA
:104890000393C82B51DC8A4B186800F05DF98C4BF0
:1048A0001B68002B01D0FFF7CFFA8A4AFF20137054
:1048B0000122914649467D4A1160834A117004994C
:1048C000854A0A8085490A608021C9054A627D4A75
:1048D0001360834B834A1B6818401370FDF79EFEDC
:1048E0004946814A53690B435361FFF751F9FFF77A
:1048F000ABFAFA239B009A1A904201DBFFF709FCFE
:10490000664B674F197801233F685B1A0397BB42D8
:1049100041D02F2300210093624B00F005F952464D
:1049200030601068FA225C4B92001B785B00D21A50
:10493000824201DDFFF7C9FA4CE74A46644B50203A
:104940001A6050235E4A1360A7E7684B1B68039305
:10495000674BB8E50498674A0088904235D85D4AAD
:104960001278002A31D1FA205346800018601EE7E1
:104970004E4F3F68002F52D05F4B34601970FFF7E5
:10498000A4FA3260494A12680392002A4DD05A4A6A
:104990001370FFF79AFA0498564B008898422AD869
:1049A0004C4B1B78002B26D1FA2053468000186010
:1049B000AFE7FA239B006344984201DDFFF785FAD5
:1049C0004D4B34601C70FFF780FA01223449D31A32
:1049D0000B603C4B1C603C4B1A7000F0DFF83B4B0B
:1049E0001C70534618682C4B1978FA239B009C4680
:1049F00049006144DBE6334B334A1C6001231370EA
:104A0000274B196000F0CAF8304B1C7053461868E9
:104A1000214B1A78FA2352009B009A1A79E7204911
:104A200037600B60344B1B78ECE462469B1A1C4ADF
:104A30001360C0E4FDF738FF304B0493FFF7D3F960
:104A40002F4B30481A000993FA239B001360012270
:104A50002D4B1A700293002303702C480B700270C8
:104A600005902B4803702B4802702B4A0A90137054
:104A70002A4B06920B931A0064231380284A503362
:104A80001360FFF7A0F94C781079844201D0FFF74A
:104A900060F9FFF76BF9C046980100208B020020F7
:104AA000F0000020FF070000D4020020F0020020E8
:104AB000140300205C020020E2000020E00000203F
:104AC000A8010020FC030020E80200206E02002064
:104AD0003C030020FF020020282300006002002089
:104AE000D8000020A5010020002C01405403002024
:104AF00080010020DC050000EB020020DC0000202B
:104B0000B4010020080300206C0200207C0100207A
:104B1000C6000020FE020020AC0100208C01002015
:104B2000880100207047C04610B51C00884200DA9A
:104B300008001300824200DD030002985B1A001B8C
:104B40005843511AFCF772FB001910BD0300401ABC
:104B500000D5C81A7047C0460023034A5362536AFF
:104B60008342FCD37047C046004801400022012127
:104B7000084B5A62084A9A625A690A435A615A6A49
:104B80008242FCD3302201219A625A690A435A6157
:104B90007047C0460048014080BB0000034B1A68C4
:104BA00000221A60802292035A617047000401407B
:104BB0008023034A9B0311680B4313607047C04670
:104BC00000040140164B1B78012B25D0042B23D069
:104BD000022B1DD0052B1BD0032B0CD0062B0AD08B
:104BE000104B1B78002B0DD000220F4B9A608022B7
:104BF0009203DA60704741220C4B1A60094B1B7814
:104C0000002BF1D1084AD36080239B039360F1E726
:104C10006121064A1160DFE75121044A1160D7E79C
:104C2000A501002092010020000401401C00014069
:104C3000104A114913680B4010210B431360802266
:104C40000E4B5202D9680A43DA60DA680C490A400E
:104C5000DA6060220B4B01219A615D3A1A620A4ABE
:104C600012789A623D22DA62084A11705A690A4340
:104C70005A61704758000240EFBFFFFF001002402A
:104C8000FFFFFEFF00400140040500201803002044
:104C90000F4A104913680B40136080220E4B5202DA
:104CA000D9680A43DA60DA680C490A40DA600121FF
:104CB0000A220B4B99611A620A4A12789A620A4ACE
:104CC000DA625A690A435A610022084B1A70704727
:104CD00058000240EFBFFFFF00100240FFFFFEFF41
:104CE00000400140C8010020FFFF00001803002021
:104CF00010B5FFF7CDFF0022194B1A485A621A4B24
:104D00001A491A680240102A26D0194A9A60D960B6
:104D1000154B18495A680968120C12040A430221FB
:104D20005A601A680A431A601A6806310A431A6000
:104D30001A6807390A431A608022094B9200D86822
:104D40001043D860D8680243DA601A6A0A431A62CC
:104D50001A680A431A6010BD054ADA609960D7E7FD
:104D600000400140104000005800024000040020B4
:104D700034400140C001002010B5FFF759FF194B26
:104D800019481A6819490240102A27D0184A996010
:104D9000DA601E21134B5A68120C12040A435A603F
:104DA0001A681C390A431A601A6806310A431A60E5
:104DB0001A6807390A431A6080220E4B9200D8689D
:104DC0000243DA601A6A0A431A628022586C12029D
:104DD00002435A641A680A431A6010BD044AD96033
:104DE0009A60D6E75800024010400000F80000200A
:104DF0003440014000400140F0B54F464646D6469B
:104E0000484B494CC0B59A461C60484B484D9C469F
:104E1000002362461360474A290013709146464AB0
:104E200000261370454A002090460027137008C9D9
:104E30007C350A689A4206D0D31AA34201D21C00DC
:104E400001270126C018043113008D42F1D1002F33
:104E50003FD053461C60A31E002E41D0624640093D
:104E60001060012B19D831283ED9FA239B009C42AF
:104E70000BDD0123424613702F22314B1A70314B48
:104E80000C3A1A60304B213A1A6001222F4B1A70EB
:104E9000E0BCBA46B146A846F0BD231F032BE4D8B8
:104EA0003128F2D801234A461370254A1370284A44
:104EB0001370284B284A5A622C22284B1A70284B10
:104EC000284A1A601F4B284A1A6020221E4B1A607B
:104ED000DBE7002E21D063464009134C1860C4E77D
:104EE00062461660012B14D80023154A1370184A25
:104EF00013704A46013313702C22184B1A70184B4A
:104F0000184A1A600F4B184A1A6020220E4B1A607A
:104F1000ABE7231F032BC5D9A7E76346024C1E60EE
:104F2000A3E7C0461C030020204E0000000500201F
:104F3000000400208C020020E9020020F50200207D
:104F4000C8010020D0000020C0010020D8020020AD
:104F50000405002000400140FFFF0000BC010020CC
:104F6000C4010020E8FD000010270000F0B591B05A
:104F70001C22002109A8FDF763F88020434BC001E3
:104F8000996900250143996180219A69C90202400B
:104F90000292029A5A6901260A435A615B694027C4
:104FA0000B400193019B0223394C049303A9013365
:104FB00038480593069607960895039701F044FA3A
:104FC0002368354AC6201340102213432360236808
:104FD000324AC0211340202223602368800093437B
:104FE000236023686032BB432360236809061343B0
:104FF000236023682A4A134023602368294A134008
:10500000294A236013581B021B0A0B4313508023A9
:105010001B051360E1235B02099308230A950B9596
:105020000C950E950F95214D09A928000D9300F0C0
:10503000DDFFAB681E4A1F481340AB606B681E4A19
:105040001E4913402A226B60AB689343AB602B6808
:105050001B4A1E432E6023680340102B13D0A1600F
:10506000E2600B4B17495A680978120C12040A4384
:1050700002215A601A680A431A601A6806310A4304
:105080001A6011B0F0BDE160A260EAE700100240D2
:105090001C00024000040048EFBFFFFFFFCFFFFFEE
:1050A000FFFCFFFFFFF3FFFF00E100E000380140DD
:1050B000FFFBFFFF10400000FFB7FFFF08050020C7
:1050C00028380140C90100200C2008210D4B10B5E3
:1050D0001A680D4C82430A430C491A604A682478C6
:1050E000120C1204224380244A609A6822439A6078
:1050F0000A687F3C22430A6004211A6882430A43FB
:105100001A6010BD00380140C90100201C00024097
:10511000F0B505AC164E24880D0A3700B170327117
:10512000110AB3711A0A230A7570F3710725002357
:1051300034723070F1707271741C09370822434068
:1051400004E0013AD2B2DBB2002A09D059B25B00C6
:105150000029F6DA013A6B40D2B2DBB2002AF5D16F
:10516000A74202D020780134E8E77372F0BDC04650
:10517000080500207047C046FEE7C0467047C0469D
:105180007047C0467047C046094B1A6892060AD558
:105190000021084A1170102201215A60064A136842
:1051A0008B43136070471A681206FBD5F3E7C046BD
:1051B00000000240F40200201C0002408022164B36
:1051C000D202196810B5114203D014490978002998
:1051D0000AD1114B1A68920312D41A68120302D52D
:1051E000802252025A6010BD0A240D48016AA14370
:1051F000083C214301625A60074B1A689203ECD5C0
:105200008022012152025A60064A13688B431360C0
:10521000FDF7DAFCE7E7C04600000240F502002097
:1052200000400140580002408022054B920359691A
:1052300010B5114200D110BD5A61FDF7C3FFFAE766
:1052400000040140054B10B51A69D20700D410BD07
:10525000022252421A61FEF757F8F8E700100040A8
:10526000022210B5024B52421A61FDF76DFF10BDCC
:10527000002000407047C0467047C046074B1A697F
:10528000920702D5032252421A61044B1A69D207CF
:1052900002D5022252421A617047C04600400140C6
:1052A000074B1A69920702D5032252421A61044B36
:1052B0001A69D20702D5022252421A617047C046CB
:1052C00000040040084B10B51A68920706D4082263
:1052D000054B19680A4200D05A6010BD01225A607D
:1052E00000F0DEFCF3E7C04600000240074B1A69FD
:1052F000920702D5032252421A61044B1A69D2075F
:1053000002D5022252421A617047C046002C014069
:1053100000B51B4B1B4883B01B4A9A1802CB116087
:105320008342F9D101230320184A916919439161FD
:10533000926913400193019B154B196881431960D1
:10534000FA211A68890002431A60124B1868FBF7A9
:10535000E3FE802301385B04984200D3FEE7C021BE
:105360000D4A090650600D48036A1B021B0A0B43D5
:105370000362002393600733136062B603B000BD7D
:1053800000100008C010000800F0FF1700100240D5
:1053900000000140D401002010E000E000ED00E03A
:1053A0000122364910B50B68934313430B600B6819
:1053B0001A425FD00121324A13680B431360013156
:1053C00013681942FCD0F82113688B4378390B43DA
:1053D0001360536B7F390B435363294A0131536B7D
:1053E0001942FCD0F821536B8B4378390B4353633C
:1053F000536A7F390B435362214A0131536A194280
:10540000FCD053681F491940A0239B030B430F2175
:105410005360D36A8B43D362802311685B040B43D0
:1054200080211360164A890413680B42FCD0F021D6
:105430005368134C8B435360536813490B4003214B
:10544000536053688B4301390B4353600C226368EC
:105450001340082BFBD10D4800F024FE0B4800F050
:1054600031FE0422636B93436363236B013A9343DE
:10547000236310BDFFF756FB9CE7C04600200240A7
:1054800000100240FFFFC2FFFFF8FFFF006CDC02CC
:1054900070B58EB01822002102A8FCF7D1FD1022B1
:1054A00000210AA8FCF7CCFD80201A4A800251692D
:1054B0009025014351615369002403400193032661
:1054C000019B0223ED0508A92800089309960C9476
:1054D00000F0BAFF202308A92800089309960C942D
:1054E00000F0B2FFC321FF200B4B89005A588243C2
:1054F0005A50802252011A60502302A90748029490
:105500000394049305940694079401F01FF80EB0D9
:1055100070BDC0460010024000E100E01C000140E8
:10552000094B0A4A07211A60094A1A6002225A6086
:10553000FA2212019A60DA681142FCD1054A1A6116
:10554000054A1A607047C04600300040CCCC0000CD
:1055500055550000FF0F0000AAAA0000F0B5DE4676
:1055600057464E464546E0B59DB01422002103A89B
:10557000FCF766FD2022002114A8FCF761FD18222B
:10558000002108A8FCF75CFD182200210EA8FCF7FA
:1055900057FD8022794E1201B36900241343B36191
:1055A000B369904613400293029B6B469C81744BF7
:1055B0006A4605930023734D03A9280013770494CA
:1055C000069400F085FD80222B68914613432B60E2
:1055D000AB686D4A012113400822AB60AB6992466B
:1055E0001343AB61602314AA2800149315941694F6
:1055F0001794189419941A941B9400F0B3FD042284
:10560000AB69934693434246AB61AB6910211343A8
:10561000AB6114AA28001594169400F0A3FD51461E
:10562000AB695A4A5A4F1340AB617B6828000B4361
:105630007B6080235B009A4614AB1A005146159498
:10564000169400F08FFD59467B6828008B43414635
:105650007B607B6815940B4380217B6014AB1A0040
:105660004901169400F07EFD7B68484A2C211340C6
:1056700070227B606B68802793434A466B60AB68FF
:10568000BF0193436A46AB602D23521813706B46DB
:1056900008A92800DC85089409940A940C970D94B5
:1056A00000F076FE8021726989020A437261736993
:1056B00002250B4080210193019B7269C9020A43B4
:1056C0007261736990260B400093009B4B46F60570
:1056D0000EA930000E930F95109411941294139507
:1056E00000F0B2FE01230E932A4B0EA99846180033
:1056F0000F95109411941294139500F0A5FE0EA925
:1057000040460E950F95109411941294139500F045
:105710009BFE53460EA930000E930F9510941194E2
:105720001294139500F090FE80230EA99B00300088
:105730000E930F95109411941294139500F084FE1B
:1057400080230EA9DB0030000E930F951094119466
:105750001294139500F078FEC3200F4B80001A5866
:105760000E491140802212020A431A501F601DB0D8
:10577000F0BCBB46B246A946A046F0BD00100240B0
:10578000CF070000002C0140F8BFFFFFFFFBFFFF29
:10579000182C01400004004800E100E0FF00FFFF7A
:1057A00030B587B001AD142200212800FCF748FC79
:1057B0000123134A8024D169E4051943D161D269D8
:1057C000290013400093009B17232B8000230D4AD0
:1057D00020006B60AA60EB6000F07AFC80222368F6
:1057E000094993432360A3680B407021A360636859
:1057F0008B436360A3689343A36007B030BDC0468A
:1058000000100240FFFF0000F8BFFFFF30B587B077
:1058100001AD142200212800FCF712FC1023C42043
:10582000134A8000D169134C1943D161D2691249DE
:1058300013400093009B114B1A5811408022120212
:105840000A431A50802292021A602F232B800023D1
:1058500029006B6020006433AB6000F039FC8022CB
:10586000236893432360A3689343A36007B030BDCC
:105870000010024000100040FF00FFFF00E100E0C8
:1058800030B587B001AC142200212000FCF7D8FB12
:105890008020134A4000D169124D0143D161C421D7
:1058A000D369114A034000938900009B5358280094
:1058B0001B021B0A535080231B0313601723FA2279
:1058C00023800023120121006360A260E36000F0E6
:1058D000FFFB80222B6813432B6007B030BDC0460E
:1058E000001002400020004000E100E010B586B04A
:1058F0001422002101A8FCF7A3FB80200E4AC0025D
:1059000091690E4C0143916193696A46034000938B
:10591000009B2F2393800A4A002303926A462000AB
:1059200001A902930493137500F0D2FB802223682F
:105930009343236006B010BD0010024000480140B0
:10594000FFFF00000123114A82B05169104819433A
:105950005161C2215269890013400193019B0D4B93
:105960005A5810408022D20302435A50802280208D
:10597000D2001A605A58C0051202120A02435A5045
:10598000802212011A6002B07047C0460010024027
:10599000FFFF00FF00E100E0002210B5802488B086
:1059A000114B07925869A40220435861802059691D
:1059B000C0022140019101995969014359615B6914
:1059C00002A903400093009B90208023C0051B0286
:1059D000836202930123049203930592069200F0DE
:1059E00033FD08B010BDC04600100240F0B58FB0C6
:1059F0001422002103A8FCF723FB8020394B40022E
:105A0000996900240143996180219A6989020240C1
:105A10000292029A5A6990200A435A615B690326EE
:105A20000B400193019B04230125089308A9023B25
:105A3000C00509930B940D940A960C9500F004FD93
:105A4000294B2A491A6880270A401A601A6828498F
:105A5000FF200A4020211A601A688A431A601A68D7
:105A600020318A431A601A682249BA433A431A60BD
:105A70001A681140802252000A431A601A681E49AF
:105A80001140802212010A43C5211A601B4B890074
:105A90005A5882435A50802252031A606B469C81A6
:105AA0003F236A460593002304940694144C03A9EB
:105AB0002000137700F00CFB0C222368BB4323600B
:105AC000A369B3432B43A361A3699343A361A36970
:105AD000E4329343A361236AE63A134323620FB08F
:105AE000F0BDC0460010024058000240EFBFFFFF6B
:105AF000FFCFFFFFFFFCFFFFFFF3FFFF00E100E030
:105B00000040014000B583B0FFF74AFC0122164B6C
:105B100099691143996199690A4080210192019A1A
:105B2000DA6949050A43DA61DB69104A0B40102142
:105B30000093009B13680B431360FFF72DFFFFF7E3
:105B400001FFFFF70BFDFFF72BFEFFF7A1FCFFF7AF
:105B500097FEFFF75BFEFFF7C9FEFFF747FFFFF772
:105B600005FA03B000BDC04600100240002002400C
:105B7000F0B54746CE4680B585B016006A46CB0FD5
:105B80005B185B1098465B000733DB08DB00D31A19
:105B900000AF9D466D460C0081464246002128001C
:105BA000FCF74EFA012C0BDD4846002341780278C1
:105BB00009025C000A4301332A5302309845F5DCA0
:105BC000434601212D4A7B60D3681942FCD11369F9
:105BD0001B0605D52A4B1B6853602A4B1B68536074
:105BE000B30516D10221254A13690B43136156618F
:105BF00013693E310B4313613F39D3681942FCD11D
:105C00002023D1680B4236D102211C4A13698B43F1
:105C100013610023BB60FB60FB687A689A421FD95E
:105C20000120202215490B6903430B61FC68BB6806
:105C30006400645B9B191C80CB681842FCD1CB6864
:105C40001A4200D0CA600B6983430B61BB68023300
:105C5000BB60FB680133FB60FC687B689C42E2D35D
:105C60008021BD46054A13690B43136105B0C0BCD2
:105C7000B946B046F0BDD360C6E7C046002002403A
:105C8000CC010020D0010020002A06DD5218401A65
:105C90000B78435401319142FAD170477047C046A6
:105CA000054B064A998811801988054A11805A883F
:105CB000044B1A807047C04614050020DE03002004
:105CC00040030020E8030020C220124B80001A5835
:105CD00011491140C02212020A431A5080220321A6
:105CE00092001A600D4B0E4A9A600E4ADA605A68AA
:105CF000120C12040A435A601A6801390A431A60E6
:105D00001A6806310A431A601A6807390A431A608A
:105D10007047C04600E100E0FF00FFFF08000240BE
:105D200040240140140500200023124A82B0019350
:105D300093681149194080231B060B4393609368B5
:105D4000002BFCDB01230193019B002B05D0019B61
:105D5000013B0193019B002BF9D1064A0649936848
:105D60000B4001210B43936013681942FCD002B031
:105D70007047C04600240140E8FFFF7FF0B5C646EB
:105D800000B592B01022002103A8FCF759F91422A3
:105D9000002107A8FCF754F9102200210EA8FCF7F7
:105DA0004FF98020424B800099699024014399610A
:105DB00080219A69890202400292029A5A6900255A
:105DC0000A435A615B6908260B400193019B032338
:105DD0009846E4050CA9200040270D930C961095D9
:105DE00000F032FB43460CA920000D930C97109550
:105DF00000F02AFB2F4B30491A68304C0A401A60D9
:105E00001A682F4920000A4020211A601A680A43A4
:105E10001A601A686031BA431A601A680A431A6035
:105E20001A6828491140802252000A431A601A68F1
:105E3000254911408022D2000A431A60A36A2349EF
:105E40003343A362A36A3B43A3628023A26A5B023B
:105E50001343A3620B681E4A1A4080231B0413439A
:105E60000B60802303A91B060393049505950695F3
:105E700000F0B8FA012307A920000A9307950895B6
:105E800009950B9500F0C8FA04220721E3689343B3
:105E9000E36063698B4301390B4363616368934338
:105EA00063606368B343636012B080BCB846F0BD02
:105EB0000010024008000240EFBFFFFF0024014035
:105EC000FFCFFFFFFFFCFFFFFFF3FFFF08270140AD
:105ED000FFFF3FFE80220C4B5202586870B5104005
:105EE00042425041094A40421040094A0F24944618
:105EF000D96A6044214001315D68FBF70DF9AD0CB2
:105F00002C400234604370BD0010024000F7C2FF15
:105F100000127A000E4B10B55A680C23040013408F
:105F2000082B11D00B4B0A4923604A680A48120615
:105F3000120F825CD34063604A6808495205520FD1
:105F40008A5CD340A36010BDFFF7C4FF0300EAE7FB
:105F50000010024000127A00886C0008986C00085B
:105F6000030010B50020002B1DD11C4A0333116B18
:105F70000B40022B27D0032B1DD05268012B13D0CE
:105F80000C231340082B26D1FFF7A4FF134B144911
:105F90005A685B681206120F8A5C5B05D040114A92
:105FA0005B0FD35CD84010BD0B331340082B08D1D6
:105FB000FFF790FFF7E713680222100018401A421B
:105FC000F1D00948EFE71800126A10401342EAD0F6
:105FD00080200002E7E70448D8E7C04600100240EE
:105FE000886C0008986C000800127A0030B50368CD
:105FF00004000D0085B0DB071DD44B68C96802683A
:106000000B4329690B43A9690B4320490A401343F9
:10601000036043681E4A1340AA68134343608368C1
:106020001C4A13406A69134383601B4B984205D096
:106030001A4B984218D0012005B030BD0020FFF760
:106040008FFF0028F7D029680029F4D08023AA699F
:106050001B029A420DD04B081818FBF75DF800049C
:10606000000CE0600020E7E701A8FFF753FF03986A
:10607000E7E74B084000C018FBF74EF8084B034019
:106080000007400F1843E0600020D5E7F369FFFFE9
:10609000FFCFFFFFFFFCFFFF00380140004400403E
:1060A000F0FF0000FA2110B58900FBF735F8002257
:1060B000034B013858609A6005321A6010BDC04623
:1060C00010E000E0014B18607047C046D40100208A
:1060D0001D4A0368904226D08022D205904219D0F2
:1060E0001A4A904216D01A4A904217D0194A904242
:1060F0001DD0194A90421AD0184A904217D0036016
:106100008B68C3620B888362012243691343436136
:1061100000207047702293434A681343104A13408B
:10612000CA681343EBE7702293434A6813430C4A4F
:106130001340CA68134303608B68C3620B88836291
:106140000B7C0363E0E7C046002C014000040040E4
:106150000020004000400140004401400048014050
:10616000FFFCFFFF802370B55B00994200D175E012
:1061700041D8012900D1B3E010296DD1036A784DCF
:106180008B430362036A466884692C4015682D02BC
:106190002C432025AB431D0013691B012B438B436C
:1061A00051680D016F492B43884208D06E498842DF
:1061B00005D06E49884202D06D49884214D18021B1
:1061C0008B431D00536940399B012B438B439168DE
:1061D0008D0168492B430E409169674D8900314319
:1061E0002940D569EE000E43D2684660846182631F
:1061F0000362002031E080235B0199422CD1016AC7
:106200005E4E574C31400162036A4568C1692140C6
:10621000146824020C435A49194013691B030B43A9
:106220005168334009030B434E49884208D04E4918
:10623000884205D04D49884202D04D49884204D158
:1062400050490D40916989010D43D2684560C46190
:1062500002640362002000E0012070BD7324016A23
:10626000494E31400162036A4168C569A54314681B
:106270002543464C1C4013691B022343546833409A
:1062800024022343374CA0420FD0374CA0420CD0FD
:10629000364CA04209D0364CA04206D0D2684160AC
:1062A000C561C26303620020D7E7334E314C1E4004
:1062B00053699B023343314E234094680E409169E9
:1062C000A402234309012E4C31432140D469D268F2
:1062D000660131434160C561C26303620020BCE7CF
:1062E0007326036A8B430362036A44688569B54376
:1062F000166835430226B343166933438B4351680E
:106300000B43184988420FD0174988420CD01749CF
:10631000884209D01649884206D0D2684460856117
:1063200042630362002098E708218B4319005369F8
:106330009B000B4304218B43916889000B43124956
:106340000C4091690C4311490C40D169D268490055
:106350000C43446085614263036200207DE7C046D0
:10636000FF8CFFFF002C0140004001400044014031
:1063700000480140FFFBFFFFFFF7FFFFFFEFFFFFBC
:10638000FFDFFFFFFFBFFFFFFFFEFFFFFFFDFFFF80
:106390008A680B7B13430D4A13404A6813430C4A27
:1063A00013400A6813430B4A1A40CB8913430A4A25
:1063B00013400A691343094A13404A6908491343C1
:1063C0000B401343436400207047C046FFFBFFFFB0
:1063D000FFF7FFFFFFEFFFFFFFDFFFFFFFBFFFFF45
:1063E000FF7FFFFF8268030010B50120D20710D4A1
:1063F0008C684A68D8682243CC6809682243054CF7
:10640000204002430020DA601A69920092080A4391
:106410001A6110BDC73FFFFF8368020010B501205D
:10642000DB070ED44C680B68D06823438C68234389
:10643000CC68096923430B430249014000200B4308
:10644000D36010BD3CC2FEFFF0B5DE4657464E4657
:106450004546E0B50A684B6883B0002A00D172E077
:106460009C46012301245B4263449846A3460023D3
:106470000AE00E69C56874434E4635402C43C4603B
:1064800014000133DC4041D05C4615009C4025409F
:106490002242F5D02C006C436700BA46A24457460E
:1064A000FF43B94657460668BE43674667433E43C7
:1064B00006604646012EDCD88668B2468E6857468E
:1064C000664301964E4637403E00019F3743876042
:1064D000C6684F46B2460E69664301965646374037
:1064E0003E00019F37436646C760022EC8D1FF2D8C
:1064F0001DD86443056A2601361BB5434E69013336
:1065000074432C4304621400DC40BDD14346012B8C
:1065100005D84368C96893434A431A434260002040
:1065200003B0F0BCBB46B246A946A046F0BD2D0A5A
:106530006D436D43446A2E01761BB4434E69754327
:10654000254345629CE7013B9846DFE71B4B30B58E
:10655000C2188023D2001B029340194C25681D40AD
:10656000AB4215D0A04215D04D680B6820682B4374
:106570008D682B43CD682B430D6949692B430B4331
:10658000104993409140884303430020236030BD6D
:106590000120FCE74D680B6804682B438D682B4392
:1065A000CD682B430D6949692B430B430649934042
:1065B00091408C43234303600020E8E7E4FFFEBFE3
:1065C0001C0001407C3F00007E3F0000F8B5C04643
:1065D000F8BC08BC9E467047F8B5C046F8BC08BC7D
:0465E0009E4670471C
:1065E4002A190008B618000824180008DE17000845
:1065F40024180008F218000824180008DE17000800
:10660400B6180008B6180008F2180008DE170008CB
:10661400E4170008E4170008E4170008001900084C
:10662400B6180008B618000824180008DA1700087D
:1066340024180008F218000824180008DA170008C3
:10664400B6180008B6180008F2180008DA1700088F
:10665400E4170008E4170008E4170008FC18000811
:106664006C2200080823000802230008FC2200080A
:106674006C2200086C2200086C220008EA22000840
:10668400D6220008C6220008B42200086C220008A2
:10669400AE2200086C2200086C2200086C2200085C
:1066A4006C2200086C2200086C2200086C2200088E
:1066B400A022000864220008191B12131D151617C6
:1066C4001A090A0B1E0D0E0F7C2600087E260008F0
:1066D400BE260008102700084A270008A027000843
:1066E4002A260008B4000000B7000000BA00000029
:1066F400BD000000C1000000C4000000C70000008D
:10670400CA000000CD000000D0000000D30000004B
:10671400D6000000D9000000DC000000E00000000A
:10672400E3000000E6000000E9000000EC000000C7
:10673400EF000000F2000000F5000000F700000088
:10674400FA000000FD000000000100000301000049
:1067540006010000090100000B0100000E01000009
:1067640011010000130100001601000019010000CE
:106774001B0100001E010000200100002301000095
:1067840025010000280100002A0100002C0100005E
:106794002F01000031010000330100003501000029
:1067A400380100003A0100003C0100003E010000F5
:1067B40040010000420100004401000046010000C5
:1067C40047010000490100004B0100004D01000099
:1067D4004E0100005001000051010000530100006F
:1067E4005401000056010000570100005801000048
:1067F4005A0100005B0100005C0100005D01000023
:106804005E0100005F010000600100006101000002
:1068140062010000630100006301000064010000E4
:1068240065010000650100006601000066010000CA
:1068340067010000670100006701000068010000B3
:1068440068010000680100006801000068010000A0
:106854006801000068010000680100006801000090
:106864006701000067010000670100006601000085
:10687400660100006501000065010000640100007C
:106884006301000063010000620100006101000077
:10689400600100005F0100005E0100005D01000076
:1068A4005C0100005B0100005A0100005801000077
:1068B400570100005601000054010000530100007C
:1068C40051010000500100004E0100004D01000084
:1068D4004B0100004901000047010000460100008F
:1068E4004401000042010000400100003E0100009C
:1068F4003C0100003A0100003801000035010000AD
:1069040033010000310100002F0100002C010000C0
:106914002A010000280100002501000023010000D5
:10692400200100001E0100001B01000019010000ED
:106934001601000013010000110100000E01000007
:106944000B01000009010000060100000301000022
:1069540000010000FD000000FA000000F700000044
:10696400F5000000F2000000EF000000EC00000061
:10697400E9000000E6000000E3000000E000000081
:10698400DC000000D9000000D6000000D3000000A5
:10699400D0000000CD000000CA000000C7000000C5
:1069A400C4000000C1000000BD000000BA000000E7
:1069B400B7000000B4000000B1000000AE00000009
:1069C400AB000000A7000000A4000000A10000002C
:1069D4009E0000009B00000098000000950000004D
:1069E400920000008F0000008C000000880000006E
:1069F40085000000820000007F0000007C00000091
:106A040079000000760000007300000071000000AF
:106A14006E0000006B0000006800000065000000CC
:106A2400620000005F0000005D0000005A000000EA
:106A34005700000055000000520000004F00000005
:106A44004D0000004A00000048000000450000001E
:106A540043000000400000003E0000003C00000035
:106A6400390000003700000035000000330000004A
:106A7400300000002E0000002C0000002A0000005E
:106A8400280000002600000024000000220000006E
:106A9400210000001F0000001D0000001B0000007A
:106AA4001A00000018000000170000001500000084
:106AB400140000001200000011000000100000008B
:106AC4000E0000000D0000000C0000000B00000090
