:020000040800F2
:10100000002000205D140008893D00088D3D000887
:1010100000000000000000000000000000000000D0
:10102000000000000000000000000000913D0008EA
:101030000000000000000000953D0008993D0008F8
:10104000AD140008AD140008AD140008AD1400087C
:10105000AD140008AD140008AD140008AD1400086C
:10106000AD140008B13E00089D3D0008DD3D0008BC
:10107000153E0008D93E0008AD140008AD14000864
:101080008D3E0008313E0008000000004D3E000883
:10109000693E0008613E0008AD140008AD14000868
:1010A000AD140008AD140008AD140008653E00083A
:1010B000AD14000800000000AD140008000000009E
:0E10C000014049466C696768745F3530412015
:1010D00010B5064C2378002B07D1054B002B02D00E
:1010E000044800E000BF0123237010BDD40100209C
:1010F00000000000B8510008044B10B5002B03D0CD
:101100000349044800E000BF10BDC04600000000D5
:10111000D8010020B8510008002243088B4274D344
:1011200003098B425FD3030A8B4244D3030B8B42E8
:1011300028D3030C8B420DD3FF22090212BA030CF1
:101140008B4202D31212090265D0030B8B4219D3D2
:1011500000E0090AC30B8B4201D3CB03C01A5241F2
:10116000830B8B4201D38B03C01A5241430B8B423A
:1011700001D34B03C01A5241030B8B4201D30B0323
:10118000C01A5241C30A8B4201D3CB02C01A52414A
:10119000830A8B4201D38B02C01A5241430A8B420D
:1011A00001D34B02C01A5241030A8B4201D30B02F6
:1011B000C01A5241CDD2C3098B4201D3CB01C01A10
:1011C000524183098B4201D38B01C01A524143091A
:1011D0008B4201D34B01C01A524103098B4201D308
:1011E0000B01C01A5241C3088B4201D3CB00C01A75
:1011F000524183088B4201D38B00C01A52414308ED
:101200008B4201D34B00C01A5241411A00D2014611
:10121000524110467047FFE701B5002000F0F0F89A
:1012200002BDC0460029F7D076E7704703460B435E
:101230007FD4002243088B4274D303098B425FD3CF
:10124000030A8B4244D3030B8B4228D3030C8B42FB
:101250000DD3FF22090212BA030C8B4202D31212E1
:10126000090265D0030B8B4219D300E0090AC30BB6
:101270008B4201D3CB03C01A5241830B8B4201D363
:101280008B03C01A5241430B8B4201D34B03C01A4C
:101290005241030B8B4201D30B03C01A5241C30AC4
:1012A0008B4201D3CB02C01A5241830A8B4201D335
:1012B0008B02C01A5241430A8B4201D34B02C01A1F
:1012C0005241030A8B4201D30B02C01A5241CDD2C4
:1012D000C3098B4201D3CB01C01A524183098B420F
:1012E00001D38B01C01A524143098B4201D34B01F8
:1012F000C01A524103098B4201D30B01C01A52415B
:10130000C3088B4201D3CB00C01A524183088B42E1
:1013100001D38B00C01A524143088B4201D34B00CA
:10132000C01A5241411A00D201465241104670473C
:101330005DE0CA0F00D04942031000D34042534041
:1013400000229C4603098B422DD3030A8B4212D301
:10135000FC22890112BA030A8B420CD38901921133
:101360008B4208D3890192118B4204D389013AD070
:10137000921100E08909C3098B4201D3CB01C01A45
:10138000524183098B4201D38B01C01A5241430958
:101390008B4201D34B01C01A524103098B4201D346
:1013A0000B01C01A5241C3088B4201D3CB00C01AB3
:1013B000524183088B4201D38B00C01A5241D9D2CB
:1013C00043088B4201D34B00C01A5241411A00D24C
:1013D0000146634652415B10104601D34042002B48
:1013E00000D54942704763465B1000D3404201B5C7
:1013F000002000F005F802BD0029F8D016E770477C
:101400007047C04670B500260C4D0D4C641BA410EF
:10141000A64209D1002603F0CFFE0A4D0A4C641BF8
:10142000A410A64205D170BDB300EB589847013611
:10143000EEE7B300EB5898470136F2E70C58000886
:101440000C5800080C5800081058000803008218B7
:10145000934200D1704719700133F9E70D48854672
:101460000D480E490E4A002302E0D458C4500433FC
:10147000C4188C42F9D30B4A0B4C002301E01360D3
:101480000432A242FBD303F0FFF9FFF7BBFF01F0E8
:10149000ADF8FEE700200020C0000020D4010020AD
:1014A00014580008D4010020E8040020FEE70000E2
:1014B000F0B5DE4657464E464546994999480B6871
:1014C000CA6FE0B5D21A0260974887B0844662447A
:1014D0003A2A5FD80C00954A8034100000E00B686F
:1014E0004D680831EB1A5B0908C08C42F7D11368CC
:1014F000116A9B460191516A136903915946009301
:101500005368506902939368956A0493009BAC46B4
:1015100059400B000199D5684B40D9008846029B81
:10152000039943404B4041469B000B4329000590E3
:101530006046D669D76A7140794094690B43049933
:101540006140414049000B43116BDBB2C900884642
:10155000516B89008946414648460143D06B926BE6
:10156000014352000A437249D2B28946097888463B
:10157000002916D16F498A46097800295FD00F21CA
:101580008A4651468A1AD2B29A4210D06A4A1368E1
:101590000133136007B0F0BCBB46B246A946A04673
:1015A000F0BD644909780029E9D19A42EED10022C0
:1015B000624B1A60624A136801331360012F01D134
:1015C000604B1F705B46029A9B02520213436246B5
:1015D0001343049AED0110021843009B0543980140
:1015E000059B05435B011D432401019B2C43F60031
:1015F00026439C00039B2643590031432F2926DCB8
:101600004B1E2E2B2BD800224F4B504C1A602160C2
:101610004F4B1B68002BBDD14346002BBAD04D4B1E
:101620001A788A4233D0197004293BDC4A4A0023D5
:101630001370152920D8494B89005B589F460F31FC
:10164000891A8B42A0D151460120087097E73E4B82
:101650003E4A1960002313603F4A13709AE700293D
:1016600010D1394B1960394B19603B4B197091E718
:101670003B4B1A783B4B1A603B4B22681A70002395
:10168000236087E7314C21680029C1DC82E7324AB8
:101690000429CCDD13780133DBB21370052B00D89D
:1016A00078E7C4E701222C4B1A7073E72C4B1A78A9
:1016B00001239B1A2B4A1360DEE701222B4B1A7081
:1016C00000232B4A13604A461370D5E70023274AAC
:1016D00013704A461370264A1360CDE70122204B4F
:1016E0001A70244B92181A70C6E700221C4B1A700D
:1016F000204B01321A70BFE702F01CFBBCE702F07E
:1017000073FAB9E702F09EFAB6E700F0A3F9BFF367
:101710004F8F194B194ADA60BFF34F8FC046FDE770
:10172000D00300207002002045FBFFFFF4010020E1
:1017300044020020780200206C020020D002002029
:1017400074020020CC020020BC02002018030020FC
:10175000C802002034020020F0010020D05100080F
:1017600067020020E4000020B5020020540200209F
:10177000EC020020C202002000ED00E00400FA05A7
:10178000294B70B51B68002B42D0284B1A680F23D9
:101790001100194101293FD0013B082BF8D100214C
:1017A000234B196093B2180A1909414059400F237D
:1017B0001800120188431F4902430A601E49101392
:1017C0000C5C18001040085CE4030443101218403D
:1017D0001211085C1A408B5C800204435B01174EB7
:1017E0001C43174B30001C6040231321012533623A
:1017F000243000E004302A008A402240CA409B097D
:1018000053409B0103600139F4D20023F36170BDA2
:101810000C4A064B1A60BAE7083B1A4104490B60B0
:1018200059020A43BEE7C046C80200201403002044
:1018300038020020F802002028520008EC000020A6
:10184000FC020020FFFF0000BFF34F8F034B044A50
:10185000DA60BFF34F8FC046FDE7C04600ED00E001
:101860000400FA05F8B5154D01F058FEEB68144A6E
:10187000FA201A408023FA2410279B001343EB60C0
:10188000800002F049FF0F4EA4002B691F4202D1D5
:101890003388013333800A20013C02F03DFF002CE5
:1018A000F3D1064A0649D3680B40D3603388052B31
:1018B00000D9F8BD01F048FCFFF7C6FF000400485E
:1018C000FFFCFFFFB8020020F0B5C64600B5494C4A
:1018D00030222000484982B002F0CCFF637C474FA1
:1018E000013B5A425341464A1370A37C013B5A4282
:1018F00053413B70E37C012B65D0424D267D013E78
:1019000073425E41404BF6B21E709846637D013BC8
:101910005A4253413D4A1370A37D013B5A42534101
:101920003B4A1370E37D032B00D90223394A13701D
:10193000207E0300183B182B4CD9374B374A1380B5
:10194000374AD362637E1A00323A642A35D85B087C
:101950001A0034490A3209780F3352182A60324A81
:1019600013802823A57EC8215D43304B1435ADB2CA
:101970001D80E27E2E4B28001A70237F013B5A42C5
:1019800053412C4A1370637F013B5A4253412A4A08
:101990001370FFF7C1FB294B80B218606421280047
:1019A000FFF7BAFB264B80B228301860002E00D11A
:1019B0003E7002B080BCB846F0BD962355222B6025
:1019C000194B1A80CDE71F4A0E4D13701E4B1B6832
:1019D0002B6093E71D4B3022009318210E4B02F031
:1019E00083FE1B4B18800E4B0004000CD86243464C
:1019F0001E78A7E780020020007C00085402002027
:101A0000670200207C010020D6000020C2000020D8
:101A1000A0010020C3000020CF070000AC0100207F
:101A2000002C01409801002080010020820100204C
:101A30008401002055020020D40200206C01002007
:101A400064010020E002002094010020E703000070
:101A5000C000002010B5164B16481B783021013B02
:101A60005A4253414374144B1B78013B5A42534131
:101A70008374124B1B78013B5A425341C374104B81
:101A80001B78013B5A42534103750E4B1B78013BB7
:101A90005A42534143750C4B1B78013B5A42534108
:101AA00083750A4B0A4A1B78C37502F057FE10BDB6
:101AB000670200208002002054020020E002002083
:101AC000D6000020C2000020A0010020C30000209A
:101AD000007C000800B51B4B1B4883B01B4A9A18BA
:101AE00002CB11608342F9D101230320184A916986
:101AF00019439161926913400193019B154B196839
:101B000081431960FA211A68890002431A60124B56
:101B10001868FFF701FB802301385B04984200D36B
:101B2000FEE7C0210D4A090650600D48036A1B02FA
:101B30001B0A0B430362002393600733136062B6F2
:101B400003B000BD00100008C010000800F0FF172F
:101B50000010024000000140D001002010E000E031
:101B600000ED00E00D4B1B78002B08D00C4B1B68E0
:101B70005B0408D40B4A1368013313607047084BA9
:101B80001B685B04F6D4084A136801331360022B08
:101B9000F4DD0022034B1A60F0E7C0468601002006
:101BA0001C000140240300204C02002070B5294D88
:101BB000294C2978294A20884E1E73009852508853
:101BC00013881B1890881B18D0881B1810895289FD
:101BD0001B189B18224A5B101360224B18680128BF
:101BE00027D0F0B200281CD00123287019401E4BCA
:101BF000197001F0EDFA01F02FFCFA2322881B0185
:101C00009A4206D9194B1B78002B02D00122184B9F
:101C10001A700023174A1360174A1360174A13609B
:101C200070BD062301222B70154B062001211A706E
:101C3000DDE70131C9B2062906D802000800297083
:101C40000A40094B1A70D4E70D4B01222870187016
:101C5000F7E7C04699010020D40000205802002078
:101C600014030020E400002086010020640200200C
:101C7000C002002024030020E8020020DC02002033
:101C8000650200200121164A10B5D368154C8B431C
:101C9000D360228853009B18134A12889B189B100C
:101CA0002380FFF783FF114A23881278D9084A431B
:101CB0000F495B089B1A0A600E4A13600E4B1B7893
:101CC000002B05D180230D4A9B0311680B43136041
:101CD0000B4A0C4913688B4201DC0133136010BDC1
:101CE00000200040D4000020AA030020C3000020F0
:101CF00040020020E4020020C00200200004014055
:101D0000C80300200F270000354B10B51B687D2B42
:101D100012D98023DB055B6A7C2B36D98023DB0557
:101D20005A6A304B1B885B089A421DD32E4A1368AF
:101D300001331360642B4DDC8023DB055A6A2B4B87
:101D40001A802B4B1B78002B0FD02A4B19680029C7
:101D500027DD80200023284CC00102E001338B42A4
:101D60001FD022680242F9D010BD224B196800230F
:101D7000002916DD8020204CC00102E001338B4297
:101D80000FD022680242F9D1EEE796231B4A9B004E
:101D900012689A42C2DA1A4A643B12689A42BDDA61
:101DA000E2E701F051FB8022164B92035A61802337
:101DB0000021DB055962144A144B12781868D04090
:101DC0001860134B5962D8621961DA6801310A430D
:101DD000DA60C9E701F038FB0022094B1A60C3E75B
:101DE00048020020D4000020D8020020AA030020CE
:101DF00086010020E00000201C0001407C02002041
:101E0000C803002000040140DC000020E4020020A0
:101E10000020004010B50D4C2368002B09D0802312
:101E20000B4A9B0311680B4313600122094B1A6094
:101E300010BDFFF7BBFE084B084A1A808023084AF2
:101E4000DB055A6201232360E9E7C046C80200208F
:101E50000004014088010020D40000201027000069
:101E600088130000F0B54546DE4657464E46E0B5BD
:101E7000CC4D85B02B78002B4DD0CB4DCB4FCC4BE0
:101E800003211868FFF7D2F9CA4C010023783860A3
:101E9000002B00D0D1E0C84B1B78002B00D0BEE057
:101EA000C8232A885B009A4224D9C221FF20C34A52
:101EB000890053581B021B0A535004315358834363
:101EC000BF3803435350BE4A136801331360BD4A01
:101ED000934208DDBC4D2C78002C00D026E2BB4A92
:101EE000934200DD09E205B0F0BCBB46B246A9460C
:101EF000A046F0BDC2208021B04A80001358C90519
:101F00001B021B0A0B43C3211350FF2089005358A7
:101F100083435350D7E7AE4B98461868AD4B1A78B9
:101F20009A4693009B181B012E3383422DDBA64B50
:101F3000A94C9946A94B9B46A94B0393A94E3378CC
:101F4000002B07D0012B00D11AE2022B00D114E2A2
:101F500000233370A44B1B78002B00D18BE05B4631
:101F60001E68002E00D189E1A04F0023A04A236003
:101F7000136077229F4B1A609F4B78321A6053464A
:101F80001B78012B0DD12B700BE08F4B99461B78E2
:101F9000002B00D083E0914B8F4C1E68904B934FE9
:101FA0000393964B39681A78142313418B420BDD47
:101FB0002168934B1B688B4201DD19002360C82305
:101FC00093408B4200DA2360002E00D18FE08D4BCE
:101FD0001B78002B00D18AE08B4F8C4A3B881288FB
:101FE00001339BB23B809A4200D380E06E4D884B18
:101FF0002A889A4200D95BE1864B9B461B88013BAD
:102000009BB29A465B4652461A80C82A00D8A5E180
:10201000C8235A461380002322683B8069E07E4B28
:102020007E4A19887E4B18787E4B1B880093C82304
:1020300001F07CFD01F056FD32E77B4E306802F086
:1020400065FB3B685A08904211D9FA22520093422C
:102050000DD20A21654A116074490A7801320A706A
:10206000674A1168CA0F52185D4952100A8000224F
:10207000336022700FE723605B461E68002E00D09D
:102080000BE101226A4B1A70584B1E605B4B1A78A9
:1020900014231341002B00DC11E1002189E74F4B91
:1020A0009B461B68002B00D1DBE04D4B0393FA22CB
:1020B000584BD2001B882F2100925E4A02F014FB7D
:1020C00053461A78444CD3069B1A9B009B1ADB009C
:1020D000181893009A18434612011B682E3220608C
:1020E0009A4200DB2AE75B46404F1E6859E72268A8
:1020F0002D4D514B1B68934200DA23604F4B2B4F01
:102100001B78002B19D0FA233A685B009A4200D959
:10211000A4E01E211E224A4B1A70039B22681B88D2
:10212000D01A884234DD5B182360FA232A885B00CA
:102130009A4232D90122434B1A704B461B78002B2E
:1021400017D0002E15D043461B682F2B11DD3E4BB8
:102150001B78002B00D0BFE03C4B1E8824683C4914
:1021600020007043FFF762F83A4B013080B21880CC
:1021700006E000220020374B24681A80334B1E886B
:10218000039B1C80344BDE6258639863D86376E609
:102190009A1A8A4201DD5B1A23600022294B1A70C9
:1021A000CBE7C046D5020020D40000204802002022
:1021B0001403002065020020CC02002000E100E0B2
:1021C000D0020020C409000044020020A8610000E1
:1021D000B0020020E00200207C020020C8020020A3
:1021E000B6020020C2020020D6000020C803002052
:1021F0000C030020C4030020BC0300206402002064
:102200007C010020D4020020E2020020AE01002068
:10221000282300008001002010030020E2040000B9
:102220001C0300202C030020B003002066020020C5
:10223000C0020020FF070000D8000020720100202B
:1022400071010020DC000020C2000020AC01002051
:10225000CF07000008030020002C01400A210A22B9
:1022600059E7494B1B78002B31D001235A461360A4
:10227000464B474A1B680392138018E70122424BE2
:10228000444F1A70444B26601B783E60002B19D0D7
:1022900001F08EF85B461E6867E6404B3D491A78B0
:1022A000142309681341994200DB90E6002180E67F
:1022B0003B4B9B461B8801339BB29A46A2E6002209
:1022C000384D16E700F040FF5B461E684DE6FFF70D
:1022D000A1FD43461868C8E7334BC8221B882888ED
:1022E00060210093314B02F0FFF9314B86B21E8022
:1022F000304BDA7D304B1A7030E700F025FF0022BA
:102300002E4B2C701C602E4B1C702E4B1C602E4BC9
:102310005C639C63DC632D4B9C625C622C4B591CA0
:10232000FF3104C39942FCD1FFF78EFA00F00CFF95
:102330000022224B2A701A60214B1A70214B1A601E
:10234000214B5A639A63DA63204B9A625A62204B9C
:10235000591CFF3104C39942FCD1E5E7154B032119
:10236000587EFEF7D9FEC0B203001533534500DA9C
:1023700051E65B46163018804DE601F0B5FCE7E506
:1023800001F08CFC3378E0E5C00200207C010020E5
:10239000B6020020C803002055020020640200207D
:1023A00080010020D4000020C0000020E7030000CE
:1023B000AC01002080020020C3000020B0020020F9
:1023C000B4020020EC020020002C01400004004078
:1023D000D00300204D4B70B51A68002A31D1B420CB
:1023E0004B4940000B6801330B6083425CDA494A79
:1023F0009B00985803214000FEF718FFB421464A7D
:10240000050013684900013313608B4256DA414AD4
:102410009B0098586639FF394000FEF707FFB4214A
:102420003E4A040013684900013313608B4250DABE
:10243000384A9B0098586639FF394000FEF7F6FE8F
:1024400028E0334A1368013B1360002B45DB314A17
:102450009B00985803214000FEF7E8FE2E4A050035
:102460001368013B1360002B41DB2A4A9B009858FC
:1024700003214000FEF7DAFE284A04001368013BFE
:102480001360002B3DDB234A9B009858032140003A
:10249000FEF7CCFE224B234A1B685D191C191B1842
:1024A00055639463D36370BD0A60B4211A4A7825DA
:1024B00013684900013313608B42A8DB0023B42169
:1024C0001360164A782413684900013313608B4265
:1024D000AEDB002378201360DCE76823FF33136052
:1024E0000D4A76251368013B1360002BBDDA682383
:1024F000FF331360094A76241368013B1360002BF5
:10250000C1DA6823FF3376201360C3E7E4000020BC
:102510000C03002038520008C4030020BC03002034
:10252000E8000020002C0140F8B58027FF057D6AF7
:10253000234B244E1D8000237B6233882D045800DA
:10254000C0182D0C4019204B801084B219683480BB
:10255000FEF76CFE1D4B640818601D4B241A1C60AE
:10256000201A7B6A5B1B9842FBD8FFF71FFB0022F7
:10257000184B19491A60194B1A600B6801330B602C
:102580001749097800290FD0632B0CDDFA23318815
:10259000DB00994207D2134B1A708023124A9B0327
:1025A00011680B431360F8BD1E2BFCDD0D4B0E4A6A
:1025B0001970802311689B030B431360F3E7C04637
:1025C000AA030020D4000020C40000204002002004
:1025D000E402002024030020C80300204C02002055
:1025E00064020020C002002000040140F0B5DE4675
:1025F00057464E4645460124E0B595B0FFF76AFAC6
:102600008021DA4B49059A6922439A619A692240EE
:102610001392139ADA690A43DA61DB690B40129369
:10262000129B01F06BFC01F0A1FF01F075FF01F0BE
:10263000DDFC01F041FD01F061FE01F005FF01F05C
:10264000CDFE01F091FE01F03BFF1021C84B1A6A4C
:1026500022431A621A6A0A431A628022196A5200D5
:102660000A4304211A621A6A0A431A621A6A3C313E
:102670000A431A628022196AD2000A431A621A684F
:1026800022431A608022596C12020A435A645A6922
:1026900022435A6101F094FFB64BB7491A6A2243AC
:1026A0001A621A6822431A60B44B1A6822431A60ED
:1026B0005A6922435A61DA682243DA60DA68A2432F
:1026C000DA60AF4B1A6822431A605A6922435A6192
:1026D0008023DB051A6822431A605A6922435A6133
:1026E000A84B1A6822431A605A6922435A61DA6871
:1026F0002243DA600023A44A119313681C43A34BBE
:1027000014601868FEF708FD0301181A0A218000FA
:10271000FEF702FD1190119B002B05D0119B013B90
:102720001193119B002BF9D101F032FA02F01CF940
:1027300002F0C0F802F0EEF801F026F901F09EFC7C
:10274000934B944A1A60944B1B78002B00D1EBE317
:10275000924BFA201A000A9396239B001360904B29
:1027600090491A000293012313708F4A800013705E
:1027700003928E4A02241370059200220A708C493B
:102780008C4D08808C492B7008000D910E21017032
:102790005A208A490A7006918949086089490800C7
:1027A00004910A21017088480470884807900270DB
:1027B000874A13700E921422864B1A80864B0B9315
:1027C0001960864B1A000993282313603233844A18
:1027D0000F921360834B1B78013B5A1E9341824A30
:1027E0001360824B1A88824B1A802B78002B01D100
:1027F000039A1370FFF736F800F0BCFE7D4B7E4C59
:1028000098467E4B7E4E9B467E4B7F4D99467F4B36
:102810009A46236801332360322B1DDD7C4B7D49B2
:102820001A887D4B170018884843FEF775FCC31BB8
:102830009800C018794B00011988C91BFEF7F6FCF7
:10284000774B784A1E301870936877490B40042103
:102850000B439360002323600023744A13604C4BA6
:102860004C4A1A604346724A1B681268934204DD60
:10287000704B1B78002B00D144E2029B1B78012B8C
:1028800000D176E16C4A1278002A00D027E16B4A29
:102890001278002A00D022E15A46694B1B68136067
:1028A000FA21326889008A4200DD43E1002B00D121
:1028B00048E1642A00DD3FE1039A1278002A02D041
:1028C0009F2B00DC46E1344A1078002800D147E114
:1028D000C8225200934200DA8FE1049A11786422F0
:1028E000424301324A4329688A4204DA079A12783D
:1028F000002A00D0ACE04A461360524A1278002AFF
:1029000000D1B3E0302B00DCBFE14A4A1278002A44
:1029100000D1BAE1313B572B00D9F9E100F094FD29
:1029200000F08AFDFFF756FD0D9B47481B78190004
:102930000893FEF77BFC0C90D2204A460899800051
:102940001768FEF773FC892230210C9B0090380039
:1029500001F0CAFE3D4B186001F0DEFE2368013332
:102960002360322B00DC77E758E7C04600100240B6
:10297000002C014000040040400D030000200040F6
:1029800000480140001000401C000140D001002020
:1029900000300040AAAA000064020020A801002024
:1029A00054020020C2000020E0020020700100203C
:1029B00082010020D600002084010020BA020020FD
:1029C00094010020CC000020C3000020A0010020C2
:1029D000D4020020800100206C010020640100204E
:1029E0007C01002067020020E4000020C0000020DD
:1029F000AC010020EC0200203C020020B8030020C3
:102A0000C8030020B002002050020020C8020020AD
:102A1000B8F7FF1FE40C0000A8030020C2F7FF1F57
:102A20001C03002000240140E8FFFF7FD8020020A3
:102A3000C800002044020020C402002068020020D8
:102A4000BC020020D5020020581B00009C01002081
:102A500000F07AFB00F0F8FC00234A46136066336E
:102A60002B60CB4B1B78002B00D00EE1C94BCA4822
:102A70001968FEF7DBFB5346FA211B6889005843AF
:102A80000301181A8000FEF7D1FBC44B1860059BA8
:102A90001B78002B00D026E13368632B00DD06E1B4
:102AA0000C22BF4B1B88632B00D9FDE00223BD4ADB
:102AB0001360069B1B78002B03D0BB4BB94A1B78D5
:102AC0001360BA4B1B78002B00D1B6E053461B684D
:102AD000002B00D094E08023DB055B6A99E6002B95
:102AE00000D1D9E6B24B1A688323DB009A4200DB9F
:102AF000E6E01300303BFA2189008B4210D2AD4949
:102B0000AD4F087801213F68091A0897B94200D1F2
:102B100023E15B002F33A94909785B1A59460B6002
:102B20002F2A5BDD5B46FA2132681B6889008A42E6
:102B300000DCBBE600222A60C72B00DDBCE60022D9
:102B40002A60B9E62B60642AF9DC039A1278002A1D
:102B500000D1B8E600222A60994A1278002A4CD1A6
:102B6000952B00DC99E00A22049900200A700A21C2
:102B7000B5E6944B1B78002BB4D1934B1B78002BFC
:102B8000B0D1924B1A78FA2352009B00D118884B8F
:102B90001868814200DB3BE1864B874A1B7812684C
:102BA0000892934200D17FE1FA22894BD200009330
:102BB0002F2301F099FD5B46FA221860834B9200A7
:102BC00019787B4B49001868521A824200DD25E1D2
:102BD000FA239B009C4661448142A3DB00235A46B2
:102BE0002B601360039B1B78002B01D000232B600C
:102BF000734B1B78002B50D0002300222A607AE60A
:102C000000F022FCFEF7AEFF724B1B680893002B0E
:102C100013D1714B1B78002B00D140E16F4B1B6827
:102C200008936F4B1B680C930C9A089B934204DD2E
:102C30000123684A1360FFF777FC8023DB055A6A9B
:102C4000684B9A4200D8E4E553461B681F00012BED
:102C500000D0DEE52A68531C2B60FFF765FC00F00E
:102C6000F3FB524A00231770524633601360544BF3
:102C70001B78002B00D1CCE50E9B1B78002B00D1DC
:102C8000C7E578230F9A1360C3E50022564B5A63B9
:102C90009A63DA6300F08CFBBBE5642204990020A0
:102CA0000A7064211BE60C223E4B1A6001E7FA22EF
:102CB0003B4B52001B889342F5D8F23AFF3AF2E6BA
:102CC0003C4B3D491B78096808918B4253D0474BD8
:102CD0003A489C46007851006144091A130058464E
:102CE000303B016007E7424F0A9B3F68099A0B9906
:102CF0001B68126809680097089701F0F5FC3D4BC6
:102D00001860C9E63C4A0133137000F09BFFB4E53C
:102D1000FFF760FB4B461B68C82B00DD9CE0374B80
:102D2000186801F0F9FC364B1B68002B00D070E5E9
:102D3000174A5146137001223360324B0A601B68F8
:102D40001A4908930A70304B0899197026494B6943
:102D500013434B61FFF7E8FB5BE5114A2B4B1288ED
:102D60009A4200D98DE00A4B1B78002B00D088E0F6
:102D70000F4A136032E70A49244A0988914273D8FE
:102D8000034A1278002A6FD1094B1A6026E7C04621
:102D9000D50200201403002040420F002C03002025
:102DA000D4000020E000002068010020C0020020C4
:102DB000BC02002067020020E40000208501002002
:102DC00064020020C4020020680200208C01002060
:102DD000FF070000E80200208601002024030020F5
:102DE00078010020409C0000002C0140FFF7FFFF0D
:102DF000A4010020D8000020440200209C010020F3
:102E00000C030020D000002099010020DC05000008
:102E1000FA239B009A1A904200DBDFE66A4B6B4F65
:102E2000197801233F685B1A0897BB4249D02F23CA
:102E300000210093664B01F057FC5A461060654A2A
:102E400003001178644A49001068FA229200521A6D
:102E5000824200DD24E5BBE60023604A5020136077
:102E60005F4A503313605CE701225849D31A0B6064
:102E7000002333605B4B1A7000F0E6FA564B1A6879
:102E800025E70023574A3360013313704F4B186016
:102E900000F0DAFA504B1A685300313B3BE6524BD4
:102EA0001B680893514BBDE65148524A0088904236
:102EB00014D8514A1278002A10D1474B00201A60CA
:102EC00072E64B484B4B008898421BD84A4B1B7804
:102ED000002B17D1404900200B60A8E701223B4995
:102EE000D31A0B60002333603E4B1A7000F0ACFA2B
:102EF000394B1868374B1978FA239B009C464900D8
:102F0000614451E60023374A3360013313702F4B7D
:102F1000196000F099FA304B18682E4B1A78FA2392
:102F200052009B009A1A82E7FEF7CEFC3349344ADE
:102F30000B78D078984229D0D3704B781371002346
:102F4000CC18A478D018013344710C2BF8D1FEF7BB
:102F500081FD2C4B03931B78002B1CD12A4B2B4D4E
:102F60000A932B4B02932B4B05932B4B0D932B4B1F
:102F700006932B4B04932B4B07932B4B0E932B4B0E
:102F80000B932B4B09932B4B0F9323E44C78107925
:102F90008442D1D1DDE71C4A274B0A921C4A1B68A8
:102FA00002921C4A194D05921B4A0D921B4A069229
:102FB0001B4A04921B4A07921B4A0E921B4A0B9211
:102FC0001B4A0992FFF703FC67020020E40000207F
:102FD000FF0700008C010020BC0200200C03002031
:102FE0009C010020C0020020240300207401002066
:102FF000D4000020DC050000D5020020C01000082D
:1030000080020020E0020020A8010020D60000205D
:10301000540200207001002084010020BA02002028
:10302000CC000020A0010020D40200206C01002070
:10303000640100207C010020940100207047C046FC
:10304000104B114A1B78002B03D0104B1B78002B20
:1030500010D0032113688B4302390B431360916234
:103060009021C9050B680A4A1A4080231B031343A9
:103070000B607047032113688B4301390B431360C6
:10308000EEE7C046D600002000040048C30200203E
:10309000FFFFF3FF134B1B78002B03D0124B1B7861
:1030A000002B14D09023DB051A68104911408022B0
:1030B000D2010A431A6080229A629021C9050B68E6
:1030C0000B4A1A4080239B0213430B6070479021E8
:1030D000C9050B68054A1A4080231B0213430B6085
:1030E000EBE7C046D6000020C3020020FF3FFFFFF1
:1030F000FFFFFCFF104B114A1B78002B03D0104B35
:103100001B78002B11D00C2113688B4308390B431B
:103110001360022393629021C9050B68094A1A4083
:1031200080239B0313430B6070470C2113688B4370
:1031300004390B431360EEE7D6000020000400487A
:10314000C3020020FFFFCFFF0C211C4A1C4813685C
:103150008B4308390B431360022393629023DB05F2
:103160001968084080214903014319608021032028
:10317000C90099621168814302380143116090626D
:103180001A68104911408022D2020A431A60802234
:1031900092009A621A680C4911408022D2010A43B7
:1031A0001A6080229A621A680849114080225202ED
:1031B0000A431A60802252009A6270470004004855
:1031C000FFFFCFFFFFFFF3FFFF3FFFFFFFFFFCFF0E
:1031D00010B506282CD8704B80001B589F46FFF76F
:1031E00089FF03216D4A13688B4302390B43136037
:1031F00090239162DB051A68694911408022D2024E
:103200000A431A60802292009A621A686549114046
:103210008022D2010A431A6080229A611A686249A8
:103220001140802252020A431A60802252009A62A0
:1032300010BDFFF75FFF0321584A13688B43023923
:103240000B43136090239161DB051A6854491140C8
:103250008022D2020A431A60802292009A621A687F
:10326000504911408022D2010A431A6080229A629A
:10327000D4E70C21494A4D4813688B4308390B4366
:103280001360022393629023DB05196808408021B4
:1032900049030143196080210320C9009962116824
:1032A000814302380143116090611A683C49114022
:1032B0008022D2020A431A60802292009A62FFF7AB
:1032C000E9FEB5E70C21354A384813688B430839C5
:1032D0000B431360022393619023DB0519680840B8
:1032E000802149030143196080210320C9009962AC
:1032F000116881430238014311609062D5E70C21C7
:10330000264A90241368E4058B4308390B43136065
:10331000022393612368254A1A4080235B031343E9
:1033200023608023DB00A362FFF78AFE23681D4A27
:103330001A408023DB01134323608023A3622368A8
:10334000194A1A4080235B021343236080235B00E9
:10335000A3626DE70C21114A90241368E4058B43A6
:1033600008390B4313600223936223680F4A1A4003
:1033700080235B03134323608023DB00A362FFF7FA
:103380005FFE2368074A1A408023DB011343236052
:103390008023A361D3E7C046D85700080004004843
:1033A000FFFFF3FFFF3FFFFFFFFFFCFFFFFFCFFF2C
:1033B0000C211C4A1C4813688B4308390B431360CB
:1033C000022393619023DB0519680840802149039B
:1033D0000143196080210320C9009962116881436B
:1033E00002380143116090611A681049114080222F
:1033F000D2020A431A60802292009A621A680C492B
:1034000011408022D2010A431A6080229A611A6810
:1034100008491140802252020A431A608022520059
:103420009A62704700040048FFFFCFFFFFFFF3FFE1
:10343000FF3FFFFFFFFFFCFF10B5FFF75BFEFFF74D
:10344000FFFDFFF727FE10BD024B1A6800221A602D
:103450007047C04600040140164B1B78012B25D055
:10346000042B23D0022B1DD0052B1BD0032B0CD0FB
:10347000062B0AD0104B1B78002B0DD000220F4BCF
:103480009A6080229203DA60704741220C4B1A60E6
:10349000094B1B78002BF1D1084AD36080239B0392
:1034A0009360F1E76121064A1160DFE75121044A88
:1034B0001160D7E799010020860100200004014037
:1034C0001C0001400F4A104913680B4010210B43A8
:1034D00013600E4B0E391A690A431A611A698A433E
:1034E0001A6160220A4B01399A615D3A1A62094AEF
:1034F00012789A623D22DA62074A11705A690A43C9
:103500005A61704744000240EFBFFFFF00100240C5
:1035100000040040D0040020F10200200E4A0F49B0
:1035200013680B40022113600D4B1A690A431A619C
:103530001A698A431A610A220A4B013999611A628F
:10354000094A12789A62094ADA625A690A435A6148
:103550000022074B1A70704744000240EFBFFFFF84
:103560000010024000040040F0020020FFFF0000B5
:10357000F102002010B5FFF7D1FF0022194B1A48C5
:103580005A621A4B1A491A680240102A26D0194A60
:103590009A60D960154B18495A680968120C1204D0
:1035A0000A4302215A601A680A431A601A680631EF
:1035B0000A431A601A6807390A431A608022094BC5
:1035C0009200D8681043D860D8680243DA601A6A5B
:1035D0000A431A621A680A431A6010BD054ADA6083
:1035E0009960D7E70004004010400000440002400A
:1035F000D003002034040040B401002010B5FFF7D0
:1036000061FF194B19481A6819490240102A27D03E
:10361000184A9960DA601E21134B5A68120C120482
:103620000A435A601A681C390A431A601A6806313C
:103630000A431A601A6807390A431A6080220E4B3F
:103640009200D8680243DA601A6A0A431A6280223A
:10365000586C120202435A641A680A431A6010BD79
:10366000044AD9609A60D6E7440002401040000046
:10367000EC0000203404004000040040F0B50023BA
:10368000C646424A00B5424C13709046414A002556
:10369000137094462200404E404F4148337008CA90
:1036A00038607C341168CB1A834201D2180001259E
:1036B00004320B00A242F5D1002D58D0031F386010
:1036C000222B26D80023374A1370374A13702C2236
:1036D00001333370354B1A70354B364A1A60364B0E
:1036E000364A1A602022364B1A60364B1B78002B64
:1036F00007D1354B354AC318934227D80123424698
:103700001370431E9841C0B2314B187080BCB8464C
:10371000F0BD0300293B262B2FD80123214A33700B
:103720001370214A13702B4B2B4A5A622C221F4BC9
:103730001A701F4B1F4A1A601F4B204A1A60202222
:103740001F4B1A601F4B1B78002BDAD1234B98427A
:10375000D7DD0123624613702F22124B01201A700D
:10376000154B0C3A1A60164B203A1A60CCE7154BF1
:103770001B78002BEDD10A48E8E7124B1B78002B91
:10378000B7D0174B9842E4DCBBE7C046C10200202B
:10379000D0030020CD02002068020020C0010020DC
:1037A000204E0000F0020020D0040020B0010020D4
:1037B000B8010020E8FD0000C8000020102700002C
:1037C000B40100206402002047F4FFFFAA0D0000AE
:1037D000B402002000040040FFFF00006419000054
:1037E000B80B0000264B30B51A685968254D881A69
:1037F000FC22441983B09200944219D99868401A67
:103800004319934214D9204B18682049204A0B6869
:103810001268C41A944203DD9B180B6003B030BDDC
:103820001C1AA24202DA9B1A0B60F7E70860F5E760
:10383000184B1B78002B1BD0174B1A8882420AD3D7
:10384000164B1988FA239B000093002300F04CFFCD
:103850000D4B1860D9E7124B511C1C88FA23DB0072
:10386000009322000F4B00F03FFF074B1860CCE79E
:103870000B4B1A88094B1988FA23DB00E4E7C04692
:10388000D003002017FCFFFFCC030020BC02002067
:10389000BC01002054020020920100209001002071
:1038A0008E010020E903000010B52D4B1B78002B82
:1038B00003D02C4A1278002A06D12B4A1278002A0B
:1038C0003AD0012A07D010BD284B1B78002B1CD002
:1038D000FFF750FEF7E7002B08D1254A2549136072
:1038E0000A68002A2DDB2DD0234A13601D4B1B785C
:1038F000002B11D01D4B1B78002B28D0FDF740FF6B
:10390000FDF7D6FDFFF736FEDDE7FFF777FEFDF7A3
:1039100037FFFDF7CDFDD6E7184B1B78012B19D0EB
:10392000174B1B78012BCED1FFF75CFF0023154A04
:1039300053620F4A1360CBE7FFF7A0FEFFF71AFEB2
:10394000C1E70B600C4A136801331360CEE7FFF741
:1039500055FEB8E7FDF7ACFDFFF70CFEE0E7C0460B
:103960004402002078020020B4020020F10200206E
:10397000D0020020B0020020EC02002068020020EB
:10398000CD02002000040040F0B591B01C220021BF
:1039900009A8FDF75BFD8020434BC0019969002514
:1039A0000143996180219A69C90202400292029AF8
:1039B0005A6940270A435A615B6901260B4001930B
:1039C000019B0223394C049303A901333848059322
:1039D000069507960895039701F02CFB2368354A56
:1039E000C62013401022134323602368324AC021AB
:1039F00013402022236023688000934323602368C0
:103A00006032BB43236023680906134323602368A5
:103A10002A4A134023602368294A1340294A236015
:103A200013581B021B0A0B43135080231B05136002
:103A3000E1235B02099308230A950B950C950E95DB
:103A40000F95214D09A928000D9301F0C5F8AB6829
:103A50001E4A1F481340AB606B681E4A1E49134044
:103A60002A226B60AB689343AB602B681B4A1E43F2
:103A70002E6023680340102B13D0A160E2600B4B33
:103A800017495A680978120C12040A4302215A6035
:103A90001A680A431A601A6806310A431A6011B09C
:103AA000F0BDE160A260EAE7001002401C000240A5
:103AB00000040048EFBFFFFFFFCFFFFFFFFCFFFF49
:103AC000FFF3FFFF00E100E000380140FFFBFFFFD4
:103AD00010400000FFB7FFFFD40400202838014049
:103AE000C40100200C2008210D4B10B51A680D4CA4
:103AF00082430A430C491A604A682478120C120463
:103B0000224380244A609A6822439A600A687F3C74
:103B100022430A6004211A6882430A431A6010BDD6
:103B200000380140C40100201C000240F0B505AC83
:103B3000164E24880D0A3700B1703271110AB37124
:103B40001A0A230A7570F371072500233472307046
:103B5000F1707271741C09370822434004E0013A85
:103B6000D2B2DBB2002A09D059B25B000029F6DAE2
:103B7000013A6B40D2B2DBB2002AF5D1A74202D0A3
:103B800020780134E8E77372F0BDC046D404002009
:103B900010B572B60A23124C02206363A363E36379
:103BA000FFF716FB3723C820A36200F0BFFD0420F7
:103BB000FFF70EFB2823C820A36200F0B7FD012009
:103BC000FFF706FB1923C820A36200F0AFFDFFF743
:103BD000BBFA0023034AA362136062B610BDC0465D
:103BE000002C0140D002002070B572B63C23114C6D
:103BF000114D124E02202E60A362373B6363A36314
:103C0000E363FFF7E5FA4B2000F090FD50234B20D3
:103C1000A36200F08BFD5A234B20A3622E6000F0BC
:103C200085FDFFF791FA0023054AA362136062B68F
:103C300070BDC046002C014000300040AAAA000020
:103C4000D002002010B572B6104A114B114C1A6008
:103C50005023A3624B3B63630220A363E363FFF73C
:103C6000B7FA642000F062FD46236420A36200F0EE
:103C70005DFD28236420A36200F058FDFFF764FA7D
:103C80000023054AA362136062B610BDAAAA000011
:103C900000300040002C0140D00200200E4A0F4BA3
:103CA00010B51A6032230E4C0220A3622D3B6363D1
:103CB000A363E363FFF78CFA642000F037FD1E2353
:103CC0006420A36200F032FDFFF73EFA0023054AAC
:103CD000A362136010BDC046AAAA000000300040D5
:103CE000002C0140D00200200E4A0F4B10B51A6084
:103CF00028230E4C0220A362233B6363A363E36388
:103D0000FFF766FA642000F011FD50236420A362DF
:103D100000F00CFDFFF718FA0023054AA3621360B8
:103D200010BDC046AAAA000000300040002C01408F
:103D3000D0020020F8B572B6082377240E4D0F4F3D
:103D40000F4E6B63AB63EB63142120003E60FDF705
:103D50006DFAFFF73DFA63100A330A20AB62023CAA
:103D600000F0E4FC631CEFD1FFF7EEF90023054AF5
:103D7000AB62136062B6F8BD002C01400030004019
:103D8000AAAA0000D00200207047C046FEE7C04645
:103D90007047C0467047C0467047C0460B4B1A6814
:103DA00092060ED50A490A6801320A600021094AC2
:103DB0001170102201215A60074A13688B43136067
:103DC00070471A681206FBD5F3E7C04600000240B0
:103DD000F4020020CC0200201C0002400B4B10B566
:103DE0001A681A68920406D41A68120402D580224E
:103DF00052015A6010BD8022012152015A60044ACA
:103E000013688B431360FFF74FFDF3E70000024098
:103E1000440002408022054B9203596910B51142BB
:103E200000D110BD5A61FDF76FFFFAE700040140B1
:103E3000054B10B51A69D20700D410BD02225242B8
:103E40001A61FEF70FF8F8E700100040022210B5E3
:103E5000024B52421A61FDF715FF10BD00200040D1
:103E60007047C0467047C046074B1A69920702D593
:103E7000032252421A61044B1A69D20702D5022268
:103E800052421A617047C04600400140074B1A6910
:103E9000920702D5032252421A61044B1A69D207D3
:103EA00002D5022252421A617047C0460004004007
:103EB000084B10B51A68920706D40822054B1968FA
:103EC0000A4200D05A6010BD01225A6000F0DEFCA8
:103ED000F3E7C04600000240074B1A69920702D57B
:103EE000032252421A61044B1A69D20702D50222F8
:103EF00052421A617047C046002C014001223649E7
:103F000010B50B68934313430B600B681A425FD0E4
:103F10000121324A13680B431360013113681942BF
:103F2000FCD0F82113688B4378390B431360536B33
:103F30007F390B435363294A0131536B1942FCD03B
:103F4000F821536B8B4378390B435363536A7F39A2
:103F50000B435362214A0131536A1942FCD0536822
:103F60001F491940A0239B030B430F215360D36AC1
:103F70008B43D362802311685B040B438021136061
:103F8000164A890413680B42FCD0F0215368134C85
:103F90008B435360536813490B40032153605368AC
:103FA0008B4301390B4353600C2263681340082B89
:103FB000FBD10D4800F06CFE0B4800F079FE0422A6
:103FC000636B93436363236B013A9343236310BD95
:103FD000FFF734F89CE7C046002002400010024082
:103FE000FFFFC2FFFFF8FFFF006CDC0270B58EB070
:103FF0001822002102A8FDF729FA102200210AA8A0
:10400000FDF724FA80201A4A800251699025014365
:10401000516153690024034001930326019B02234D
:10402000ED0508A92800089309960C9401F002F800
:10403000202308A92800089309960C9400F0FAFFA1
:10404000C321FF200B4B89005A5882435A508022CB
:1040500052011A60502302A9074802940394049362
:1040600005940694079401F067F80EB070BDC04641
:104070000010024000E100E01C000140094B0A4A28
:1040800007211A60094A1A6002225A60FA221201B4
:104090009A60DA681142FCD1054A1A61054A1A6031
:1040A0007047C04600300040CCCC000055550000A1
:1040B000FF0F0000AAAA0000F0B5DE4657464E46A4
:1040C0004546E0B59DB01422002103A8FDF7BEF9D6
:1040D0002022002114A8FDF7B9F91822002108A810
:1040E000FDF7B4F9182200210EA8FDF7AFF98022E0
:1040F000794E1201B36900241343B361B36990464A
:1041000013400293029B6B469C81744B6A46059355
:104110000023734D03A9280013770494069400F03C
:10412000CDFD80222B68914613432B60AB686D4A0E
:10413000012113400822AB60AB6992461343AB6187
:10414000602314AA280014931594169417941894B5
:1041500019941A941B9400F0FBFD0422AB6993465A
:1041600093434246AB61AB6910211343AB6114AA80
:1041700028001594169400F0EBFD5146AB695A4A9D
:104180005A4F1340AB617B6828000B437B60802350
:104190005B009A4614AB1A0051461594169400F031
:1041A000D7FD59467B6828008B4341467B607B687E
:1041B00015940B4380217B6014AB1A0049011694BF
:1041C00000F0C6FD7B68484A2C21134070227B60BA
:1041D0006B68802793434A466B60AB68BF0193438B
:1041E0006A46AB602D23521813706B4608A928004D
:1041F000DC85089409940A940C970D9400F0BEFE97
:104200008021726989020A437261736902250B4039
:1042100080210193019B7269C9020A43726173692B
:1042200090260B400093009B4B46F6050EA93000EC
:104230000E930F95109411941294139500F0FAFEBA
:1042400001230E932A4B0EA9984618000F9510943F
:1042500011941294139500F0EDFE0EA940460E95B0
:104260000F95109411941294139500F0E3FE5346A9
:104270000EA930000E930F9510941194129413957B
:1042800000F0D8FE80230EA99B0030000E930F95FE
:10429000109411941294139500F0CCFE80230EA973
:1042A000DB0030000E930F95109411941294139527
:1042B00000F0C0FEC3200F4B80001A580E49114079
:1042C000802212020A431A501F601DB0F0BCBB4688
:1042D000B246A946A046F0BD00100240CF0700003C
:1042E000002C0140F8BFFFFFFFFBFFFF182C01402F
:1042F0000004004800E100E0FF00FFFF30B587B098
:1043000001AD142200212800FDF7A0F80123134A73
:104310008024D169E4051943D161D2692900134091
:104320000093009B17232B8000230D4A20006B6015
:10433000AA60EB6000F0C2FC802223680949934325
:104340002360A3680B407021A36063688B436360A4
:10435000A3689343A36007B030BDC046001002407D
:10436000FFFF0000F8BFFFFF30B587B001AD14229A
:1043700000212800FDF76AF81023C420134A8000AA
:10438000D169134C1943D161D2691249134000938A
:10439000009B114B1A581140802212020A431A50F6
:1043A000802292021A602F232B80002329006B6049
:1043B00020006433AB6000F081FC802223689343CB
:1043C0002360A3689343A36007B030BD0010024090
:1043D00000100040FF00FFFF00E100E030B587B0B3
:1043E00001AC142200212000FDF730F88020134A90
:1043F0004000D169124D0143D161C421D369114AF2
:10440000034000938900009B535828001B021B0A9D
:10441000535080231B0313601723FA2223800023A9
:10442000120121006360A260E36000F047FC80227B
:104430002B6813432B6007B030BDC046001002400C
:104440000020004000E100E010B586B014220021F9
:1044500001A8FCF7FBFF8020144A80029169144CEC
:1044600001439161936913490340C5200093009B68
:10447000114B80001A581140802212020A431A5030
:10448000802292031A6000236A4693800B4A200020
:1044900003926A4601A902930493137500F00EFC7F
:1044A000802223689343236006B010BD00100240B1
:1044B00000440140FF00FFFF00E100E0282300006E
:1044C00010B586B01422002101A8FCF7BFFF8020A0
:1044D0000E4AC00291690E4C0143916193696A468C
:1044E00003400093009B2F2393800A4A00230392EA
:1044F0006A46200001A902930493137500F0DEFBC5
:10450000802223689343236006B010BD0010024050
:1045100000480140FFFF00000123114A82B05169A9
:10452000104819435161C221526989001340019317
:10453000019B0D4B5A5810408022D20302435A501F
:1045400080228020D2001A605A58C0051202120A36
:1045500002435A50802212011A6002B07047C046CE
:1045600000100240FFFF00FF00E100E0002210B554
:10457000802488B0114B07925869A40220435861E7
:1045800080205969C0022140019101995969014374
:1045900059615B6902A903400093009B902080232E
:1045A000C0051B02836202930123049203930592C8
:1045B000069200F03FFD08B010BDC046001002405A
:1045C000F0B58FB01422002103A8FCF73FFF0222B0
:1045D00080203C4BC002D96900241143D961D969BC
:1045E00001251140029102995969802601435961C0
:1045F0005B6908A903400193019B1023324808938B
:1046000009920A940B940C940D9500F013FD2F4B16
:104610002F491A6880200A401A601A682D49FF271E
:104620000A4020211A601A6800018A431A601A6839
:1046300020318A431A601A682749B24332431A600C
:104640001A681140802252000A431A601A682349EE
:104650000A40C42102431A60214B89005A58BA43C8
:104660005A508022C227802152021A60BF00DA59B4
:10467000C9051202120A0A43DA5118606B469C817E
:104680003F236A460593002304940694154C03A91E
:104690002000137700F012FB03222368B34323604A
:1046A000A36993432B43A361A36909329343A36195
:1046B000A369E4329343A361236AE63A1343236276
:1046C0000FB0F0BD0010024000040048440002405A
:1046D000EFBFFFFFFFCFFFFFFFFCFFFFFFF3FFFF79
:1046E00000E100E00004004010B51C00884200DA40
:1046F00008001300824200DD030002985B1A001BD1
:104700005843511AFCF792FD001910BD0300401ADE
:1047100000D5C81A7047C0460023034A5362536A43
:104720008342FCD37047C04600480140002201216B
:10473000084B5A62084A9A625A690A435A615A6A8D
:104740008242FCD32F2201219A625A690A435A619C
:104750007047C046004801407FBB0000F0B54746A7
:10476000CE4680B585B016006A46CB0F5B185B104D
:1047700098465B000733DB08DB00D31A00AF9D4689
:104780006D460C008146424600212800FCF75EFE83
:10479000012C0BDD484600234178027809025C00B9
:1047A0000A4301332A5302309845F5DC4346012180
:1047B0002D4A7B60D3681942FCD113691B0605D5CD
:1047C0002A4B1B6853602A4B1B685360B30516D1F4
:1047D0000221254A13690B431361566113693E3167
:1047E0000B4313613F39D3681942FCD12023D168B0
:1047F0000B4236D102211C4A13698B4313610023FB
:10480000BB60FB60FB687A689A421FD901202022B6
:1048100015490B6903430B61FC68BB686400645B6A
:104820009B191C80CB681842FCD1CB681A4200D07F
:10483000CA600B6983430B61BB680233BB60FB68D2
:104840000133FB60FC687B689C42E2D38021BD465B
:10485000054A13690B43136105B0C0BCB946B046A5
:10486000F0BDD360C6E7C04600200240C80100206A
:10487000CC010020002A06DD5218401A0B78435460
:1048800001319142FAD170477047C046054B064A44
:10489000998811801988054A11805A88044B1A801A
:1048A0007047C046E0040020A80300201003002049
:1048B000B4030020C220124B80001A581149114045
:1048C000C02212020A431A508022032192001A6069
:1048D0000D4B0E4A9A600E4ADA605A68120C1204A6
:1048E0000A435A601A6801390A431A601A68063185
:1048F0000A431A601A6807390A431A607047C046AB
:1049000000E100E0FF00FFFF0800024040240140FA
:10491000E00400200023124A82B0019393681149F9
:10492000194080231B060B4393609368002BFCDB2C
:1049300001230193019B002B05D0019B013B0193B7
:10494000019B002BF9D1064A064993680B400121CF
:104950000B43936013681942FCD002B07047C04605
:1049600000240140E8FFFF7FF0B5C64600B592B0D5
:104970001022002103A8FCF769FD1422002107A8DA
:10498000FCF764FD102200210EA8FCF75FFD8020DB
:10499000424B8000996990240143996180219A6972
:1049A000890202400292029A5A6900250A435A611A
:1049B0005B6908260B400193019B03239846E4059D
:1049C0000CA9200040270D930C96109500F032FBA7
:1049D00043460CA920000D930C97109500F02AFB7C
:1049E0002F4B30491A68304C0A401A601A682F4918
:1049F00020000A4020211A601A680A431A601A68C7
:104A00006031BA431A601A680A431A601A68284962
:104A10001140802252000A431A601A682549114049
:104A20008022D2000A431A60A36A23493343A36257
:104A3000A36A3B43A3628023A26A5B021343A3627F
:104A40000B681E4A1A4080231B0413430B6080230B
:104A500003A91B06039304950595069500F0B8FA83
:104A6000012307A920000A930795089509950B953E
:104A700000F0C8FA04220721E3689343E360636906
:104A80008B4301390B4363616368934363606368DD
:104A9000B343636012B080BCB846F0BD0010024062
:104AA00008000240EFBFFFFF00240140FFCFFFFFDF
:104AB000FFFCFFFFFFF3FFFF08270140FFFF3FFE62
:104AC00080220C4B5202586870B51040424250414F
:104AD000094A40421040094A0F249446D96A60446A
:104AE000214001315D68FCF717FBAD0C2C4002340E
:104AF000604370BD0010024000F7C2FF00127A0050
:104B00000E4B10B55A680C2304001340082B11D02B
:104B10000B4B0A4923604A680A481206120F825C4E
:104B2000D34063604A6808495205520F8A5CD340FB
:104B3000A36010BDFFF7C4FF0300EAE700100240C6
:104B400000127A00F457000804580008030010B55A
:104B50000020002B1DD11C4A0333116B0B40022B8C
:104B600027D0032B1DD05268012B13D00C231340E8
:104B7000082B26D1FFF7A4FF134B14495A685B6832
:104B80001206120F8A5C5B05D040114A5B0FD35CA2
:104B9000D84010BD0B331340082B08D1FFF790FF0E
:104BA000F7E713680222100018401A42F1D00948B2
:104BB000EFE71800126A10401342EAD0802000028A
:104BC000E7E70448D8E7C04600100240F457000861
:104BD0000458000800127A0030B5036804000D0084
:104BE00085B0DB071DD44B68C96802680B4329698F
:104BF0000B43A9690B4320490A40134303604368F0
:104C00001E4A1340AA681343436083681C4A13403A
:104C10006A69134383601B4B984205D01A4B984234
:104C200018D0012005B030BD0020FFF78FFF00280D
:104C3000F7D029680029F4D08023AA691B029A4280
:104C40000DD04B081818FCF767FA0004000CE06060
:104C50000020E7E701A8FFF753FF0398E7E74B08B9
:104C60004000C018FCF758FA084B03400007400FFB
:104C70001843E0600020D5E7F369FFFFFFCFFFFF97
:104C8000FFFCFFFF0038014000440040F0FF00003F
:104C9000FA2110B58900FCF73FFA0022034B0138D6
:104CA00058609A6005321A6010BDC04610E000E0FE
:104CB000014B18607047C046D00100201D4A0368B0
:104CC000904226D08022D205904219D01A4A9042B2
:104CD00016D01A4A904217D0194A90421DD0194A4C
:104CE00090421AD0184A904217D003608B68C36272
:104CF0000B8883620122436913434361002070479C
:104D0000702293434A681343104A1340CA681343FE
:104D1000EBE7702293434A6813430C4A1340CA6876
:104D2000134303608B68C3620B8883620B7C03634D
:104D3000E0E7C046002C0140000400400020004095
:104D4000004001400044014000480140FFFCFFFFDB
:104D5000802370B55B00994200D175E041D80129EC
:104D600000D1B3E010296DD1036A784D8B43036203
:104D7000036A466884692C4015682D022C4320255F
:104D8000AB431D0013691B012B438B4351680D017D
:104D90006F492B43884208D06E49884205D06E493E
:104DA000884202D06D49884214D180218B431D0076
:104DB000536940399B012B438B4391688D016849AE
:104DC0002B430E409169674D890031432940D569D5
:104DD000EE000E43D2684660846182630362002065
:104DE00031E080235B0199422CD1016A5E4E574C21
:104DF00031400162036A4568C16921401468240298
:104E00000C435A49194013691B030B435168334043
:104E100009030B434E49884208D04E49884205D0C9
:104E20004D49884202D04D49884204D150490D4035
:104E3000916989010D43D2684560C46102640362CF
:104E4000002000E0012070BD7324016A494E31400A
:104E50000162036A4168C569A54314682543464C4D
:104E60001C4013691B02234354683340240223432C
:104E7000374CA0420FD0374CA0420CD0364CA04249
:104E800009D0364CA04206D0D2684160C561C263E9
:104E900003620020D7E7334E314C1E4053699B021A
:104EA0003343314E234094680E409169A40223435A
:104EB00009012E4C31432140D469D2686601314347
:104EC0004160C561C26303620020BCE77326036AC8
:104ED0008B430362036A44688569B54316683543AA
:104EE0000226B343166933438B4351680B43184979
:104EF00088420FD0174988420CD01749884209D000
:104F00001649884206D0D2684460856142630362D4
:104F1000002098E708218B43190053699B000B433D
:104F200004218B43916889000B4312490C4091691D
:104F30000C4311490C40D169D26849000C434460CC
:104F400085614263036200207DE7C046FF8CFFFF5E
:104F5000002C014000400140004401400048014055
:104F6000FFFBFFFFFFF7FFFFFFEFFFFFFFDFFFFF8D
:104F7000FFBFFFFFFFFEFFFFFFFDFFFF8A680B7B08
:104F800013430D4A13404A6813430C4A13400A68FE
:104F900013430B4A1A40CB8913430A4A13400A6948
:104FA0001343094A13404A69084913430B4013430A
:104FB000436400207047C046FFFBFFFFFFF7FFFF81
:104FC000FFEFFFFFFFDFFFFFFFBFFFFFFF7FFFFFE1
:104FD0008268030010B50120D20710D48C684A689B
:104FE000D8682243CC6809682243054C204002431C
:104FF0000020DA601A69920092080A431A6110BD13
:10500000C73FFFFF8368020010B50120DB070ED405
:105010004C680B68D06823438C682343CC680969CB
:1050200023430B430249014000200B43D36010BDD2
:105030003CC2FEFFF0B5DE4657464E464546E0B55B
:105040000A684B6883B0002A00D172E09C460123B5
:1050500001245B4263449846A34600230AE00E699C
:10506000C56874434E4635402C43C4601400013378
:10507000DC4041D05C4615009C4025402242F5D0E2
:105080002C006C436700BA46A2445746FF43B9461A
:1050900057460668BE43674667433E43066046463A
:1050A000012EDCD88668B2468E6857466643019664
:1050B0004E4637403E00019F37438760C6684F46E3
:1050C000B2460E6966430196564637403E00019F40
:1050D00037436646C760022EC8D1FF2D1DD86443F2
:1050E000056A2601361BB5434E69013374432C43D0
:1050F00004621400DC40BDD14346012B05D843684F
:10510000C96893434A431A434260002003B0F0BC8D
:10511000BB46B246A946A046F0BD2D0A6D436D437D
:10512000446A2E01761BB4434E697543254345629C
:105130009CE7013B9846DFE71B4B30B5C218802344
:10514000D2001B029340194C25681D40AB4215D07C
:10515000A04215D04D680B6820682B438D682B4307
:10516000CD682B430D6949692B430B43104993408C
:105170009140884303430020236030BD0120FCE7B9
:105180004D680B6804682B438D682B43CD682B4317
:105190000D6949692B430B430649934091408C4369
:1051A000234303600020E8E7E4FFFEBF1C0001404A
:1051B0007C3F00007E3F0000F8B5C046F8BC08BC4C
:1051C0009E467047F8B5C046F8BC08BC9E4670477E
:1051D0007816000804170008FE160008F8160008E4
:1051E000781600087816000878160008EA160008F5
:1051F000DC160008CC160008BA160008781600085D
:105200000A170008781600087816000878160008B3
:105210007816000878160008781600087816000836
:10522000AC16000870160008191B12131D1516176E
:105230001A090A0B1E0D0E0FB4000000B700000083
:10524000BA000000BD000000C1000000C400000062
:10525000C7000000CA000000CD000000D000000020
:10526000D3000000D6000000D9000000DC000000E0
:10527000E0000000E3000000E6000000E90000009C
:10528000EC000000EF000000F2000000F50000005C
:10529000F7000000FA000000FD000000000100001F
:1052A0000301000006010000090100000B010000DD
:1052B0000E010000110100001301000016010000A2
:1052C000190100001B0100001E0100002001000068
:1052D0002301000025010000280100002A01000030
:1052E0002C0100002F0100003101000033010000FB
:1052F00035010000380100003A0100003C010000C7
:105300003E01000040010000420100004401000095
:105310004601000047010000490100004B01000068
:105320004D0100004E01000050010000510100003D
:105330005301000054010000560100005701000015
:10534000580100005A0100005B0100005C010000F0
:105350005D0100005E0100005F01000060010000CF
:1053600061010000620100006301000063010000B0
:105370006401000065010000650100006601000095
:10538000660100006701000067010000670100007E
:105390006801000068010000680100006801000069
:1053A0006801000068010000680100006801000059
:1053B000680100006701000067010000670100004C
:1053C0006601000066010000650100006501000043
:1053D000640100006301000063010000620100003D
:1053E00061010000600100005F0100005E0100003B
:1053F0005D0100005C0100005B0100005A0100003B
:10540000580100005701000056010000540100003F
:105410005301000051010000500100004E01000046
:105420004D0100004B010000490100004701000050
:10543000460100004401000042010000400100005C
:105440003E0100003C0100003A010000380100006C
:105450003501000033010000310100002F01000080
:105460002C0100002A010000280100002501000095
:1054700023010000200100001E0100001B010000AC
:1054800019010000160100001301000011010000C5
:105490000E0100000B0100000901000006010000E0
:1054A0000301000000010000FD000000FA00000000
:1054B000F7000000F5000000F2000000EF0000001F
:1054C000EC000000E9000000E6000000E30000003E
:1054D000E0000000DC000000D9000000D600000061
:1054E000D3000000D0000000CD000000CA00000082
:1054F000C7000000C4000000C1000000BD000000A3
:10550000BA000000B7000000B4000000B1000000C5
:10551000AE000000AB000000A7000000A4000000E7
:10552000A10000009E0000009B0000009800000009
:1055300095000000920000008F0000008C00000029
:105540008800000085000000820000007F0000004D
:105550007C0000007900000076000000730000006D
:10556000710000006E0000006B0000006800000089
:1055700065000000620000005F0000005D000000A8
:105580005A000000570000005500000052000000C3
:105590004F0000004D0000004A00000048000000DD
:1055A0004500000043000000400000003E000000F5
:1055B0003C0000003900000037000000350000000A
:1055C00033000000300000002E0000002C0000001E
:1055D0002A0000002800000026000000240000002F
:1055E00022000000210000001F0000001D0000003C
:1055F0001B0000001A000000180000001700000047
:10560000150000001400000012000000110000004E
:10561000100000000E0000000D0000000C00000053
:105620000B0000000A000000090000000800000054
:105630000700000006000000050000000500000053
:10564000040000000300000003000000020000004E
:105650000200000001000000010000000100000045
:10566000000000000000000000000000000000003A
:10567000000000000000000000000000000000002A
:105680000000000001000000010000000100000017
:105690000200000002000000030000000300000000
:1056A00004000000050000000500000006000000E6
:1056B0000700000008000000090000000A000000C8
:1056C0000B0000000C0000000D0000000E000000A8
:1056D0001000000011000000120000001400000083
:1056E0001500000017000000180000001A0000005C
:1056F0001B0000001D0000001F0000002100000032
:105700002200000024000000260000002800000005
:105710002A0000002C0000002E00000030000000D5
:1057200033000000350000003700000039000000A1
:105730003C0000003E00000040000000430000006C
:1057400045000000480000004A0000004D00000035
:105750004F000000520000005500000057000000FC
:105760005A0000005D0000005F00000062000000C1
:1057700065000000680000006B0000006E00000083
:105780007100000073000000760000007900000046
:105790007C0000007F000000820000008500000007
:1057A000880000008C0000008F00000092000000C4
:1057B00095000000980000009B0000009E00000083
:1057C000A1000000A4000000A7000000AB00000042
:1057D000AE000000B1000000303200083232000894
:1057E00072320008C4320008FE3200085433000848
:1057F000DE31000800000000000000000102030488
:0C58000006070809000000000102030474
:04580C00F910000887
:04581000D1100008AB
:10581400CF07010206000000E80300000A000000B0
:1058240005000000D4300100CF0700000100000093
:1058340005000000010000003C0000000000000022
:105844000000000000000000000000000000000054
:105854000000000000000000000000000000000044
:1058640000000000000000004000000000000000F4
:1058740000000000000000000000000040000000E4
:105884000000000000000000000000000000000014
:1058940040000000000000000000000000000000C4
:1058A4004000000040000000000000004000000034
:1058B4000000000046000000140000001400000076
:1058C400010201000700000007000000B40000000E
:1058D4002D00D0070E0101000100000064006C07D8
:1058E4004C04DC0578000000230100006400000083
:1058F40001000000CF07000090010000CF07320034
:105904002C0000002000000024F40000FA00000035
:10591400204E00000A00000023016745AB89EFCD4B
:0459240000127A00F3
:040000050800145D7E
:00000001FF
